{
  "abi": [
    {
      "inputs": [
        {
          "internalType": "address",
          "name": "_admin",
          "type": "address"
        },
        {
          "internalType": "address",
          "name": "_uniRouter",
          "type": "address"
        },
        {
          "internalType": "address",
          "name": "_wimx",
          "type": "address"
        }
      ],
      "stateMutability": "nonpayable",
      "type": "constructor"
    },
    {
      "inputs": [],
      "name": "ContractPaused",
      "type": "error"
    },
    {
      "inputs": [],
      "name": "DeadlinePassed",
      "type": "error"
    },
    {
      "inputs": [],
      "name": "FailedToRefundNativeTokens",
      "type": "error"
    },
    {
      "inputs": [
        {
          "internalType": "address payable",
          "name": "recipient",
          "type": "address"
        },
        {
          "internalType": "uint256",
          "name": "amount",
          "type": "uint256"
        }
      ],
      "name": "FailedToSendFees",
      "type": "error"
    },
    {
      "inputs": [
        {
          "internalType": "uint256",
          "name": "required",
          "type": "uint256"
        },
        {
          "internalType": "uint256",
          "name": "actual",
          "type": "uint256"
        }
      ],
      "name": "FailedToUnwrapNativeTokens",
      "type": "error"
    },
    {
      "inputs": [],
      "name": "FailedToWithdrawNativeTokens",
      "type": "error"
    },
    {
      "inputs": [],
      "name": "FeeTooHigh",
      "type": "error"
    },
    {
      "inputs": [],
      "name": "IncorrectRecipient",
      "type": "error"
    },
    {
      "inputs": [],
      "name": "InputTokenNotWrapped",
      "type": "error"
    },
    {
      "inputs": [],
      "name": "NativeTokenAmountMismatch",
      "type": "error"
    },
    {
      "inputs": [],
      "name": "Unauthorized",
      "type": "error"
    },
    {
      "anonymous": false,
      "inputs": [
        {
          "indexed": true,
          "internalType": "address",
          "name": "feeToken",
          "type": "address"
        },
        {
          "indexed": true,
          "internalType": "address",
          "name": "feePayer",
          "type": "address"
        },
        {
          "indexed": true,
          "internalType": "address",
          "name": "feeRecipient",
          "type": "address"
        },
        {
          "indexed": false,
          "internalType": "uint256",
          "name": "feeAmount",
          "type": "uint256"
        }
      ],
      "name": "FeeTaken",
      "type": "event"
    },
    {
      "anonymous": false,
      "inputs": [
        {
          "indexed": true,
          "internalType": "address",
          "name": "feePayer",
          "type": "address"
        },
        {
          "indexed": true,
          "internalType": "address",
          "name": "feeRecipient",
          "type": "address"
        },
        {
          "indexed": false,
          "internalType": "uint256",
          "name": "feeAmount",
          "type": "uint256"
        }
      ],
      "name": "FeeTaken",
      "type": "event"
    },
    {
      "anonymous": false,
      "inputs": [
        {
          "indexed": false,
          "internalType": "address",
          "name": "account",
          "type": "address"
        }
      ],
      "name": "Paused",
      "type": "event"
    },
    {
      "anonymous": false,
      "inputs": [
        {
          "indexed": true,
          "internalType": "bytes32",
          "name": "role",
          "type": "bytes32"
        },
        {
          "indexed": true,
          "internalType": "bytes32",
          "name": "previousAdminRole",
          "type": "bytes32"
        },
        {
          "indexed": true,
          "internalType": "bytes32",
          "name": "newAdminRole",
          "type": "bytes32"
        }
      ],
      "name": "RoleAdminChanged",
      "type": "event"
    },
    {
      "anonymous": false,
      "inputs": [
        {
          "indexed": true,
          "internalType": "bytes32",
          "name": "role",
          "type": "bytes32"
        },
        {
          "indexed": true,
          "internalType": "address",
          "name": "account",
          "type": "address"
        },
        {
          "indexed": true,
          "internalType": "address",
          "name": "sender",
          "type": "address"
        }
      ],
      "name": "RoleGranted",
      "type": "event"
    },
    {
      "anonymous": false,
      "inputs": [
        {
          "indexed": true,
          "internalType": "bytes32",
          "name": "role",
          "type": "bytes32"
        },
        {
          "indexed": true,
          "internalType": "address",
          "name": "account",
          "type": "address"
        },
        {
          "indexed": true,
          "internalType": "address",
          "name": "sender",
          "type": "address"
        }
      ],
      "name": "RoleRevoked",
      "type": "event"
    },
    {
      "anonymous": false,
      "inputs": [
        {
          "indexed": false,
          "internalType": "address",
          "name": "account",
          "type": "address"
        }
      ],
      "name": "Unpaused",
      "type": "event"
    },
    {
      "inputs": [],
      "name": "DEFAULT_ADMIN_ROLE",
      "outputs": [
        {
          "internalType": "bytes32",
          "name": "",
          "type": "bytes32"
        }
      ],
      "stateMutability": "view",
      "type": "function"
    },
    {
      "inputs": [
        {
          "components": [
            {
              "internalType": "address payable",
              "name": "recipient",
              "type": "address"
            },
            {
              "internalType": "uint256",
              "name": "feeBasisPoints",
              "type": "uint256"
            }
          ],
          "internalType": "struct IImmutableSwapProxy.SecondaryFeeParams[]",
          "name": "secondaryFees",
          "type": "tuple[]"
        },
        {
          "components": [
            {
              "internalType": "address",
              "name": "tokenIn",
              "type": "address"
            },
            {
              "internalType": "address",
              "name": "tokenOut",
              "type": "address"
            },
            {
              "internalType": "uint24",
              "name": "fee",
              "type": "uint24"
            },
            {
              "internalType": "address",
              "name": "recipient",
              "type": "address"
            },
            {
              "internalType": "uint256",
              "name": "amountIn",
              "type": "uint256"
            },
            {
              "internalType": "uint256",
              "name": "amountOutMinimum",
              "type": "uint256"
            },
            {
              "internalType": "uint160",
              "name": "sqrtPriceLimitX96",
              "type": "uint160"
            }
          ],
          "internalType": "struct IV3SwapRouter.ExactInputSingleParams",
          "name": "swapParams",
          "type": "tuple"
        }
      ],
      "name": "exactInputSingleWithSecondaryFee",
      "outputs": [
        {
          "internalType": "uint256",
          "name": "amountOut",
          "type": "uint256"
        }
      ],
      "stateMutability": "payable",
      "type": "function"
    },
    {
      "inputs": [
        {
          "components": [
            {
              "internalType": "address payable",
              "name": "recipient",
              "type": "address"
            },
            {
              "internalType": "uint256",
              "name": "feeBasisPoints",
              "type": "uint256"
            }
          ],
          "internalType": "struct IImmutableSwapProxy.SecondaryFeeParams[]",
          "name": "secondaryFees",
          "type": "tuple[]"
        },
        {
          "components": [
            {
              "internalType": "bytes",
              "name": "path",
              "type": "bytes"
            },
            {
              "internalType": "address",
              "name": "recipient",
              "type": "address"
            },
            {
              "internalType": "uint256",
              "name": "amountIn",
              "type": "uint256"
            },
            {
              "internalType": "uint256",
              "name": "amountOutMinimum",
              "type": "uint256"
            }
          ],
          "internalType": "struct IV3SwapRouter.ExactInputParams",
          "name": "swapParams",
          "type": "tuple"
        }
      ],
      "name": "exactInputWithSecondaryFee",
      "outputs": [
        {
          "internalType": "uint256",
          "name": "amountOut",
          "type": "uint256"
        }
      ],
      "stateMutability": "payable",
      "type": "function"
    },
    {
      "inputs": [
        {
          "components": [
            {
              "internalType": "address payable",
              "name": "recipient",
              "type": "address"
            },
            {
              "internalType": "uint256",
              "name": "feeBasisPoints",
              "type": "uint256"
            }
          ],
          "internalType": "struct IImmutableSwapProxy.SecondaryFeeParams[]",
          "name": "secondaryFees",
          "type": "tuple[]"
        },
        {
          "components": [
            {
              "internalType": "address",
              "name": "tokenIn",
              "type": "address"
            },
            {
              "internalType": "address",
              "name": "tokenOut",
              "type": "address"
            },
            {
              "internalType": "uint24",
              "name": "fee",
              "type": "uint24"
            },
            {
              "internalType": "address",
              "name": "recipient",
              "type": "address"
            },
            {
              "internalType": "uint256",
              "name": "amountOut",
              "type": "uint256"
            },
            {
              "internalType": "uint256",
              "name": "amountInMaximum",
              "type": "uint256"
            },
            {
              "internalType": "uint160",
              "name": "sqrtPriceLimitX96",
              "type": "uint160"
            }
          ],
          "internalType": "struct IV3SwapRouter.ExactOutputSingleParams",
          "name": "swapParams",
          "type": "tuple"
        }
      ],
      "name": "exactOutputSingleWithSecondaryFee",
      "outputs": [
        {
          "internalType": "uint256",
          "name": "amountIn",
          "type": "uint256"
        }
      ],
      "stateMutability": "payable",
      "type": "function"
    },
    {
      "inputs": [
        {
          "components": [
            {
              "internalType": "address payable",
              "name": "recipient",
              "type": "address"
            },
            {
              "internalType": "uint256",
              "name": "feeBasisPoints",
              "type": "uint256"
            }
          ],
          "internalType": "struct IImmutableSwapProxy.SecondaryFeeParams[]",
          "name": "secondaryFees",
          "type": "tuple[]"
        },
        {
          "components": [
            {
              "internalType": "bytes",
              "name": "path",
              "type": "bytes"
            },
            {
              "internalType": "address",
              "name": "recipient",
              "type": "address"
            },
            {
              "internalType": "uint256",
              "name": "amountOut",
              "type": "uint256"
            },
            {
              "internalType": "uint256",
              "name": "amountInMaximum",
              "type": "uint256"
            }
          ],
          "internalType": "struct IV3SwapRouter.ExactOutputParams",
          "name": "swapParams",
          "type": "tuple"
        }
      ],
      "name": "exactOutputWithSecondaryFee",
      "outputs": [
        {
          "internalType": "uint256",
          "name": "amountIn",
          "type": "uint256"
        }
      ],
      "stateMutability": "payable",
      "type": "function"
    },
    {
      "inputs": [
        {
          "internalType": "bytes32",
          "name": "role",
          "type": "bytes32"
        }
      ],
      "name": "getRoleAdmin",
      "outputs": [
        {
          "internalType": "bytes32",
          "name": "",
          "type": "bytes32"
        }
      ],
      "stateMutability": "view",
      "type": "function"
    },
    {
      "inputs": [
        {
          "internalType": "bytes32",
          "name": "role",
          "type": "bytes32"
        },
        {
          "internalType": "address",
          "name": "account",
          "type": "address"
        }
      ],
      "name": "grantRole",
      "outputs": [],
      "stateMutability": "nonpayable",
      "type": "function"
    },
    {
      "inputs": [
        {
          "internalType": "bytes32",
          "name": "role",
          "type": "bytes32"
        },
        {
          "internalType": "address",
          "name": "account",
          "type": "address"
        }
      ],
      "name": "hasRole",
      "outputs": [
        {
          "internalType": "bool",
          "name": "",
          "type": "bool"
        }
      ],
      "stateMutability": "view",
      "type": "function"
    },
    {
      "inputs": [
        {
          "internalType": "uint256",
          "name": "deadline",
          "type": "uint256"
        },
        {
          "internalType": "bytes[]",
          "name": "data",
          "type": "bytes[]"
        }
      ],
      "name": "multicall",
      "outputs": [
        {
          "internalType": "bytes[]",
          "name": "",
          "type": "bytes[]"
        }
      ],
      "stateMutability": "payable",
      "type": "function"
    },
    {
      "inputs": [
        {
          "internalType": "bytes[]",
          "name": "data",
          "type": "bytes[]"
        }
      ],
      "name": "multicall",
      "outputs": [
        {
          "internalType": "bytes[]",
          "name": "results",
          "type": "bytes[]"
        }
      ],
      "stateMutability": "nonpayable",
      "type": "function"
    },
    {
      "inputs": [],
      "name": "pause",
      "outputs": [],
      "stateMutability": "nonpayable",
      "type": "function"
    },
    {
      "inputs": [],
      "name": "paused",
      "outputs": [
        {
          "internalType": "bool",
          "name": "",
          "type": "bool"
        }
      ],
      "stateMutability": "view",
      "type": "function"
    },
    {
      "inputs": [
        {
          "internalType": "bytes32",
          "name": "role",
          "type": "bytes32"
        },
        {
          "internalType": "address",
          "name": "account",
          "type": "address"
        }
      ],
      "name": "renounceRole",
      "outputs": [],
      "stateMutability": "nonpayable",
      "type": "function"
    },
    {
      "inputs": [
        {
          "internalType": "bytes32",
          "name": "role",
          "type": "bytes32"
        },
        {
          "internalType": "address",
          "name": "account",
          "type": "address"
        }
      ],
      "name": "revokeRole",
      "outputs": [],
      "stateMutability": "nonpayable",
      "type": "function"
    },
    {
      "inputs": [
        {
          "internalType": "bytes4",
          "name": "interfaceId",
          "type": "bytes4"
        }
      ],
      "name": "supportsInterface",
      "outputs": [
        {
          "internalType": "bool",
          "name": "",
          "type": "bool"
        }
      ],
      "stateMutability": "view",
      "type": "function"
    },
    {
      "inputs": [],
      "name": "unpause",
      "outputs": [],
      "stateMutability": "nonpayable",
      "type": "function"
    },
    {
      "inputs": [
        {
          "internalType": "uint256",
          "name": "amountMinimum",
          "type": "uint256"
        }
      ],
      "name": "unwrapNativeToken",
      "outputs": [],
      "stateMutability": "payable",
      "type": "function"
    },
    {
      "inputs": [
        {
          "internalType": "address",
          "name": "to",
          "type": "address"
        },
        {
          "internalType": "address",
          "name": "erc20",
          "type": "address"
        }
      ],
      "name": "withdrawFunds",
      "outputs": [],
      "stateMutability": "nonpayable",
      "type": "function"
    },
    {
      "inputs": [
        {
          "internalType": "address",
          "name": "to",
          "type": "address"
        }
      ],
      "name": "withdrawFunds",
      "outputs": [],
      "stateMutability": "nonpayable",
      "type": "function"
    },
    {
      "stateMutability": "payable",
      "type": "receive"
    }
  ],
  "bytecode": {
    "object": "0x60806040523480156200001157600080fd5b50604051620034dd380380620034dd83398101604081905262000034916200015c565b6001805460ff191690556200004b6000846200009e565b600180546001600160a01b039384166101008102610100600160a81b03199092169190911790915560038054929093166001600160a01b03199283161790925560028054909116909117905550620001a6565b6000828152602081815260408083206001600160a01b038516845290915290205460ff166200013b576000828152602081815260408083206001600160a01b03851684529091529020805460ff19166001179055620000fa3390565b6001600160a01b0316816001600160a01b0316837f2f8788117e7eff1d82e926ec794901d17c78024a50270940304540a733656f0d60405160405180910390a45b5050565b80516001600160a01b03811681146200015757600080fd5b919050565b6000806000606084860312156200017257600080fd5b6200017d846200013f565b92506200018d602085016200013f565b91506200019d604085016200013f565b90509250925092565b61332780620001b66000396000f3fe6080604052600436106101175760003560e01c806358e81a50116100a05780638456cb59116100645780638456cb59146102c457806391d14854146102d9578063a217fddf146102f9578063ac9650d81461030e578063d547741f1461032e57600080fd5b806358e81a50146102465780635ae401dc146102595780635c975abb146102795780635ebca7991461029157806368742da6146102a457600080fd5b80632f2ff15d116100e75780632f2ff15d146101cb57806336568abe146101eb578063383ebb0b1461020b5780633f4ba83a1461021e5780635640f6591461023357600080fd5b80620fa9fb1461012357806301ffc9a714610145578063116944b21461017a578063248a9ca31461019b57600080fd5b3661011e57005b600080fd5b34801561012f57600080fd5b5061014361013e366004612ab8565b61034e565b005b34801561015157600080fd5b50610165610160366004612af1565b61041a565b60405190151581526020015b60405180910390f35b61018d610188366004612c89565b610451565b604051908152602001610171565b3480156101a757600080fd5b5061018d6101b6366004612cde565b60009081526020819052604090206001015490565b3480156101d757600080fd5b506101436101e6366004612cf7565b610771565b3480156101f757600080fd5b50610143610206366004612cf7565b610796565b61018d610219366004612ddf565b610819565b34801561022a57600080fd5b50610143610b86565b61018d610241366004612ddf565b610bd6565b61018d610254366004612c89565b610ee4565b61026c610267366004612e8b565b61121e565b6040516101719190612f26565b34801561028557600080fd5b5060015460ff16610165565b61014361029f366004612cde565b611255565b3480156102b057600080fd5b506101436102bf366004612f88565b6113ad565b3480156102d057600080fd5b50610143611428565b3480156102e557600080fd5b506101656102f4366004612cf7565b611476565b34801561030557600080fd5b5061018d600081565b34801561031a57600080fd5b5061026c610329366004612fa5565b61149f565b34801561033a57600080fd5b50610143610349366004612cf7565b611593565b6103787f7a8dc26796a1e50e6e190b70259f58f6a4edd5b22280ceecc82b687b8e98286933611476565b610394576040516282b42960e81b815260040160405180910390fd5b6040516370a0823160e01b81523060048201526000906001600160a01b038316906370a0823190602401602060405180830381865afa1580156103db573d6000803e3d6000fd5b505050506040513d601f19601f820116820180604052508101906103ff9190612fe6565b90506104156001600160a01b03831684836115b8565b505050565b60006001600160e01b03198216637965db0b60e01b148061044b57506301ffc9a760e01b6001600160e01b03198316145b92915050565b600061045f60015460ff1690565b1561047d5760405163ab35696f60e01b815260040160405180910390fd5b61048a826060015161161b565b6104a75760405163519bdea760e01b815260040160405180910390fd5b608082015134801561065a57836080015181146104d7576040516342f7487960e11b815260040160405180910390fd5b60035484516001600160a01b03908116911614610507576040516324d0121760e01b815260040160405180910390fd5b60008061056f866000015187608001518a8a808060200260200160405190810160405280939291908181526020016000905b828210156105655761055660408302860136819003810190612fff565b81526020019060010190610539565b5050505050611641565b608088018290526001546040516304e45aaf60e01b815292945090925061010090046001600160a01b0316906304e45aaf9084906105b1908a90600401613056565b60206040518083038185885af11580156105cf573d6000803e3d6000fd5b50505050506040513d601f19601f820116820180604052508101906105f49190612fe6565b945061065384828a8a808060200260200160405190810160405280939291908181526020016000905b828210156106495761063a60408302860136819003810190612fff565b8152602001906001019061061d565b5050505050611679565b5050610768565b6000806106b8866000015187608001518a8a808060200260200160405190810160405280939291908181526020016000905b82821015610565576106a960408302860136819003810190612fff565b8152602001906001019061068c565b60808801829052875191935091506106db906001600160a01b031633308561170c565b6001546040516304e45aaf60e01b81526101009091046001600160a01b0316906304e45aaf9061070f908990600401613056565b6020604051808303816000875af115801561072e573d6000803e3d6000fd5b505050506040513d601f19601f820116820180604052508101906107529190612fe6565b9450610765866000015185838b8b61174a565b50505b50509392505050565b60008281526020819052604090206001015461078c8161184b565b6104158383611855565b6001600160a01b038116331461080b5760405162461bcd60e51b815260206004820152602f60248201527f416363657373436f6e74726f6c3a2063616e206f6e6c792072656e6f756e636560448201526e103937b632b9903337b91039b2b63360891b60648201526084015b60405180910390fd5b61081582826118d9565b5050565b600061082760015460ff1690565b156108455760405163ab35696f60e01b815260040160405180910390fd5b610852826020015161161b565b61086f5760405163519bdea760e01b815260040160405180910390fd5b600061087e836000015161193e565b606084015190915034908115610a30576003546001600160a01b038481169116146108bc576040516324d0121760e01b815260040160405180910390fd5b846060015182146108e0576040516342f7487960e11b815260040160405180910390fd5b600061094286606001518989808060200260200160405190810160405280939291908181526020016000905b828210156109385761092960408302860136819003810190612fff565b8152602001906001019061090c565b5050505050611974565b606087018190526001546040516304dc09a360e11b81529192506000916101009091046001600160a01b0316906309b81346908490610985908b906004016130fc565b60206040518083038185885af11580156109a3573d6000803e3d6000fd5b50505050506040513d601f19601f820116820180604052508101906109c89190612fe6565b9050610a2781848b8b808060200260200160405190810160405280939291908181526020016000905b82821015610a1d57610a0e60408302860136819003810190612fff565b815260200190600101906109f1565b50505050506119c3565b95505050610b7c565b6000610a938487606001518a8a808060200260200160405190810160405280939291908181526020016000905b82821015610a8957610a7a60408302860136819003810190612fff565b81526020019060010190610a5d565b5050505050611aab565b606087018190526001546040516304dc09a360e11b81529192506000916101009091046001600160a01b0316906309b8134690610ad4908a906004016130fc565b6020604051808303816000875af1158015610af3573d6000803e3d6000fd5b505050506040513d601f19601f82011682018060405250810190610b179190612fe6565b9050610b778582858c8c808060200260200160405190810160405280939291908181526020016000905b82821015610b6d57610b5e60408302860136819003810190612fff565b81526020019060010190610b41565b5050505050611b03565b955050505b5050509392505050565b610bb07fe7276a2a84d8de556657ec9cf93a55a7d66f096e529d0582ed08e9e2208b92b533611476565b610bcc576040516282b42960e81b815260040160405180910390fd5b610bd4611b57565b565b6000610be460015460ff1690565b15610c025760405163ab35696f60e01b815260040160405180910390fd5b610c0f826020015161161b565b610c2c5760405163519bdea760e01b815260040160405180910390fd5b6000610c3b8360000151611ba9565b6040840151909150348015610dd75784604001518114610c6e576040516342f7487960e11b815260040160405180910390fd5b6003546001600160a01b03848116911614610c9c576040516324d0121760e01b815260040160405180910390fd5b600080610cf68588604001518b8b808060200260200160405190810160405280939291908181526020016000905b8282101561056557610ce760408302860136819003810190612fff565b81526020019060010190610cca565b6040898101839052600154905163b858183f60e01b815292945090925061010090046001600160a01b03169063b858183f908490610d38908b906004016130fc565b60206040518083038185885af1158015610d56573d6000803e3d6000fd5b50505050506040513d601f19601f82011682018060405250810190610d7b9190612fe6565b9550610dd084828b8b808060200260200160405190810160405280939291908181526020016000905b8282101561064957610dc160408302860136819003810190612fff565b81526020019060010190610da4565b5050610b7c565b600080610e318588604001518b8b808060200260200160405190810160405280939291908181526020016000905b8282101561056557610e2260408302860136819003810190612fff565b81526020019060010190610e05565b604089018290529092509050610e526001600160a01b03861633308561170c565b60015460405163b858183f60e01b81526101009091046001600160a01b03169063b858183f90610e86908a906004016130fc565b6020604051808303816000875af1158015610ea5573d6000803e3d6000fd5b505050506040513d601f19601f82011682018060405250810190610ec99190612fe6565b9550610ed88585838c8c61174a565b50505050509392505050565b6000610ef260015460ff1690565b15610f105760405163ab35696f60e01b815260040160405180910390fd5b610f1d826060015161161b565b610f3a5760405163519bdea760e01b815260040160405180910390fd5b60a0820151349081156110d75760035484516001600160a01b03908116911614610f77576040516324d0121760e01b815260040160405180910390fd5b8360a001518214610f9b576040516342f7487960e11b815260040160405180910390fd5b6000610ff38560a001518888808060200260200160405190810160405280939291908181526020016000905b8282101561093857610fe460408302860136819003810190612fff565b81526020019060010190610fc7565b60a08601819052600154604051635023b4df60e01b81529192506000916101009091046001600160a01b031690635023b4df908490611036908a90600401613056565b60206040518083038185885af1158015611054573d6000803e3d6000fd5b50505050506040513d601f19601f820116820180604052508101906110799190612fe6565b90506110ce81848a8a808060200260200160405190810160405280939291908181526020016000905b82821015610a1d576110bf60408302860136819003810190612fff565b815260200190600101906110a2565b94505050610768565b600061113485600001518660a001518989808060200260200160405190810160405280939291908181526020016000905b82821015610a895761112560408302860136819003810190612fff565b81526020019060010190611108565b60a08601819052600154604051635023b4df60e01b81529192506000916101009091046001600160a01b031690635023b4df90611175908990600401613056565b6020604051808303816000875af1158015611194573d6000803e3d6000fd5b505050506040513d601f19601f820116820180604052508101906111b89190612fe6565b9050611212866000015182858b8b808060200260200160405190810160405280939291908181526020016000905b82821015610b6d5761120360408302860136819003810190612fff565b815260200190600101906111e6565b98975050505050505050565b6060834211156112415760405163387b2e5560e11b815260040160405180910390fd5b61124b838361149f565b90505b9392505050565b60015460ff16156112795760405163ab35696f60e01b815260040160405180910390fd5b6003546040516370a0823160e01b81523060048201526000916001600160a01b0316906370a0823190602401602060405180830381865afa1580156112c2573d6000803e3d6000fd5b505050506040513d601f19601f820116820180604052508101906112e69190612fe6565b905081811015611313576040516342fb4ceb60e11b81526004810183905260248101829052604401610802565b801561081557600354604051632e1a7d4d60e01b8152600481018390526001600160a01b0390911690632e1a7d4d90602401600060405180830381600087803b15801561135f57600080fd5b505af1158015611373573d6000803e3d6000fd5b5050505060006113833383611bb5565b905080610415576040516342fb4ceb60e11b81526004810184905260248101839052604401610802565b6113d77f7a8dc26796a1e50e6e190b70259f58f6a4edd5b22280ceecc82b687b8e98286933611476565b6113f3576040516282b42960e81b815260040160405180910390fd5b47156114255760006114058247611bb5565b90508061081557604051633398652560e11b815260040160405180910390fd5b50565b6114527ffcb9fcbfa83b897fb2d5cf4b58962164105c1e71489a37ef3ae0db3fdce576f633611476565b61146e576040516282b42960e81b815260040160405180910390fd5b610bd4611c5f565b6000918252602082815260408084206001600160a01b0393909316845291905290205460ff1690565b6060816001600160401b038111156114b9576114b9612b66565b6040519080825280602002602001820160405280156114ec57816020015b60608152602001906001900390816114d75790505b50905060005b8281101561158c5761155c308585848181106115105761151061310f565b90506020028101906115229190613125565b8080601f016020809104026020016040519081016040528093929190818152602001838380828437600092019190915250611c9a92505050565b82828151811061156e5761156e61310f565b6020026020010181905250808061158490613181565b9150506114f2565b5092915050565b6000828152602081905260409020600101546115ae8161184b565b61041583836118d9565b6040516001600160a01b03831660248201526044810182905261041590849063a9059cbb60e01b906064015b60408051601f198184030181529190526020810180516001600160e01b03166001600160e01b031990931692909217909152611cbf565b60006001600160a01b03821633148061044b57506001600160a01b038216301492915050565b60008061164d83611d94565b506116588484611e07565b509050611665818561319a565b91506116718583611f30565b935093915050565b600061168361202d565b905060006116928583866120a4565b90506000806116a18386611e07565b915091506116ae816120d0565b8315611703576000826116c1858a61319a565b6116cb919061319a565b905080156117015760006116df3383611bb5565b9050806116ff576040516382e4f46960e01b815260040160405180910390fd5b505b505b50505050505050565b6040516001600160a01b03808516602483015283166044820152606481018290526117449085906323b872dd60e01b906084016115e4565b50505050565b6040516370a0823160e01b81523060048201526000906001600160a01b038716906370a0823190602401602060405180830381865afa158015611791573d6000803e3d6000fd5b505050506040513d601f19601f820116820180604052508101906117b59190612fe6565b905060006117c48683876120a4565b90506000611824828686808060200260200160405190810160405280939291908181526020016000905b8282101561181a5761180b60408302860136819003810190612fff565b815260200190600101906117ee565b5050505050611e07565b91505061183188826121af565b8215611701576117016001600160a01b03891633856115b8565b61142581336122b8565b61185f8282611476565b610815576000828152602081815260408083206001600160a01b03851684529091529020805460ff191660011790556118953390565b6001600160a01b0316816001600160a01b0316837f2f8788117e7eff1d82e926ec794901d17c78024a50270940304540a733656f0d60405160405180910390a45050565b6118e38282611476565b15610815576000828152602081815260408083206001600160a01b0385168085529252808320805460ff1916905551339285917ff6391f5c32d9c69d2a47ea670b442974b53935d1edc7fd64eb21e047a839171b9190a45050565b6000806014835161194f919061319a565b9050600061195f84836014612311565b905061196c81600061241e565b949350505050565b60008061198083611d94565b90506000611990826127106131ad565b905060006119a18661271084612483565b6003549091506119ba906001600160a01b031682611f30565b95945050505050565b60008060006119d28685611e07565b915091506119df816120d0565b600260009054906101000a90046001600160a01b03166001600160a01b03166312210e8a6040518163ffffffff1660e01b8152600401600060405180830381600087803b158015611a2f57600080fd5b505af1158015611a43573d6000803e3d6000fd5b505050506000828787611a56919061319a565b611a60919061319a565b90508015611a96576000611a743383611bb5565b905080611a94576040516382e4f46960e01b815260040160405180910390fd5b505b611aa083886131ad565b979650505050505050565b600080611ab783611d94565b90506000611ac7826127106131ad565b90506000611ad88661271084612483565b9050611ae48782611f30565b611af96001600160a01b03881633308961170c565b9695505050505050565b6000806000611b128685611e07565b91509150611b2087826124c3565b600082611b2d888861319a565b611b37919061319a565b9050611b4d6001600160a01b03891633836115b8565b61121283886131ad565b611b5f6125ca565b6001805460ff191690557f5db9ee0a495bf2e6ff9c91a7834c1ba4fdd244a5e8aa4e537bd38aeae4b073aa335b6040516001600160a01b03909116815260200160405180910390a1565b600061044b828261241e565b600081471015611c075760405162461bcd60e51b815260206004820152601d60248201527f416464726573733a20696e73756666696369656e742062616c616e63650000006044820152606401610802565b6040516001600160a01b038416908390600081818185875af1925050503d8060008114611c50576040519150601f19603f3d011682016040523d82523d6000602084013e611c55565b606091505b5090949350505050565b611c67612613565b6001805460ff1916811790557f62e78cea01bee320cd4e420270b5ea74000d11b0c9f74754ebdbfc544b05a25833611b8c565b606061124e83836040518060600160405280602781526020016132cb60279139612659565b6000611d14826040518060400160405280602081526020017f5361666545524332303a206c6f772d6c6576656c2063616c6c206661696c6564815250856001600160a01b03166126c79092919063ffffffff16565b9050805160001480611d35575080806020019051810190611d3591906131c0565b6104155760405162461bcd60e51b815260206004820152602a60248201527f5361666545524332303a204552433230206f7065726174696f6e20646964206e6044820152691bdd081cdd58d8d9595960b21b6064820152608401610802565b6000805b8251811015611dde57828181518110611db357611db361310f565b60200260200101516020015182611dca91906131ad565b915080611dd681613181565b915050611d98565b506103e8811115611e025760405163cd4e616760e01b815260040160405180910390fd5b919050565b6000606082516001600160401b03811115611e2457611e24612b66565b604051908082528060200260200182016040528015611e6957816020015b6040805180820190915260008082526020820152815260200190600190039081611e425790505b50905060005b8351811015611f28576000611eae858381518110611e8f57611e8f61310f565b602002602001015160200151612710886126d69092919063ffffffff16565b90506040518060400160405280868481518110611ecd57611ecd61310f565b6020026020010151600001516001600160a01b0316815260200182815250838381518110611efd57611efd61310f565b6020908102919091010152611f1281856131ad565b9350508080611f2090613181565b915050611e6f565b509250929050565b600154604051636eb1769f60e11b81523060048201526001600160a01b0361010090920482166024820152829184169063dd62ed3e90604401602060405180830381865afa158015611f86573d6000803e3d6000fd5b505050506040513d601f19601f82011682018060405250810190611faa9190612fe6565b10156108155760015460405163095ea7b360e01b81526101009091046001600160a01b039081166004830152600019602483015283169063095ea7b3906044016020604051808303816000875af1158015612009573d6000803e3d6000fd5b505050506040513d601f19601f8201168201806040525081019061041591906131c0565b60025460408051630910874560e11b8152905160009247926001600160a01b03909116916312210e8a91600480820192879290919082900301818387803b15801561207757600080fd5b505af115801561208b573d6000803e3d6000fd5b5047925061209d91508390508261319a565b9250505090565b600082156120c857816120b7848661319a565b6120c1919061319a565b905061124e565b509192915050565b60005b81518110156108155760008282815181106120f0576120f061310f565b60200260200101519050600061210e82600001518360200151611bb5565b90508061214557815160208301516040516208c3b360e61b81526001600160a01b0390921660048301526024820152604401610802565b81600001516001600160a01b0316336001600160a01b03167fe0e765ab26c1caf691c510426951246128b96830e49cc81d8c093fd551abac35846020015160405161219291815260200190565b60405180910390a3505080806121a790613181565b9150506120d3565b60005b815181101561041557612215338383815181106121d1576121d161310f565b6020026020010151600001518484815181106121ef576121ef61310f565b602002602001015160200151866001600160a01b031661170c909392919063ffffffff16565b8181815181106122275761222761310f565b6020026020010151600001516001600160a01b0316336001600160a01b0316846001600160a01b03167f1f9a9fdac86b6ca3c5300bec0b61555cded1f1a234378602dcca6c27085eac8e8585815181106122835761228361310f565b60200260200101516020015160405161229e91815260200190565b60405180910390a4806122b081613181565b9150506121b2565b6122c28282611476565b610815576122cf81612778565b6122da83602061278a565b6040516020016122eb9291906131e2565b60408051601f198184030181529082905262461bcd60e51b825261080291600401613257565b60608161231f81601f6131ad565b101561235e5760405162461bcd60e51b815260206004820152600e60248201526d736c6963655f6f766572666c6f7760901b6044820152606401610802565b61236882846131ad565b845110156123ac5760405162461bcd60e51b8152602060048201526011602482015270736c6963655f6f75744f66426f756e647360781b6044820152606401610802565b6060821580156123cb5760405191506000825260208201604052612415565b6040519150601f8416801560200281840101858101878315602002848b0101015b818310156124045780518352602092830192016123ec565b5050858452601f01601f1916604052505b50949350505050565b600061242b8260146131ad565b835110156124735760405162461bcd60e51b8152602060048201526015602482015274746f416464726573735f6f75744f66426f756e647360581b6044820152606401610802565b500160200151600160601b900490565b60006124908484846126d6565b9050600082806124a2576124a261326a565b848609111561124e5760001981106124b957600080fd5b6001019392505050565b60005b8151811015610415576125278282815181106124e4576124e461310f565b6020026020010151600001518383815181106125025761250261310f565b602002602001015160200151856001600160a01b03166115b89092919063ffffffff16565b8181815181106125395761253961310f565b6020026020010151600001516001600160a01b0316336001600160a01b0316846001600160a01b03167f1f9a9fdac86b6ca3c5300bec0b61555cded1f1a234378602dcca6c27085eac8e8585815181106125955761259561310f565b6020026020010151602001516040516125b091815260200190565b60405180910390a4806125c281613181565b9150506124c6565b60015460ff16610bd45760405162461bcd60e51b815260206004820152601460248201527314185d5cd8589b194e881b9bdd081c185d5cd95960621b6044820152606401610802565b60015460ff1615610bd45760405162461bcd60e51b815260206004820152601060248201526f14185d5cd8589b194e881c185d5cd95960821b6044820152606401610802565b6060600080856001600160a01b0316856040516126769190613280565b600060405180830381855af49150503d80600081146126b1576040519150601f19603f3d011682016040523d82523d6000602084013e6126b6565b606091505b5091509150611af986838387612925565b606061124b848460008561299e565b600083830281600019858709828110838203039150508084116126f857600080fd5b8060000361270b5750829004905061124e565b6000848688096000868103871696879004966002600389028118808a02820302808a02820302808a02820302808a02820302808a02820302808a02909103029181900381900460010186841190950394909402919094039290920491909117919091029150509392505050565b606061044b6001600160a01b03831660145b6060600061279983600261329c565b6127a49060026131ad565b6001600160401b038111156127bb576127bb612b66565b6040519080825280601f01601f1916602001820160405280156127e5576020820181803683370190505b509050600360fc1b816000815181106128005761280061310f565b60200101906001600160f81b031916908160001a905350600f60fb1b8160018151811061282f5761282f61310f565b60200101906001600160f81b031916908160001a905350600061285384600261329c565b61285e9060016131ad565b90505b60018111156128d6576f181899199a1a9b1b9c1cb0b131b232b360811b85600f16601081106128925761289261310f565b1a60f81b8282815181106128a8576128a861310f565b60200101906001600160f81b031916908160001a90535060049490941c936128cf816132b3565b9050612861565b50831561124e5760405162461bcd60e51b815260206004820181905260248201527f537472696e67733a20686578206c656e67746820696e73756666696369656e746044820152606401610802565b6060831561299457825160000361298d576001600160a01b0385163b61298d5760405162461bcd60e51b815260206004820152601d60248201527f416464726573733a2063616c6c20746f206e6f6e2d636f6e74726163740000006044820152606401610802565b508161196c565b61196c8383612a6e565b6060824710156129ff5760405162461bcd60e51b815260206004820152602660248201527f416464726573733a20696e73756666696369656e742062616c616e636520666f6044820152651c8818d85b1b60d21b6064820152608401610802565b600080866001600160a01b03168587604051612a1b9190613280565b60006040518083038185875af1925050503d8060008114612a58576040519150601f19603f3d011682016040523d82523d6000602084013e612a5d565b606091505b5091509150611aa087838387612925565b815115612a7e5781518083602001fd5b8060405162461bcd60e51b81526004016108029190613257565b6001600160a01b038116811461142557600080fd5b8035611e0281612a98565b60008060408385031215612acb57600080fd5b8235612ad681612a98565b91506020830135612ae681612a98565b809150509250929050565b600060208284031215612b0357600080fd5b81356001600160e01b03198116811461124e57600080fd5b60008083601f840112612b2d57600080fd5b5081356001600160401b03811115612b4457600080fd5b6020830191508360208260061b8501011115612b5f57600080fd5b9250929050565b634e487b7160e01b600052604160045260246000fd5b60405160e081016001600160401b0381118282101715612b9e57612b9e612b66565b60405290565b604051608081016001600160401b0381118282101715612b9e57612b9e612b66565b604051601f8201601f191681016001600160401b0381118282101715612bee57612bee612b66565b604052919050565b600060e08284031215612c0857600080fd5b612c10612b7c565b90508135612c1d81612a98565b81526020820135612c2d81612a98565b6020820152604082013562ffffff81168114612c4857600080fd5b6040820152612c5960608301612aad565b60608201526080820135608082015260a082013560a0820152612c7e60c08301612aad565b60c082015292915050565b60008060006101008486031215612c9f57600080fd5b83356001600160401b03811115612cb557600080fd5b612cc186828701612b1b565b9094509250612cd590508560208601612bf6565b90509250925092565b600060208284031215612cf057600080fd5b5035919050565b60008060408385031215612d0a57600080fd5b823591506020830135612ae681612a98565b600060808284031215612d2e57600080fd5b612d36612ba4565b905081356001600160401b0380821115612d4f57600080fd5b818401915084601f830112612d6357600080fd5b8135602082821115612d7757612d77612b66565b612d89601f8301601f19168201612bc6565b92508183528681838601011115612d9f57600080fd5b81818501828501376000818385010152828552612dbd818701612aad565b8186015250505050604082013560408201526060820135606082015292915050565b600080600060408486031215612df457600080fd5b83356001600160401b0380821115612e0b57600080fd5b612e1787838801612b1b565b90955093506020860135915080821115612e3057600080fd5b50612e3d86828701612d1c565b9150509250925092565b60008083601f840112612e5957600080fd5b5081356001600160401b03811115612e7057600080fd5b6020830191508360208260051b8501011115612b5f57600080fd5b600080600060408486031215612ea057600080fd5b8335925060208401356001600160401b03811115612ebd57600080fd5b612ec986828701612e47565b9497909650939450505050565b60005b83811015612ef1578181015183820152602001612ed9565b50506000910152565b60008151808452612f12816020860160208601612ed6565b601f01601f19169290920160200192915050565b6000602080830181845280855180835260408601915060408160051b870101925083870160005b82811015612f7b57603f19888603018452612f69858351612efa565b94509285019290850190600101612f4d565b5092979650505050505050565b600060208284031215612f9a57600080fd5b813561124e81612a98565b60008060208385031215612fb857600080fd5b82356001600160401b03811115612fce57600080fd5b612fda85828601612e47565b90969095509350505050565b600060208284031215612ff857600080fd5b5051919050565b60006040828403121561301157600080fd5b604051604081018181106001600160401b038211171561303357613033612b66565b604052823561304181612a98565b81526020928301359281019290925250919050565b60e0810161044b828480516001600160a01b03908116835260208083015182169084015260408083015162ffffff16908401526060808301518216908401526080808301519084015260a0828101519084015260c09182015116910152565b60008151608084526130ca6080850182612efa565b6020848101516001600160a01b0316908601526040808501519086015260609384015193909401929092525090919050565b60208152600061124e60208301846130b5565b634e487b7160e01b600052603260045260246000fd5b6000808335601e1984360301811261313c57600080fd5b8301803591506001600160401b0382111561315657600080fd5b602001915036819003821315612b5f57600080fd5b634e487b7160e01b600052601160045260246000fd5b6000600182016131935761319361316b565b5060010190565b8181038181111561044b5761044b61316b565b8082018082111561044b5761044b61316b565b6000602082840312156131d257600080fd5b8151801515811461124e57600080fd5b7f416363657373436f6e74726f6c3a206163636f756e742000000000000000000081526000835161321a816017850160208801612ed6565b7001034b99036b4b9b9b4b733903937b6329607d1b601791840191820152835161324b816028840160208801612ed6565b01602801949350505050565b60208152600061124e6020830184612efa565b634e487b7160e01b600052601260045260246000fd5b60008251613292818460208701612ed6565b9190910192915050565b808202811582820484141761044b5761044b61316b565b6000816132c2576132c261316b565b50600019019056fe416464726573733a206c6f772d6c6576656c2064656c65676174652063616c6c206661696c6564a2646970667358221220162c0f9d1b47c666f486fc65c7c7502bb0e7378e3166be6f93d98943154831c364736f6c63430008130033",
    "linkReferences": {}
  },
  "methodIdentifiers": {
    "DEFAULT_ADMIN_ROLE()": "a217fddf",
    "exactInputSingleWithSecondaryFee((address,uint256)[],(address,address,uint24,address,uint256,uint256,uint160))": "116944b2",
    "exactInputWithSecondaryFee((address,uint256)[],(bytes,address,uint256,uint256))": "5640f659",
    "exactOutputSingleWithSecondaryFee((address,uint256)[],(address,address,uint24,address,uint256,uint256,uint160))": "58e81a50",
    "exactOutputWithSecondaryFee((address,uint256)[],(bytes,address,uint256,uint256))": "383ebb0b",
    "getRoleAdmin(bytes32)": "248a9ca3",
    "grantRole(bytes32,address)": "2f2ff15d",
    "hasRole(bytes32,address)": "91d14854",
    "multicall(bytes[])": "ac9650d8",
    "multicall(uint256,bytes[])": "5ae401dc",
    "pause()": "8456cb59",
    "paused()": "5c975abb",
    "renounceRole(bytes32,address)": "36568abe",
    "revokeRole(bytes32,address)": "d547741f",
    "supportsInterface(bytes4)": "01ffc9a7",
    "unpause()": "3f4ba83a",
    "unwrapNativeToken(uint256)": "5ebca799",
    "withdrawFunds(address)": "68742da6",
    "withdrawFunds(address,address)": "000fa9fb"
  },
  "id": 48
}