{
  "abi": [
    {
      "inputs": [
        {
          "internalType": "address",
          "name": "_admin",
          "type": "address"
        },
        {
          "internalType": "address",
          "name": "_uniRouter",
          "type": "address"
        }
      ],
      "stateMutability": "nonpayable",
      "type": "constructor"
    },
    {
      "anonymous": false,
      "inputs": [
        {
          "indexed": true,
          "internalType": "address",
          "name": "feeToken",
          "type": "address"
        },
        {
          "indexed": true,
          "internalType": "address",
          "name": "feePayer",
          "type": "address"
        },
        {
          "indexed": true,
          "internalType": "address",
          "name": "feeRecipient",
          "type": "address"
        },
        {
          "indexed": false,
          "internalType": "uint256",
          "name": "feeAmount",
          "type": "uint256"
        }
      ],
      "name": "FeeTaken",
      "type": "event"
    },
    {
      "anonymous": false,
      "inputs": [
        {
          "indexed": false,
          "internalType": "address",
          "name": "account",
          "type": "address"
        }
      ],
      "name": "Paused",
      "type": "event"
    },
    {
      "anonymous": false,
      "inputs": [
        {
          "indexed": true,
          "internalType": "bytes32",
          "name": "role",
          "type": "bytes32"
        },
        {
          "indexed": true,
          "internalType": "bytes32",
          "name": "previousAdminRole",
          "type": "bytes32"
        },
        {
          "indexed": true,
          "internalType": "bytes32",
          "name": "newAdminRole",
          "type": "bytes32"
        }
      ],
      "name": "RoleAdminChanged",
      "type": "event"
    },
    {
      "anonymous": false,
      "inputs": [
        {
          "indexed": true,
          "internalType": "bytes32",
          "name": "role",
          "type": "bytes32"
        },
        {
          "indexed": true,
          "internalType": "address",
          "name": "account",
          "type": "address"
        },
        {
          "indexed": true,
          "internalType": "address",
          "name": "sender",
          "type": "address"
        }
      ],
      "name": "RoleGranted",
      "type": "event"
    },
    {
      "anonymous": false,
      "inputs": [
        {
          "indexed": true,
          "internalType": "bytes32",
          "name": "role",
          "type": "bytes32"
        },
        {
          "indexed": true,
          "internalType": "address",
          "name": "account",
          "type": "address"
        },
        {
          "indexed": true,
          "internalType": "address",
          "name": "sender",
          "type": "address"
        }
      ],
      "name": "RoleRevoked",
      "type": "event"
    },
    {
      "anonymous": false,
      "inputs": [
        {
          "indexed": false,
          "internalType": "address",
          "name": "account",
          "type": "address"
        }
      ],
      "name": "Unpaused",
      "type": "event"
    },
    {
      "inputs": [],
      "name": "BASIS_POINT_PRECISION",
      "outputs": [
        {
          "internalType": "uint256",
          "name": "",
          "type": "uint256"
        }
      ],
      "stateMutability": "view",
      "type": "function"
    },
    {
      "inputs": [],
      "name": "DEFAULT_ADMIN_ROLE",
      "outputs": [
        {
          "internalType": "bytes32",
          "name": "",
          "type": "bytes32"
        }
      ],
      "stateMutability": "view",
      "type": "function"
    },
    {
      "inputs": [],
      "name": "FEE_BASIS_POINTS_MAXIMUM",
      "outputs": [
        {
          "internalType": "uint16",
          "name": "",
          "type": "uint16"
        }
      ],
      "stateMutability": "view",
      "type": "function"
    },
    {
      "inputs": [],
      "name": "PAUSE",
      "outputs": [
        {
          "internalType": "bytes32",
          "name": "",
          "type": "bytes32"
        }
      ],
      "stateMutability": "view",
      "type": "function"
    },
    {
      "inputs": [],
      "name": "UNPAUSE",
      "outputs": [
        {
          "internalType": "bytes32",
          "name": "",
          "type": "bytes32"
        }
      ],
      "stateMutability": "view",
      "type": "function"
    },
    {
      "inputs": [],
      "name": "WITHDRAW",
      "outputs": [
        {
          "internalType": "bytes32",
          "name": "",
          "type": "bytes32"
        }
      ],
      "stateMutability": "view",
      "type": "function"
    },
    {
      "inputs": [
        {
          "components": [
            {
              "internalType": "address",
              "name": "recipient",
              "type": "address"
            },
            {
              "internalType": "uint256",
              "name": "feeBasisPoints",
              "type": "uint256"
            }
          ],
          "internalType": "struct ISecondaryFee.SecondaryFeeParams[]",
          "name": "secondaryFees",
          "type": "tuple[]"
        },
        {
          "components": [
            {
              "internalType": "address",
              "name": "tokenIn",
              "type": "address"
            },
            {
              "internalType": "address",
              "name": "tokenOut",
              "type": "address"
            },
            {
              "internalType": "uint24",
              "name": "fee",
              "type": "uint24"
            },
            {
              "internalType": "address",
              "name": "recipient",
              "type": "address"
            },
            {
              "internalType": "uint256",
              "name": "amountIn",
              "type": "uint256"
            },
            {
              "internalType": "uint256",
              "name": "amountOutMinimum",
              "type": "uint256"
            },
            {
              "internalType": "uint160",
              "name": "sqrtPriceLimitX96",
              "type": "uint160"
            }
          ],
          "internalType": "struct IV3SwapRouter.ExactInputSingleParams",
          "name": "swapParams",
          "type": "tuple"
        }
      ],
      "name": "exactInputSingleWithSecondaryFee",
      "outputs": [
        {
          "internalType": "uint256",
          "name": "amountOut",
          "type": "uint256"
        }
      ],
      "stateMutability": "payable",
      "type": "function"
    },
    {
      "inputs": [
        {
          "components": [
            {
              "internalType": "address",
              "name": "recipient",
              "type": "address"
            },
            {
              "internalType": "uint256",
              "name": "feeBasisPoints",
              "type": "uint256"
            }
          ],
          "internalType": "struct ISecondaryFee.SecondaryFeeParams[]",
          "name": "secondaryFees",
          "type": "tuple[]"
        },
        {
          "components": [
            {
              "internalType": "bytes",
              "name": "path",
              "type": "bytes"
            },
            {
              "internalType": "address",
              "name": "recipient",
              "type": "address"
            },
            {
              "internalType": "uint256",
              "name": "amountIn",
              "type": "uint256"
            },
            {
              "internalType": "uint256",
              "name": "amountOutMinimum",
              "type": "uint256"
            }
          ],
          "internalType": "struct IV3SwapRouter.ExactInputParams",
          "name": "swapParams",
          "type": "tuple"
        }
      ],
      "name": "exactInputWithSecondaryFee",
      "outputs": [
        {
          "internalType": "uint256",
          "name": "amountOut",
          "type": "uint256"
        }
      ],
      "stateMutability": "payable",
      "type": "function"
    },
    {
      "inputs": [
        {
          "components": [
            {
              "internalType": "address",
              "name": "recipient",
              "type": "address"
            },
            {
              "internalType": "uint256",
              "name": "feeBasisPoints",
              "type": "uint256"
            }
          ],
          "internalType": "struct ISecondaryFee.SecondaryFeeParams[]",
          "name": "secondaryFees",
          "type": "tuple[]"
        },
        {
          "components": [
            {
              "internalType": "address",
              "name": "tokenIn",
              "type": "address"
            },
            {
              "internalType": "address",
              "name": "tokenOut",
              "type": "address"
            },
            {
              "internalType": "uint24",
              "name": "fee",
              "type": "uint24"
            },
            {
              "internalType": "address",
              "name": "recipient",
              "type": "address"
            },
            {
              "internalType": "uint256",
              "name": "amountOut",
              "type": "uint256"
            },
            {
              "internalType": "uint256",
              "name": "amountInMaximum",
              "type": "uint256"
            },
            {
              "internalType": "uint160",
              "name": "sqrtPriceLimitX96",
              "type": "uint160"
            }
          ],
          "internalType": "struct IV3SwapRouter.ExactOutputSingleParams",
          "name": "swapParams",
          "type": "tuple"
        }
      ],
      "name": "exactOutputSingleWithSecondaryFee",
      "outputs": [
        {
          "internalType": "uint256",
          "name": "",
          "type": "uint256"
        }
      ],
      "stateMutability": "payable",
      "type": "function"
    },
    {
      "inputs": [
        {
          "components": [
            {
              "internalType": "address",
              "name": "recipient",
              "type": "address"
            },
            {
              "internalType": "uint256",
              "name": "feeBasisPoints",
              "type": "uint256"
            }
          ],
          "internalType": "struct ISecondaryFee.SecondaryFeeParams[]",
          "name": "secondaryFees",
          "type": "tuple[]"
        },
        {
          "components": [
            {
              "internalType": "bytes",
              "name": "path",
              "type": "bytes"
            },
            {
              "internalType": "address",
              "name": "recipient",
              "type": "address"
            },
            {
              "internalType": "uint256",
              "name": "amountOut",
              "type": "uint256"
            },
            {
              "internalType": "uint256",
              "name": "amountInMaximum",
              "type": "uint256"
            }
          ],
          "internalType": "struct IV3SwapRouter.ExactOutputParams",
          "name": "swapParams",
          "type": "tuple"
        }
      ],
      "name": "exactOutputWithSecondaryFee",
      "outputs": [
        {
          "internalType": "uint256",
          "name": "",
          "type": "uint256"
        }
      ],
      "stateMutability": "payable",
      "type": "function"
    },
    {
      "inputs": [
        {
          "internalType": "bytes32",
          "name": "role",
          "type": "bytes32"
        }
      ],
      "name": "getRoleAdmin",
      "outputs": [
        {
          "internalType": "bytes32",
          "name": "",
          "type": "bytes32"
        }
      ],
      "stateMutability": "view",
      "type": "function"
    },
    {
      "inputs": [
        {
          "internalType": "bytes32",
          "name": "role",
          "type": "bytes32"
        },
        {
          "internalType": "address",
          "name": "account",
          "type": "address"
        }
      ],
      "name": "grantRole",
      "outputs": [],
      "stateMutability": "nonpayable",
      "type": "function"
    },
    {
      "inputs": [
        {
          "internalType": "bytes32",
          "name": "role",
          "type": "bytes32"
        },
        {
          "internalType": "address",
          "name": "account",
          "type": "address"
        }
      ],
      "name": "hasRole",
      "outputs": [
        {
          "internalType": "bool",
          "name": "",
          "type": "bool"
        }
      ],
      "stateMutability": "view",
      "type": "function"
    },
    {
      "inputs": [
        {
          "internalType": "uint256",
          "name": "deadline",
          "type": "uint256"
        },
        {
          "internalType": "bytes[]",
          "name": "data",
          "type": "bytes[]"
        }
      ],
      "name": "multicall",
      "outputs": [
        {
          "internalType": "bytes[]",
          "name": "",
          "type": "bytes[]"
        }
      ],
      "stateMutability": "payable",
      "type": "function"
    },
    {
      "inputs": [
        {
          "internalType": "bytes[]",
          "name": "data",
          "type": "bytes[]"
        }
      ],
      "name": "multicall",
      "outputs": [
        {
          "internalType": "bytes[]",
          "name": "results",
          "type": "bytes[]"
        }
      ],
      "stateMutability": "nonpayable",
      "type": "function"
    },
    {
      "inputs": [],
      "name": "pause",
      "outputs": [],
      "stateMutability": "nonpayable",
      "type": "function"
    },
    {
      "inputs": [],
      "name": "paused",
      "outputs": [
        {
          "internalType": "bool",
          "name": "",
          "type": "bool"
        }
      ],
      "stateMutability": "view",
      "type": "function"
    },
    {
      "inputs": [
        {
          "internalType": "bytes32",
          "name": "role",
          "type": "bytes32"
        },
        {
          "internalType": "address",
          "name": "account",
          "type": "address"
        }
      ],
      "name": "renounceRole",
      "outputs": [],
      "stateMutability": "nonpayable",
      "type": "function"
    },
    {
      "inputs": [
        {
          "internalType": "bytes32",
          "name": "role",
          "type": "bytes32"
        },
        {
          "internalType": "address",
          "name": "account",
          "type": "address"
        }
      ],
      "name": "revokeRole",
      "outputs": [],
      "stateMutability": "nonpayable",
      "type": "function"
    },
    {
      "inputs": [
        {
          "internalType": "bytes4",
          "name": "interfaceId",
          "type": "bytes4"
        }
      ],
      "name": "supportsInterface",
      "outputs": [
        {
          "internalType": "bool",
          "name": "",
          "type": "bool"
        }
      ],
      "stateMutability": "view",
      "type": "function"
    },
    {
      "inputs": [],
      "name": "uniswapRouter",
      "outputs": [
        {
          "internalType": "contract IV3SwapRouter",
          "name": "",
          "type": "address"
        }
      ],
      "stateMutability": "view",
      "type": "function"
    },
    {
      "inputs": [],
      "name": "unpause",
      "outputs": [],
      "stateMutability": "nonpayable",
      "type": "function"
    },
    {
      "inputs": [
        {
          "internalType": "address",
          "name": "to",
          "type": "address"
        },
        {
          "internalType": "address",
          "name": "erc20",
          "type": "address"
        }
      ],
      "name": "withdrawFunds",
      "outputs": [],
      "stateMutability": "nonpayable",
      "type": "function"
    }
  ],
  "bytecode": {
    "object": "0x60806040523480156200001157600080fd5b506040516200278438038062002784833981016040819052620000349162000136565b6001805460ff191690556200004b60008362000078565b600180546001600160a01b0390921661010002610100600160a81b0319909216919091179055506200016e565b6000828152602081815260408083206001600160a01b038516845290915290205460ff1662000115576000828152602081815260408083206001600160a01b03851684529091529020805460ff19166001179055620000d43390565b6001600160a01b0316816001600160a01b0316837f2f8788117e7eff1d82e926ec794901d17c78024a50270940304540a733656f0d60405160405180910390a45b5050565b80516001600160a01b03811681146200013157600080fd5b919050565b600080604083850312156200014a57600080fd5b620001558362000119565b9150620001656020840162000119565b90509250929050565b612606806200017e6000396000f3fe60806040526004361061013f5760003560e01c80635ae401dc116100b657806393751f631161006f57806393751f631461038c578063a217fddf146103b5578063ac9650d8146103ca578063d547741f146103ea578063d9a6f7051461040a578063e65fad971461042057600080fd5b80635ae401dc146102ae5780635c975abb146102ce578063735de9f7146102e65780638456cb59146103235780638f3914661461033857806391d148541461036c57600080fd5b80632f2ff15d116101085780632f2ff15d1461022057806336568abe14610240578063383ebb0b146102605780633f4ba83a146102735780635640f6591461028857806358e81a501461029b57600080fd5b80620fa9fb1461014457806301ffc9a714610166578063116944b21461019b57806316ba7197146101bc578063248a9ca3146101f0575b600080fd5b34801561015057600080fd5b5061016461015f366004611db4565b610454565b005b34801561017257600080fd5b50610186610181366004611ded565b61050d565b60405190151581526020015b60405180910390f35b6101ae6101a9366004611f85565b610544565b604051908152602001610192565b3480156101c857600080fd5b506101ae7f7a8dc26796a1e50e6e190b70259f58f6a4edd5b22280ceecc82b687b8e98286981565b3480156101fc57600080fd5b506101ae61020b366004611fda565b60009081526020819052604090206001015490565b34801561022c57600080fd5b5061016461023b366004611ff3565b610634565b34801561024c57600080fd5b5061016461025b366004611ff3565b610659565b6101ae61026e3660046120db565b6106dc565b34801561027f57600080fd5b5061016461084c565b6101ae6102963660046120db565b610889565b6101ae6102a9366004611f85565b61097f565b6102c16102bc366004612187565b610ad0565b6040516101929190612222565b3480156102da57600080fd5b5060015460ff16610186565b3480156102f257600080fd5b5060015461030b9061010090046001600160a01b031681565b6040516001600160a01b039091168152602001610192565b34801561032f57600080fd5b50610164610b1e565b34801561034457600080fd5b506101ae7fe7276a2a84d8de556657ec9cf93a55a7d66f096e529d0582ed08e9e2208b92b581565b34801561037857600080fd5b50610186610387366004611ff3565b610b59565b34801561039857600080fd5b506103a26103e881565b60405161ffff9091168152602001610192565b3480156103c157600080fd5b506101ae600081565b3480156103d657600080fd5b506102c16103e5366004612284565b610b82565b3480156103f657600080fd5b50610164610405366004611ff3565b610c76565b34801561041657600080fd5b506101ae61271081565b34801561042c57600080fd5b506101ae7ffcb9fcbfa83b897fb2d5cf4b58962164105c1e71489a37ef3ae0db3fdce576f681565b61047e7f7a8dc26796a1e50e6e190b70259f58f6a4edd5b22280ceecc82b687b8e98286933610b59565b61048757600080fd5b6040516370a0823160e01b81523060048201526000906001600160a01b038316906370a0823190602401602060405180830381865afa1580156104ce573d6000803e3d6000fd5b505050506040513d601f19601f820116820180604052508101906104f291906122c5565b90506105086001600160a01b0383168483610c9b565b505050565b60006001600160e01b03198216637965db0b60e01b148061053e57506301ffc9a760e01b6001600160e01b03198316145b92915050565b60006105b08260000151836080015184606001518787808060200260200160405190810160405280939291908181526020016000905b828210156105a657610597604083028601368190038101906122de565b8152602001906001019061057a565b5050505050610cfe565b60808301526001546040516304e45aaf60e01b81526101009091046001600160a01b0316906304e45aaf906105e9908590600401612335565b6020604051808303816000875af1158015610608573d6000803e3d6000fd5b505050506040513d601f19601f8201168201806040525081019061062c91906122c5565b949350505050565b60008281526020819052604090206001015461064f81610dbf565b6105088383610dcc565b6001600160a01b03811633146106ce5760405162461bcd60e51b815260206004820152602f60248201527f416363657373436f6e74726f6c3a2063616e206f6e6c792072656e6f756e636560448201526e103937b632b9903337b91039b2b63360891b60648201526084015b60405180910390fd5b6106d88282610e50565b5050565b6000806106ec8360000151610eb5565b905060008061075783866060015187602001518a8a808060200260200160405190810160405280939291908181526020016000905b8282101561074d5761073e604083028601368190038101906122de565b81526020019060010190610721565b5050505050610ee3565b606087018190526001546040516304dc09a360e11b81529294509092506000916101009091046001600160a01b0316906309b813469061079b9089906004016123db565b6020604051808303816000875af11580156107ba573d6000803e3d6000fd5b505050506040513d601f19601f820116820180604052508101906107de91906122c5565b905061083e8482858b8b808060200260200160405190810160405280939291908181526020016000905b8282101561083457610825604083028601368190038101906122de565b81526020019060010190610808565b5050505050610f96565b9450505050505b9392505050565b6108767fe7276a2a84d8de556657ec9cf93a55a7d66f096e529d0582ed08e9e2208b92b533610b59565b61087f57600080fd5b610887610ff7565b565b6000806108998360000151611049565b90506108f781846040015185602001518888808060200260200160405190810160405280939291908181526020016000905b828210156105a6576108e8604083028601368190038101906122de565b815260200190600101906108cb565b604084810191909152600154905163b858183f60e01b81526101009091046001600160a01b03169063b858183f906109339086906004016123db565b6020604051808303816000875af1158015610952573d6000803e3d6000fd5b505050506040513d601f19601f8201168201806040525081019061097691906122c5565b95945050505050565b60008060006109e484600001518560a0015186606001518989808060200260200160405190810160405280939291908181526020016000905b8282101561074d576109d5604083028601368190038101906122de565b815260200190600101906109b8565b60a08601819052600154604051635023b4df60e01b81529294509092506000916101009091046001600160a01b031690635023b4df90610a28908890600401612335565b6020604051808303816000875af1158015610a47573d6000803e3d6000fd5b505050506040513d601f19601f82011682018060405250810190610a6b91906122c5565b9050610ac5856000015182858a8a808060200260200160405190810160405280939291908181526020016000905b8282101561083457610ab6604083028601368190038101906122de565b81526020019060010190610a99565b979650505050505050565b606083421115610b145760405162461bcd60e51b815260206004820152600f60248201526e111958591b1a5b99481c185cdcd959608a1b60448201526064016106c5565b61062c8383610b82565b610b487ffcb9fcbfa83b897fb2d5cf4b58962164105c1e71489a37ef3ae0db3fdce576f633610b59565b610b5157600080fd5b610887611055565b6000918252602082815260408084206001600160a01b0393909316845291905290205460ff1690565b6060816001600160401b03811115610b9c57610b9c611e62565b604051908082528060200260200182016040528015610bcf57816020015b6060815260200190600190039081610bba5790505b50905060005b82811015610c6f57610c3f30858584818110610bf357610bf36123ee565b9050602002810190610c059190612404565b8080601f01602080910402602001604051908101604052809392919081815260200183838082843760009201919091525061109092505050565b828281518110610c5157610c516123ee565b60200260200101819052508080610c6790612460565b915050610bd5565b5092915050565b600082815260208190526040902060010154610c9181610dbf565b6105088383610e50565b6040516001600160a01b03831660248201526044810182905261050890849063a9059cbb60e01b906064015b60408051601f198184030181529190526020810180516001600160e01b03166001600160e01b0319909316929092179091526110b5565b60006001600160a01b0383163314610d585760405162461bcd60e51b815260206004820181905260248201527f73776170526563697069656e74206d757374206265206d73672e73656e64657260448201526064016106c5565b60015460ff16610d9757610d6b8261118a565b50600080610d79868561123d565b9092509050610d888287612479565b9550610d948782611366565b50505b610dac6001600160a01b03861633308761146f565b610db685856114ad565b50919392505050565b610dc981336115aa565b50565b610dd68282610b59565b6106d8576000828152602081815260408083206001600160a01b03851684529091529020805460ff19166001179055610e0c3390565b6001600160a01b0316816001600160a01b0316837f2f8788117e7eff1d82e926ec794901d17c78024a50270940304540a733656f0d60405160405180910390a45050565b610e5a8282610b59565b156106d8576000828152602081815260408083206001600160a01b0385168085529252808320805460ff1916905551339285917ff6391f5c32d9c69d2a47ea670b442974b53935d1edc7fd64eb21e047a839171b9190a45050565b60008060148351610ec69190612479565b90506000610ed684836014611603565b905061062c816000611710565b6000806001600160a01b0384163314610f3e5760405162461bcd60e51b815260206004820181905260248201527f73776170526563697069656e74206d757374206265206d73672e73656e64657260448201526064016106c5565b6000610f498461118a565b90506000610f598261271061248c565b9050610f688761271083611775565b9250610f7488846114ad565b610f896001600160a01b03891633308a61146f565b5094969095509350505050565b6000806000610fa5868561123d565b91509150610fb560015460ff1690565b610fc357610fc387826117b5565b610fed3383610fd28989612479565b610fdc9190612479565b6001600160a01b038a169190610c9b565b610ac5828761248c565b610fff6118bc565b6001805460ff191690557f5db9ee0a495bf2e6ff9c91a7834c1ba4fdd244a5e8aa4e537bd38aeae4b073aa335b6040516001600160a01b03909116815260200160405180910390a1565b600061053e8282611710565b61105d611905565b6001805460ff1916811790557f62e78cea01bee320cd4e420270b5ea74000d11b0c9f74754ebdbfc544b05a2583361102c565b606061084583836040518060600160405280602781526020016125aa6027913961194b565b600061110a826040518060400160405280602081526020017f5361666545524332303a206c6f772d6c6576656c2063616c6c206661696c6564815250856001600160a01b03166119c39092919063ffffffff16565b905080516000148061112b57508080602001905181019061112b919061249f565b6105085760405162461bcd60e51b815260206004820152602a60248201527f5361666545524332303a204552433230206f7065726174696f6e20646964206e6044820152691bdd081cdd58d8d9595960b21b60648201526084016106c5565b6000805b82518110156111d4578281815181106111a9576111a96123ee565b602002602001015160200151826111c0919061248c565b9150806111cc81612460565b91505061118e565b506103e88111156112385760405162461bcd60e51b815260206004820152602860248201527f5365636f6e6461727920666565203e204645455f42415349535f504f494e54536044820152675f4d4158494d554d60c01b60648201526084016106c5565b919050565b6000606082516001600160401b0381111561125a5761125a611e62565b60405190808252806020026020018201604052801561129f57816020015b60408051808201909152600080825260208201528152602001906001900390816112785790505b50905060005b835181101561135e5760006112e48583815181106112c5576112c56123ee565b602002602001015160200151612710886119d29092919063ffffffff16565b90506040518060400160405280868481518110611303576113036123ee565b6020026020010151600001516001600160a01b0316815260200182815250838381518110611333576113336123ee565b6020908102919091010152611348818561248c565b935050808061135690612460565b9150506112a5565b509250929050565b60005b8151811015610508576113cc33838381518110611388576113886123ee565b6020026020010151600001518484815181106113a6576113a66123ee565b602002602001015160200151866001600160a01b031661146f909392919063ffffffff16565b8181815181106113de576113de6123ee565b6020026020010151600001516001600160a01b0316336001600160a01b0316846001600160a01b03167f1f9a9fdac86b6ca3c5300bec0b61555cded1f1a234378602dcca6c27085eac8e85858151811061143a5761143a6123ee565b60200260200101516020015160405161145591815260200190565b60405180910390a48061146781612460565b915050611369565b6040516001600160a01b03808516602483015283166044820152606481018290526114a79085906323b872dd60e01b90608401610cc7565b50505050565b600154604051636eb1769f60e11b81523060048201526001600160a01b0361010090920482166024820152829184169063dd62ed3e90604401602060405180830381865afa158015611503573d6000803e3d6000fd5b505050506040513d601f19601f8201168201806040525081019061152791906122c5565b10156106d85760015460405163095ea7b360e01b81526101009091046001600160a01b039081166004830152600019602483015283169063095ea7b3906044016020604051808303816000875af1158015611586573d6000803e3d6000fd5b505050506040513d601f19601f82011682018060405250810190610508919061249f565b6115b48282610b59565b6106d8576115c181611a74565b6115cc836020611a86565b6040516020016115dd9291906124c1565b60408051601f198184030181529082905262461bcd60e51b82526106c591600401612536565b60608161161181601f61248c565b10156116505760405162461bcd60e51b815260206004820152600e60248201526d736c6963655f6f766572666c6f7760901b60448201526064016106c5565b61165a828461248c565b8451101561169e5760405162461bcd60e51b8152602060048201526011602482015270736c6963655f6f75744f66426f756e647360781b60448201526064016106c5565b6060821580156116bd5760405191506000825260208201604052611707565b6040519150601f8416801560200281840101858101878315602002848b0101015b818310156116f65780518352602092830192016116de565b5050858452601f01601f1916604052505b50949350505050565b600061171d82601461248c565b835110156117655760405162461bcd60e51b8152602060048201526015602482015274746f416464726573735f6f75744f66426f756e647360581b60448201526064016106c5565b500160200151600160601b900490565b60006117828484846119d2565b90506000828061179457611794612549565b84860911156108455760001981106117ab57600080fd5b6001019392505050565b60005b8151811015610508576118198282815181106117d6576117d66123ee565b6020026020010151600001518383815181106117f4576117f46123ee565b602002602001015160200151856001600160a01b0316610c9b9092919063ffffffff16565b81818151811061182b5761182b6123ee565b6020026020010151600001516001600160a01b0316336001600160a01b0316846001600160a01b03167f1f9a9fdac86b6ca3c5300bec0b61555cded1f1a234378602dcca6c27085eac8e858581518110611887576118876123ee565b6020026020010151602001516040516118a291815260200190565b60405180910390a4806118b481612460565b9150506117b8565b60015460ff166108875760405162461bcd60e51b815260206004820152601460248201527314185d5cd8589b194e881b9bdd081c185d5cd95960621b60448201526064016106c5565b60015460ff16156108875760405162461bcd60e51b815260206004820152601060248201526f14185d5cd8589b194e881c185d5cd95960821b60448201526064016106c5565b6060600080856001600160a01b031685604051611968919061255f565b600060405180830381855af49150503d80600081146119a3576040519150601f19603f3d011682016040523d82523d6000602084013e6119a8565b606091505b50915091506119b986838387611c21565b9695505050505050565b606061062c8484600085611c9a565b600083830281600019858709828110838203039150508084116119f457600080fd5b80600003611a0757508290049050610845565b6000848688096000868103871696879004966002600389028118808a02820302808a02820302808a02820302808a02820302808a02820302808a02909103029181900381900460010186841190950394909402919094039290920491909117919091029150509392505050565b606061053e6001600160a01b03831660145b60606000611a9583600261257b565b611aa090600261248c565b6001600160401b03811115611ab757611ab7611e62565b6040519080825280601f01601f191660200182016040528015611ae1576020820181803683370190505b509050600360fc1b81600081518110611afc57611afc6123ee565b60200101906001600160f81b031916908160001a905350600f60fb1b81600181518110611b2b57611b2b6123ee565b60200101906001600160f81b031916908160001a9053506000611b4f84600261257b565b611b5a90600161248c565b90505b6001811115611bd2576f181899199a1a9b1b9c1cb0b131b232b360811b85600f1660108110611b8e57611b8e6123ee565b1a60f81b828281518110611ba457611ba46123ee565b60200101906001600160f81b031916908160001a90535060049490941c93611bcb81612592565b9050611b5d565b5083156108455760405162461bcd60e51b815260206004820181905260248201527f537472696e67733a20686578206c656e67746820696e73756666696369656e7460448201526064016106c5565b60608315611c90578251600003611c89576001600160a01b0385163b611c895760405162461bcd60e51b815260206004820152601d60248201527f416464726573733a2063616c6c20746f206e6f6e2d636f6e747261637400000060448201526064016106c5565b508161062c565b61062c8383611d6a565b606082471015611cfb5760405162461bcd60e51b815260206004820152602660248201527f416464726573733a20696e73756666696369656e742062616c616e636520666f6044820152651c8818d85b1b60d21b60648201526084016106c5565b600080866001600160a01b03168587604051611d17919061255f565b60006040518083038185875af1925050503d8060008114611d54576040519150601f19603f3d011682016040523d82523d6000602084013e611d59565b606091505b5091509150610ac587838387611c21565b815115611d7a5781518083602001fd5b8060405162461bcd60e51b81526004016106c59190612536565b6001600160a01b0381168114610dc957600080fd5b803561123881611d94565b60008060408385031215611dc757600080fd5b8235611dd281611d94565b91506020830135611de281611d94565b809150509250929050565b600060208284031215611dff57600080fd5b81356001600160e01b03198116811461084557600080fd5b60008083601f840112611e2957600080fd5b5081356001600160401b03811115611e4057600080fd5b6020830191508360208260061b8501011115611e5b57600080fd5b9250929050565b634e487b7160e01b600052604160045260246000fd5b60405160e081016001600160401b0381118282101715611e9a57611e9a611e62565b60405290565b604051608081016001600160401b0381118282101715611e9a57611e9a611e62565b604051601f8201601f191681016001600160401b0381118282101715611eea57611eea611e62565b604052919050565b600060e08284031215611f0457600080fd5b611f0c611e78565b90508135611f1981611d94565b81526020820135611f2981611d94565b6020820152604082013562ffffff81168114611f4457600080fd5b6040820152611f5560608301611da9565b60608201526080820135608082015260a082013560a0820152611f7a60c08301611da9565b60c082015292915050565b60008060006101008486031215611f9b57600080fd5b83356001600160401b03811115611fb157600080fd5b611fbd86828701611e17565b9094509250611fd190508560208601611ef2565b90509250925092565b600060208284031215611fec57600080fd5b5035919050565b6000806040838503121561200657600080fd5b823591506020830135611de281611d94565b60006080828403121561202a57600080fd5b612032611ea0565b905081356001600160401b038082111561204b57600080fd5b818401915084601f83011261205f57600080fd5b813560208282111561207357612073611e62565b612085601f8301601f19168201611ec2565b9250818352868183860101111561209b57600080fd5b818185018285013760008183850101528285526120b9818701611da9565b8186015250505050604082013560408201526060820135606082015292915050565b6000806000604084860312156120f057600080fd5b83356001600160401b038082111561210757600080fd5b61211387838801611e17565b9095509350602086013591508082111561212c57600080fd5b5061213986828701612018565b9150509250925092565b60008083601f84011261215557600080fd5b5081356001600160401b0381111561216c57600080fd5b6020830191508360208260051b8501011115611e5b57600080fd5b60008060006040848603121561219c57600080fd5b8335925060208401356001600160401b038111156121b957600080fd5b6121c586828701612143565b9497909650939450505050565b60005b838110156121ed5781810151838201526020016121d5565b50506000910152565b6000815180845261220e8160208601602086016121d2565b601f01601f19169290920160200192915050565b6000602080830181845280855180835260408601915060408160051b870101925083870160005b8281101561227757603f198886030184526122658583516121f6565b94509285019290850190600101612249565b5092979650505050505050565b6000806020838503121561229757600080fd5b82356001600160401b038111156122ad57600080fd5b6122b985828601612143565b90969095509350505050565b6000602082840312156122d757600080fd5b5051919050565b6000604082840312156122f057600080fd5b604051604081018181106001600160401b038211171561231257612312611e62565b604052823561232081611d94565b81526020928301359281019290925250919050565b60e0810161053e828480516001600160a01b03908116835260208083015182169084015260408083015162ffffff16908401526060808301518216908401526080808301519084015260a0828101519084015260c09182015116910152565b60008151608084526123a960808501826121f6565b6020848101516001600160a01b0316908601526040808501519086015260609384015193909401929092525090919050565b6020815260006108456020830184612394565b634e487b7160e01b600052603260045260246000fd5b6000808335601e1984360301811261241b57600080fd5b8301803591506001600160401b0382111561243557600080fd5b602001915036819003821315611e5b57600080fd5b634e487b7160e01b600052601160045260246000fd5b6000600182016124725761247261244a565b5060010190565b8181038181111561053e5761053e61244a565b8082018082111561053e5761053e61244a565b6000602082840312156124b157600080fd5b8151801515811461084557600080fd5b7f416363657373436f6e74726f6c3a206163636f756e74200000000000000000008152600083516124f98160178501602088016121d2565b7001034b99036b4b9b9b4b733903937b6329607d1b601791840191820152835161252a8160288401602088016121d2565b01602801949350505050565b60208152600061084560208301846121f6565b634e487b7160e01b600052601260045260246000fd5b600082516125718184602087016121d2565b9190910192915050565b808202811582820484141761053e5761053e61244a565b6000816125a1576125a161244a565b50600019019056fe416464726573733a206c6f772d6c6576656c2064656c65676174652063616c6c206661696c6564a2646970667358221220c75a7db1b170ff1ce6888f2940825a25db3ebb624d8b84bd3f2372ebae2de1d464736f6c63430008130033",
    "linkReferences": {}
  },
  "methodIdentifiers": {
    "BASIS_POINT_PRECISION()": "d9a6f705",
    "DEFAULT_ADMIN_ROLE()": "a217fddf",
    "FEE_BASIS_POINTS_MAXIMUM()": "93751f63",
    "PAUSE()": "e65fad97",
    "UNPAUSE()": "8f391466",
    "WITHDRAW()": "16ba7197",
    "exactInputSingleWithSecondaryFee((address,uint256)[],(address,address,uint24,address,uint256,uint256,uint160))": "116944b2",
    "exactInputWithSecondaryFee((address,uint256)[],(bytes,address,uint256,uint256))": "5640f659",
    "exactOutputSingleWithSecondaryFee((address,uint256)[],(address,address,uint24,address,uint256,uint256,uint160))": "58e81a50",
    "exactOutputWithSecondaryFee((address,uint256)[],(bytes,address,uint256,uint256))": "383ebb0b",
    "getRoleAdmin(bytes32)": "248a9ca3",
    "grantRole(bytes32,address)": "2f2ff15d",
    "hasRole(bytes32,address)": "91d14854",
    "multicall(bytes[])": "ac9650d8",
    "multicall(uint256,bytes[])": "5ae401dc",
    "pause()": "8456cb59",
    "paused()": "5c975abb",
    "renounceRole(bytes32,address)": "36568abe",
    "revokeRole(bytes32,address)": "d547741f",
    "supportsInterface(bytes4)": "01ffc9a7",
    "uniswapRouter()": "735de9f7",
    "unpause()": "3f4ba83a",
    "withdrawFunds(address,address)": "000fa9fb"
  },
  "id": 44
}