{
  "abi": [
    {
      "inputs": [
        {
          "internalType": "address",
          "name": "_uniRouter",
          "type": "address"
        }
      ],
      "stateMutability": "nonpayable",
      "type": "constructor"
    },
    {
      "anonymous": false,
      "inputs": [
        {
          "indexed": true,
          "internalType": "address",
          "name": "feeToken",
          "type": "address"
        },
        {
          "indexed": true,
          "internalType": "address",
          "name": "feePayer",
          "type": "address"
        },
        {
          "indexed": true,
          "internalType": "address",
          "name": "feeRecipient",
          "type": "address"
        },
        {
          "indexed": false,
          "internalType": "uint256",
          "name": "feeAmount",
          "type": "uint256"
        }
      ],
      "name": "FeeTaken",
      "type": "event"
    },
    {
      "anonymous": false,
      "inputs": [
        {
          "indexed": true,
          "internalType": "address",
          "name": "previousOwner",
          "type": "address"
        },
        {
          "indexed": true,
          "internalType": "address",
          "name": "newOwner",
          "type": "address"
        }
      ],
      "name": "OwnershipTransferred",
      "type": "event"
    },
    {
      "anonymous": false,
      "inputs": [
        {
          "indexed": false,
          "internalType": "address",
          "name": "account",
          "type": "address"
        }
      ],
      "name": "Paused",
      "type": "event"
    },
    {
      "anonymous": false,
      "inputs": [
        {
          "indexed": false,
          "internalType": "address",
          "name": "account",
          "type": "address"
        }
      ],
      "name": "Unpaused",
      "type": "event"
    },
    {
      "inputs": [],
      "name": "BASIS_POINT_PRECISION",
      "outputs": [
        {
          "internalType": "uint16",
          "name": "",
          "type": "uint16"
        }
      ],
      "stateMutability": "view",
      "type": "function"
    },
    {
      "inputs": [],
      "name": "MAX_SERVICE_FEE",
      "outputs": [
        {
          "internalType": "uint16",
          "name": "",
          "type": "uint16"
        }
      ],
      "stateMutability": "view",
      "type": "function"
    },
    {
      "inputs": [
        {
          "components": [
            {
              "internalType": "address",
              "name": "recipient",
              "type": "address"
            },
            {
              "internalType": "uint16",
              "name": "feePrcntBasisPoints",
              "type": "uint16"
            }
          ],
          "internalType": "struct ISecondaryFee.ServiceFeeParams[]",
          "name": "serviceFee",
          "type": "tuple[]"
        },
        {
          "components": [
            {
              "internalType": "address",
              "name": "tokenIn",
              "type": "address"
            },
            {
              "internalType": "address",
              "name": "tokenOut",
              "type": "address"
            },
            {
              "internalType": "uint24",
              "name": "fee",
              "type": "uint24"
            },
            {
              "internalType": "address",
              "name": "recipient",
              "type": "address"
            },
            {
              "internalType": "uint256",
              "name": "amountIn",
              "type": "uint256"
            },
            {
              "internalType": "uint256",
              "name": "amountOutMinimum",
              "type": "uint256"
            },
            {
              "internalType": "uint160",
              "name": "sqrtPriceLimitX96",
              "type": "uint160"
            }
          ],
          "internalType": "struct IV3SwapRouter.ExactInputSingleParams",
          "name": "params",
          "type": "tuple"
        }
      ],
      "name": "exactInputSingleWithServiceFee",
      "outputs": [
        {
          "internalType": "uint256",
          "name": "amountOut",
          "type": "uint256"
        }
      ],
      "stateMutability": "payable",
      "type": "function"
    },
    {
      "inputs": [
        {
          "components": [
            {
              "internalType": "address",
              "name": "recipient",
              "type": "address"
            },
            {
              "internalType": "uint16",
              "name": "feePrcntBasisPoints",
              "type": "uint16"
            }
          ],
          "internalType": "struct ISecondaryFee.ServiceFeeParams[]",
          "name": "serviceFee",
          "type": "tuple[]"
        },
        {
          "components": [
            {
              "internalType": "bytes",
              "name": "path",
              "type": "bytes"
            },
            {
              "internalType": "address",
              "name": "recipient",
              "type": "address"
            },
            {
              "internalType": "uint256",
              "name": "amountIn",
              "type": "uint256"
            },
            {
              "internalType": "uint256",
              "name": "amountOutMinimum",
              "type": "uint256"
            }
          ],
          "internalType": "struct IV3SwapRouter.ExactInputParams",
          "name": "params",
          "type": "tuple"
        }
      ],
      "name": "exactInputWithServiceFee",
      "outputs": [
        {
          "internalType": "uint256",
          "name": "amountOut",
          "type": "uint256"
        }
      ],
      "stateMutability": "payable",
      "type": "function"
    },
    {
      "inputs": [
        {
          "components": [
            {
              "internalType": "address",
              "name": "recipient",
              "type": "address"
            },
            {
              "internalType": "uint16",
              "name": "feePrcntBasisPoints",
              "type": "uint16"
            }
          ],
          "internalType": "struct ISecondaryFee.ServiceFeeParams[]",
          "name": "serviceFee",
          "type": "tuple[]"
        },
        {
          "components": [
            {
              "internalType": "address",
              "name": "tokenIn",
              "type": "address"
            },
            {
              "internalType": "address",
              "name": "tokenOut",
              "type": "address"
            },
            {
              "internalType": "uint24",
              "name": "fee",
              "type": "uint24"
            },
            {
              "internalType": "address",
              "name": "recipient",
              "type": "address"
            },
            {
              "internalType": "uint256",
              "name": "amountOut",
              "type": "uint256"
            },
            {
              "internalType": "uint256",
              "name": "amountInMaximum",
              "type": "uint256"
            },
            {
              "internalType": "uint160",
              "name": "sqrtPriceLimitX96",
              "type": "uint160"
            }
          ],
          "internalType": "struct IV3SwapRouter.ExactOutputSingleParams",
          "name": "params",
          "type": "tuple"
        }
      ],
      "name": "exactOutputSingleWithServiceFee",
      "outputs": [
        {
          "internalType": "uint256",
          "name": "amountIn",
          "type": "uint256"
        }
      ],
      "stateMutability": "payable",
      "type": "function"
    },
    {
      "inputs": [
        {
          "components": [
            {
              "internalType": "address",
              "name": "recipient",
              "type": "address"
            },
            {
              "internalType": "uint16",
              "name": "feePrcntBasisPoints",
              "type": "uint16"
            }
          ],
          "internalType": "struct ISecondaryFee.ServiceFeeParams[]",
          "name": "serviceFee",
          "type": "tuple[]"
        },
        {
          "components": [
            {
              "internalType": "bytes",
              "name": "path",
              "type": "bytes"
            },
            {
              "internalType": "address",
              "name": "recipient",
              "type": "address"
            },
            {
              "internalType": "uint256",
              "name": "amountOut",
              "type": "uint256"
            },
            {
              "internalType": "uint256",
              "name": "amountInMaximum",
              "type": "uint256"
            }
          ],
          "internalType": "struct IV3SwapRouter.ExactOutputParams",
          "name": "params",
          "type": "tuple"
        }
      ],
      "name": "exactOutputWithServiceFee",
      "outputs": [
        {
          "internalType": "uint256",
          "name": "amountIn",
          "type": "uint256"
        }
      ],
      "stateMutability": "payable",
      "type": "function"
    },
    {
      "inputs": [
        {
          "internalType": "uint256",
          "name": "deadline",
          "type": "uint256"
        },
        {
          "internalType": "bytes[]",
          "name": "data",
          "type": "bytes[]"
        }
      ],
      "name": "multicall",
      "outputs": [
        {
          "internalType": "bytes[]",
          "name": "",
          "type": "bytes[]"
        }
      ],
      "stateMutability": "payable",
      "type": "function"
    },
    {
      "inputs": [
        {
          "internalType": "bytes[]",
          "name": "data",
          "type": "bytes[]"
        }
      ],
      "name": "multicall",
      "outputs": [
        {
          "internalType": "bytes[]",
          "name": "results",
          "type": "bytes[]"
        }
      ],
      "stateMutability": "nonpayable",
      "type": "function"
    },
    {
      "inputs": [],
      "name": "owner",
      "outputs": [
        {
          "internalType": "address",
          "name": "",
          "type": "address"
        }
      ],
      "stateMutability": "view",
      "type": "function"
    },
    {
      "inputs": [],
      "name": "pause",
      "outputs": [],
      "stateMutability": "nonpayable",
      "type": "function"
    },
    {
      "inputs": [],
      "name": "paused",
      "outputs": [
        {
          "internalType": "bool",
          "name": "",
          "type": "bool"
        }
      ],
      "stateMutability": "view",
      "type": "function"
    },
    {
      "inputs": [],
      "name": "renounceOwnership",
      "outputs": [],
      "stateMutability": "nonpayable",
      "type": "function"
    },
    {
      "inputs": [
        {
          "internalType": "address",
          "name": "newOwner",
          "type": "address"
        }
      ],
      "name": "transferOwnership",
      "outputs": [],
      "stateMutability": "nonpayable",
      "type": "function"
    },
    {
      "inputs": [],
      "name": "uniswapRouter",
      "outputs": [
        {
          "internalType": "contract IV3SwapRouter",
          "name": "",
          "type": "address"
        }
      ],
      "stateMutability": "view",
      "type": "function"
    },
    {
      "inputs": [],
      "name": "unpause",
      "outputs": [],
      "stateMutability": "nonpayable",
      "type": "function"
    }
  ],
  "bytecode": {
    "object": "0x60806040523480156200001157600080fd5b5060405162002123380380620021238339810160408190526200003491620000c2565b6200003f3362000072565b6000805460ff60a01b19169055600180546001600160a01b0319166001600160a01b0392909216919091179055620000f4565b600080546001600160a01b038381166001600160a01b0319831681178455604051919092169283917f8be0079c531659141344cd1fd0a4f28419497f9722a3daafe3b4186f6b6457e09190a35050565b600060208284031215620000d557600080fd5b81516001600160a01b0381168114620000ed57600080fd5b9392505050565b61201f80620001046000396000f3fe6080604052600436106100e85760003560e01c8063735de9f71161008a578063ac9650d811610059578063ac9650d814610243578063d9a6f70514610263578063ed921d3c14610279578063f2fde38b1461028c57600080fd5b8063735de9f7146101c5578063742ac944146101fd5780638456cb59146102105780638da5cb5b1461022557600080fd5b80633f4ba83a116100c65780633f4ba83a1461014f5780635ae401dc146101665780635c975abb14610186578063715018a6146101b057600080fd5b80631411734e146100ed57806314d90e1b146101135780631fd168ff1461013c575b600080fd5b6101006100fb366004611a14565b6102ac565b6040519081526020015b60405180910390f35b34801561011f57600080fd5b506101296103e881565b60405161ffff909116815260200161010a565b61010061014a366004611a14565b61040a565b34801561015b57600080fd5b5061016461057a565b005b610179610174366004611ac0565b61058c565b60405161010a9190611b5b565b34801561019257600080fd5b50600054600160a01b900460ff16604051901515815260200161010a565b3480156101bc57600080fd5b506101646105e2565b3480156101d157600080fd5b506001546101e5906001600160a01b031681565b6040516001600160a01b03909116815260200161010a565b61010061020b366004611c50565b6105f4565b34801561021c57600080fd5b50610164610731565b34801561023157600080fd5b506000546001600160a01b03166101e5565b34801561024f57600080fd5b5061017961025e366004611ca5565b610741565b34801561026f57600080fd5b5061012961271081565b610100610287366004611c50565b610836565b34801561029857600080fd5b506101646102a7366004611ce6565b61095e565b60208101516000906001600160a01b031633148015906102d9575060208201516001600160a01b03163014155b156102ff5760405162461bcd60e51b81526004016102f690611d03565b60405180910390fd5b600061030e83600001516109d7565b905060008061037983866040015187602001518a8a808060200260200160405190810160405280939291908181526020016000905b8282101561036f5761036060408302860136819003810190611d50565b81526020019060010190610343565b50505050506109e3565b60408088018390526001600160a01b0380831660208a0152600154915163b858183f60e01b8152939550919350169063b858183f906103bc908890600401611dfc565b6020604051808303816000875af11580156103db573d6000803e3d6000fd5b505050506040513d601f19601f820116820180604052508101906103ff9190611e0f565b979650505050505050565b6040810151815160009190829061042090610ac4565b9050600061043185600001516109d7565b90506000806000806104a4868a606001518b604001518c602001518f8f808060200260200160405190810160405280939291908181526020016000905b8282101561049a5761048b60408302860136819003810190611d50565b8152602001906001019061046e565b5050505050610af2565b9350935093509350838960400181815250508289602001906001600160a01b031690816001600160a01b031681525050600160009054906101000a90046001600160a01b03166001600160a01b03166309b813468a6040518263ffffffff1660e01b81526004016105159190611dfc565b6020604051808303816000875af1158015610534573d6000803e3d6000fd5b505050506040513d601f19601f820116820180604052508101906105589190611e0f565b975061056c8787878c604001518587610bd3565b505050505050509392505050565b610582610e16565b61058a610e70565b565b6060834211156105d05760405162461bcd60e51b815260206004820152600f60248201526e111958591b1a5b99481c185cdcd959608a1b60448201526064016102f6565b6105da8383610741565b949350505050565b6105ea610e16565b61058a6000610ec5565b60608101516000906001600160a01b03163314801590610621575060608201516001600160a01b03163014155b1561063e5760405162461bcd60e51b81526004016102f690611d03565b6000806106a18460000151856080015186606001518989808060200260200160405190810160405280939291908181526020016000905b8282101561036f5761069260408302860136819003810190611d50565b81526020019060010190610675565b608086018290526001600160a01b0380821660608801526001546040516304e45aaf60e01b815293955091935016906304e45aaf906106e4908790600401611e28565b6020604051808303816000875af1158015610703573d6000803e3d6000fd5b505050506040513d601f19601f820116820180604052508101906107279190611e0f565b9695505050505050565b610739610e16565b61058a610f15565b6060816001600160401b0381111561075b5761075b61189c565b60405190808252806020026020018201604052801561078e57816020015b60608152602001906001900390816107795790505b50905060005b8281101561082e576107fe308585848181106107b2576107b2611e87565b90506020028101906107c49190611e9d565b8080601f016020809104026020016040519081016040528093929190818152602001838380828437600092019190915250610f5892505050565b82828151811061081057610810611e87565b6020026020010181905250808061082690611ef9565b915050610794565b505b92915050565b600080826080015190506000806000806108ab87600001518860a0015189608001518a606001518d8d808060200260200160405190810160405280939291908181526020016000905b8282101561049a5761089c60408302860136819003810190611d50565b8152602001906001019061087f565b60808b018490526001600160a01b0380841660608d0152600154604051635023b4df60e01b815295995093975091955093501690635023b4df906108f3908a90600401611e28565b6020604051808303816000875af1158015610912573d6000803e3d6000fd5b505050506040513d601f19601f820116820180604052508101906109369190611e0f565b955061095285886000015189602001518a608001518587610bd3565b50505050509392505050565b610966610e16565b6001600160a01b0381166109cb5760405162461bcd60e51b815260206004820152602660248201527f4f776e61626c653a206e6577206f776e657220697320746865207a65726f206160448201526564647265737360d01b60648201526084016102f6565b6109d481610ec5565b50565b60006108308282610f84565b600080548190600160a01b900460ff16610a2257600080610a048786610fe9565b9092509050610a138288611f12565b9650610a1f88826111c6565b50505b6040516323b872dd60e01b8152336004820152306024820152604481018690526001600160a01b038716906323b872dd906064016020604051808303816000875af1158015610a75573d6000803e3d6000fd5b505050506040513d601f19601f82011682018060405250810190610a999190611f25565b50610aa48686611341565b306001600160a01b03851603610ab8573393505b50929491935090915050565b60008060148351610ad59190611f12565b90506000610ae584836014611438565b90506105da816000610f84565b6000806060818082610b0e60005460ff600160a01b9091041690565b610b2e57610b1c8988610fe9565b9092509050610b2b828a611f47565b98505b6001600160a01b0388163014610b42573097505b610b4c8b8b611341565b6040516323b872dd60e01b8152336004820152306024820152604481018b90526001600160a01b038c16906323b872dd906064016020604051808303816000875af1158015610b9f573d6000803e3d6000fd5b505050506040513d601f19601f82011682018060405250810190610bc39190611f25565b50979a9699509697505050505050565b600054600160a01b900460ff16610bee57610bee8482611545565b6040516370a0823160e01b81523060048201526000906001600160a01b038616906370a0823190602401602060405180830381865afa158015610c35573d6000803e3d6000fd5b505050506040513d601f19601f82011682018060405250810190610c599190611e0f565b9050610c658385611f12565b811015610cb45760405162461bcd60e51b815260206004820181905260248201527f696e636f72726563742066656520616d6f756e7420646973747269627574656460448201526064016102f6565b60405163a9059cbb60e01b8152336004820152602481018890526001600160a01b0386169063a9059cbb906044016020604051808303816000875af1158015610d01573d6000803e3d6000fd5b505050506040513d601f19601f82011682018060405250810190610d259190611f25565b506040516370a0823160e01b81523060048201526000906001600160a01b038816906370a0823190602401602060405180830381865afa158015610d6d573d6000803e3d6000fd5b505050506040513d601f19601f82011682018060405250810190610d919190611e0f565b90508015610e0c5760405163a9059cbb60e01b8152336004820152602481018290526001600160a01b0388169063a9059cbb906044016020604051808303816000875af1158015610de6573d6000803e3d6000fd5b505050506040513d601f19601f82011682018060405250810190610e0a9190611f25565b505b5050505050505050565b6000546001600160a01b0316331461058a5760405162461bcd60e51b815260206004820181905260248201527f4f776e61626c653a2063616c6c6572206973206e6f7420746865206f776e657260448201526064016102f6565b610e786116b4565b6000805460ff60a01b191690557f5db9ee0a495bf2e6ff9c91a7834c1ba4fdd244a5e8aa4e537bd38aeae4b073aa335b6040516001600160a01b03909116815260200160405180910390a1565b600080546001600160a01b038381166001600160a01b0319831681178455604051919092169283917f8be0079c531659141344cd1fd0a4f28419497f9722a3daafe3b4186f6b6457e09190a35050565b610f1d611704565b6000805460ff60a01b1916600160a01b1790557f62e78cea01bee320cd4e420270b5ea74000d11b0c9f74754ebdbfc544b05a258610ea83390565b6060610f7d8383604051806060016040528060278152602001611fc360279139611751565b9392505050565b6000610f91826014611f47565b83511015610fd95760405162461bcd60e51b8152602060048201526015602482015274746f416464726573735f6f75744f66426f756e647360581b60448201526064016102f6565b500160200151600160601b900490565b6000606081805b845181101561103a5784818151811061100b5761100b611e87565b60200260200101516020015161ffff16826110269190611f47565b91508061103281611ef9565b915050610ff0565b506103e881111561108d5760405162461bcd60e51b815260206004820152601d60248201527f5365727669636520666565203e204d41585f534552564943455f46454500000060448201526064016102f6565b60008085516001600160401b038111156110a9576110a961189c565b6040519080825280602002602001820160405280156110ee57816020015b60408051808201909152600080825260208201528152602001906001900390816110c75790505b50905060005b86518110156111b757600061271061ffff1688838151811061111857611118611e87565b60200260200101516020015161ffff168a6111339190611f5a565b61113d9190611f71565b9050604051806040016040528089848151811061115c5761115c611e87565b6020026020010151600001516001600160a01b031681526020018281525083838151811061118c5761118c611e87565b60209081029190910101526111a18185611f47565b93505080806111af90611ef9565b9150506110f4565b509093509150505b9250929050565b60005b815181101561133c57826001600160a01b03166323b872dd338484815181106111f4576111f4611e87565b60200260200101516000015185858151811061121257611212611e87565b60209081029190910181015101516040516001600160e01b031960e086901b1681526001600160a01b03938416600482015292909116602483015260448201526064016020604051808303816000875af1158015611274573d6000803e3d6000fd5b505050506040513d601f19601f820116820180604052508101906112989190611f25565b508181815181106112ab576112ab611e87565b6020026020010151600001516001600160a01b0316336001600160a01b0316846001600160a01b03167f1f9a9fdac86b6ca3c5300bec0b61555cded1f1a234378602dcca6c27085eac8e85858151811061130757611307611e87565b60200260200101516020015160405161132291815260200190565b60405180910390a48061133481611ef9565b9150506111c9565b505050565b600154604051636eb1769f60e11b81523060048201526001600160a01b039182166024820152829184169063dd62ed3e90604401602060405180830381865afa158015611392573d6000803e3d6000fd5b505050506040513d601f19601f820116820180604052508101906113b69190611e0f565b10156114345760015460405163095ea7b360e01b81526001600160a01b03918216600482015260001960248201529083169063095ea7b3906044016020604051808303816000875af1158015611410573d6000803e3d6000fd5b505050506040513d601f19601f8201168201806040525081019061133c9190611f25565b5050565b60608161144681601f611f47565b10156114855760405162461bcd60e51b815260206004820152600e60248201526d736c6963655f6f766572666c6f7760901b60448201526064016102f6565b61148f8284611f47565b845110156114d35760405162461bcd60e51b8152602060048201526011602482015270736c6963655f6f75744f66426f756e647360781b60448201526064016102f6565b6060821580156114f2576040519150600082526020820160405261153c565b6040519150601f8416801560200281840101858101878315602002848b0101015b8183101561152b578051835260209283019201611513565b5050858452601f01601f1916604052505b50949350505050565b60005b815181101561133c57826001600160a01b031663a9059cbb83838151811061157257611572611e87565b60200260200101516000015184848151811061159057611590611e87565b6020026020010151602001516040518363ffffffff1660e01b81526004016115cd9291906001600160a01b03929092168252602082015260400190565b6020604051808303816000875af11580156115ec573d6000803e3d6000fd5b505050506040513d601f19601f820116820180604052508101906116109190611f25565b5081818151811061162357611623611e87565b6020026020010151600001516001600160a01b0316336001600160a01b0316846001600160a01b03167f1f9a9fdac86b6ca3c5300bec0b61555cded1f1a234378602dcca6c27085eac8e85858151811061167f5761167f611e87565b60200260200101516020015160405161169a91815260200190565b60405180910390a4806116ac81611ef9565b915050611548565b600054600160a01b900460ff1661058a5760405162461bcd60e51b815260206004820152601460248201527314185d5cd8589b194e881b9bdd081c185d5cd95960621b60448201526064016102f6565b600054600160a01b900460ff161561058a5760405162461bcd60e51b815260206004820152601060248201526f14185d5cd8589b194e881c185d5cd95960821b60448201526064016102f6565b6060600080856001600160a01b03168560405161176e9190611f93565b600060405180830381855af49150503d80600081146117a9576040519150601f19603f3d011682016040523d82523d6000602084013e6117ae565b606091505b50915091506107278683838760608315611829578251600003611822576001600160a01b0385163b6118225760405162461bcd60e51b815260206004820152601d60248201527f416464726573733a2063616c6c20746f206e6f6e2d636f6e747261637400000060448201526064016102f6565b50816105da565b6105da838381511561183e5781518083602001fd5b8060405162461bcd60e51b81526004016102f69190611faf565b60008083601f84011261186a57600080fd5b5081356001600160401b0381111561188157600080fd5b6020830191508360208260061b85010111156111bf57600080fd5b634e487b7160e01b600052604160045260246000fd5b604051608081016001600160401b03811182821017156118d4576118d461189c565b60405290565b60405160e081016001600160401b03811182821017156118d4576118d461189c565b604051601f8201601f191681016001600160401b03811182821017156119245761192461189c565b604052919050565b6001600160a01b03811681146109d457600080fd5b803561194c8161192c565b919050565b60006080828403121561196357600080fd5b61196b6118b2565b905081356001600160401b038082111561198457600080fd5b818401915084601f83011261199857600080fd5b81356020828211156119ac576119ac61189c565b6119be601f8301601f191682016118fc565b925081835286818386010111156119d457600080fd5b818185018285013760008183850101528285526119f2818701611941565b8186015250505050604082013560408201526060820135606082015292915050565b600080600060408486031215611a2957600080fd5b83356001600160401b0380821115611a4057600080fd5b611a4c87838801611858565b90955093506020860135915080821115611a6557600080fd5b50611a7286828701611951565b9150509250925092565b60008083601f840112611a8e57600080fd5b5081356001600160401b03811115611aa557600080fd5b6020830191508360208260051b85010111156111bf57600080fd5b600080600060408486031215611ad557600080fd5b8335925060208401356001600160401b03811115611af257600080fd5b611afe86828701611a7c565b9497909650939450505050565b60005b83811015611b26578181015183820152602001611b0e565b50506000910152565b60008151808452611b47816020860160208601611b0b565b601f01601f19169290920160200192915050565b6000602080830181845280855180835260408601915060408160051b870101925083870160005b82811015611bb057603f19888603018452611b9e858351611b2f565b94509285019290850190600101611b82565b5092979650505050505050565b600060e08284031215611bcf57600080fd5b611bd76118da565b90508135611be48161192c565b81526020820135611bf48161192c565b6020820152604082013562ffffff81168114611c0f57600080fd5b6040820152611c2060608301611941565b60608201526080820135608082015260a082013560a0820152611c4560c08301611941565b60c082015292915050565b60008060006101008486031215611c6657600080fd5b83356001600160401b03811115611c7c57600080fd5b611c8886828701611858565b9094509250611c9c90508560208601611bbd565b90509250925092565b60008060208385031215611cb857600080fd5b82356001600160401b03811115611cce57600080fd5b611cda85828601611a7c565b90969095509350505050565b600060208284031215611cf857600080fd5b8135610f7d8161192c565b6020808252602d908201527f726563697069656e74206d757374206265206d73672e73656e646572206f722060408201526c1d1a1a5cc818dbdb9d1c9858dd609a1b606082015260800190565b600060408284031215611d6257600080fd5b604051604081018181106001600160401b0382111715611d8457611d8461189c565b6040528235611d928161192c565b8152602083013561ffff81168114611da957600080fd5b60208201529392505050565b6000815160808452611dca6080850182611b2f565b6020848101516001600160a01b0316908601526040808501519086015260609384015193909401929092525090919050565b602081526000610f7d6020830184611db5565b600060208284031215611e2157600080fd5b5051919050565b60e08101610830828480516001600160a01b03908116835260208083015182169084015260408083015162ffffff16908401526060808301518216908401526080808301519084015260a0828101519084015260c09182015116910152565b634e487b7160e01b600052603260045260246000fd5b6000808335601e19843603018112611eb457600080fd5b8301803591506001600160401b03821115611ece57600080fd5b6020019150368190038213156111bf57600080fd5b634e487b7160e01b600052601160045260246000fd5b600060018201611f0b57611f0b611ee3565b5060010190565b8181038181111561083057610830611ee3565b600060208284031215611f3757600080fd5b81518015158114610f7d57600080fd5b8082018082111561083057610830611ee3565b808202811582820484141761083057610830611ee3565b600082611f8e57634e487b7160e01b600052601260045260246000fd5b500490565b60008251611fa5818460208701611b0b565b9190910192915050565b602081526000610f7d6020830184611b2f56fe416464726573733a206c6f772d6c6576656c2064656c65676174652063616c6c206661696c6564a26469706673582212203925f97cd63c2e61736a2a442ff1d4bf966f453350e9df354a849229f69092cf64736f6c63430008130033",
    "linkReferences": {}
  },
  "methodIdentifiers": {
    "BASIS_POINT_PRECISION()": "d9a6f705",
    "MAX_SERVICE_FEE()": "14d90e1b",
    "exactInputSingleWithServiceFee((address,uint16)[],(address,address,uint24,address,uint256,uint256,uint160))": "742ac944",
    "exactInputWithServiceFee((address,uint16)[],(bytes,address,uint256,uint256))": "1411734e",
    "exactOutputSingleWithServiceFee((address,uint16)[],(address,address,uint24,address,uint256,uint256,uint160))": "ed921d3c",
    "exactOutputWithServiceFee((address,uint16)[],(bytes,address,uint256,uint256))": "1fd168ff",
    "multicall(bytes[])": "ac9650d8",
    "multicall(uint256,bytes[])": "5ae401dc",
    "owner()": "8da5cb5b",
    "pause()": "8456cb59",
    "paused()": "5c975abb",
    "renounceOwnership()": "715018a6",
    "transferOwnership(address)": "f2fde38b",
    "uniswapRouter()": "735de9f7",
    "unpause()": "3f4ba83a"
  },
  "id": 46
}