{
  "abi": [
    {
      "inputs": [
        {
          "internalType": "address",
          "name": "_admin",
          "type": "address"
        },
        {
          "internalType": "address",
          "name": "_uniRouter",
          "type": "address"
        },
        {
          "internalType": "address",
          "name": "_wimx",
          "type": "address"
        }
      ],
      "stateMutability": "nonpayable",
      "type": "constructor"
    },
    {
      "inputs": [],
      "name": "ContractPaused",
      "type": "error"
    },
    {
      "inputs": [],
      "name": "DeadlinePassed",
      "type": "error"
    },
    {
      "inputs": [],
      "name": "FailedToRefundNativeTokens",
      "type": "error"
    },
    {
      "inputs": [],
      "name": "FailedToSendFees",
      "type": "error"
    },
    {
      "inputs": [],
      "name": "FeeTooHigh",
      "type": "error"
    },
    {
      "inputs": [],
      "name": "IncorrectRecipient",
      "type": "error"
    },
    {
      "inputs": [],
      "name": "InputTokenNotWrapped",
      "type": "error"
    },
    {
      "inputs": [],
      "name": "NativeTokenAmountMismatch",
      "type": "error"
    },
    {
      "inputs": [],
      "name": "Unauthorized",
      "type": "error"
    },
    {
      "anonymous": false,
      "inputs": [
        {
          "indexed": true,
          "internalType": "address",
          "name": "feeToken",
          "type": "address"
        },
        {
          "indexed": true,
          "internalType": "address",
          "name": "feePayer",
          "type": "address"
        },
        {
          "indexed": true,
          "internalType": "address",
          "name": "feeRecipient",
          "type": "address"
        },
        {
          "indexed": false,
          "internalType": "uint256",
          "name": "feeAmount",
          "type": "uint256"
        }
      ],
      "name": "FeeTaken",
      "type": "event"
    },
    {
      "anonymous": false,
      "inputs": [
        {
          "indexed": true,
          "internalType": "address",
          "name": "feePayer",
          "type": "address"
        },
        {
          "indexed": true,
          "internalType": "address",
          "name": "feeRecipient",
          "type": "address"
        },
        {
          "indexed": false,
          "internalType": "uint256",
          "name": "feeAmount",
          "type": "uint256"
        }
      ],
      "name": "FeeTaken",
      "type": "event"
    },
    {
      "anonymous": false,
      "inputs": [
        {
          "indexed": false,
          "internalType": "address",
          "name": "account",
          "type": "address"
        }
      ],
      "name": "Paused",
      "type": "event"
    },
    {
      "anonymous": false,
      "inputs": [
        {
          "indexed": true,
          "internalType": "bytes32",
          "name": "role",
          "type": "bytes32"
        },
        {
          "indexed": true,
          "internalType": "bytes32",
          "name": "previousAdminRole",
          "type": "bytes32"
        },
        {
          "indexed": true,
          "internalType": "bytes32",
          "name": "newAdminRole",
          "type": "bytes32"
        }
      ],
      "name": "RoleAdminChanged",
      "type": "event"
    },
    {
      "anonymous": false,
      "inputs": [
        {
          "indexed": true,
          "internalType": "bytes32",
          "name": "role",
          "type": "bytes32"
        },
        {
          "indexed": true,
          "internalType": "address",
          "name": "account",
          "type": "address"
        },
        {
          "indexed": true,
          "internalType": "address",
          "name": "sender",
          "type": "address"
        }
      ],
      "name": "RoleGranted",
      "type": "event"
    },
    {
      "anonymous": false,
      "inputs": [
        {
          "indexed": true,
          "internalType": "bytes32",
          "name": "role",
          "type": "bytes32"
        },
        {
          "indexed": true,
          "internalType": "address",
          "name": "account",
          "type": "address"
        },
        {
          "indexed": true,
          "internalType": "address",
          "name": "sender",
          "type": "address"
        }
      ],
      "name": "RoleRevoked",
      "type": "event"
    },
    {
      "anonymous": false,
      "inputs": [
        {
          "indexed": false,
          "internalType": "address",
          "name": "account",
          "type": "address"
        }
      ],
      "name": "Unpaused",
      "type": "event"
    },
    {
      "inputs": [],
      "name": "DEFAULT_ADMIN_ROLE",
      "outputs": [
        {
          "internalType": "bytes32",
          "name": "",
          "type": "bytes32"
        }
      ],
      "stateMutability": "view",
      "type": "function"
    },
    {
      "inputs": [
        {
          "components": [
            {
              "internalType": "address payable",
              "name": "recipient",
              "type": "address"
            },
            {
              "internalType": "uint256",
              "name": "feeBasisPoints",
              "type": "uint256"
            }
          ],
          "internalType": "struct ISecondaryFee.SecondaryFeeParams[]",
          "name": "secondaryFees",
          "type": "tuple[]"
        },
        {
          "components": [
            {
              "internalType": "address",
              "name": "tokenIn",
              "type": "address"
            },
            {
              "internalType": "address",
              "name": "tokenOut",
              "type": "address"
            },
            {
              "internalType": "uint24",
              "name": "fee",
              "type": "uint24"
            },
            {
              "internalType": "address",
              "name": "recipient",
              "type": "address"
            },
            {
              "internalType": "uint256",
              "name": "amountIn",
              "type": "uint256"
            },
            {
              "internalType": "uint256",
              "name": "amountOutMinimum",
              "type": "uint256"
            },
            {
              "internalType": "uint160",
              "name": "sqrtPriceLimitX96",
              "type": "uint160"
            }
          ],
          "internalType": "struct IV3SwapRouter.ExactInputSingleParams",
          "name": "swapParams",
          "type": "tuple"
        }
      ],
      "name": "exactInputSingleWithSecondaryFee",
      "outputs": [
        {
          "internalType": "uint256",
          "name": "amountOut",
          "type": "uint256"
        }
      ],
      "stateMutability": "payable",
      "type": "function"
    },
    {
      "inputs": [
        {
          "components": [
            {
              "internalType": "address payable",
              "name": "recipient",
              "type": "address"
            },
            {
              "internalType": "uint256",
              "name": "feeBasisPoints",
              "type": "uint256"
            }
          ],
          "internalType": "struct ISecondaryFee.SecondaryFeeParams[]",
          "name": "secondaryFees",
          "type": "tuple[]"
        },
        {
          "components": [
            {
              "internalType": "bytes",
              "name": "path",
              "type": "bytes"
            },
            {
              "internalType": "address",
              "name": "recipient",
              "type": "address"
            },
            {
              "internalType": "uint256",
              "name": "amountIn",
              "type": "uint256"
            },
            {
              "internalType": "uint256",
              "name": "amountOutMinimum",
              "type": "uint256"
            }
          ],
          "internalType": "struct IV3SwapRouter.ExactInputParams",
          "name": "swapParams",
          "type": "tuple"
        }
      ],
      "name": "exactInputWithSecondaryFee",
      "outputs": [
        {
          "internalType": "uint256",
          "name": "amountOut",
          "type": "uint256"
        }
      ],
      "stateMutability": "payable",
      "type": "function"
    },
    {
      "inputs": [
        {
          "components": [
            {
              "internalType": "address payable",
              "name": "recipient",
              "type": "address"
            },
            {
              "internalType": "uint256",
              "name": "feeBasisPoints",
              "type": "uint256"
            }
          ],
          "internalType": "struct ISecondaryFee.SecondaryFeeParams[]",
          "name": "secondaryFees",
          "type": "tuple[]"
        },
        {
          "components": [
            {
              "internalType": "address",
              "name": "tokenIn",
              "type": "address"
            },
            {
              "internalType": "address",
              "name": "tokenOut",
              "type": "address"
            },
            {
              "internalType": "uint24",
              "name": "fee",
              "type": "uint24"
            },
            {
              "internalType": "address",
              "name": "recipient",
              "type": "address"
            },
            {
              "internalType": "uint256",
              "name": "amountOut",
              "type": "uint256"
            },
            {
              "internalType": "uint256",
              "name": "amountInMaximum",
              "type": "uint256"
            },
            {
              "internalType": "uint160",
              "name": "sqrtPriceLimitX96",
              "type": "uint160"
            }
          ],
          "internalType": "struct IV3SwapRouter.ExactOutputSingleParams",
          "name": "swapParams",
          "type": "tuple"
        }
      ],
      "name": "exactOutputSingleWithSecondaryFee",
      "outputs": [
        {
          "internalType": "uint256",
          "name": "",
          "type": "uint256"
        }
      ],
      "stateMutability": "payable",
      "type": "function"
    },
    {
      "inputs": [
        {
          "components": [
            {
              "internalType": "address payable",
              "name": "recipient",
              "type": "address"
            },
            {
              "internalType": "uint256",
              "name": "feeBasisPoints",
              "type": "uint256"
            }
          ],
          "internalType": "struct ISecondaryFee.SecondaryFeeParams[]",
          "name": "secondaryFees",
          "type": "tuple[]"
        },
        {
          "components": [
            {
              "internalType": "bytes",
              "name": "path",
              "type": "bytes"
            },
            {
              "internalType": "address",
              "name": "recipient",
              "type": "address"
            },
            {
              "internalType": "uint256",
              "name": "amountOut",
              "type": "uint256"
            },
            {
              "internalType": "uint256",
              "name": "amountInMaximum",
              "type": "uint256"
            }
          ],
          "internalType": "struct IV3SwapRouter.ExactOutputParams",
          "name": "swapParams",
          "type": "tuple"
        }
      ],
      "name": "exactOutputWithSecondaryFee",
      "outputs": [
        {
          "internalType": "uint256",
          "name": "",
          "type": "uint256"
        }
      ],
      "stateMutability": "payable",
      "type": "function"
    },
    {
      "inputs": [
        {
          "internalType": "bytes32",
          "name": "role",
          "type": "bytes32"
        }
      ],
      "name": "getRoleAdmin",
      "outputs": [
        {
          "internalType": "bytes32",
          "name": "",
          "type": "bytes32"
        }
      ],
      "stateMutability": "view",
      "type": "function"
    },
    {
      "inputs": [
        {
          "internalType": "bytes32",
          "name": "role",
          "type": "bytes32"
        },
        {
          "internalType": "address",
          "name": "account",
          "type": "address"
        }
      ],
      "name": "grantRole",
      "outputs": [],
      "stateMutability": "nonpayable",
      "type": "function"
    },
    {
      "inputs": [
        {
          "internalType": "bytes32",
          "name": "role",
          "type": "bytes32"
        },
        {
          "internalType": "address",
          "name": "account",
          "type": "address"
        }
      ],
      "name": "hasRole",
      "outputs": [
        {
          "internalType": "bool",
          "name": "",
          "type": "bool"
        }
      ],
      "stateMutability": "view",
      "type": "function"
    },
    {
      "inputs": [
        {
          "internalType": "uint256",
          "name": "deadline",
          "type": "uint256"
        },
        {
          "internalType": "bytes[]",
          "name": "data",
          "type": "bytes[]"
        }
      ],
      "name": "multicall",
      "outputs": [
        {
          "internalType": "bytes[]",
          "name": "",
          "type": "bytes[]"
        }
      ],
      "stateMutability": "payable",
      "type": "function"
    },
    {
      "inputs": [
        {
          "internalType": "bytes[]",
          "name": "data",
          "type": "bytes[]"
        }
      ],
      "name": "multicall",
      "outputs": [
        {
          "internalType": "bytes[]",
          "name": "results",
          "type": "bytes[]"
        }
      ],
      "stateMutability": "nonpayable",
      "type": "function"
    },
    {
      "inputs": [],
      "name": "pause",
      "outputs": [],
      "stateMutability": "nonpayable",
      "type": "function"
    },
    {
      "inputs": [],
      "name": "paused",
      "outputs": [
        {
          "internalType": "bool",
          "name": "",
          "type": "bool"
        }
      ],
      "stateMutability": "view",
      "type": "function"
    },
    {
      "inputs": [
        {
          "internalType": "bytes32",
          "name": "role",
          "type": "bytes32"
        },
        {
          "internalType": "address",
          "name": "account",
          "type": "address"
        }
      ],
      "name": "renounceRole",
      "outputs": [],
      "stateMutability": "nonpayable",
      "type": "function"
    },
    {
      "inputs": [
        {
          "internalType": "bytes32",
          "name": "role",
          "type": "bytes32"
        },
        {
          "internalType": "address",
          "name": "account",
          "type": "address"
        }
      ],
      "name": "revokeRole",
      "outputs": [],
      "stateMutability": "nonpayable",
      "type": "function"
    },
    {
      "inputs": [
        {
          "internalType": "bytes4",
          "name": "interfaceId",
          "type": "bytes4"
        }
      ],
      "name": "supportsInterface",
      "outputs": [
        {
          "internalType": "bool",
          "name": "",
          "type": "bool"
        }
      ],
      "stateMutability": "view",
      "type": "function"
    },
    {
      "inputs": [],
      "name": "unpause",
      "outputs": [],
      "stateMutability": "nonpayable",
      "type": "function"
    },
    {
      "inputs": [
        {
          "internalType": "uint256",
          "name": "amountMinimum",
          "type": "uint256"
        }
      ],
      "name": "unwrapNativeToken",
      "outputs": [],
      "stateMutability": "payable",
      "type": "function"
    },
    {
      "inputs": [
        {
          "internalType": "address",
          "name": "to",
          "type": "address"
        },
        {
          "internalType": "address",
          "name": "erc20",
          "type": "address"
        }
      ],
      "name": "withdrawFunds",
      "outputs": [],
      "stateMutability": "nonpayable",
      "type": "function"
    },
    {
      "stateMutability": "payable",
      "type": "receive"
    }
  ],
  "bytecode": {
    "object": "0x60806040523480156200001157600080fd5b506040516200310b3803806200310b83398101604081905262000034916200015c565b6001805460ff191690556200004b6000846200009e565b600180546001600160a01b039384166101008102610100600160a81b03199092169190911790915560038054929093166001600160a01b03199283161790925560028054909116909117905550620001a6565b6000828152602081815260408083206001600160a01b038516845290915290205460ff166200013b576000828152602081815260408083206001600160a01b03851684529091529020805460ff19166001179055620000fa3390565b6001600160a01b0316816001600160a01b0316837f2f8788117e7eff1d82e926ec794901d17c78024a50270940304540a733656f0d60405160405180910390a45b5050565b80516001600160a01b03811681146200015757600080fd5b919050565b6000806000606084860312156200017257600080fd5b6200017d846200013f565b92506200018d602085016200013f565b91506200019d604085016200013f565b90509250925092565b612f5580620001b66000396000f3fe60806040526004361061010c5760003560e01c806358e81a50116100955780638456cb59116100645780638456cb591461029957806391d14854146102ae578063a217fddf146102ce578063ac9650d8146102e3578063d547741f1461030357600080fd5b806358e81a501461023b5780635ae401dc1461024e5780635c975abb1461026e5780635ebca7991461028657600080fd5b80632f2ff15d116100dc5780632f2ff15d146101c057806336568abe146101e0578063383ebb0b146102005780633f4ba83a146102135780635640f6591461022857600080fd5b80620fa9fb1461011857806301ffc9a71461013a578063116944b21461016f578063248a9ca31461019057600080fd5b3661011357005b600080fd5b34801561012457600080fd5b5061013861013336600461270a565b610323565b005b34801561014657600080fd5b5061015a610155366004612743565b6103ef565b60405190151581526020015b60405180910390f35b61018261017d3660046128d4565b610426565b604051908152602001610166565b34801561019c57600080fd5b506101826101ab366004612929565b60009081526020819052604090206001015490565b3480156101cc57600080fd5b506101386101db366004612942565b6106ab565b3480156101ec57600080fd5b506101386101fb366004612942565b6106d0565b61018261020e366004612a2a565b610753565b34801561021f57600080fd5b50610138610ac2565b610182610236366004612a2a565b610b12565b6101826102493660046128d4565b610d90565b61026161025c366004612ad6565b6110c5565b6040516101669190612b71565b34801561027a57600080fd5b5060015460ff1661015a565b610138610294366004612929565b6110fa565b3480156102a557600080fd5b506101386112aa565b3480156102ba57600080fd5b5061015a6102c9366004612942565b6112f8565b3480156102da57600080fd5b50610182600081565b3480156102ef57600080fd5b506102616102fe366004612bd3565b611321565b34801561030f57600080fd5b5061013861031e366004612942565b611415565b61034d7f7a8dc26796a1e50e6e190b70259f58f6a4edd5b22280ceecc82b687b8e982869336112f8565b610369576040516282b42960e81b815260040160405180910390fd5b6040516370a0823160e01b81523060048201526000906001600160a01b038316906370a0823190602401602060405180830381865afa1580156103b0573d6000803e3d6000fd5b505050506040513d601f19601f820116820180604052508101906103d49190612c14565b90506103ea6001600160a01b038316848361143a565b505050565b60006001600160e01b03198216637965db0b60e01b148061042057506301ffc9a760e01b6001600160e01b03198316145b92915050565b600061043460015460ff1690565b156104525760405163ab35696f60e01b815260040160405180910390fd5b60608201516001600160a01b0316331461047f5760405163519bdea760e01b815260040160405180910390fd5b4780156105bf57826080015181146104aa576040516342f7487960e11b815260040160405180910390fd5b60035483516001600160a01b039081169116146104da576040516324d0121760e01b815260040160405180910390fd5b61053a83608001518686808060200260200160405190810160405280939291908181526020016000905b828210156105305761052160408302860136819003810190612c2d565b81526020019060010190610504565b505050505061149d565b608084018190526001546040516304e45aaf60e01b81526101009091046001600160a01b0316916304e45aaf91610575908790600401612c84565b60206040518083038185885af1158015610593573d6000803e3d6000fd5b50505050506040513d601f19601f820116820180604052508101906105b89190612c14565b91506106a3565b610624836000015184608001518787808060200260200160405190810160405280939291908181526020016000905b8282101561061a5761060b60408302860136819003810190612c2d565b815260200190600101906105ee565b50505050506114ef565b60808401526001546040516304e45aaf60e01b81526101009091046001600160a01b0316906304e45aaf9061065d908690600401612c84565b6020604051808303816000875af115801561067c573d6000803e3d6000fd5b505050506040513d601f19601f820116820180604052508101906106a09190612c14565b91505b509392505050565b6000828152602081905260409020600101546106c68161154c565b6103ea8383611559565b6001600160a01b03811633146107455760405162461bcd60e51b815260206004820152602f60248201527f416363657373436f6e74726f6c3a2063616e206f6e6c792072656e6f756e636560448201526e103937b632b9903337b91039b2b63360891b60648201526084015b60405180910390fd5b61074f82826115dd565b5050565b600061076160015460ff1690565b1561077f5760405163ab35696f60e01b815260040160405180910390fd5b60208201516001600160a01b031633146107ac5760405163519bdea760e01b815260040160405180910390fd5b60006107bb8360000151611642565b905047801561096d576003546001600160a01b038381169116146107f2576040516324d0121760e01b815260040160405180910390fd5b83606001518114610816576040516342f7487960e11b815260040160405180910390fd5b60008061087986606001518989808060200260200160405190810160405280939291908181526020016000905b8282101561086f5761086060408302860136819003810190612c2d565b81526020019060010190610843565b5050505050611670565b606088018190526001546040516304dc09a360e11b81529294509092506000916101009091046001600160a01b0316906309b813469084906108bf908b90600401612d2a565b60206040518083038185885af11580156108dd573d6000803e3d6000fd5b50505050506040513d601f19601f820116820180604052508101906109029190612c14565b905061096181848b8b808060200260200160405190810160405280939291908181526020016000905b828210156109575761094860408302860136819003810190612c2d565b8152602001906001019061092b565b50505050506116c3565b95505050505050610abb565b6000806109d18487606001518a8a808060200260200160405190810160405280939291908181526020016000905b828210156109c7576109b860408302860136819003810190612c2d565b8152602001906001019061099b565b50505050506117b7565b606088018190526001546040516304dc09a360e11b81529294509092506000916101009091046001600160a01b0316906309b8134690610a15908a90600401612d2a565b6020604051808303816000875af1158015610a34573d6000803e3d6000fd5b505050506040513d601f19601f82011682018060405250810190610a589190612c14565b90506109618582858c8c808060200260200160405190810160405280939291908181526020016000905b82821015610aae57610a9f60408302860136819003810190612c2d565b81526020019060010190610a82565b5050505050611811565b50505b9392505050565b610aec7fe7276a2a84d8de556657ec9cf93a55a7d66f096e529d0582ed08e9e2208b92b5336112f8565b610b08576040516282b42960e81b815260040160405180910390fd5b610b1061186d565b565b6000610b2060015460ff1690565b15610b3e5760405163ab35696f60e01b815260040160405180910390fd5b60208201516001600160a01b03163314610b6b5760405163519bdea760e01b815260040160405180910390fd5b6000610b7a83600001516118bf565b9050478015610cb05783604001518114610ba7576040516342f7487960e11b815260040160405180910390fd5b6003546001600160a01b03838116911614610bd5576040516324d0121760e01b815260040160405180910390fd5b610c2b84604001518787808060200260200160405190810160405280939291908181526020016000905b8282101561053057610c1c60408302860136819003810190612c2d565b81526020019060010190610bff565b6040858101829052600154905163b858183f60e01b81526101009091046001600160a01b03169163b858183f91610c66908890600401612d2a565b60206040518083038185885af1158015610c84573d6000803e3d6000fd5b50505050506040513d601f19601f82011682018060405250810190610ca99190612c14565b9250610ab8565b610d078285604001518888808060200260200160405190810160405280939291908181526020016000905b8282101561061a57610cf860408302860136819003810190612c2d565b81526020019060010190610cdb565b604085810191909152600154905163b858183f60e01b81526101009091046001600160a01b03169063b858183f90610d43908790600401612d2a565b6020604051808303816000875af1158015610d62573d6000803e3d6000fd5b505050506040513d601f19601f82011682018060405250810190610d869190612c14565b9695505050505050565b6000610d9e60015460ff1690565b15610dbc5760405163ab35696f60e01b815260040160405180910390fd5b60608201516001600160a01b03163314610de95760405163519bdea760e01b815260040160405180910390fd5b478015610f865760035483516001600160a01b03908116911614610e20576040516324d0121760e01b815260040160405180910390fd5b8260a001518114610e44576040516342f7487960e11b815260040160405180910390fd5b600080610e9d8560a001518888808060200260200160405190810160405280939291908181526020016000905b8282101561086f57610e8e60408302860136819003810190612c2d565b81526020019060010190610e71565b60a08701819052600154604051635023b4df60e01b81529294509092506000916101009091046001600160a01b031690635023b4df908490610ee3908a90600401612c84565b60206040518083038185885af1158015610f01573d6000803e3d6000fd5b50505050506040513d601f19601f82011682018060405250810190610f269190612c14565b9050610f7b81848a8a808060200260200160405190810160405280939291908181526020016000905b8282101561095757610f6c60408302860136819003810190612c2d565b81526020019060010190610f4f565b945050505050610abb565b600080610fe485600001518660a001518989808060200260200160405190810160405280939291908181526020016000905b828210156109c757610fd560408302860136819003810190612c2d565b81526020019060010190610fb8565b60a08701819052600154604051635023b4df60e01b81529294509092506000916101009091046001600160a01b031690635023b4df90611028908990600401612c84565b6020604051808303816000875af1158015611047573d6000803e3d6000fd5b505050506040513d601f19601f8201168201806040525081019061106b9190612c14565b9050610f7b866000015182858b8b808060200260200160405190810160405280939291908181526020016000905b82821015610aae576110b660408302860136819003810190612c2d565b81526020019060010190611099565b6060834211156110e85760405163387b2e5560e11b815260040160405180910390fd5b6110f28383611321565b949350505050565b6003546040516370a0823160e01b81523060048201526000916001600160a01b0316906370a0823190602401602060405180830381865afa158015611143573d6000803e3d6000fd5b505050506040513d601f19601f820116820180604052508101906111679190612c14565b9050818110156111ad5760405162461bcd60e51b8152602060048201526011602482015270092dce6eaccccd2c6d2cadce840ae929ab607b1b604482015260640161073c565b801561074f57600354604051632e1a7d4d60e01b8152600481018390526001600160a01b0390911690632e1a7d4d90602401600060405180830381600087803b1580156111f957600080fd5b505af115801561120d573d6000803e3d6000fd5b50506040805160008082526020820192839052935033925084916112319190612d3d565b60006040518083038185875af1925050503d806000811461126e576040519150601f19603f3d011682016040523d82523d6000602084013e611273565b606091505b50509050806103ea5760405162461bcd60e51b815260206004820152600360248201526253544560e81b604482015260640161073c565b6112d47ffcb9fcbfa83b897fb2d5cf4b58962164105c1e71489a37ef3ae0db3fdce576f6336112f8565b6112f0576040516282b42960e81b815260040160405180910390fd5b610b106118cb565b6000918252602082815260408084206001600160a01b0393909316845291905290205460ff1690565b6060816001600160401b0381111561133b5761133b6127b1565b60405190808252806020026020018201604052801561136e57816020015b60608152602001906001900390816113595790505b50905060005b8281101561140e576113de3085858481811061139257611392612d59565b90506020028101906113a49190612d6f565b8080601f01602080910402602001604051908101604052809392919081815260200183838082843760009201919091525061190692505050565b8282815181106113f0576113f0612d59565b6020026020010181905250808061140690612dcb565b915050611374565b5092915050565b6000828152602081905260409020600101546114308161154c565b6103ea83836115dd565b6040516001600160a01b0383166024820152604481018290526103ea90849063a9059cbb60e01b906064015b60408051601f198184030181529190526020810180516001600160e01b03166001600160e01b03199093169290921790915261192b565b60006114a882611a00565b506000806114b68585611a73565b90925090506114c58286612de4565b94506114d081611b9c565b6003546114e6906001600160a01b031686611cc6565b50929392505050565b60006114fa82611a00565b506000806115088585611a73565b90925090506115178286612de4565b94506115238682611dc3565b6115386001600160a01b038716333088611ecc565b6115428686611cc6565b5092949350505050565b6115568133611f0a565b50565b61156382826112f8565b61074f576000828152602081815260408083206001600160a01b03851684529091529020805460ff191660011790556115993390565b6001600160a01b0316816001600160a01b0316837f2f8788117e7eff1d82e926ec794901d17c78024a50270940304540a733656f0d60405160405180910390a45050565b6115e782826112f8565b1561074f576000828152602081815260408083206001600160a01b0385168085529252808320805460ff1916905551339285917ff6391f5c32d9c69d2a47ea670b442974b53935d1edc7fd64eb21e047a839171b9190a45050565b600080601483516116539190612de4565b9050600061166384836014611f63565b90506110f2816000612070565b600080600061167e84611a00565b9050600061168e82612710612df7565b905061169d86612710836120d5565b6003549093506116b6906001600160a01b031684611cc6565b85935050505b9250929050565b60008060006116d28685611a73565b915091506116df81611b9c565b600260009054906101000a90046001600160a01b03166001600160a01b03166312210e8a6040518163ffffffff1660e01b8152600401600060405180830381600087803b15801561172f57600080fd5b505af1158015611743573d6000803e3d6000fd5b5050505060008287876117569190612de4565b6117609190612de4565b604051909150600090339083156108fc0290849084818181858888f193505050509050806117a1576040516382e4f46960e01b815260040160405180910390fd5b6117ab8489612df7565b98975050505050505050565b60008060006117c584611a00565b905060006117d582612710612df7565b90506117e486612710836120d5565b92506117f08784611cc6565b6118056001600160a01b038816333089611ecc565b50939590945092505050565b60008060006118208685611a73565b9150915061182e8782612115565b611858338361183d8989612de4565b6118479190612de4565b6001600160a01b038a16919061143a565b6118628287612df7565b979650505050505050565b61187561221c565b6001805460ff191690557f5db9ee0a495bf2e6ff9c91a7834c1ba4fdd244a5e8aa4e537bd38aeae4b073aa335b6040516001600160a01b03909116815260200160405180910390a1565b60006104208282612070565b6118d3612265565b6001805460ff1916811790557f62e78cea01bee320cd4e420270b5ea74000d11b0c9f74754ebdbfc544b05a258336118a2565b6060610abb8383604051806060016040528060278152602001612ef9602791396122ab565b6000611980826040518060400160405280602081526020017f5361666545524332303a206c6f772d6c6576656c2063616c6c206661696c6564815250856001600160a01b03166123199092919063ffffffff16565b90508051600014806119a15750808060200190518101906119a19190612e0a565b6103ea5760405162461bcd60e51b815260206004820152602a60248201527f5361666545524332303a204552433230206f7065726174696f6e20646964206e6044820152691bdd081cdd58d8d9595960b21b606482015260840161073c565b6000805b8251811015611a4a57828181518110611a1f57611a1f612d59565b60200260200101516020015182611a369190612df7565b915080611a4281612dcb565b915050611a04565b506103e8811115611a6e5760405163cd4e616760e01b815260040160405180910390fd5b919050565b6000606082516001600160401b03811115611a9057611a906127b1565b604051908082528060200260200182016040528015611ad557816020015b6040805180820190915260008082526020820152815260200190600190039081611aae5790505b50905060005b8351811015611b94576000611b1a858381518110611afb57611afb612d59565b602002602001015160200151612710886123289092919063ffffffff16565b90506040518060400160405280868481518110611b3957611b39612d59565b6020026020010151600001516001600160a01b0316815260200182815250838381518110611b6957611b69612d59565b6020908102919091010152611b7e8185612df7565b9350508080611b8c90612dcb565b915050611adb565b509250929050565b60005b815181101561074f576000828281518110611bbc57611bbc612d59565b6020026020010151600001516001600160a01b03166108fc848481518110611be657611be6612d59565b6020026020010151602001519081150290604051600060405180830381858888f19350505050905080611c2c5760405163647373e960e11b815260040160405180910390fd5b828281518110611c3e57611c3e612d59565b6020026020010151600001516001600160a01b0316336001600160a01b03167fe0e765ab26c1caf691c510426951246128b96830e49cc81d8c093fd551abac35858581518110611c9057611c90612d59565b602002602001015160200151604051611cab91815260200190565b60405180910390a35080611cbe81612dcb565b915050611b9f565b600154604051636eb1769f60e11b81523060048201526001600160a01b0361010090920482166024820152829184169063dd62ed3e90604401602060405180830381865afa158015611d1c573d6000803e3d6000fd5b505050506040513d601f19601f82011682018060405250810190611d409190612c14565b101561074f5760015460405163095ea7b360e01b81526101009091046001600160a01b039081166004830152600019602483015283169063095ea7b3906044016020604051808303816000875af1158015611d9f573d6000803e3d6000fd5b505050506040513d601f19601f820116820180604052508101906103ea9190612e0a565b60005b81518110156103ea57611e2933838381518110611de557611de5612d59565b602002602001015160000151848481518110611e0357611e03612d59565b602002602001015160200151866001600160a01b0316611ecc909392919063ffffffff16565b818181518110611e3b57611e3b612d59565b6020026020010151600001516001600160a01b0316336001600160a01b0316846001600160a01b03167f1f9a9fdac86b6ca3c5300bec0b61555cded1f1a234378602dcca6c27085eac8e858581518110611e9757611e97612d59565b602002602001015160200151604051611eb291815260200190565b60405180910390a480611ec481612dcb565b915050611dc6565b6040516001600160a01b0380851660248301528316604482015260648101829052611f049085906323b872dd60e01b90608401611466565b50505050565b611f1482826112f8565b61074f57611f21816123ca565b611f2c8360206123dc565b604051602001611f3d929190612e2c565b60408051601f198184030181529082905262461bcd60e51b825261073c91600401612ea1565b606081611f7181601f612df7565b1015611fb05760405162461bcd60e51b815260206004820152600e60248201526d736c6963655f6f766572666c6f7760901b604482015260640161073c565b611fba8284612df7565b84511015611ffe5760405162461bcd60e51b8152602060048201526011602482015270736c6963655f6f75744f66426f756e647360781b604482015260640161073c565b60608215801561201d5760405191506000825260208201604052612067565b6040519150601f8416801560200281840101858101878315602002848b0101015b8183101561205657805183526020928301920161203e565b5050858452601f01601f1916604052505b50949350505050565b600061207d826014612df7565b835110156120c55760405162461bcd60e51b8152602060048201526015602482015274746f416464726573735f6f75744f66426f756e647360581b604482015260640161073c565b500160200151600160601b900490565b60006120e2848484612328565b9050600082806120f4576120f4612eb4565b8486091115610abb57600019811061210b57600080fd5b6001019392505050565b60005b81518110156103ea5761217982828151811061213657612136612d59565b60200260200101516000015183838151811061215457612154612d59565b602002602001015160200151856001600160a01b031661143a9092919063ffffffff16565b81818151811061218b5761218b612d59565b6020026020010151600001516001600160a01b0316336001600160a01b0316846001600160a01b03167f1f9a9fdac86b6ca3c5300bec0b61555cded1f1a234378602dcca6c27085eac8e8585815181106121e7576121e7612d59565b60200260200101516020015160405161220291815260200190565b60405180910390a48061221481612dcb565b915050612118565b60015460ff16610b105760405162461bcd60e51b815260206004820152601460248201527314185d5cd8589b194e881b9bdd081c185d5cd95960621b604482015260640161073c565b60015460ff1615610b105760405162461bcd60e51b815260206004820152601060248201526f14185d5cd8589b194e881c185d5cd95960821b604482015260640161073c565b6060600080856001600160a01b0316856040516122c89190612d3d565b600060405180830381855af49150503d8060008114612303576040519150601f19603f3d011682016040523d82523d6000602084013e612308565b606091505b5091509150610d8686838387612577565b60606110f284846000856125f0565b6000838302816000198587098281108382030391505080841161234a57600080fd5b8060000361235d57508290049050610abb565b6000848688096000868103871696879004966002600389028118808a02820302808a02820302808a02820302808a02820302808a02820302808a02909103029181900381900460010186841190950394909402919094039290920491909117919091029150509392505050565b60606104206001600160a01b03831660145b606060006123eb836002612eca565b6123f6906002612df7565b6001600160401b0381111561240d5761240d6127b1565b6040519080825280601f01601f191660200182016040528015612437576020820181803683370190505b509050600360fc1b8160008151811061245257612452612d59565b60200101906001600160f81b031916908160001a905350600f60fb1b8160018151811061248157612481612d59565b60200101906001600160f81b031916908160001a90535060006124a5846002612eca565b6124b0906001612df7565b90505b6001811115612528576f181899199a1a9b1b9c1cb0b131b232b360811b85600f16601081106124e4576124e4612d59565b1a60f81b8282815181106124fa576124fa612d59565b60200101906001600160f81b031916908160001a90535060049490941c9361252181612ee1565b90506124b3565b508315610abb5760405162461bcd60e51b815260206004820181905260248201527f537472696e67733a20686578206c656e67746820696e73756666696369656e74604482015260640161073c565b606083156125e65782516000036125df576001600160a01b0385163b6125df5760405162461bcd60e51b815260206004820152601d60248201527f416464726573733a2063616c6c20746f206e6f6e2d636f6e7472616374000000604482015260640161073c565b50816110f2565b6110f283836126c0565b6060824710156126515760405162461bcd60e51b815260206004820152602660248201527f416464726573733a20696e73756666696369656e742062616c616e636520666f6044820152651c8818d85b1b60d21b606482015260840161073c565b600080866001600160a01b0316858760405161266d9190612d3d565b60006040518083038185875af1925050503d80600081146126aa576040519150601f19603f3d011682016040523d82523d6000602084013e6126af565b606091505b509150915061186287838387612577565b8151156126d05781518083602001fd5b8060405162461bcd60e51b815260040161073c9190612ea1565b6001600160a01b038116811461155657600080fd5b8035611a6e816126ea565b6000806040838503121561271d57600080fd5b8235612728816126ea565b91506020830135612738816126ea565b809150509250929050565b60006020828403121561275557600080fd5b81356001600160e01b031981168114610abb57600080fd5b60008083601f84011261277f57600080fd5b5081356001600160401b0381111561279657600080fd5b6020830191508360208260061b85010111156116bc57600080fd5b634e487b7160e01b600052604160045260246000fd5b60405160e081016001600160401b03811182821017156127e9576127e96127b1565b60405290565b604051608081016001600160401b03811182821017156127e9576127e96127b1565b604051601f8201601f191681016001600160401b0381118282101715612839576128396127b1565b604052919050565b600060e0828403121561285357600080fd5b61285b6127c7565b90508135612868816126ea565b81526020820135612878816126ea565b6020820152604082013562ffffff8116811461289357600080fd5b60408201526128a4606083016126ff565b60608201526080820135608082015260a082013560a08201526128c960c083016126ff565b60c082015292915050565b600080600061010084860312156128ea57600080fd5b83356001600160401b0381111561290057600080fd5b61290c8682870161276d565b909450925061292090508560208601612841565b90509250925092565b60006020828403121561293b57600080fd5b5035919050565b6000806040838503121561295557600080fd5b823591506020830135612738816126ea565b60006080828403121561297957600080fd5b6129816127ef565b905081356001600160401b038082111561299a57600080fd5b818401915084601f8301126129ae57600080fd5b81356020828211156129c2576129c26127b1565b6129d4601f8301601f19168201612811565b925081835286818386010111156129ea57600080fd5b81818501828501376000818385010152828552612a088187016126ff565b8186015250505050604082013560408201526060820135606082015292915050565b600080600060408486031215612a3f57600080fd5b83356001600160401b0380821115612a5657600080fd5b612a628783880161276d565b90955093506020860135915080821115612a7b57600080fd5b50612a8886828701612967565b9150509250925092565b60008083601f840112612aa457600080fd5b5081356001600160401b03811115612abb57600080fd5b6020830191508360208260051b85010111156116bc57600080fd5b600080600060408486031215612aeb57600080fd5b8335925060208401356001600160401b03811115612b0857600080fd5b612b1486828701612a92565b9497909650939450505050565b60005b83811015612b3c578181015183820152602001612b24565b50506000910152565b60008151808452612b5d816020860160208601612b21565b601f01601f19169290920160200192915050565b6000602080830181845280855180835260408601915060408160051b870101925083870160005b82811015612bc657603f19888603018452612bb4858351612b45565b94509285019290850190600101612b98565b5092979650505050505050565b60008060208385031215612be657600080fd5b82356001600160401b03811115612bfc57600080fd5b612c0885828601612a92565b90969095509350505050565b600060208284031215612c2657600080fd5b5051919050565b600060408284031215612c3f57600080fd5b604051604081018181106001600160401b0382111715612c6157612c616127b1565b6040528235612c6f816126ea565b81526020928301359281019290925250919050565b60e08101610420828480516001600160a01b03908116835260208083015182169084015260408083015162ffffff16908401526060808301518216908401526080808301519084015260a0828101519084015260c09182015116910152565b6000815160808452612cf86080850182612b45565b6020848101516001600160a01b0316908601526040808501519086015260609384015193909401929092525090919050565b602081526000610abb6020830184612ce3565b60008251612d4f818460208701612b21565b9190910192915050565b634e487b7160e01b600052603260045260246000fd5b6000808335601e19843603018112612d8657600080fd5b8301803591506001600160401b03821115612da057600080fd5b6020019150368190038213156116bc57600080fd5b634e487b7160e01b600052601160045260246000fd5b600060018201612ddd57612ddd612db5565b5060010190565b8181038181111561042057610420612db5565b8082018082111561042057610420612db5565b600060208284031215612e1c57600080fd5b81518015158114610abb57600080fd5b7f416363657373436f6e74726f6c3a206163636f756e7420000000000000000000815260008351612e64816017850160208801612b21565b7001034b99036b4b9b9b4b733903937b6329607d1b6017918401918201528351612e95816028840160208801612b21565b01602801949350505050565b602081526000610abb6020830184612b45565b634e487b7160e01b600052601260045260246000fd5b808202811582820484141761042057610420612db5565b600081612ef057612ef0612db5565b50600019019056fe416464726573733a206c6f772d6c6576656c2064656c65676174652063616c6c206661696c6564a2646970667358221220eff696b5535ea5759815da07da267901ad15855b143752622fa478891337f65c64736f6c63430008130033",
    "linkReferences": {}
  },
  "methodIdentifiers": {
    "DEFAULT_ADMIN_ROLE()": "a217fddf",
    "exactInputSingleWithSecondaryFee((address,uint256)[],(address,address,uint24,address,uint256,uint256,uint160))": "116944b2",
    "exactInputWithSecondaryFee((address,uint256)[],(bytes,address,uint256,uint256))": "5640f659",
    "exactOutputSingleWithSecondaryFee((address,uint256)[],(address,address,uint24,address,uint256,uint256,uint160))": "58e81a50",
    "exactOutputWithSecondaryFee((address,uint256)[],(bytes,address,uint256,uint256))": "383ebb0b",
    "getRoleAdmin(bytes32)": "248a9ca3",
    "grantRole(bytes32,address)": "2f2ff15d",
    "hasRole(bytes32,address)": "91d14854",
    "multicall(bytes[])": "ac9650d8",
    "multicall(uint256,bytes[])": "5ae401dc",
    "pause()": "8456cb59",
    "paused()": "5c975abb",
    "renounceRole(bytes32,address)": "36568abe",
    "revokeRole(bytes32,address)": "d547741f",
    "supportsInterface(bytes4)": "01ffc9a7",
    "unpause()": "3f4ba83a",
    "unwrapNativeToken(uint256)": "5ebca799",
    "withdrawFunds(address,address)": "000fa9fb"
  },
  "id": 47
}