{
  "abi": [
    {
      "inputs": [
        {
          "internalType": "address",
          "name": "_admin",
          "type": "address"
        },
        {
          "internalType": "address",
          "name": "_uniRouter",
          "type": "address"
        },
        {
          "internalType": "address",
          "name": "_wimx",
          "type": "address"
        }
      ],
      "stateMutability": "nonpayable",
      "type": "constructor"
    },
    {
      "inputs": [],
      "name": "ContractPaused",
      "type": "error"
    },
    {
      "inputs": [],
      "name": "DeadlinePassed",
      "type": "error"
    },
    {
      "inputs": [],
      "name": "FailedToRefundNativeTokens",
      "type": "error"
    },
    {
      "inputs": [
        {
          "internalType": "address payable",
          "name": "recipient",
          "type": "address"
        },
        {
          "internalType": "uint256",
          "name": "amount",
          "type": "uint256"
        }
      ],
      "name": "FailedToSendFees",
      "type": "error"
    },
    {
      "inputs": [
        {
          "internalType": "uint256",
          "name": "required",
          "type": "uint256"
        },
        {
          "internalType": "uint256",
          "name": "actual",
          "type": "uint256"
        }
      ],
      "name": "FailedToUnwrapNativeTokens",
      "type": "error"
    },
    {
      "inputs": [],
      "name": "FailedToWithdrawNativeTokens",
      "type": "error"
    },
    {
      "inputs": [],
      "name": "FeeTooHigh",
      "type": "error"
    },
    {
      "inputs": [],
      "name": "IncorrectRecipient",
      "type": "error"
    },
    {
      "inputs": [],
      "name": "InputTokenNotWrapped",
      "type": "error"
    },
    {
      "inputs": [],
      "name": "NativeTokenAmountMismatch",
      "type": "error"
    },
    {
      "inputs": [],
      "name": "Unauthorized",
      "type": "error"
    },
    {
      "anonymous": false,
      "inputs": [
        {
          "indexed": true,
          "internalType": "address",
          "name": "feeToken",
          "type": "address"
        },
        {
          "indexed": true,
          "internalType": "address",
          "name": "feePayer",
          "type": "address"
        },
        {
          "indexed": true,
          "internalType": "address",
          "name": "feeRecipient",
          "type": "address"
        },
        {
          "indexed": false,
          "internalType": "uint256",
          "name": "feeAmount",
          "type": "uint256"
        }
      ],
      "name": "FeeTaken",
      "type": "event"
    },
    {
      "anonymous": false,
      "inputs": [
        {
          "indexed": true,
          "internalType": "address",
          "name": "feePayer",
          "type": "address"
        },
        {
          "indexed": true,
          "internalType": "address",
          "name": "feeRecipient",
          "type": "address"
        },
        {
          "indexed": false,
          "internalType": "uint256",
          "name": "feeAmount",
          "type": "uint256"
        }
      ],
      "name": "FeeTaken",
      "type": "event"
    },
    {
      "anonymous": false,
      "inputs": [
        {
          "indexed": false,
          "internalType": "address",
          "name": "account",
          "type": "address"
        }
      ],
      "name": "Paused",
      "type": "event"
    },
    {
      "anonymous": false,
      "inputs": [
        {
          "indexed": true,
          "internalType": "bytes32",
          "name": "role",
          "type": "bytes32"
        },
        {
          "indexed": true,
          "internalType": "bytes32",
          "name": "previousAdminRole",
          "type": "bytes32"
        },
        {
          "indexed": true,
          "internalType": "bytes32",
          "name": "newAdminRole",
          "type": "bytes32"
        }
      ],
      "name": "RoleAdminChanged",
      "type": "event"
    },
    {
      "anonymous": false,
      "inputs": [
        {
          "indexed": true,
          "internalType": "bytes32",
          "name": "role",
          "type": "bytes32"
        },
        {
          "indexed": true,
          "internalType": "address",
          "name": "account",
          "type": "address"
        },
        {
          "indexed": true,
          "internalType": "address",
          "name": "sender",
          "type": "address"
        }
      ],
      "name": "RoleGranted",
      "type": "event"
    },
    {
      "anonymous": false,
      "inputs": [
        {
          "indexed": true,
          "internalType": "bytes32",
          "name": "role",
          "type": "bytes32"
        },
        {
          "indexed": true,
          "internalType": "address",
          "name": "account",
          "type": "address"
        },
        {
          "indexed": true,
          "internalType": "address",
          "name": "sender",
          "type": "address"
        }
      ],
      "name": "RoleRevoked",
      "type": "event"
    },
    {
      "anonymous": false,
      "inputs": [
        {
          "indexed": false,
          "internalType": "address",
          "name": "account",
          "type": "address"
        }
      ],
      "name": "Unpaused",
      "type": "event"
    },
    {
      "inputs": [],
      "name": "DEFAULT_ADMIN_ROLE",
      "outputs": [
        {
          "internalType": "bytes32",
          "name": "",
          "type": "bytes32"
        }
      ],
      "stateMutability": "view",
      "type": "function"
    },
    {
      "inputs": [
        {
          "components": [
            {
              "internalType": "address payable",
              "name": "recipient",
              "type": "address"
            },
            {
              "internalType": "uint256",
              "name": "feeBasisPoints",
              "type": "uint256"
            }
          ],
          "internalType": "struct ISecondaryFee.SecondaryFeeParams[]",
          "name": "secondaryFees",
          "type": "tuple[]"
        },
        {
          "components": [
            {
              "internalType": "address",
              "name": "tokenIn",
              "type": "address"
            },
            {
              "internalType": "address",
              "name": "tokenOut",
              "type": "address"
            },
            {
              "internalType": "uint24",
              "name": "fee",
              "type": "uint24"
            },
            {
              "internalType": "address",
              "name": "recipient",
              "type": "address"
            },
            {
              "internalType": "uint256",
              "name": "amountIn",
              "type": "uint256"
            },
            {
              "internalType": "uint256",
              "name": "amountOutMinimum",
              "type": "uint256"
            },
            {
              "internalType": "uint160",
              "name": "sqrtPriceLimitX96",
              "type": "uint160"
            }
          ],
          "internalType": "struct IV3SwapRouter.ExactInputSingleParams",
          "name": "swapParams",
          "type": "tuple"
        }
      ],
      "name": "exactInputSingleWithSecondaryFee",
      "outputs": [
        {
          "internalType": "uint256",
          "name": "amountOut",
          "type": "uint256"
        }
      ],
      "stateMutability": "payable",
      "type": "function"
    },
    {
      "inputs": [
        {
          "components": [
            {
              "internalType": "address payable",
              "name": "recipient",
              "type": "address"
            },
            {
              "internalType": "uint256",
              "name": "feeBasisPoints",
              "type": "uint256"
            }
          ],
          "internalType": "struct ISecondaryFee.SecondaryFeeParams[]",
          "name": "secondaryFees",
          "type": "tuple[]"
        },
        {
          "components": [
            {
              "internalType": "bytes",
              "name": "path",
              "type": "bytes"
            },
            {
              "internalType": "address",
              "name": "recipient",
              "type": "address"
            },
            {
              "internalType": "uint256",
              "name": "amountIn",
              "type": "uint256"
            },
            {
              "internalType": "uint256",
              "name": "amountOutMinimum",
              "type": "uint256"
            }
          ],
          "internalType": "struct IV3SwapRouter.ExactInputParams",
          "name": "swapParams",
          "type": "tuple"
        }
      ],
      "name": "exactInputWithSecondaryFee",
      "outputs": [
        {
          "internalType": "uint256",
          "name": "amountOut",
          "type": "uint256"
        }
      ],
      "stateMutability": "payable",
      "type": "function"
    },
    {
      "inputs": [
        {
          "components": [
            {
              "internalType": "address payable",
              "name": "recipient",
              "type": "address"
            },
            {
              "internalType": "uint256",
              "name": "feeBasisPoints",
              "type": "uint256"
            }
          ],
          "internalType": "struct ISecondaryFee.SecondaryFeeParams[]",
          "name": "secondaryFees",
          "type": "tuple[]"
        },
        {
          "components": [
            {
              "internalType": "address",
              "name": "tokenIn",
              "type": "address"
            },
            {
              "internalType": "address",
              "name": "tokenOut",
              "type": "address"
            },
            {
              "internalType": "uint24",
              "name": "fee",
              "type": "uint24"
            },
            {
              "internalType": "address",
              "name": "recipient",
              "type": "address"
            },
            {
              "internalType": "uint256",
              "name": "amountOut",
              "type": "uint256"
            },
            {
              "internalType": "uint256",
              "name": "amountInMaximum",
              "type": "uint256"
            },
            {
              "internalType": "uint160",
              "name": "sqrtPriceLimitX96",
              "type": "uint160"
            }
          ],
          "internalType": "struct IV3SwapRouter.ExactOutputSingleParams",
          "name": "swapParams",
          "type": "tuple"
        }
      ],
      "name": "exactOutputSingleWithSecondaryFee",
      "outputs": [
        {
          "internalType": "uint256",
          "name": "",
          "type": "uint256"
        }
      ],
      "stateMutability": "payable",
      "type": "function"
    },
    {
      "inputs": [
        {
          "components": [
            {
              "internalType": "address payable",
              "name": "recipient",
              "type": "address"
            },
            {
              "internalType": "uint256",
              "name": "feeBasisPoints",
              "type": "uint256"
            }
          ],
          "internalType": "struct ISecondaryFee.SecondaryFeeParams[]",
          "name": "secondaryFees",
          "type": "tuple[]"
        },
        {
          "components": [
            {
              "internalType": "bytes",
              "name": "path",
              "type": "bytes"
            },
            {
              "internalType": "address",
              "name": "recipient",
              "type": "address"
            },
            {
              "internalType": "uint256",
              "name": "amountOut",
              "type": "uint256"
            },
            {
              "internalType": "uint256",
              "name": "amountInMaximum",
              "type": "uint256"
            }
          ],
          "internalType": "struct IV3SwapRouter.ExactOutputParams",
          "name": "swapParams",
          "type": "tuple"
        }
      ],
      "name": "exactOutputWithSecondaryFee",
      "outputs": [
        {
          "internalType": "uint256",
          "name": "",
          "type": "uint256"
        }
      ],
      "stateMutability": "payable",
      "type": "function"
    },
    {
      "inputs": [
        {
          "internalType": "bytes32",
          "name": "role",
          "type": "bytes32"
        }
      ],
      "name": "getRoleAdmin",
      "outputs": [
        {
          "internalType": "bytes32",
          "name": "",
          "type": "bytes32"
        }
      ],
      "stateMutability": "view",
      "type": "function"
    },
    {
      "inputs": [
        {
          "internalType": "bytes32",
          "name": "role",
          "type": "bytes32"
        },
        {
          "internalType": "address",
          "name": "account",
          "type": "address"
        }
      ],
      "name": "grantRole",
      "outputs": [],
      "stateMutability": "nonpayable",
      "type": "function"
    },
    {
      "inputs": [
        {
          "internalType": "bytes32",
          "name": "role",
          "type": "bytes32"
        },
        {
          "internalType": "address",
          "name": "account",
          "type": "address"
        }
      ],
      "name": "hasRole",
      "outputs": [
        {
          "internalType": "bool",
          "name": "",
          "type": "bool"
        }
      ],
      "stateMutability": "view",
      "type": "function"
    },
    {
      "inputs": [
        {
          "internalType": "uint256",
          "name": "deadline",
          "type": "uint256"
        },
        {
          "internalType": "bytes[]",
          "name": "data",
          "type": "bytes[]"
        }
      ],
      "name": "multicall",
      "outputs": [
        {
          "internalType": "bytes[]",
          "name": "",
          "type": "bytes[]"
        }
      ],
      "stateMutability": "payable",
      "type": "function"
    },
    {
      "inputs": [
        {
          "internalType": "bytes[]",
          "name": "data",
          "type": "bytes[]"
        }
      ],
      "name": "multicall",
      "outputs": [
        {
          "internalType": "bytes[]",
          "name": "results",
          "type": "bytes[]"
        }
      ],
      "stateMutability": "nonpayable",
      "type": "function"
    },
    {
      "inputs": [],
      "name": "pause",
      "outputs": [],
      "stateMutability": "nonpayable",
      "type": "function"
    },
    {
      "inputs": [],
      "name": "paused",
      "outputs": [
        {
          "internalType": "bool",
          "name": "",
          "type": "bool"
        }
      ],
      "stateMutability": "view",
      "type": "function"
    },
    {
      "inputs": [
        {
          "internalType": "bytes32",
          "name": "role",
          "type": "bytes32"
        },
        {
          "internalType": "address",
          "name": "account",
          "type": "address"
        }
      ],
      "name": "renounceRole",
      "outputs": [],
      "stateMutability": "nonpayable",
      "type": "function"
    },
    {
      "inputs": [
        {
          "internalType": "bytes32",
          "name": "role",
          "type": "bytes32"
        },
        {
          "internalType": "address",
          "name": "account",
          "type": "address"
        }
      ],
      "name": "revokeRole",
      "outputs": [],
      "stateMutability": "nonpayable",
      "type": "function"
    },
    {
      "inputs": [
        {
          "internalType": "bytes4",
          "name": "interfaceId",
          "type": "bytes4"
        }
      ],
      "name": "supportsInterface",
      "outputs": [
        {
          "internalType": "bool",
          "name": "",
          "type": "bool"
        }
      ],
      "stateMutability": "view",
      "type": "function"
    },
    {
      "inputs": [],
      "name": "unpause",
      "outputs": [],
      "stateMutability": "nonpayable",
      "type": "function"
    },
    {
      "inputs": [
        {
          "internalType": "uint256",
          "name": "amountMinimum",
          "type": "uint256"
        }
      ],
      "name": "unwrapNativeToken",
      "outputs": [],
      "stateMutability": "payable",
      "type": "function"
    },
    {
      "inputs": [
        {
          "internalType": "address",
          "name": "to",
          "type": "address"
        },
        {
          "internalType": "address",
          "name": "erc20",
          "type": "address"
        }
      ],
      "name": "withdrawFunds",
      "outputs": [],
      "stateMutability": "nonpayable",
      "type": "function"
    },
    {
      "inputs": [
        {
          "internalType": "address",
          "name": "to",
          "type": "address"
        }
      ],
      "name": "withdrawFunds",
      "outputs": [],
      "stateMutability": "nonpayable",
      "type": "function"
    },
    {
      "stateMutability": "payable",
      "type": "receive"
    }
  ],
  "bytecode": {
    "object": "0x60806040523480156200001157600080fd5b50604051620031e1380380620031e183398101604081905262000034916200015c565b6001805460ff191690556200004b6000846200009e565b600180546001600160a01b039384166101008102610100600160a81b03199092169190911790915560038054929093166001600160a01b03199283161790925560028054909116909117905550620001a6565b6000828152602081815260408083206001600160a01b038516845290915290205460ff166200013b576000828152602081815260408083206001600160a01b03851684529091529020805460ff19166001179055620000fa3390565b6001600160a01b0316816001600160a01b0316837f2f8788117e7eff1d82e926ec794901d17c78024a50270940304540a733656f0d60405160405180910390a45b5050565b80516001600160a01b03811681146200015757600080fd5b919050565b6000806000606084860312156200017257600080fd5b6200017d846200013f565b92506200018d602085016200013f565b91506200019d604085016200013f565b90509250925092565b61302b80620001b66000396000f3fe6080604052600436106101175760003560e01c806358e81a50116100a05780638456cb59116100645780638456cb59146102c457806391d14854146102d9578063a217fddf146102f9578063ac9650d81461030e578063d547741f1461032e57600080fd5b806358e81a50146102465780635ae401dc146102595780635c975abb146102795780635ebca7991461029157806368742da6146102a457600080fd5b80632f2ff15d116100e75780632f2ff15d146101cb57806336568abe146101eb578063383ebb0b1461020b5780633f4ba83a1461021e5780635640f6591461023357600080fd5b80620fa9fb1461012357806301ffc9a714610145578063116944b21461017a578063248a9ca31461019b57600080fd5b3661011e57005b600080fd5b34801561012f57600080fd5b5061014361013e3660046127c3565b61034e565b005b34801561015157600080fd5b506101656101603660046127fc565b61041a565b60405190151581526020015b60405180910390f35b61018d61018836600461298d565b610451565b604051908152602001610171565b3480156101a757600080fd5b5061018d6101b63660046129e2565b60009081526020819052604090206001015490565b3480156101d757600080fd5b506101436101e63660046129fb565b6106d3565b3480156101f757600080fd5b506101436102063660046129fb565b6106f8565b61018d610219366004612ae3565b61077b565b34801561022a57600080fd5b50610143610ae7565b61018d610241366004612ae3565b610b37565b61018d61025436600461298d565b610db2565b61026c610267366004612b8f565b6110e4565b6040516101719190612c2a565b34801561028557600080fd5b5060015460ff16610165565b61014361029f3660046129e2565b611119565b3480156102b057600080fd5b506101436102bf366004612c8c565b611266565b3480156102d057600080fd5b506101436112e1565b3480156102e557600080fd5b506101656102f43660046129fb565b61132f565b34801561030557600080fd5b5061018d600081565b34801561031a57600080fd5b5061026c610329366004612ca9565b611358565b34801561033a57600080fd5b506101436103493660046129fb565b61144c565b6103787f7a8dc26796a1e50e6e190b70259f58f6a4edd5b22280ceecc82b687b8e9828693361132f565b610394576040516282b42960e81b815260040160405180910390fd5b6040516370a0823160e01b81523060048201526000906001600160a01b038316906370a0823190602401602060405180830381865afa1580156103db573d6000803e3d6000fd5b505050506040513d601f19601f820116820180604052508101906103ff9190612cea565b90506104156001600160a01b0383168483611471565b505050565b60006001600160e01b03198216637965db0b60e01b148061044b57506301ffc9a760e01b6001600160e01b03198316145b92915050565b600061045f60015460ff1690565b1561047d5760405163ab35696f60e01b815260040160405180910390fd5b61048a82606001516114d4565b6104a75760405163519bdea760e01b815260040160405180910390fd5b4780156105e757826080015181146104d2576040516342f7487960e11b815260040160405180910390fd5b60035483516001600160a01b03908116911614610502576040516324d0121760e01b815260040160405180910390fd5b61056283608001518686808060200260200160405190810160405280939291908181526020016000905b828210156105585761054960408302860136819003810190612d03565b8152602001906001019061052c565b50505050506114fa565b608084018190526001546040516304e45aaf60e01b81526101009091046001600160a01b0316916304e45aaf9161059d908790600401612d5a565b60206040518083038185885af11580156105bb573d6000803e3d6000fd5b50505050506040513d601f19601f820116820180604052508101906105e09190612cea565b91506106cb565b61064c836000015184608001518787808060200260200160405190810160405280939291908181526020016000905b828210156106425761063360408302860136819003810190612d03565b81526020019060010190610616565b505050505061154c565b60808401526001546040516304e45aaf60e01b81526101009091046001600160a01b0316906304e45aaf90610685908690600401612d5a565b6020604051808303816000875af11580156106a4573d6000803e3d6000fd5b505050506040513d601f19601f820116820180604052508101906106c89190612cea565b91505b509392505050565b6000828152602081905260409020600101546106ee816115a9565b61041583836115b3565b6001600160a01b038116331461076d5760405162461bcd60e51b815260206004820152602f60248201527f416363657373436f6e74726f6c3a2063616e206f6e6c792072656e6f756e636560448201526e103937b632b9903337b91039b2b63360891b60648201526084015b60405180910390fd5b6107778282611637565b5050565b600061078960015460ff1690565b156107a75760405163ab35696f60e01b815260040160405180910390fd5b6107b482602001516114d4565b6107d15760405163519bdea760e01b815260040160405180910390fd5b60006107e0836000015161169c565b9050478015610992576003546001600160a01b03838116911614610817576040516324d0121760e01b815260040160405180910390fd5b8360600151811461083b576040516342f7487960e11b815260040160405180910390fd5b60008061089e86606001518989808060200260200160405190810160405280939291908181526020016000905b828210156108945761088560408302860136819003810190612d03565b81526020019060010190610868565b50505050506116ca565b606088018190526001546040516304dc09a360e11b81529294509092506000916101009091046001600160a01b0316906309b813469084906108e4908b90600401612e00565b60206040518083038185885af1158015610902573d6000803e3d6000fd5b50505050506040513d601f19601f820116820180604052508101906109279190612cea565b905061098681848b8b808060200260200160405190810160405280939291908181526020016000905b8282101561097c5761096d60408302860136819003810190612d03565b81526020019060010190610950565b505050505061171d565b95505050505050610ae0565b6000806109f68487606001518a8a808060200260200160405190810160405280939291908181526020016000905b828210156109ec576109dd60408302860136819003810190612d03565b815260200190600101906109c0565b5050505050611811565b606088018190526001546040516304dc09a360e11b81529294509092506000916101009091046001600160a01b0316906309b8134690610a3a908a90600401612e00565b6020604051808303816000875af1158015610a59573d6000803e3d6000fd5b505050506040513d601f19601f82011682018060405250810190610a7d9190612cea565b90506109868582858c8c808060200260200160405190810160405280939291908181526020016000905b82821015610ad357610ac460408302860136819003810190612d03565b81526020019060010190610aa7565b505050505061186b565b50505b9392505050565b610b117fe7276a2a84d8de556657ec9cf93a55a7d66f096e529d0582ed08e9e2208b92b53361132f565b610b2d576040516282b42960e81b815260040160405180910390fd5b610b356118c7565b565b6000610b4560015460ff1690565b15610b635760405163ab35696f60e01b815260040160405180910390fd5b610b7082602001516114d4565b610b8d5760405163519bdea760e01b815260040160405180910390fd5b6000610b9c8360000151611919565b9050478015610cd25783604001518114610bc9576040516342f7487960e11b815260040160405180910390fd5b6003546001600160a01b03838116911614610bf7576040516324d0121760e01b815260040160405180910390fd5b610c4d84604001518787808060200260200160405190810160405280939291908181526020016000905b8282101561055857610c3e60408302860136819003810190612d03565b81526020019060010190610c21565b6040858101829052600154905163b858183f60e01b81526101009091046001600160a01b03169163b858183f91610c88908890600401612e00565b60206040518083038185885af1158015610ca6573d6000803e3d6000fd5b50505050506040513d601f19601f82011682018060405250810190610ccb9190612cea565b9250610add565b610d298285604001518888808060200260200160405190810160405280939291908181526020016000905b8282101561064257610d1a60408302860136819003810190612d03565b81526020019060010190610cfd565b604085810191909152600154905163b858183f60e01b81526101009091046001600160a01b03169063b858183f90610d65908790600401612e00565b6020604051808303816000875af1158015610d84573d6000803e3d6000fd5b505050506040513d601f19601f82011682018060405250810190610da89190612cea565b9695505050505050565b6000610dc060015460ff1690565b15610dde5760405163ab35696f60e01b815260040160405180910390fd5b610deb82606001516114d4565b610e085760405163519bdea760e01b815260040160405180910390fd5b478015610fa55760035483516001600160a01b03908116911614610e3f576040516324d0121760e01b815260040160405180910390fd5b8260a001518114610e63576040516342f7487960e11b815260040160405180910390fd5b600080610ebc8560a001518888808060200260200160405190810160405280939291908181526020016000905b8282101561089457610ead60408302860136819003810190612d03565b81526020019060010190610e90565b60a08701819052600154604051635023b4df60e01b81529294509092506000916101009091046001600160a01b031690635023b4df908490610f02908a90600401612d5a565b60206040518083038185885af1158015610f20573d6000803e3d6000fd5b50505050506040513d601f19601f82011682018060405250810190610f459190612cea565b9050610f9a81848a8a808060200260200160405190810160405280939291908181526020016000905b8282101561097c57610f8b60408302860136819003810190612d03565b81526020019060010190610f6e565b945050505050610ae0565b60008061100385600001518660a001518989808060200260200160405190810160405280939291908181526020016000905b828210156109ec57610ff460408302860136819003810190612d03565b81526020019060010190610fd7565b60a08701819052600154604051635023b4df60e01b81529294509092506000916101009091046001600160a01b031690635023b4df90611047908990600401612d5a565b6020604051808303816000875af1158015611066573d6000803e3d6000fd5b505050506040513d601f19601f8201168201806040525081019061108a9190612cea565b9050610f9a866000015182858b8b808060200260200160405190810160405280939291908181526020016000905b82821015610ad3576110d560408302860136819003810190612d03565b815260200190600101906110b8565b6060834211156111075760405163387b2e5560e11b815260040160405180910390fd5b6111118383611358565b949350505050565b6003546040516370a0823160e01b81523060048201526000916001600160a01b0316906370a0823190602401602060405180830381865afa158015611162573d6000803e3d6000fd5b505050506040513d601f19601f820116820180604052508101906111869190612cea565b9050818110156111cc5760405162461bcd60e51b8152602060048201526011602482015270092dce6eaccccd2c6d2cadce840ae929ab607b1b6044820152606401610764565b801561077757600354604051632e1a7d4d60e01b8152600481018390526001600160a01b0390911690632e1a7d4d90602401600060405180830381600087803b15801561121857600080fd5b505af115801561122c573d6000803e3d6000fd5b50505050600061123c3383611925565b905080610415576040516342fb4ceb60e11b81526004810184905260248101839052604401610764565b6112907f7a8dc26796a1e50e6e190b70259f58f6a4edd5b22280ceecc82b687b8e9828693361132f565b6112ac576040516282b42960e81b815260040160405180910390fd5b47156112de5760006112be8247611925565b90508061077757604051633398652560e11b815260040160405180910390fd5b50565b61130b7ffcb9fcbfa83b897fb2d5cf4b58962164105c1e71489a37ef3ae0db3fdce576f63361132f565b611327576040516282b42960e81b815260040160405180910390fd5b610b356119cf565b6000918252602082815260408084206001600160a01b0393909316845291905290205460ff1690565b6060816001600160401b038111156113725761137261286a565b6040519080825280602002602001820160405280156113a557816020015b60608152602001906001900390816113905790505b50905060005b8281101561144557611415308585848181106113c9576113c9612e13565b90506020028101906113db9190612e29565b8080601f016020809104026020016040519081016040528093929190818152602001838380828437600092019190915250611a0a92505050565b82828151811061142757611427612e13565b6020026020010181905250808061143d90612e85565b9150506113ab565b5092915050565b600082815260208190526040902060010154611467816115a9565b6104158383611637565b6040516001600160a01b03831660248201526044810182905261041590849063a9059cbb60e01b906064015b60408051601f198184030181529190526020810180516001600160e01b03166001600160e01b031990931692909217909152611a2f565b60006001600160a01b03821633148061044b57506001600160a01b038216301492915050565b600061150582611b04565b506000806115138585611b77565b90925090506115228286612e9e565b945061152d81611ca0565b600354611543906001600160a01b031686611d7f565b50929392505050565b600061155782611b04565b506000806115658585611b77565b90925090506115748286612e9e565b94506115808682611e7c565b6115956001600160a01b038716333088611f85565b61159f8686611d7f565b5092949350505050565b6112de8133611fc3565b6115bd828261132f565b610777576000828152602081815260408083206001600160a01b03851684529091529020805460ff191660011790556115f33390565b6001600160a01b0316816001600160a01b0316837f2f8788117e7eff1d82e926ec794901d17c78024a50270940304540a733656f0d60405160405180910390a45050565b611641828261132f565b15610777576000828152602081815260408083206001600160a01b0385168085529252808320805460ff1916905551339285917ff6391f5c32d9c69d2a47ea670b442974b53935d1edc7fd64eb21e047a839171b9190a45050565b600080601483516116ad9190612e9e565b905060006116bd8483601461201c565b9050611111816000612129565b60008060006116d884611b04565b905060006116e882612710612eb1565b90506116f7866127108361218e565b600354909350611710906001600160a01b031684611d7f565b85935050505b9250929050565b600080600061172c8685611b77565b9150915061173981611ca0565b600260009054906101000a90046001600160a01b03166001600160a01b03166312210e8a6040518163ffffffff1660e01b8152600401600060405180830381600087803b15801561178957600080fd5b505af115801561179d573d6000803e3d6000fd5b5050505060008287876117b09190612e9e565b6117ba9190612e9e565b604051909150600090339083156108fc0290849084818181858888f193505050509050806117fb576040516382e4f46960e01b815260040160405180910390fd5b6118058489612eb1565b98975050505050505050565b600080600061181f84611b04565b9050600061182f82612710612eb1565b905061183e866127108361218e565b925061184a8784611d7f565b61185f6001600160a01b038816333089611f85565b50939590945092505050565b600080600061187a8685611b77565b9150915061188887826121ce565b6118b233836118978989612e9e565b6118a19190612e9e565b6001600160a01b038a169190611471565b6118bc8287612eb1565b979650505050505050565b6118cf6122d5565b6001805460ff191690557f5db9ee0a495bf2e6ff9c91a7834c1ba4fdd244a5e8aa4e537bd38aeae4b073aa335b6040516001600160a01b03909116815260200160405180910390a1565b600061044b8282612129565b6000814710156119775760405162461bcd60e51b815260206004820152601d60248201527f416464726573733a20696e73756666696369656e742062616c616e63650000006044820152606401610764565b6040516001600160a01b038416908390600081818185875af1925050503d80600081146119c0576040519150601f19603f3d011682016040523d82523d6000602084013e6119c5565b606091505b5090949350505050565b6119d761231e565b6001805460ff1916811790557f62e78cea01bee320cd4e420270b5ea74000d11b0c9f74754ebdbfc544b05a258336118fc565b6060610ae08383604051806060016040528060278152602001612fcf60279139612364565b6000611a84826040518060400160405280602081526020017f5361666545524332303a206c6f772d6c6576656c2063616c6c206661696c6564815250856001600160a01b03166123d29092919063ffffffff16565b9050805160001480611aa5575080806020019051810190611aa59190612ec4565b6104155760405162461bcd60e51b815260206004820152602a60248201527f5361666545524332303a204552433230206f7065726174696f6e20646964206e6044820152691bdd081cdd58d8d9595960b21b6064820152608401610764565b6000805b8251811015611b4e57828181518110611b2357611b23612e13565b60200260200101516020015182611b3a9190612eb1565b915080611b4681612e85565b915050611b08565b506103e8811115611b725760405163cd4e616760e01b815260040160405180910390fd5b919050565b6000606082516001600160401b03811115611b9457611b9461286a565b604051908082528060200260200182016040528015611bd957816020015b6040805180820190915260008082526020820152815260200190600190039081611bb25790505b50905060005b8351811015611c98576000611c1e858381518110611bff57611bff612e13565b602002602001015160200151612710886123e19092919063ffffffff16565b90506040518060400160405280868481518110611c3d57611c3d612e13565b6020026020010151600001516001600160a01b0316815260200182815250838381518110611c6d57611c6d612e13565b6020908102919091010152611c828185612eb1565b9350508080611c9090612e85565b915050611bdf565b509250929050565b60005b8151811015610777576000828281518110611cc057611cc0612e13565b602002602001015190506000611cde82600001518360200151611925565b905080611d1557815160208301516040516208c3b360e61b81526001600160a01b0390921660048301526024820152604401610764565b81600001516001600160a01b0316336001600160a01b03167fe0e765ab26c1caf691c510426951246128b96830e49cc81d8c093fd551abac358460200151604051611d6291815260200190565b60405180910390a350508080611d7790612e85565b915050611ca3565b600154604051636eb1769f60e11b81523060048201526001600160a01b0361010090920482166024820152829184169063dd62ed3e90604401602060405180830381865afa158015611dd5573d6000803e3d6000fd5b505050506040513d601f19601f82011682018060405250810190611df99190612cea565b10156107775760015460405163095ea7b360e01b81526101009091046001600160a01b039081166004830152600019602483015283169063095ea7b3906044016020604051808303816000875af1158015611e58573d6000803e3d6000fd5b505050506040513d601f19601f820116820180604052508101906104159190612ec4565b60005b815181101561041557611ee233838381518110611e9e57611e9e612e13565b602002602001015160000151848481518110611ebc57611ebc612e13565b602002602001015160200151866001600160a01b0316611f85909392919063ffffffff16565b818181518110611ef457611ef4612e13565b6020026020010151600001516001600160a01b0316336001600160a01b0316846001600160a01b03167f1f9a9fdac86b6ca3c5300bec0b61555cded1f1a234378602dcca6c27085eac8e858581518110611f5057611f50612e13565b602002602001015160200151604051611f6b91815260200190565b60405180910390a480611f7d81612e85565b915050611e7f565b6040516001600160a01b0380851660248301528316604482015260648101829052611fbd9085906323b872dd60e01b9060840161149d565b50505050565b611fcd828261132f565b61077757611fda81612483565b611fe5836020612495565b604051602001611ff6929190612ee6565b60408051601f198184030181529082905262461bcd60e51b825261076491600401612f5b565b60608161202a81601f612eb1565b10156120695760405162461bcd60e51b815260206004820152600e60248201526d736c6963655f6f766572666c6f7760901b6044820152606401610764565b6120738284612eb1565b845110156120b75760405162461bcd60e51b8152602060048201526011602482015270736c6963655f6f75744f66426f756e647360781b6044820152606401610764565b6060821580156120d65760405191506000825260208201604052612120565b6040519150601f8416801560200281840101858101878315602002848b0101015b8183101561210f5780518352602092830192016120f7565b5050858452601f01601f1916604052505b50949350505050565b6000612136826014612eb1565b8351101561217e5760405162461bcd60e51b8152602060048201526015602482015274746f416464726573735f6f75744f66426f756e647360581b6044820152606401610764565b500160200151600160601b900490565b600061219b8484846123e1565b9050600082806121ad576121ad612f6e565b8486091115610ae05760001981106121c457600080fd5b6001019392505050565b60005b8151811015610415576122328282815181106121ef576121ef612e13565b60200260200101516000015183838151811061220d5761220d612e13565b602002602001015160200151856001600160a01b03166114719092919063ffffffff16565b81818151811061224457612244612e13565b6020026020010151600001516001600160a01b0316336001600160a01b0316846001600160a01b03167f1f9a9fdac86b6ca3c5300bec0b61555cded1f1a234378602dcca6c27085eac8e8585815181106122a0576122a0612e13565b6020026020010151602001516040516122bb91815260200190565b60405180910390a4806122cd81612e85565b9150506121d1565b60015460ff16610b355760405162461bcd60e51b815260206004820152601460248201527314185d5cd8589b194e881b9bdd081c185d5cd95960621b6044820152606401610764565b60015460ff1615610b355760405162461bcd60e51b815260206004820152601060248201526f14185d5cd8589b194e881c185d5cd95960821b6044820152606401610764565b6060600080856001600160a01b0316856040516123819190612f84565b600060405180830381855af49150503d80600081146123bc576040519150601f19603f3d011682016040523d82523d6000602084013e6123c1565b606091505b5091509150610da886838387612630565b606061111184846000856126a9565b6000838302816000198587098281108382030391505080841161240357600080fd5b8060000361241657508290049050610ae0565b6000848688096000868103871696879004966002600389028118808a02820302808a02820302808a02820302808a02820302808a02820302808a02909103029181900381900460010186841190950394909402919094039290920491909117919091029150509392505050565b606061044b6001600160a01b03831660145b606060006124a4836002612fa0565b6124af906002612eb1565b6001600160401b038111156124c6576124c661286a565b6040519080825280601f01601f1916602001820160405280156124f0576020820181803683370190505b509050600360fc1b8160008151811061250b5761250b612e13565b60200101906001600160f81b031916908160001a905350600f60fb1b8160018151811061253a5761253a612e13565b60200101906001600160f81b031916908160001a905350600061255e846002612fa0565b612569906001612eb1565b90505b60018111156125e1576f181899199a1a9b1b9c1cb0b131b232b360811b85600f166010811061259d5761259d612e13565b1a60f81b8282815181106125b3576125b3612e13565b60200101906001600160f81b031916908160001a90535060049490941c936125da81612fb7565b905061256c565b508315610ae05760405162461bcd60e51b815260206004820181905260248201527f537472696e67733a20686578206c656e67746820696e73756666696369656e746044820152606401610764565b6060831561269f578251600003612698576001600160a01b0385163b6126985760405162461bcd60e51b815260206004820152601d60248201527f416464726573733a2063616c6c20746f206e6f6e2d636f6e74726163740000006044820152606401610764565b5081611111565b6111118383612779565b60608247101561270a5760405162461bcd60e51b815260206004820152602660248201527f416464726573733a20696e73756666696369656e742062616c616e636520666f6044820152651c8818d85b1b60d21b6064820152608401610764565b600080866001600160a01b031685876040516127269190612f84565b60006040518083038185875af1925050503d8060008114612763576040519150601f19603f3d011682016040523d82523d6000602084013e612768565b606091505b50915091506118bc87838387612630565b8151156127895781518083602001fd5b8060405162461bcd60e51b81526004016107649190612f5b565b6001600160a01b03811681146112de57600080fd5b8035611b72816127a3565b600080604083850312156127d657600080fd5b82356127e1816127a3565b915060208301356127f1816127a3565b809150509250929050565b60006020828403121561280e57600080fd5b81356001600160e01b031981168114610ae057600080fd5b60008083601f84011261283857600080fd5b5081356001600160401b0381111561284f57600080fd5b6020830191508360208260061b850101111561171657600080fd5b634e487b7160e01b600052604160045260246000fd5b60405160e081016001600160401b03811182821017156128a2576128a261286a565b60405290565b604051608081016001600160401b03811182821017156128a2576128a261286a565b604051601f8201601f191681016001600160401b03811182821017156128f2576128f261286a565b604052919050565b600060e0828403121561290c57600080fd5b612914612880565b90508135612921816127a3565b81526020820135612931816127a3565b6020820152604082013562ffffff8116811461294c57600080fd5b604082015261295d606083016127b8565b60608201526080820135608082015260a082013560a082015261298260c083016127b8565b60c082015292915050565b600080600061010084860312156129a357600080fd5b83356001600160401b038111156129b957600080fd5b6129c586828701612826565b90945092506129d9905085602086016128fa565b90509250925092565b6000602082840312156129f457600080fd5b5035919050565b60008060408385031215612a0e57600080fd5b8235915060208301356127f1816127a3565b600060808284031215612a3257600080fd5b612a3a6128a8565b905081356001600160401b0380821115612a5357600080fd5b818401915084601f830112612a6757600080fd5b8135602082821115612a7b57612a7b61286a565b612a8d601f8301601f191682016128ca565b92508183528681838601011115612aa357600080fd5b81818501828501376000818385010152828552612ac18187016127b8565b8186015250505050604082013560408201526060820135606082015292915050565b600080600060408486031215612af857600080fd5b83356001600160401b0380821115612b0f57600080fd5b612b1b87838801612826565b90955093506020860135915080821115612b3457600080fd5b50612b4186828701612a20565b9150509250925092565b60008083601f840112612b5d57600080fd5b5081356001600160401b03811115612b7457600080fd5b6020830191508360208260051b850101111561171657600080fd5b600080600060408486031215612ba457600080fd5b8335925060208401356001600160401b03811115612bc157600080fd5b612bcd86828701612b4b565b9497909650939450505050565b60005b83811015612bf5578181015183820152602001612bdd565b50506000910152565b60008151808452612c16816020860160208601612bda565b601f01601f19169290920160200192915050565b6000602080830181845280855180835260408601915060408160051b870101925083870160005b82811015612c7f57603f19888603018452612c6d858351612bfe565b94509285019290850190600101612c51565b5092979650505050505050565b600060208284031215612c9e57600080fd5b8135610ae0816127a3565b60008060208385031215612cbc57600080fd5b82356001600160401b03811115612cd257600080fd5b612cde85828601612b4b565b90969095509350505050565b600060208284031215612cfc57600080fd5b5051919050565b600060408284031215612d1557600080fd5b604051604081018181106001600160401b0382111715612d3757612d3761286a565b6040528235612d45816127a3565b81526020928301359281019290925250919050565b60e0810161044b828480516001600160a01b03908116835260208083015182169084015260408083015162ffffff16908401526060808301518216908401526080808301519084015260a0828101519084015260c09182015116910152565b6000815160808452612dce6080850182612bfe565b6020848101516001600160a01b0316908601526040808501519086015260609384015193909401929092525090919050565b602081526000610ae06020830184612db9565b634e487b7160e01b600052603260045260246000fd5b6000808335601e19843603018112612e4057600080fd5b8301803591506001600160401b03821115612e5a57600080fd5b60200191503681900382131561171657600080fd5b634e487b7160e01b600052601160045260246000fd5b600060018201612e9757612e97612e6f565b5060010190565b8181038181111561044b5761044b612e6f565b8082018082111561044b5761044b612e6f565b600060208284031215612ed657600080fd5b81518015158114610ae057600080fd5b7f416363657373436f6e74726f6c3a206163636f756e7420000000000000000000815260008351612f1e816017850160208801612bda565b7001034b99036b4b9b9b4b733903937b6329607d1b6017918401918201528351612f4f816028840160208801612bda565b01602801949350505050565b602081526000610ae06020830184612bfe565b634e487b7160e01b600052601260045260246000fd5b60008251612f96818460208701612bda565b9190910192915050565b808202811582820484141761044b5761044b612e6f565b600081612fc657612fc6612e6f565b50600019019056fe416464726573733a206c6f772d6c6576656c2064656c65676174652063616c6c206661696c6564a264697066735822122060463b8c42f8b619093981b0f594938e67042d40ad9d5eadd4922e9bc3000dde64736f6c63430008130033",
    "linkReferences": {}
  },
  "methodIdentifiers": {
    "DEFAULT_ADMIN_ROLE()": "a217fddf",
    "exactInputSingleWithSecondaryFee((address,uint256)[],(address,address,uint24,address,uint256,uint256,uint160))": "116944b2",
    "exactInputWithSecondaryFee((address,uint256)[],(bytes,address,uint256,uint256))": "5640f659",
    "exactOutputSingleWithSecondaryFee((address,uint256)[],(address,address,uint24,address,uint256,uint256,uint160))": "58e81a50",
    "exactOutputWithSecondaryFee((address,uint256)[],(bytes,address,uint256,uint256))": "383ebb0b",
    "getRoleAdmin(bytes32)": "248a9ca3",
    "grantRole(bytes32,address)": "2f2ff15d",
    "hasRole(bytes32,address)": "91d14854",
    "multicall(bytes[])": "ac9650d8",
    "multicall(uint256,bytes[])": "5ae401dc",
    "pause()": "8456cb59",
    "paused()": "5c975abb",
    "renounceRole(bytes32,address)": "36568abe",
    "revokeRole(bytes32,address)": "d547741f",
    "supportsInterface(bytes4)": "01ffc9a7",
    "unpause()": "3f4ba83a",
    "unwrapNativeToken(uint256)": "5ebca799",
    "withdrawFunds(address)": "68742da6",
    "withdrawFunds(address,address)": "000fa9fb"
  },
  "id": 48
}