{
  "_format": "hh-sol-artifact-1",
  "contractName": "ImmutableERC721MintByID",
  "sourceName": "contracts/token/erc721/preset/ImmutableERC721MintByID.sol",
  "abi": [
    {
      "inputs": [
        {
          "internalType": "address",
          "name": "owner",
          "type": "address"
        },
        {
          "internalType": "string",
          "name": "name_",
          "type": "string"
        },
        {
          "internalType": "string",
          "name": "symbol_",
          "type": "string"
        },
        {
          "internalType": "string",
          "name": "baseURI_",
          "type": "string"
        },
        {
          "internalType": "string",
          "name": "contractURI_",
          "type": "string"
        },
        {
          "internalType": "address",
          "name": "_operatorAllowlist",
          "type": "address"
        },
        {
          "internalType": "address",
          "name": "_receiver",
          "type": "address"
        },
        {
          "internalType": "uint96",
          "name": "_feeNumerator",
          "type": "uint96"
        }
      ],
      "stateMutability": "nonpayable",
      "type": "constructor"
    },
    {
      "inputs": [],
      "name": "AllowlistDoesNotImplementIOperatorAllowlist",
      "type": "error"
    },
    {
      "inputs": [
        {
          "internalType": "address",
          "name": "target",
          "type": "address"
        }
      ],
      "name": "ApproveTargetNotInAllowlist",
      "type": "error"
    },
    {
      "inputs": [
        {
          "internalType": "address",
          "name": "approver",
          "type": "address"
        }
      ],
      "name": "ApproverNotInAllowlist",
      "type": "error"
    },
    {
      "inputs": [
        {
          "internalType": "address",
          "name": "caller",
          "type": "address"
        }
      ],
      "name": "CallerNotInAllowlist",
      "type": "error"
    },
    {
      "inputs": [
        {
          "internalType": "uint256",
          "name": "tokenId",
          "type": "uint256"
        }
      ],
      "name": "IImmutableERC721IDAboveThreshold",
      "type": "error"
    },
    {
      "inputs": [
        {
          "internalType": "uint256",
          "name": "tokenId",
          "type": "uint256"
        },
        {
          "internalType": "address",
          "name": "currentOwner",
          "type": "address"
        }
      ],
      "name": "IImmutableERC721MismatchedTokenOwner",
      "type": "error"
    },
    {
      "inputs": [],
      "name": "IImmutableERC721MismatchedTransferLengths",
      "type": "error"
    },
    {
      "inputs": [
        {
          "internalType": "uint256",
          "name": "tokenId",
          "type": "uint256"
        }
      ],
      "name": "IImmutableERC721NotOwnerOrOperator",
      "type": "error"
    },
    {
      "inputs": [],
      "name": "IImmutableERC721SendingToZerothAddress",
      "type": "error"
    },
    {
      "inputs": [
        {
          "internalType": "uint256",
          "name": "tokenId",
          "type": "uint256"
        }
      ],
      "name": "IImmutableERC721TokenAlreadyBurned",
      "type": "error"
    },
    {
      "inputs": [
        {
          "internalType": "address",
          "name": "from",
          "type": "address"
        }
      ],
      "name": "TransferFromNotInAllowlist",
      "type": "error"
    },
    {
      "inputs": [
        {
          "internalType": "address",
          "name": "to",
          "type": "address"
        }
      ],
      "name": "TransferToNotInAllowlist",
      "type": "error"
    },
    {
      "anonymous": false,
      "inputs": [
        {
          "indexed": true,
          "internalType": "address",
          "name": "owner",
          "type": "address"
        },
        {
          "indexed": true,
          "internalType": "address",
          "name": "approved",
          "type": "address"
        },
        {
          "indexed": true,
          "internalType": "uint256",
          "name": "tokenId",
          "type": "uint256"
        }
      ],
      "name": "Approval",
      "type": "event"
    },
    {
      "anonymous": false,
      "inputs": [
        {
          "indexed": true,
          "internalType": "address",
          "name": "owner",
          "type": "address"
        },
        {
          "indexed": true,
          "internalType": "address",
          "name": "operator",
          "type": "address"
        },
        {
          "indexed": false,
          "internalType": "bool",
          "name": "approved",
          "type": "bool"
        }
      ],
      "name": "ApprovalForAll",
      "type": "event"
    },
    {
      "anonymous": false,
      "inputs": [
        {
          "indexed": false,
          "internalType": "address",
          "name": "oldRegistry",
          "type": "address"
        },
        {
          "indexed": false,
          "internalType": "address",
          "name": "newRegistry",
          "type": "address"
        }
      ],
      "name": "OperatorAllowlistRegistryUpdated",
      "type": "event"
    },
    {
      "anonymous": false,
      "inputs": [
        {
          "indexed": true,
          "internalType": "bytes32",
          "name": "role",
          "type": "bytes32"
        },
        {
          "indexed": true,
          "internalType": "bytes32",
          "name": "previousAdminRole",
          "type": "bytes32"
        },
        {
          "indexed": true,
          "internalType": "bytes32",
          "name": "newAdminRole",
          "type": "bytes32"
        }
      ],
      "name": "RoleAdminChanged",
      "type": "event"
    },
    {
      "anonymous": false,
      "inputs": [
        {
          "indexed": true,
          "internalType": "bytes32",
          "name": "role",
          "type": "bytes32"
        },
        {
          "indexed": true,
          "internalType": "address",
          "name": "account",
          "type": "address"
        },
        {
          "indexed": true,
          "internalType": "address",
          "name": "sender",
          "type": "address"
        }
      ],
      "name": "RoleGranted",
      "type": "event"
    },
    {
      "anonymous": false,
      "inputs": [
        {
          "indexed": true,
          "internalType": "bytes32",
          "name": "role",
          "type": "bytes32"
        },
        {
          "indexed": true,
          "internalType": "address",
          "name": "account",
          "type": "address"
        },
        {
          "indexed": true,
          "internalType": "address",
          "name": "sender",
          "type": "address"
        }
      ],
      "name": "RoleRevoked",
      "type": "event"
    },
    {
      "anonymous": false,
      "inputs": [
        {
          "indexed": true,
          "internalType": "address",
          "name": "from",
          "type": "address"
        },
        {
          "indexed": true,
          "internalType": "address",
          "name": "to",
          "type": "address"
        },
        {
          "indexed": true,
          "internalType": "uint256",
          "name": "tokenId",
          "type": "uint256"
        }
      ],
      "name": "Transfer",
      "type": "event"
    },
    {
      "inputs": [],
      "name": "DEFAULT_ADMIN_ROLE",
      "outputs": [
        {
          "internalType": "bytes32",
          "name": "",
          "type": "bytes32"
        }
      ],
      "stateMutability": "view",
      "type": "function"
    },
    {
      "inputs": [],
      "name": "MINTER_ROLE",
      "outputs": [
        {
          "internalType": "bytes32",
          "name": "",
          "type": "bytes32"
        }
      ],
      "stateMutability": "view",
      "type": "function"
    },
    {
      "inputs": [
        {
          "components": [
            {
              "internalType": "address",
              "name": "owner",
              "type": "address"
            },
            {
              "internalType": "uint256[]",
              "name": "tokenIds",
              "type": "uint256[]"
            }
          ],
          "internalType": "struct ImmutableERC721Base.IDBurn[]",
          "name": "burns",
          "type": "tuple[]"
        }
      ],
      "name": "_safeBurnBatch",
      "outputs": [],
      "stateMutability": "nonpayable",
      "type": "function"
    },
    {
      "inputs": [],
      "name": "_totalSupply",
      "outputs": [
        {
          "internalType": "uint256",
          "name": "",
          "type": "uint256"
        }
      ],
      "stateMutability": "view",
      "type": "function"
    },
    {
      "inputs": [
        {
          "internalType": "address",
          "name": "to",
          "type": "address"
        },
        {
          "internalType": "uint256",
          "name": "tokenId",
          "type": "uint256"
        }
      ],
      "name": "approve",
      "outputs": [],
      "stateMutability": "nonpayable",
      "type": "function"
    },
    {
      "inputs": [
        {
          "internalType": "address",
          "name": "owner",
          "type": "address"
        }
      ],
      "name": "balanceOf",
      "outputs": [
        {
          "internalType": "uint256",
          "name": "",
          "type": "uint256"
        }
      ],
      "stateMutability": "view",
      "type": "function"
    },
    {
      "inputs": [],
      "name": "baseURI",
      "outputs": [
        {
          "internalType": "string",
          "name": "",
          "type": "string"
        }
      ],
      "stateMutability": "view",
      "type": "function"
    },
    {
      "inputs": [
        {
          "internalType": "uint256",
          "name": "tokenId",
          "type": "uint256"
        }
      ],
      "name": "burn",
      "outputs": [],
      "stateMutability": "nonpayable",
      "type": "function"
    },
    {
      "inputs": [
        {
          "internalType": "uint256[]",
          "name": "tokenIDs",
          "type": "uint256[]"
        }
      ],
      "name": "burnBatch",
      "outputs": [],
      "stateMutability": "nonpayable",
      "type": "function"
    },
    {
      "inputs": [],
      "name": "contractURI",
      "outputs": [
        {
          "internalType": "string",
          "name": "",
          "type": "string"
        }
      ],
      "stateMutability": "view",
      "type": "function"
    },
    {
      "inputs": [],
      "name": "getAdmins",
      "outputs": [
        {
          "internalType": "address[]",
          "name": "",
          "type": "address[]"
        }
      ],
      "stateMutability": "view",
      "type": "function"
    },
    {
      "inputs": [
        {
          "internalType": "uint256",
          "name": "tokenId",
          "type": "uint256"
        }
      ],
      "name": "getApproved",
      "outputs": [
        {
          "internalType": "address",
          "name": "",
          "type": "address"
        }
      ],
      "stateMutability": "view",
      "type": "function"
    },
    {
      "inputs": [
        {
          "internalType": "bytes32",
          "name": "role",
          "type": "bytes32"
        }
      ],
      "name": "getRoleAdmin",
      "outputs": [
        {
          "internalType": "bytes32",
          "name": "",
          "type": "bytes32"
        }
      ],
      "stateMutability": "view",
      "type": "function"
    },
    {
      "inputs": [
        {
          "internalType": "bytes32",
          "name": "role",
          "type": "bytes32"
        },
        {
          "internalType": "uint256",
          "name": "index",
          "type": "uint256"
        }
      ],
      "name": "getRoleMember",
      "outputs": [
        {
          "internalType": "address",
          "name": "",
          "type": "address"
        }
      ],
      "stateMutability": "view",
      "type": "function"
    },
    {
      "inputs": [
        {
          "internalType": "bytes32",
          "name": "role",
          "type": "bytes32"
        }
      ],
      "name": "getRoleMemberCount",
      "outputs": [
        {
          "internalType": "uint256",
          "name": "",
          "type": "uint256"
        }
      ],
      "stateMutability": "view",
      "type": "function"
    },
    {
      "inputs": [
        {
          "internalType": "address",
          "name": "user",
          "type": "address"
        }
      ],
      "name": "grantMinterRole",
      "outputs": [],
      "stateMutability": "nonpayable",
      "type": "function"
    },
    {
      "inputs": [
        {
          "internalType": "bytes32",
          "name": "role",
          "type": "bytes32"
        },
        {
          "internalType": "address",
          "name": "account",
          "type": "address"
        }
      ],
      "name": "grantRole",
      "outputs": [],
      "stateMutability": "nonpayable",
      "type": "function"
    },
    {
      "inputs": [
        {
          "internalType": "bytes32",
          "name": "role",
          "type": "bytes32"
        },
        {
          "internalType": "address",
          "name": "account",
          "type": "address"
        }
      ],
      "name": "hasRole",
      "outputs": [
        {
          "internalType": "bool",
          "name": "",
          "type": "bool"
        }
      ],
      "stateMutability": "view",
      "type": "function"
    },
    {
      "inputs": [
        {
          "internalType": "address",
          "name": "owner",
          "type": "address"
        },
        {
          "internalType": "address",
          "name": "operator",
          "type": "address"
        }
      ],
      "name": "isApprovedForAll",
      "outputs": [
        {
          "internalType": "bool",
          "name": "",
          "type": "bool"
        }
      ],
      "stateMutability": "view",
      "type": "function"
    },
    {
      "inputs": [
        {
          "internalType": "address",
          "name": "to",
          "type": "address"
        },
        {
          "internalType": "uint256",
          "name": "tokenID",
          "type": "uint256"
        }
      ],
      "name": "mint",
      "outputs": [],
      "stateMutability": "nonpayable",
      "type": "function"
    },
    {
      "inputs": [
        {
          "components": [
            {
              "internalType": "address",
              "name": "to",
              "type": "address"
            },
            {
              "internalType": "uint256[]",
              "name": "tokenIds",
              "type": "uint256[]"
            }
          ],
          "internalType": "struct ImmutableERC721Base.IDMint[]",
          "name": "mintRequests",
          "type": "tuple[]"
        }
      ],
      "name": "mintBatch",
      "outputs": [],
      "stateMutability": "nonpayable",
      "type": "function"
    },
    {
      "inputs": [],
      "name": "name",
      "outputs": [
        {
          "internalType": "string",
          "name": "",
          "type": "string"
        }
      ],
      "stateMutability": "view",
      "type": "function"
    },
    {
      "inputs": [],
      "name": "operatorAllowlist",
      "outputs": [
        {
          "internalType": "contract IOperatorAllowlist",
          "name": "",
          "type": "address"
        }
      ],
      "stateMutability": "view",
      "type": "function"
    },
    {
      "inputs": [
        {
          "internalType": "uint256",
          "name": "tokenId",
          "type": "uint256"
        }
      ],
      "name": "ownerOf",
      "outputs": [
        {
          "internalType": "address",
          "name": "",
          "type": "address"
        }
      ],
      "stateMutability": "view",
      "type": "function"
    },
    {
      "inputs": [
        {
          "internalType": "bytes32",
          "name": "role",
          "type": "bytes32"
        },
        {
          "internalType": "address",
          "name": "account",
          "type": "address"
        }
      ],
      "name": "renounceRole",
      "outputs": [],
      "stateMutability": "nonpayable",
      "type": "function"
    },
    {
      "inputs": [
        {
          "internalType": "address",
          "name": "user",
          "type": "address"
        }
      ],
      "name": "revokeMinterRole",
      "outputs": [],
      "stateMutability": "nonpayable",
      "type": "function"
    },
    {
      "inputs": [
        {
          "internalType": "bytes32",
          "name": "role",
          "type": "bytes32"
        },
        {
          "internalType": "address",
          "name": "account",
          "type": "address"
        }
      ],
      "name": "revokeRole",
      "outputs": [],
      "stateMutability": "nonpayable",
      "type": "function"
    },
    {
      "inputs": [
        {
          "internalType": "uint256",
          "name": "tokenId",
          "type": "uint256"
        },
        {
          "internalType": "uint256",
          "name": "salePrice",
          "type": "uint256"
        }
      ],
      "name": "royaltyInfo",
      "outputs": [
        {
          "internalType": "address",
          "name": "",
          "type": "address"
        },
        {
          "internalType": "uint256",
          "name": "",
          "type": "uint256"
        }
      ],
      "stateMutability": "view",
      "type": "function"
    },
    {
      "inputs": [
        {
          "internalType": "address",
          "name": "owner",
          "type": "address"
        },
        {
          "internalType": "uint256",
          "name": "tokenId",
          "type": "uint256"
        }
      ],
      "name": "safeBurn",
      "outputs": [],
      "stateMutability": "nonpayable",
      "type": "function"
    },
    {
      "inputs": [
        {
          "components": [
            {
              "internalType": "address",
              "name": "owner",
              "type": "address"
            },
            {
              "internalType": "uint256[]",
              "name": "tokenIds",
              "type": "uint256[]"
            }
          ],
          "internalType": "struct ImmutableERC721Base.IDBurn[]",
          "name": "burns",
          "type": "tuple[]"
        }
      ],
      "name": "safeBurnBatch",
      "outputs": [],
      "stateMutability": "nonpayable",
      "type": "function"
    },
    {
      "inputs": [
        {
          "internalType": "address",
          "name": "to",
          "type": "address"
        },
        {
          "internalType": "uint256",
          "name": "tokenID",
          "type": "uint256"
        }
      ],
      "name": "safeMint",
      "outputs": [],
      "stateMutability": "nonpayable",
      "type": "function"
    },
    {
      "inputs": [
        {
          "components": [
            {
              "internalType": "address",
              "name": "to",
              "type": "address"
            },
            {
              "internalType": "uint256[]",
              "name": "tokenIds",
              "type": "uint256[]"
            }
          ],
          "internalType": "struct ImmutableERC721Base.IDMint[]",
          "name": "mintRequests",
          "type": "tuple[]"
        }
      ],
      "name": "safeMintBatch",
      "outputs": [],
      "stateMutability": "nonpayable",
      "type": "function"
    },
    {
      "inputs": [
        {
          "internalType": "address",
          "name": "from",
          "type": "address"
        },
        {
          "internalType": "address",
          "name": "to",
          "type": "address"
        },
        {
          "internalType": "uint256",
          "name": "tokenId",
          "type": "uint256"
        }
      ],
      "name": "safeTransferFrom",
      "outputs": [],
      "stateMutability": "nonpayable",
      "type": "function"
    },
    {
      "inputs": [
        {
          "internalType": "address",
          "name": "from",
          "type": "address"
        },
        {
          "internalType": "address",
          "name": "to",
          "type": "address"
        },
        {
          "internalType": "uint256",
          "name": "tokenId",
          "type": "uint256"
        },
        {
          "internalType": "bytes",
          "name": "data",
          "type": "bytes"
        }
      ],
      "name": "safeTransferFrom",
      "outputs": [],
      "stateMutability": "nonpayable",
      "type": "function"
    },
    {
      "inputs": [
        {
          "components": [
            {
              "internalType": "address",
              "name": "from",
              "type": "address"
            },
            {
              "internalType": "address[]",
              "name": "tos",
              "type": "address[]"
            },
            {
              "internalType": "uint256[]",
              "name": "tokenIds",
              "type": "uint256[]"
            }
          ],
          "internalType": "struct ImmutableERC721Base.TransferRequest",
          "name": "tr",
          "type": "tuple"
        }
      ],
      "name": "safeTransferFromBatch",
      "outputs": [],
      "stateMutability": "nonpayable",
      "type": "function"
    },
    {
      "inputs": [
        {
          "internalType": "address",
          "name": "operator",
          "type": "address"
        },
        {
          "internalType": "bool",
          "name": "approved",
          "type": "bool"
        }
      ],
      "name": "setApprovalForAll",
      "outputs": [],
      "stateMutability": "nonpayable",
      "type": "function"
    },
    {
      "inputs": [
        {
          "internalType": "string",
          "name": "baseURI_",
          "type": "string"
        }
      ],
      "name": "setBaseURI",
      "outputs": [],
      "stateMutability": "nonpayable",
      "type": "function"
    },
    {
      "inputs": [
        {
          "internalType": "string",
          "name": "_contractURI",
          "type": "string"
        }
      ],
      "name": "setContractURI",
      "outputs": [],
      "stateMutability": "nonpayable",
      "type": "function"
    },
    {
      "inputs": [
        {
          "internalType": "address",
          "name": "receiver",
          "type": "address"
        },
        {
          "internalType": "uint96",
          "name": "feeNumerator",
          "type": "uint96"
        }
      ],
      "name": "setDefaultRoyaltyReceiver",
      "outputs": [],
      "stateMutability": "nonpayable",
      "type": "function"
    },
    {
      "inputs": [
        {
          "internalType": "uint256",
          "name": "tokenId",
          "type": "uint256"
        },
        {
          "internalType": "address",
          "name": "receiver",
          "type": "address"
        },
        {
          "internalType": "uint96",
          "name": "feeNumerator",
          "type": "uint96"
        }
      ],
      "name": "setNFTRoyaltyReceiver",
      "outputs": [],
      "stateMutability": "nonpayable",
      "type": "function"
    },
    {
      "inputs": [
        {
          "internalType": "uint256[]",
          "name": "tokenIds",
          "type": "uint256[]"
        },
        {
          "internalType": "address",
          "name": "receiver",
          "type": "address"
        },
        {
          "internalType": "uint96",
          "name": "feeNumerator",
          "type": "uint96"
        }
      ],
      "name": "setNFTRoyaltyReceiverBatch",
      "outputs": [],
      "stateMutability": "nonpayable",
      "type": "function"
    },
    {
      "inputs": [
        {
          "internalType": "address",
          "name": "_operatorAllowlist",
          "type": "address"
        }
      ],
      "name": "setOperatorAllowlistRegistry",
      "outputs": [],
      "stateMutability": "nonpayable",
      "type": "function"
    },
    {
      "inputs": [
        {
          "internalType": "bytes4",
          "name": "interfaceId",
          "type": "bytes4"
        }
      ],
      "name": "supportsInterface",
      "outputs": [
        {
          "internalType": "bool",
          "name": "",
          "type": "bool"
        }
      ],
      "stateMutability": "view",
      "type": "function"
    },
    {
      "inputs": [],
      "name": "symbol",
      "outputs": [
        {
          "internalType": "string",
          "name": "",
          "type": "string"
        }
      ],
      "stateMutability": "view",
      "type": "function"
    },
    {
      "inputs": [
        {
          "internalType": "uint256",
          "name": "tokenId",
          "type": "uint256"
        }
      ],
      "name": "tokenURI",
      "outputs": [
        {
          "internalType": "string",
          "name": "",
          "type": "string"
        }
      ],
      "stateMutability": "view",
      "type": "function"
    },
    {
      "inputs": [],
      "name": "totalSupply",
      "outputs": [
        {
          "internalType": "uint256",
          "name": "",
          "type": "uint256"
        }
      ],
      "stateMutability": "view",
      "type": "function"
    },
    {
      "inputs": [
        {
          "internalType": "address",
          "name": "from",
          "type": "address"
        },
        {
          "internalType": "address",
          "name": "to",
          "type": "address"
        },
        {
          "internalType": "uint256",
          "name": "tokenId",
          "type": "uint256"
        }
      ],
      "name": "transferFrom",
      "outputs": [],
      "stateMutability": "nonpayable",
      "type": "function"
    }
  ],
  "bytecode": "0x60806040523480156200001157600080fd5b5060405162003c7338038062003c73833981016040819052620000349162000506565b8787878787878787868660036200004c838262000699565b5060046200005b828262000699565b506200006d91506000905089620000b8565b620000798282620000fb565b620000848362000200565b600c62000092868262000699565b50600b620000a1858262000699565b505050505050505050505050505050505062000790565b620000cf8282620002f960201b6200135e1760201c565b6000828152600160209081526040909120620000f6918390620013e26200039a821b17901c565b505050565b6127106001600160601b03821611156200016f5760405162461bcd60e51b815260206004820152602a60248201527f455243323938313a20726f79616c7479206665652077696c6c206578636565646044820152692073616c65507269636560b01b60648201526084015b60405180910390fd5b6001600160a01b038216620001c75760405162461bcd60e51b815260206004820152601960248201527f455243323938313a20696e76616c696420726563656976657200000000000000604482015260640162000166565b604080518082019091526001600160a01b039092168083526001600160601b039091166020909201829052600160a01b90910217600955565b6040516301ffc9a760e01b81526305a3b80960e01b60048201526001600160a01b038216906301ffc9a790602401602060405180830381865afa1580156200024c573d6000803e3d6000fd5b505050506040513d601f19601f8201168201806040525081019062000272919062000765565b620002905760405163d6f93fb760e01b815260040160405180910390fd5b600254604080516001600160a01b03928316815291831660208301527f3edc37a14cc8047c7c8a3f354311efe86c14848efd4e3765a3e1e57eea04ea76910160405180910390a1600280546001600160a01b0319166001600160a01b0392909216919091179055565b6000828152602081815260408083206001600160a01b038516845290915290205460ff1662000396576000828152602081815260408083206001600160a01b03851684529091529020805460ff19166001179055620003553390565b6001600160a01b0316816001600160a01b0316837f2f8788117e7eff1d82e926ec794901d17c78024a50270940304540a733656f0d60405160405180910390a45b5050565b6000620003b1836001600160a01b038416620003ba565b90505b92915050565b60008181526001830160205260408120546200040357508154600181810184556000848152602080822090930184905584548482528286019093526040902091909155620003b4565b506000620003b4565b80516001600160a01b03811681146200042457600080fd5b919050565b634e487b7160e01b600052604160045260246000fd5b600082601f8301126200045157600080fd5b81516001600160401b03808211156200046e576200046e62000429565b604051601f8301601f19908116603f0116810190828211818310171562000499576200049962000429565b81604052838152602092508683858801011115620004b657600080fd5b600091505b83821015620004da5785820183015181830184015290820190620004bb565b600093810190920192909252949350505050565b80516001600160601b03811681146200042457600080fd5b600080600080600080600080610100898b0312156200052457600080fd5b6200052f896200040c565b60208a01519098506001600160401b03808211156200054d57600080fd5b6200055b8c838d016200043f565b985060408b01519150808211156200057257600080fd5b620005808c838d016200043f565b975060608b01519150808211156200059757600080fd5b620005a58c838d016200043f565b965060808b0151915080821115620005bc57600080fd5b50620005cb8b828c016200043f565b945050620005dc60a08a016200040c565b9250620005ec60c08a016200040c565b9150620005fc60e08a01620004ee565b90509295985092959890939650565b600181811c908216806200062057607f821691505b6020821081036200064157634e487b7160e01b600052602260045260246000fd5b50919050565b601f821115620000f657600081815260208120601f850160051c81016020861015620006705750805b601f850160051c820191505b8181101562000691578281556001016200067c565b505050505050565b81516001600160401b03811115620006b557620006b562000429565b620006cd81620006c684546200060b565b8462000647565b602080601f831160018114620007055760008415620006ec5750858301515b600019600386901b1c1916600185901b17855562000691565b600085815260208120601f198616915b82811015620007365788860151825594840194600190910190840162000715565b5085821015620007555787850151600019600388901b60f8161c191681555b5050505050600190811b01905550565b6000602082840312156200077857600080fd5b815180151581146200078957600080fd5b9392505050565b6134d380620007a06000396000f3fe608060405234801561001057600080fd5b50600436106102945760003560e01c806369e2f0fb11610167578063a217fddf116100ce578063d539139311610087578063d5391393146105da578063d547741f146105ef578063e4623c1b14610602578063e4e18f6d14610615578063e8a3d48514610628578063e985e9c51461063057600080fd5b8063a217fddf14610573578063a22cb4651461057b578063a70128161461058e578063b88d4fde146105a1578063c87b56dd146105b4578063ca15c873146105c757600080fd5b806391d148541161012057806391d148541461050c578063938e3d7b1461051f57806395d89b41146105325780639e2641a31461053a5780639f15d7001461054d578063a14481941461056057600080fd5b806369e2f0fb146104a55780636c0360eb146104b857806370a08231146104c057806374f16a81146104d3578063885e7a08146104e65780639010d07c146104f957600080fd5b80632f2ff15d1161020b57806340c10f19116101c457806340c10f191461043357806342842e0e1461044657806342966c6814610459578063439aed341461046c57806355f804b31461047f5780636352211e1461049257600080fd5b80632f2ff15d146103c957806331ae450b146103dc57806336568abe146103f15780633dd1eb61146104045780633e769acd146104175780633eaaf86b1461042a57600080fd5b806318160ddd1161025d57806318160ddd14610329578063234af0461461033b57806323b872dd1461034e578063248a9ca31461036157806329326f29146103845780632a55205a1461039757600080fd5b80628ad9461461029957806301ffc9a7146102ae57806306fdde03146102d6578063081812fc146102eb578063095ea7b314610316575b600080fd5b6102ac6102a7366004612901565b61066c565b005b6102c16102bc366004612951565b610742565b60405190151581526020015b60405180910390f35b6102de610753565b6040516102cd91906129be565b6102fe6102f93660046129d1565b6107e5565b6040516001600160a01b0390911681526020016102cd565b6102ac610324366004612a06565b61080c565b600d545b6040519081526020016102cd565b6102ac610349366004612bd2565b610967565b6102ac61035c366004612c1a565b6109bf565b61032d61036f3660046129d1565b60009081526020819052604090206001015490565b6002546102fe906001600160a01b031681565b6103aa6103a5366004612c56565b6109f1565b604080516001600160a01b0390931683526020830191909152016102cd565b6102ac6103d7366004612c78565b610a9f565b6103e4610ac4565b6040516102cd9190612ca4565b6102ac6103ff366004612c78565b610b72565b6102ac610412366004612cf1565b610bec565b6102ac610425366004612bd2565b610c0f565b61032d600d5481565b6102ac610441366004612a06565b610c9b565b6102ac610454366004612c1a565b610cd7565b6102ac6104673660046129d1565b610cf2565b6102ac61047a366004612d23565b610d30565b6102ac61048d366004612db6565b610d59565b6102fe6104a03660046129d1565b610d70565b6102ac6104b3366004612cf1565b610dd0565b6102de610df3565b61032d6104ce366004612cf1565b610e81565b6102ac6104e1366004612bd2565b610f07565b6102ac6104f4366004612dfe565b610f13565b6102fe610507366004612c56565b610f28565b6102c161051a366004612c78565b610f47565b6102ac61052d366004612db6565b610f70565b6102de610f87565b6102ac610548366004612bd2565b610f96565b6102ac61055b366004612a06565b610fee565b6102ac61056e366004612a06565b611048565b61032d600081565b6102ac610589366004612e36565b61107a565b6102ac61059c366004612eb1565b6111cb565b6102ac6105af366004612f15565b61122b565b6102de6105c23660046129d1565b61125d565b61032d6105d53660046129d1565b6112c3565b61032d6a4d494e5445525f524f4c4560a81b81565b6102ac6105fd366004612c78565b6112da565b6102ac610610366004612f90565b6112ff565b6102ac610623366004612cf1565b61133d565b6102de611351565b6102c161063e366004612fd1565b6001600160a01b03918216600090815260086020908152604080832093909416825291909152205460ff1690565b6106796020820182612ffb565b90506106886040830183612ffb565b9050146106a85760405163359a1bc360e01b815260040160405180910390fd5b60005b6106b86040830183612ffb565b905081101561073e5761072c6106d16020840184612cf1565b6106de6020850185612ffb565b848181106106ee576106ee613044565b90506020020160208101906107039190612cf1565b6107106040860186612ffb565b8581811061072057610720613044565b90506020020135610cd7565b8061073681613070565b9150506106ab565b5050565b600061074d826113f7565b92915050565b60606003805461076290613089565b80601f016020809104026020016040519081016040528092919081815260200182805461078e90613089565b80156107db5780601f106107b0576101008083540402835291602001916107db565b820191906000526020600020905b8154815290600101906020018083116107be57829003601f168201915b5050505050905090565b60006107f08261141c565b506000908152600760205260409020546001600160a01b031690565b81333b1580159061088657506002546040516305a3b80960e01b81523360048201526001600160a01b03909116906305a3b80990602401602060405180830381865afa158015610860573d6000803e3d6000fd5b505050506040513d601f19601f8201168201806040525081019061088491906130c3565b155b156108ab5760405163f6fa4cbd60e01b81523360048201526024015b60405180910390fd5b6001600160a01b0381163b1580159061092f57506002546040516305a3b80960e01b81526001600160a01b038381166004830152909116906305a3b80990602401602060405180830381865afa158015610909573d6000803e3d6000fd5b505050506040513d601f19601f8201168201806040525081019061092d91906130c3565b155b15610958576040516341b8d58160e11b81526001600160a01b03821660048201526024016108a2565b610962838361147b565b505050565b6a4d494e5445525f524f4c4560a81b61097f8161158b565b60005b8251811015610962576109ad8382815181106109a0576109a0613044565b6020026020010151611595565b806109b781613070565b915050610982565b6109ca335b82611624565b6109e65760405162461bcd60e51b81526004016108a2906130e0565b6109628383836116a3565b6000828152600a602090815260408083208151808301909252546001600160a01b038116808352600160a01b9091046001600160601b0316928201929092528291610a665750604080518082019091526009546001600160a01b0381168252600160a01b90046001600160601b031660208201525b602081015160009061271090610a85906001600160601b03168761312d565b610a8f9190613144565b91519350909150505b9250929050565b600082815260208190526040902060010154610aba8161158b565b61096283836118aa565b60606000610ad1816112c3565b90506000816001600160401b03811115610aed57610aed612a30565b604051908082528060200260200182016040528015610b16578160200160208202803683370190505b50905060005b82811015610b6b57610b2f600082610f28565b828281518110610b4157610b41613044565b6001600160a01b039092166020928302919091019091015280610b6381613070565b915050610b1c565b5092915050565b6001600160a01b0381163314610be25760405162461bcd60e51b815260206004820152602f60248201527f416363657373436f6e74726f6c3a2063616e206f6e6c792072656e6f756e636560448201526e103937b632b9903337b91039b2b63360891b60648201526084016108a2565b61073e82826118cc565b6000610bf78161158b565b61073e6a4d494e5445525f524f4c4560a81b83610a9f565b60005b815181101561073e576000828281518110610c2f57610c2f613044565b6020026020010151905060005b816020015151811015610c8657610c74826000015183602001518381518110610c6757610c67613044565b6020026020010151610fee565b80610c7e81613070565b915050610c3c565b50508080610c9390613070565b915050610c12565b6a4d494e5445525f524f4c4560a81b610cb38161158b565b610cbd83836118ee565b600d8054906000610ccd83613070565b9190505550505050565b6109628383836040518060200160405280600081525061122b565b610cfb81611935565b600881901c6000908152600e602052604081208054600160ff85161b179055600d805491610d2883613166565b919050555050565b6a4d494e5445525f524f4c4560a81b610d488161158b565b610d53848484611963565b50505050565b6000610d648161158b565b600c61096283826131c3565b6000818152600560205260408120546001600160a01b03168061074d5760405162461bcd60e51b8152602060048201526018602482015277115490cdcc8c4e881a5b9d985b1a59081d1bdad95b88125160421b60448201526064016108a2565b6000610ddb8161158b565b61073e6a4d494e5445525f524f4c4560a81b836112da565b600c8054610e0090613089565b80601f0160208091040260200160405190810160405280929190818152602001828054610e2c90613089565b8015610e795780601f10610e4e57610100808354040283529160200191610e79565b820191906000526020600020905b815481529060010190602001808311610e5c57829003601f168201915b505050505081565b60006001600160a01b038216610eeb5760405162461bcd60e51b815260206004820152602960248201527f4552433732313a2061646472657373207a65726f206973206e6f7420612076616044820152683634b21037bbb732b960b91b60648201526084016108a2565b506001600160a01b031660009081526006602052604090205490565b610f1081610c0f565b50565b6000610f1e8161158b565b6109628383611a2e565b6000828152600160205260408120610f409083611ae8565b9392505050565b6000918252602082815260408084206001600160a01b0393909316845291905290205460ff1690565b6000610f7b8161158b565b600b61096283826131c3565b60606004805461076290613089565b6a4d494e5445525f524f4c4560a81b610fae8161158b565b60005b825181101561096257610fdc838281518110610fcf57610fcf613044565b6020026020010151611af4565b80610fe681613070565b915050610fb1565b6000610ff982610d70565b9050826001600160a01b0316816001600160a01b03161461103f57604051634fefd56160e01b8152600481018390526001600160a01b03821660248201526044016108a2565b61096282610cf2565b6a4d494e5445525f524f4c4560a81b6110608161158b565b610cbd838360405180602001604052806000815250611b6a565b81333b158015906110f457506002546040516305a3b80960e01b81523360048201526001600160a01b03909116906305a3b80990602401602060405180830381865afa1580156110ce573d6000803e3d6000fd5b505050506040513d601f19601f820116820180604052508101906110f291906130c3565b155b156111145760405163f6fa4cbd60e01b81523360048201526024016108a2565b6001600160a01b0381163b1580159061119857506002546040516305a3b80960e01b81526001600160a01b038381166004830152909116906305a3b80990602401602060405180830381865afa158015611172573d6000803e3d6000fd5b505050506040513d601f19601f8201168201806040525081019061119691906130c3565b155b156111c1576040516341b8d58160e11b81526001600160a01b03821660048201526024016108a2565b6109628383611b9d565b6a4d494e5445525f524f4c4560a81b6111e38161158b565b60005b848110156112235761121186868381811061120357611203613044565b905060200201358585611963565b8061121b81613070565b9150506111e6565b505050505050565b6112353383611624565b6112515760405162461bcd60e51b81526004016108a2906130e0565b610d5384848484611ba8565b60606112688261141c565b6000611272611bdb565b905060008151116112925760405180602001604052806000815250610f40565b8061129c84611bea565b6040516020016112ad929190613282565b6040516020818303038152906040529392505050565b600081815260016020526040812061074d90611c7c565b6000828152602081905260409020600101546112f58161158b565b61096283836118cc565b60005b818110156109625761132b83838381811061131f5761131f613044565b90506020020135610cf2565b8061133581613070565b915050611302565b60006113488161158b565b61073e82611c86565b600b8054610e0090613089565b6113688282610f47565b61073e576000828152602081815260408083206001600160a01b03851684529091529020805460ff1916600117905561139e3390565b6001600160a01b0316816001600160a01b0316837f2f8788117e7eff1d82e926ec794901d17c78024a50270940304540a733656f0d60405160405180910390a45050565b6000610f40836001600160a01b038416611d7b565b60006001600160e01b0319821663152a902d60e11b148061074d575061074d82611dca565b6000818152600560205260409020546001600160a01b0316610f105760405162461bcd60e51b8152602060048201526018602482015277115490cdcc8c4e881a5b9d985b1a59081d1bdad95b88125160421b60448201526064016108a2565b600061148682610d70565b9050806001600160a01b0316836001600160a01b0316036114f35760405162461bcd60e51b815260206004820152602160248201527f4552433732313a20617070726f76616c20746f2063757272656e74206f776e656044820152603960f91b60648201526084016108a2565b336001600160a01b038216148061150f575061150f813361063e565b6115815760405162461bcd60e51b815260206004820152603d60248201527f4552433732313a20617070726f76652063616c6c6572206973206e6f7420746f60448201527f6b656e206f776e6572206f7220617070726f76656420666f7220616c6c00000060648201526084016108a2565b6109628383611e0a565b610f108133611e78565b80516001600160a01b03166115bd576040516331c3e52960e11b815260040160405180910390fd5b60005b81602001515181101561160a576115f88260000151836020015183815181106115eb576115eb613044565b6020026020010151611ed1565b8061160281613070565b9150506115c0565b50806020015151600d5461161e91906132b1565b600d5550565b60008061163083610d70565b9050806001600160a01b0316846001600160a01b0316148061167757506001600160a01b0380821660009081526008602090815260408083209388168352929052205460ff165b8061169b5750836001600160a01b0316611690846107e5565b6001600160a01b0316145b949350505050565b828233321480159061171e57506002546040516305a3b80960e01b81523360048201526001600160a01b03909116906305a3b80990602401602060405180830381865afa1580156116f8573d6000803e3d6000fd5b505050506040513d601f19601f8201168201806040525081019061171c91906130c3565b155b1561173e5760405163937db65f60e01b81523360048201526024016108a2565b6001600160a01b0382163b158015906117c257506002546040516305a3b80960e01b81526001600160a01b038481166004830152909116906305a3b80990602401602060405180830381865afa15801561179c573d6000803e3d6000fd5b505050506040513d601f19601f820116820180604052508101906117c091906130c3565b155b156117eb5760405163f934453160e01b81526001600160a01b03831660048201526024016108a2565b6001600160a01b0381163b1580159061186f57506002546040516305a3b80960e01b81526001600160a01b038381166004830152909116906305a3b80990602401602060405180830381865afa158015611849573d6000803e3d6000fd5b505050506040513d601f19601f8201168201806040525081019061186d91906130c3565b155b1561189857604051632a67242160e11b81526001600160a01b03821660048201526024016108a2565b6118a3858585611f18565b5050505050565b6118b4828261135e565b600082815260016020526040902061096290826113e2565b6118d6828261207c565b600082815260016020526040902061096290826120e1565b600881901c6000908152600e6020526040902054600160ff83161b161561192b576040516305dcda1160e51b8152600481018290526024016108a2565b61073e82826120f6565b61193e336109c4565b61195a5760405162461bcd60e51b81526004016108a2906130e0565b610f1081612281565b6127106001600160601b038216111561198e5760405162461bcd60e51b81526004016108a2906132c4565b6001600160a01b0382166119e45760405162461bcd60e51b815260206004820152601b60248201527f455243323938313a20496e76616c696420706172616d6574657273000000000060448201526064016108a2565b6040805180820182526001600160a01b0393841681526001600160601b0392831660208083019182526000968752600a90529190942093519051909116600160a01b029116179055565b6127106001600160601b0382161115611a595760405162461bcd60e51b81526004016108a2906132c4565b6001600160a01b038216611aaf5760405162461bcd60e51b815260206004820152601960248201527f455243323938313a20696e76616c69642072656365697665720000000000000060448201526064016108a2565b604080518082019091526001600160a01b039092168083526001600160601b039091166020909201829052600160a01b90910217600955565b6000610f408383612316565b80516001600160a01b031615611b1d576040516331c3e52960e11b815260040160405180910390fd5b60005b81602001515181101561160a57611b58826000015183602001518381518110611b4b57611b4b613044565b60200260200101516118ee565b80611b6281613070565b915050611b20565b611b7483836118ee565b611b816000848484612340565b6109625760405162461bcd60e51b81526004016108a29061330e565b61073e338383612441565b611bb38484846116a3565b611bbf84848484612340565b610d535760405162461bcd60e51b81526004016108a29061330e565b6060600c805461076290613089565b60606000611bf78361250f565b60010190506000816001600160401b03811115611c1657611c16612a30565b6040519080825280601f01601f191660200182016040528015611c40576020820181803683370190505b5090508181016020015b600019016f181899199a1a9b1b9c1cb0b131b232b360811b600a86061a8153600a8504945084611c4a57509392505050565b600061074d825490565b6040516301ffc9a760e01b81526305a3b80960e01b60048201526001600160a01b038216906301ffc9a790602401602060405180830381865afa158015611cd1573d6000803e3d6000fd5b505050506040513d601f19601f82011682018060405250810190611cf591906130c3565b611d125760405163d6f93fb760e01b815260040160405180910390fd5b600254604080516001600160a01b03928316815291831660208301527f3edc37a14cc8047c7c8a3f354311efe86c14848efd4e3765a3e1e57eea04ea76910160405180910390a1600280546001600160a01b0319166001600160a01b0392909216919091179055565b6000818152600183016020526040812054611dc25750815460018181018455600084815260208082209093018490558454848252828601909352604090209190915561074d565b50600061074d565b60006001600160e01b031982166380ac58cd60e01b1480611dfb57506001600160e01b03198216635b5e139f60e01b145b8061074d575061074d826125e7565b600081815260076020526040902080546001600160a01b0319166001600160a01b0384169081179091558190611e3f82610d70565b6001600160a01b03167f8c5be1e5ebec7d5bd14f71427d1e84f3dd0314c0f7b2291e5b200ac8c7c3b92560405160405180910390a45050565b611e828282610f47565b61073e57611e8f816125f2565b611e9a836020612604565b604051602001611eab929190613360565b60408051601f198184030181529082905262461bcd60e51b82526108a2916004016129be565b600881901c6000908152600e6020526040902054600160ff83161b1615611f0e576040516305dcda1160e51b8152600481018290526024016108a2565b61073e828261279f565b826001600160a01b0316611f2b82610d70565b6001600160a01b031614611f515760405162461bcd60e51b81526004016108a2906133d5565b6001600160a01b038216611fb35760405162461bcd60e51b8152602060048201526024808201527f4552433732313a207472616e7366657220746f20746865207a65726f206164646044820152637265737360e01b60648201526084016108a2565b826001600160a01b0316611fc682610d70565b6001600160a01b031614611fec5760405162461bcd60e51b81526004016108a2906133d5565b600081815260076020908152604080832080546001600160a01b03199081169091556001600160a01b0387811680865260068552838620805460001901905590871680865283862080546001019055868652600590945282852080549092168417909155905184937fddf252ad1be2c89b69c2b068fc378daa952ba7f163c4a11628f55a4df523b3ef91a4505050565b6120868282610f47565b1561073e576000828152602081815260408083206001600160a01b0385168085529252808320805460ff1916905551339285917ff6391f5c32d9c69d2a47ea670b442974b53935d1edc7fd64eb21e047a839171b9190a45050565b6000610f40836001600160a01b0384166127b9565b6001600160a01b03821661214c5760405162461bcd60e51b815260206004820181905260248201527f4552433732313a206d696e7420746f20746865207a65726f206164647265737360448201526064016108a2565b6000818152600560205260409020546001600160a01b0316156121b15760405162461bcd60e51b815260206004820152601c60248201527f4552433732313a20746f6b656e20616c7265616479206d696e7465640000000060448201526064016108a2565b6000818152600560205260409020546001600160a01b0316156122165760405162461bcd60e51b815260206004820152601c60248201527f4552433732313a20746f6b656e20616c7265616479206d696e7465640000000060448201526064016108a2565b6001600160a01b038216600081815260066020908152604080832080546001019055848352600590915280822080546001600160a01b0319168417905551839291907fddf252ad1be2c89b69c2b068fc378daa952ba7f163c4a11628f55a4df523b3ef908290a45050565b600061228c82610d70565b905061229782610d70565b600083815260076020908152604080832080546001600160a01b03199081169091556001600160a01b0385168085526006845282852080546000190190558785526005909352818420805490911690555192935084927fddf252ad1be2c89b69c2b068fc378daa952ba7f163c4a11628f55a4df523b3ef908390a45050565b600082600001828154811061232d5761232d613044565b9060005260206000200154905092915050565b60006001600160a01b0384163b1561243657604051630a85bd0160e11b81526001600160a01b0385169063150b7a029061238490339089908890889060040161341a565b6020604051808303816000875af19250505080156123bf575060408051601f3d908101601f191682019092526123bc91810190613457565b60015b61241c573d8080156123ed576040519150601f19603f3d011682016040523d82523d6000602084013e6123f2565b606091505b5080516000036124145760405162461bcd60e51b81526004016108a29061330e565b805181602001fd5b6001600160e01b031916630a85bd0160e11b14905061169b565b506001949350505050565b816001600160a01b0316836001600160a01b0316036124a25760405162461bcd60e51b815260206004820152601960248201527f4552433732313a20617070726f766520746f2063616c6c65720000000000000060448201526064016108a2565b6001600160a01b03838116600081815260086020908152604080832094871680845294825291829020805460ff191686151590811790915591519182527f17307eab39ab6107e8899845ad3d59bd9653f200f220920489ca2b5937696c31910160405180910390a3505050565b60008072184f03e93ff9f4daa797ed6e38ed64bf6a1f0160401b831061254e5772184f03e93ff9f4daa797ed6e38ed64bf6a1f0160401b830492506040015b6d04ee2d6d415b85acef8100000000831061257a576d04ee2d6d415b85acef8100000000830492506020015b662386f26fc10000831061259857662386f26fc10000830492506010015b6305f5e10083106125b0576305f5e100830492506008015b61271083106125c457612710830492506004015b606483106125d6576064830492506002015b600a831061074d5760010192915050565b600061074d826128ac565b606061074d6001600160a01b03831660145b6060600061261383600261312d565b61261e9060026132b1565b6001600160401b0381111561263557612635612a30565b6040519080825280601f01601f19166020018201604052801561265f576020820181803683370190505b509050600360fc1b8160008151811061267a5761267a613044565b60200101906001600160f81b031916908160001a905350600f60fb1b816001815181106126a9576126a9613044565b60200101906001600160f81b031916908160001a90535060006126cd84600261312d565b6126d89060016132b1565b90505b6001811115612750576f181899199a1a9b1b9c1cb0b131b232b360811b85600f166010811061270c5761270c613044565b1a60f81b82828151811061272257612722613044565b60200101906001600160f81b031916908160001a90535060049490941c9361274981613166565b90506126db565b508315610f405760405162461bcd60e51b815260206004820181905260248201527f537472696e67733a20686578206c656e67746820696e73756666696369656e7460448201526064016108a2565b61073e828260405180602001604052806000815250611b6a565b600081815260018301602052604081205480156128a25760006127dd600183613474565b85549091506000906127f190600190613474565b905081811461285657600086600001828154811061281157612811613044565b906000526020600020015490508087600001848154811061283457612834613044565b6000918252602080832090910192909255918252600188019052604090208390555b855486908061286757612867613487565b60019003818190600052602060002001600090559055856001016000868152602001908152602001600020600090556001935050505061074d565b600091505061074d565b60006001600160e01b03198216635a05180f60e01b148061074d575061074d8260006001600160e01b03198216637965db0b60e01b148061074d57506301ffc9a760e01b6001600160e01b031983161461074d565b60006020828403121561291357600080fd5b81356001600160401b0381111561292957600080fd5b820160608185031215610f4057600080fd5b6001600160e01b031981168114610f1057600080fd5b60006020828403121561296357600080fd5b8135610f408161293b565b60005b83811015612989578181015183820152602001612971565b50506000910152565b600081518084526129aa81602086016020860161296e565b601f01601f19169290920160200192915050565b602081526000610f406020830184612992565b6000602082840312156129e357600080fd5b5035919050565b80356001600160a01b0381168114612a0157600080fd5b919050565b60008060408385031215612a1957600080fd5b612a22836129ea565b946020939093013593505050565b634e487b7160e01b600052604160045260246000fd5b604080519081016001600160401b0381118282101715612a6857612a68612a30565b60405290565b604051601f8201601f191681016001600160401b0381118282101715612a9657612a96612a30565b604052919050565b60006001600160401b03821115612ab757612ab7612a30565b5060051b60200190565b6000612ad4612acf84612a9e565b612a6e565b8381529050602080820190600585811b850187811115612af357600080fd5b855b81811015612bc65780356001600160401b0380821115612b155760008081fd5b908801906040828c031215612b2a5760008081fd5b612b32612a46565b612b3b836129ea565b81528683013582811115612b4f5760008081fd5b8084019350508b601f840112612b6757600091508182fd5b82359150612b77612acf83612a9e565b82815291861b8301870191878101908d841115612b945760008081fd5b938801935b83851015612bb257843582529388019390880190612b99565b828901525087525050938301938301612af5565b50505050509392505050565b600060208284031215612be457600080fd5b81356001600160401b03811115612bfa57600080fd5b8201601f81018413612c0b57600080fd5b61169b84823560208401612ac1565b600080600060608486031215612c2f57600080fd5b612c38846129ea565b9250612c46602085016129ea565b9150604084013590509250925092565b60008060408385031215612c6957600080fd5b50508035926020909101359150565b60008060408385031215612c8b57600080fd5b82359150612c9b602084016129ea565b90509250929050565b6020808252825182820181905260009190848201906040850190845b81811015612ce55783516001600160a01b031683529284019291840191600101612cc0565b50909695505050505050565b600060208284031215612d0357600080fd5b610f40826129ea565b80356001600160601b0381168114612a0157600080fd5b600080600060608486031215612d3857600080fd5b83359250612d48602085016129ea565b9150612d5660408501612d0c565b90509250925092565b60006001600160401b03831115612d7857612d78612a30565b612d8b601f8401601f1916602001612a6e565b9050828152838383011115612d9f57600080fd5b828260208301376000602084830101529392505050565b600060208284031215612dc857600080fd5b81356001600160401b03811115612dde57600080fd5b8201601f81018413612def57600080fd5b61169b84823560208401612d5f565b60008060408385031215612e1157600080fd5b612e1a836129ea565b9150612c9b60208401612d0c565b8015158114610f1057600080fd5b60008060408385031215612e4957600080fd5b612e52836129ea565b91506020830135612e6281612e28565b809150509250929050565b60008083601f840112612e7f57600080fd5b5081356001600160401b03811115612e9657600080fd5b6020830191508360208260051b8501011115610a9857600080fd5b60008060008060608587031215612ec757600080fd5b84356001600160401b03811115612edd57600080fd5b612ee987828801612e6d565b9095509350612efc9050602086016129ea565b9150612f0a60408601612d0c565b905092959194509250565b60008060008060808587031215612f2b57600080fd5b612f34856129ea565b9350612f42602086016129ea565b92506040850135915060608501356001600160401b03811115612f6457600080fd5b8501601f81018713612f7557600080fd5b612f8487823560208401612d5f565b91505092959194509250565b60008060208385031215612fa357600080fd5b82356001600160401b03811115612fb957600080fd5b612fc585828601612e6d565b90969095509350505050565b60008060408385031215612fe457600080fd5b612fed836129ea565b9150612c9b602084016129ea565b6000808335601e1984360301811261301257600080fd5b8301803591506001600160401b0382111561302c57600080fd5b6020019150600581901b3603821315610a9857600080fd5b634e487b7160e01b600052603260045260246000fd5b634e487b7160e01b600052601160045260246000fd5b6000600182016130825761308261305a565b5060010190565b600181811c9082168061309d57607f821691505b6020821081036130bd57634e487b7160e01b600052602260045260246000fd5b50919050565b6000602082840312156130d557600080fd5b8151610f4081612e28565b6020808252602d908201527f4552433732313a2063616c6c6572206973206e6f7420746f6b656e206f776e6560408201526c1c881bdc88185c1c1c9bdd9959609a1b606082015260800190565b808202811582820484141761074d5761074d61305a565b60008261316157634e487b7160e01b600052601260045260246000fd5b500490565b6000816131755761317561305a565b506000190190565b601f82111561096257600081815260208120601f850160051c810160208610156131a45750805b601f850160051c820191505b81811015611223578281556001016131b0565b81516001600160401b038111156131dc576131dc612a30565b6131f0816131ea8454613089565b8461317d565b602080601f831160018114613225576000841561320d5750858301515b600019600386901b1c1916600185901b178555611223565b600085815260208120601f198616915b8281101561325457888601518255948401946001909101908401613235565b50858210156132725787850151600019600388901b60f8161c191681555b5050505050600190811b01905550565b6000835161329481846020880161296e565b8351908301906132a881836020880161296e565b01949350505050565b8082018082111561074d5761074d61305a565b6020808252602a908201527f455243323938313a20726f79616c7479206665652077696c6c206578636565646040820152692073616c65507269636560b01b606082015260800190565b60208082526032908201527f4552433732313a207472616e7366657220746f206e6f6e20455243373231526560408201527131b2b4bb32b91034b6b83632b6b2b73a32b960711b606082015260800190565b7f416363657373436f6e74726f6c3a206163636f756e742000000000000000000081526000835161339881601785016020880161296e565b7001034b99036b4b9b9b4b733903937b6329607d1b60179184019182015283516133c981602884016020880161296e565b01602801949350505050565b60208082526025908201527f4552433732313a207472616e736665722066726f6d20696e636f72726563742060408201526437bbb732b960d91b606082015260800190565b6001600160a01b038581168252841660208201526040810183905260806060820181905260009061344d90830184612992565b9695505050505050565b60006020828403121561346957600080fd5b8151610f408161293b565b8181038181111561074d5761074d61305a565b634e487b7160e01b600052603160045260246000fdfea2646970667358221220db78f674a75be30e896244d83179c8c4f1b45519e52de44c0f337b384795efbc64736f6c63430008110033",
  "linkReferences": {},
  "deployedLinkReferences": {}
}