{
  "_format": "hh-sol-artifact-1",
  "contractName": "ImmutableERC721MintByID",
  "sourceName": "contracts/token/erc721/preset/ImmutableERC721MintByID.sol",
  "abi": [
    {
      "inputs": [
        {
          "internalType": "address",
          "name": "owner",
          "type": "address"
        },
        {
          "internalType": "string",
          "name": "name_",
          "type": "string"
        },
        {
          "internalType": "string",
          "name": "symbol_",
          "type": "string"
        },
        {
          "internalType": "string",
          "name": "baseURI_",
          "type": "string"
        },
        {
          "internalType": "string",
          "name": "contractURI_",
          "type": "string"
        },
        {
          "internalType": "address",
          "name": "_royaltyAllowlist",
          "type": "address"
        },
        {
          "internalType": "address",
          "name": "_receiver",
          "type": "address"
        },
        {
          "internalType": "uint96",
          "name": "_feeNumerator",
          "type": "uint96"
        }
      ],
      "stateMutability": "nonpayable",
      "type": "constructor"
    },
    {
      "inputs": [
        {
          "internalType": "address",
          "name": "target",
          "type": "address"
        }
      ],
      "name": "ApproveTargetNotInAllowlist",
      "type": "error"
    },
    {
      "inputs": [
        {
          "internalType": "address",
          "name": "approver",
          "type": "address"
        }
      ],
      "name": "ApproverNotInAllowlist",
      "type": "error"
    },
    {
      "inputs": [
        {
          "internalType": "address",
          "name": "caller",
          "type": "address"
        }
      ],
      "name": "CallerNotInAllowlist",
      "type": "error"
    },
    {
      "inputs": [
        {
          "internalType": "uint256",
          "name": "tokenId",
          "type": "uint256"
        }
      ],
      "name": "IImmutableERC721IDAboveThreshold",
      "type": "error"
    },
    {
      "inputs": [],
      "name": "IImmutableERC721MismatchedTransferLengths",
      "type": "error"
    },
    {
      "inputs": [
        {
          "internalType": "uint256",
          "name": "tokenId",
          "type": "uint256"
        }
      ],
      "name": "IImmutableERC721NotOwnerOrOperator",
      "type": "error"
    },
    {
      "inputs": [],
      "name": "IImmutableERC721SendingToZerothAddress",
      "type": "error"
    },
    {
      "inputs": [
        {
          "internalType": "uint256",
          "name": "tokenId",
          "type": "uint256"
        }
      ],
      "name": "IImmutableERC721TokenAlreadyBurned",
      "type": "error"
    },
    {
      "inputs": [],
      "name": "RoyaltyEnforcementDoesNotImplementRequiredInterface",
      "type": "error"
    },
    {
      "inputs": [
        {
          "internalType": "address",
          "name": "from",
          "type": "address"
        }
      ],
      "name": "TransferFromNotInAllowlist",
      "type": "error"
    },
    {
      "inputs": [
        {
          "internalType": "address",
          "name": "to",
          "type": "address"
        }
      ],
      "name": "TransferToNotInAllowlist",
      "type": "error"
    },
    {
      "anonymous": false,
      "inputs": [
        {
          "indexed": true,
          "internalType": "address",
          "name": "owner",
          "type": "address"
        },
        {
          "indexed": true,
          "internalType": "address",
          "name": "approved",
          "type": "address"
        },
        {
          "indexed": true,
          "internalType": "uint256",
          "name": "tokenId",
          "type": "uint256"
        }
      ],
      "name": "Approval",
      "type": "event"
    },
    {
      "anonymous": false,
      "inputs": [
        {
          "indexed": true,
          "internalType": "address",
          "name": "owner",
          "type": "address"
        },
        {
          "indexed": true,
          "internalType": "address",
          "name": "operator",
          "type": "address"
        },
        {
          "indexed": false,
          "internalType": "bool",
          "name": "approved",
          "type": "bool"
        }
      ],
      "name": "ApprovalForAll",
      "type": "event"
    },
    {
      "anonymous": false,
      "inputs": [
        {
          "indexed": true,
          "internalType": "bytes32",
          "name": "role",
          "type": "bytes32"
        },
        {
          "indexed": true,
          "internalType": "bytes32",
          "name": "previousAdminRole",
          "type": "bytes32"
        },
        {
          "indexed": true,
          "internalType": "bytes32",
          "name": "newAdminRole",
          "type": "bytes32"
        }
      ],
      "name": "RoleAdminChanged",
      "type": "event"
    },
    {
      "anonymous": false,
      "inputs": [
        {
          "indexed": true,
          "internalType": "bytes32",
          "name": "role",
          "type": "bytes32"
        },
        {
          "indexed": true,
          "internalType": "address",
          "name": "account",
          "type": "address"
        },
        {
          "indexed": true,
          "internalType": "address",
          "name": "sender",
          "type": "address"
        }
      ],
      "name": "RoleGranted",
      "type": "event"
    },
    {
      "anonymous": false,
      "inputs": [
        {
          "indexed": true,
          "internalType": "bytes32",
          "name": "role",
          "type": "bytes32"
        },
        {
          "indexed": true,
          "internalType": "address",
          "name": "account",
          "type": "address"
        },
        {
          "indexed": true,
          "internalType": "address",
          "name": "sender",
          "type": "address"
        }
      ],
      "name": "RoleRevoked",
      "type": "event"
    },
    {
      "anonymous": false,
      "inputs": [
        {
          "indexed": false,
          "internalType": "address",
          "name": "oldRegistry",
          "type": "address"
        },
        {
          "indexed": false,
          "internalType": "address",
          "name": "newRegistry",
          "type": "address"
        }
      ],
      "name": "RoyaltyAllowlistRegistryUpdated",
      "type": "event"
    },
    {
      "anonymous": false,
      "inputs": [
        {
          "indexed": true,
          "internalType": "address",
          "name": "from",
          "type": "address"
        },
        {
          "indexed": true,
          "internalType": "address",
          "name": "to",
          "type": "address"
        },
        {
          "indexed": true,
          "internalType": "uint256",
          "name": "tokenId",
          "type": "uint256"
        }
      ],
      "name": "Transfer",
      "type": "event"
    },
    {
      "inputs": [],
      "name": "DEFAULT_ADMIN_ROLE",
      "outputs": [
        {
          "internalType": "bytes32",
          "name": "",
          "type": "bytes32"
        }
      ],
      "stateMutability": "view",
      "type": "function"
    },
    {
      "inputs": [],
      "name": "MINTER_ROLE",
      "outputs": [
        {
          "internalType": "bytes32",
          "name": "",
          "type": "bytes32"
        }
      ],
      "stateMutability": "view",
      "type": "function"
    },
    {
      "inputs": [],
      "name": "_totalSupply",
      "outputs": [
        {
          "internalType": "uint256",
          "name": "",
          "type": "uint256"
        }
      ],
      "stateMutability": "view",
      "type": "function"
    },
    {
      "inputs": [
        {
          "internalType": "address",
          "name": "to",
          "type": "address"
        },
        {
          "internalType": "uint256",
          "name": "tokenId",
          "type": "uint256"
        }
      ],
      "name": "approve",
      "outputs": [],
      "stateMutability": "nonpayable",
      "type": "function"
    },
    {
      "inputs": [
        {
          "internalType": "address",
          "name": "owner",
          "type": "address"
        }
      ],
      "name": "balanceOf",
      "outputs": [
        {
          "internalType": "uint256",
          "name": "",
          "type": "uint256"
        }
      ],
      "stateMutability": "view",
      "type": "function"
    },
    {
      "inputs": [],
      "name": "baseURI",
      "outputs": [
        {
          "internalType": "string",
          "name": "",
          "type": "string"
        }
      ],
      "stateMutability": "view",
      "type": "function"
    },
    {
      "inputs": [
        {
          "internalType": "uint256",
          "name": "tokenId",
          "type": "uint256"
        }
      ],
      "name": "burn",
      "outputs": [],
      "stateMutability": "nonpayable",
      "type": "function"
    },
    {
      "inputs": [
        {
          "internalType": "uint256[]",
          "name": "tokenIDs",
          "type": "uint256[]"
        }
      ],
      "name": "burnBatch",
      "outputs": [],
      "stateMutability": "nonpayable",
      "type": "function"
    },
    {
      "inputs": [],
      "name": "contractURI",
      "outputs": [
        {
          "internalType": "string",
          "name": "",
          "type": "string"
        }
      ],
      "stateMutability": "view",
      "type": "function"
    },
    {
      "inputs": [],
      "name": "getAdmins",
      "outputs": [
        {
          "internalType": "address[]",
          "name": "",
          "type": "address[]"
        }
      ],
      "stateMutability": "view",
      "type": "function"
    },
    {
      "inputs": [
        {
          "internalType": "uint256",
          "name": "tokenId",
          "type": "uint256"
        }
      ],
      "name": "getApproved",
      "outputs": [
        {
          "internalType": "address",
          "name": "",
          "type": "address"
        }
      ],
      "stateMutability": "view",
      "type": "function"
    },
    {
      "inputs": [
        {
          "internalType": "bytes32",
          "name": "role",
          "type": "bytes32"
        }
      ],
      "name": "getRoleAdmin",
      "outputs": [
        {
          "internalType": "bytes32",
          "name": "",
          "type": "bytes32"
        }
      ],
      "stateMutability": "view",
      "type": "function"
    },
    {
      "inputs": [
        {
          "internalType": "bytes32",
          "name": "role",
          "type": "bytes32"
        },
        {
          "internalType": "uint256",
          "name": "index",
          "type": "uint256"
        }
      ],
      "name": "getRoleMember",
      "outputs": [
        {
          "internalType": "address",
          "name": "",
          "type": "address"
        }
      ],
      "stateMutability": "view",
      "type": "function"
    },
    {
      "inputs": [
        {
          "internalType": "bytes32",
          "name": "role",
          "type": "bytes32"
        }
      ],
      "name": "getRoleMemberCount",
      "outputs": [
        {
          "internalType": "uint256",
          "name": "",
          "type": "uint256"
        }
      ],
      "stateMutability": "view",
      "type": "function"
    },
    {
      "inputs": [
        {
          "internalType": "address",
          "name": "user",
          "type": "address"
        }
      ],
      "name": "grantMinterRole",
      "outputs": [],
      "stateMutability": "nonpayable",
      "type": "function"
    },
    {
      "inputs": [
        {
          "internalType": "bytes32",
          "name": "role",
          "type": "bytes32"
        },
        {
          "internalType": "address",
          "name": "account",
          "type": "address"
        }
      ],
      "name": "grantRole",
      "outputs": [],
      "stateMutability": "nonpayable",
      "type": "function"
    },
    {
      "inputs": [
        {
          "internalType": "bytes32",
          "name": "role",
          "type": "bytes32"
        },
        {
          "internalType": "address",
          "name": "account",
          "type": "address"
        }
      ],
      "name": "hasRole",
      "outputs": [
        {
          "internalType": "bool",
          "name": "",
          "type": "bool"
        }
      ],
      "stateMutability": "view",
      "type": "function"
    },
    {
      "inputs": [
        {
          "internalType": "address",
          "name": "owner",
          "type": "address"
        },
        {
          "internalType": "address",
          "name": "operator",
          "type": "address"
        }
      ],
      "name": "isApprovedForAll",
      "outputs": [
        {
          "internalType": "bool",
          "name": "",
          "type": "bool"
        }
      ],
      "stateMutability": "view",
      "type": "function"
    },
    {
      "inputs": [
        {
          "internalType": "address",
          "name": "to",
          "type": "address"
        },
        {
          "internalType": "uint256",
          "name": "tokenID",
          "type": "uint256"
        }
      ],
      "name": "mint",
      "outputs": [],
      "stateMutability": "nonpayable",
      "type": "function"
    },
    {
      "inputs": [
        {
          "components": [
            {
              "internalType": "address",
              "name": "to",
              "type": "address"
            },
            {
              "internalType": "uint256[]",
              "name": "tokenIds",
              "type": "uint256[]"
            }
          ],
          "internalType": "struct ImmutableERC721Base.IDMint[]",
          "name": "mintRequests",
          "type": "tuple[]"
        }
      ],
      "name": "mintBatch",
      "outputs": [],
      "stateMutability": "nonpayable",
      "type": "function"
    },
    {
      "inputs": [],
      "name": "name",
      "outputs": [
        {
          "internalType": "string",
          "name": "",
          "type": "string"
        }
      ],
      "stateMutability": "view",
      "type": "function"
    },
    {
      "inputs": [
        {
          "internalType": "uint256",
          "name": "tokenId",
          "type": "uint256"
        }
      ],
      "name": "ownerOf",
      "outputs": [
        {
          "internalType": "address",
          "name": "",
          "type": "address"
        }
      ],
      "stateMutability": "view",
      "type": "function"
    },
    {
      "inputs": [
        {
          "internalType": "bytes32",
          "name": "role",
          "type": "bytes32"
        },
        {
          "internalType": "address",
          "name": "account",
          "type": "address"
        }
      ],
      "name": "renounceRole",
      "outputs": [],
      "stateMutability": "nonpayable",
      "type": "function"
    },
    {
      "inputs": [
        {
          "internalType": "address",
          "name": "user",
          "type": "address"
        }
      ],
      "name": "revokeMinterRole",
      "outputs": [],
      "stateMutability": "nonpayable",
      "type": "function"
    },
    {
      "inputs": [
        {
          "internalType": "bytes32",
          "name": "role",
          "type": "bytes32"
        },
        {
          "internalType": "address",
          "name": "account",
          "type": "address"
        }
      ],
      "name": "revokeRole",
      "outputs": [],
      "stateMutability": "nonpayable",
      "type": "function"
    },
    {
      "inputs": [],
      "name": "royaltyAllowlist",
      "outputs": [
        {
          "internalType": "contract IRoyaltyAllowlist",
          "name": "",
          "type": "address"
        }
      ],
      "stateMutability": "view",
      "type": "function"
    },
    {
      "inputs": [
        {
          "internalType": "uint256",
          "name": "tokenId",
          "type": "uint256"
        },
        {
          "internalType": "uint256",
          "name": "salePrice",
          "type": "uint256"
        }
      ],
      "name": "royaltyInfo",
      "outputs": [
        {
          "internalType": "address",
          "name": "",
          "type": "address"
        },
        {
          "internalType": "uint256",
          "name": "",
          "type": "uint256"
        }
      ],
      "stateMutability": "view",
      "type": "function"
    },
    {
      "inputs": [
        {
          "internalType": "address",
          "name": "to",
          "type": "address"
        },
        {
          "internalType": "uint256",
          "name": "tokenID",
          "type": "uint256"
        }
      ],
      "name": "safeMint",
      "outputs": [],
      "stateMutability": "nonpayable",
      "type": "function"
    },
    {
      "inputs": [
        {
          "components": [
            {
              "internalType": "address",
              "name": "to",
              "type": "address"
            },
            {
              "internalType": "uint256[]",
              "name": "tokenIds",
              "type": "uint256[]"
            }
          ],
          "internalType": "struct ImmutableERC721Base.IDMint[]",
          "name": "mintRequests",
          "type": "tuple[]"
        }
      ],
      "name": "safeMintBatch",
      "outputs": [],
      "stateMutability": "nonpayable",
      "type": "function"
    },
    {
      "inputs": [
        {
          "internalType": "address",
          "name": "from",
          "type": "address"
        },
        {
          "internalType": "address",
          "name": "to",
          "type": "address"
        },
        {
          "internalType": "uint256",
          "name": "tokenId",
          "type": "uint256"
        }
      ],
      "name": "safeTransferFrom",
      "outputs": [],
      "stateMutability": "nonpayable",
      "type": "function"
    },
    {
      "inputs": [
        {
          "internalType": "address",
          "name": "from",
          "type": "address"
        },
        {
          "internalType": "address",
          "name": "to",
          "type": "address"
        },
        {
          "internalType": "uint256",
          "name": "tokenId",
          "type": "uint256"
        },
        {
          "internalType": "bytes",
          "name": "data",
          "type": "bytes"
        }
      ],
      "name": "safeTransferFrom",
      "outputs": [],
      "stateMutability": "nonpayable",
      "type": "function"
    },
    {
      "inputs": [
        {
          "components": [
            {
              "internalType": "address",
              "name": "from",
              "type": "address"
            },
            {
              "internalType": "address[]",
              "name": "tos",
              "type": "address[]"
            },
            {
              "internalType": "uint256[]",
              "name": "tokenIds",
              "type": "uint256[]"
            }
          ],
          "internalType": "struct ImmutableERC721Base.TransferRequest",
          "name": "tr",
          "type": "tuple"
        }
      ],
      "name": "safeTransferFromBatch",
      "outputs": [],
      "stateMutability": "nonpayable",
      "type": "function"
    },
    {
      "inputs": [
        {
          "internalType": "address",
          "name": "operator",
          "type": "address"
        },
        {
          "internalType": "bool",
          "name": "approved",
          "type": "bool"
        }
      ],
      "name": "setApprovalForAll",
      "outputs": [],
      "stateMutability": "nonpayable",
      "type": "function"
    },
    {
      "inputs": [
        {
          "internalType": "string",
          "name": "baseURI_",
          "type": "string"
        }
      ],
      "name": "setBaseURI",
      "outputs": [],
      "stateMutability": "nonpayable",
      "type": "function"
    },
    {
      "inputs": [
        {
          "internalType": "string",
          "name": "_contractURI",
          "type": "string"
        }
      ],
      "name": "setContractURI",
      "outputs": [],
      "stateMutability": "nonpayable",
      "type": "function"
    },
    {
      "inputs": [
        {
          "internalType": "address",
          "name": "receiver",
          "type": "address"
        },
        {
          "internalType": "uint96",
          "name": "feeNumerator",
          "type": "uint96"
        }
      ],
      "name": "setDefaultRoyaltyReceiver",
      "outputs": [],
      "stateMutability": "nonpayable",
      "type": "function"
    },
    {
      "inputs": [
        {
          "internalType": "uint256",
          "name": "tokenId",
          "type": "uint256"
        },
        {
          "internalType": "address",
          "name": "receiver",
          "type": "address"
        },
        {
          "internalType": "uint96",
          "name": "feeNumerator",
          "type": "uint96"
        }
      ],
      "name": "setNFTRoyaltyReceiver",
      "outputs": [],
      "stateMutability": "nonpayable",
      "type": "function"
    },
    {
      "inputs": [
        {
          "internalType": "uint256[]",
          "name": "tokenIds",
          "type": "uint256[]"
        },
        {
          "internalType": "address",
          "name": "receiver",
          "type": "address"
        },
        {
          "internalType": "uint96",
          "name": "feeNumerator",
          "type": "uint96"
        }
      ],
      "name": "setNFTRoyaltyReceiverBatch",
      "outputs": [],
      "stateMutability": "nonpayable",
      "type": "function"
    },
    {
      "inputs": [
        {
          "internalType": "address",
          "name": "_royaltyAllowlist",
          "type": "address"
        }
      ],
      "name": "setRoyaltyAllowlistRegistry",
      "outputs": [],
      "stateMutability": "nonpayable",
      "type": "function"
    },
    {
      "inputs": [
        {
          "internalType": "bytes4",
          "name": "interfaceId",
          "type": "bytes4"
        }
      ],
      "name": "supportsInterface",
      "outputs": [
        {
          "internalType": "bool",
          "name": "",
          "type": "bool"
        }
      ],
      "stateMutability": "view",
      "type": "function"
    },
    {
      "inputs": [],
      "name": "symbol",
      "outputs": [
        {
          "internalType": "string",
          "name": "",
          "type": "string"
        }
      ],
      "stateMutability": "view",
      "type": "function"
    },
    {
      "inputs": [
        {
          "internalType": "uint256",
          "name": "tokenId",
          "type": "uint256"
        }
      ],
      "name": "tokenURI",
      "outputs": [
        {
          "internalType": "string",
          "name": "",
          "type": "string"
        }
      ],
      "stateMutability": "view",
      "type": "function"
    },
    {
      "inputs": [],
      "name": "totalSupply",
      "outputs": [
        {
          "internalType": "uint256",
          "name": "",
          "type": "uint256"
        }
      ],
      "stateMutability": "view",
      "type": "function"
    },
    {
      "inputs": [
        {
          "internalType": "address",
          "name": "from",
          "type": "address"
        },
        {
          "internalType": "address",
          "name": "to",
          "type": "address"
        },
        {
          "internalType": "uint256",
          "name": "tokenId",
          "type": "uint256"
        }
      ],
      "name": "transferFrom",
      "outputs": [],
      "stateMutability": "nonpayable",
      "type": "function"
    }
  ],
  "bytecode": "0x60806040523480156200001157600080fd5b5060405162003b2838038062003b28833981016040819052620000349162000506565b8787878787878787868660036200004c838262000699565b5060046200005b828262000699565b506200006d91506000905089620000b8565b620000798282620000fb565b620000848362000200565b600c62000092868262000699565b50600b620000a1858262000699565b505050505050505050505050505050505062000790565b620000cf8282620002f960201b620012121760201c565b6000828152600160209081526040909120620000f6918390620012966200039a821b17901c565b505050565b6127106001600160601b03821611156200016f5760405162461bcd60e51b815260206004820152602a60248201527f455243323938313a20726f79616c7479206665652077696c6c206578636565646044820152692073616c65507269636560b01b60648201526084015b60405180910390fd5b6001600160a01b038216620001c75760405162461bcd60e51b815260206004820152601960248201527f455243323938313a20696e76616c696420726563656976657200000000000000604482015260640162000166565b604080518082019091526001600160a01b039092168083526001600160601b039091166020909201829052600160a01b90910217600955565b6040516301ffc9a760e01b81526305a3b80960e01b60048201526001600160a01b038216906301ffc9a790602401602060405180830381865afa1580156200024c573d6000803e3d6000fd5b505050506040513d601f19601f8201168201806040525081019062000272919062000765565b6200029057604051631353be1160e11b815260040160405180910390fd5b600254604080516001600160a01b03928316815291831660208301527ff499b54d61d3fcb40299e3299af3ffe9ef1ee6e47194240f3cc5b6e09f7f6796910160405180910390a1600280546001600160a01b0319166001600160a01b0392909216919091179055565b6000828152602081815260408083206001600160a01b038516845290915290205460ff1662000396576000828152602081815260408083206001600160a01b03851684529091529020805460ff19166001179055620003553390565b6001600160a01b0316816001600160a01b0316837f2f8788117e7eff1d82e926ec794901d17c78024a50270940304540a733656f0d60405160405180910390a45b5050565b6000620003b1836001600160a01b038416620003ba565b90505b92915050565b60008181526001830160205260408120546200040357508154600181810184556000848152602080822090930184905584548482528286019093526040902091909155620003b4565b506000620003b4565b80516001600160a01b03811681146200042457600080fd5b919050565b634e487b7160e01b600052604160045260246000fd5b600082601f8301126200045157600080fd5b81516001600160401b03808211156200046e576200046e62000429565b604051601f8301601f19908116603f0116810190828211818310171562000499576200049962000429565b81604052838152602092508683858801011115620004b657600080fd5b600091505b83821015620004da5785820183015181830184015290820190620004bb565b600093810190920192909252949350505050565b80516001600160601b03811681146200042457600080fd5b600080600080600080600080610100898b0312156200052457600080fd5b6200052f896200040c565b60208a01519098506001600160401b03808211156200054d57600080fd5b6200055b8c838d016200043f565b985060408b01519150808211156200057257600080fd5b620005808c838d016200043f565b975060608b01519150808211156200059757600080fd5b620005a58c838d016200043f565b965060808b0151915080821115620005bc57600080fd5b50620005cb8b828c016200043f565b945050620005dc60a08a016200040c565b9250620005ec60c08a016200040c565b9150620005fc60e08a01620004ee565b90509295985092959890939650565b600181811c908216806200062057607f821691505b6020821081036200064157634e487b7160e01b600052602260045260246000fd5b50919050565b601f821115620000f657600081815260208120601f850160051c81016020861015620006705750805b601f850160051c820191505b8181101562000691578281556001016200067c565b505050505050565b81516001600160401b03811115620006b557620006b562000429565b620006cd81620006c684546200060b565b8462000647565b602080601f831160018114620007055760008415620006ec5750858301515b600019600386901b1c1916600185901b17855562000691565b600085815260208120601f198616915b82811015620007365788860151825594840194600190910190840162000715565b5085821015620007555787850151600019600388901b60f8161c191681555b5050505050600190811b01905550565b6000602082840312156200077857600080fd5b815180151581146200078957600080fd5b9392505050565b61338880620007a06000396000f3fe608060405234801561001057600080fd5b50600436106102735760003560e01c806369e2f0fb11610151578063a217fddf116100c3578063ca15c87311610087578063ca15c87314610580578063d539139314610593578063d547741f146105a8578063e4623c1b146105bb578063e8a3d485146105ce578063e985e9c5146105d657600080fd5b8063a217fddf1461052c578063a22cb46514610534578063a701281614610547578063b88d4fde1461055a578063c87b56dd1461056d57600080fd5b80639010d07c116101155780639010d07c146104c557806391d14854146104d8578063938e3d7b146104eb57806395d89b41146104fe5780639e2641a314610506578063a14481941461051957600080fd5b806369e2f0fb146104715780636b3a0632146104845780636c0360eb1461049757806370a082311461049f578063885e7a08146104b257600080fd5b806331ae450b116101ea57806342842e0e116101ae57806342842e0e146103ff57806342966c6814610412578063439aed341461042557806355f804b3146104385780636352211e1461044b5780636588962a1461045e57600080fd5b806331ae450b146103a857806336568abe146103bd5780633dd1eb61146103d05780633eaaf86b146103e357806340c10f19146103ec57600080fd5b806318160ddd1161023c57806318160ddd14610308578063234af0461461031a57806323b872dd1461032d578063248a9ca3146103405780632a55205a146103635780632f2ff15d1461039557600080fd5b80628ad9461461027857806301ffc9a71461028d57806306fdde03146102b5578063081812fc146102ca578063095ea7b3146102f5575b600080fd5b61028b6102863660046127be565b610612565b005b6102a061029b36600461280e565b6106e8565b60405190151581526020015b60405180910390f35b6102bd6106f9565b6040516102ac919061287b565b6102dd6102d836600461288e565b61078b565b6040516001600160a01b0390911681526020016102ac565b61028b6103033660046128c3565b6107b2565b600d545b6040519081526020016102ac565b61028b61032836600461297e565b61090d565b61028b61033b366004612acf565b610965565b61030c61034e36600461288e565b60009081526020819052604090206001015490565b610376610371366004612b0b565b610997565b604080516001600160a01b0390931683526020830191909152016102ac565b61028b6103a3366004612b2d565b610a45565b6103b0610a6a565b6040516102ac9190612b59565b61028b6103cb366004612b2d565b610b18565b61028b6103de366004612ba6565b610b92565b61030c600d5481565b61028b6103fa3660046128c3565b610bb5565b61028b61040d366004612acf565b610bf1565b61028b61042036600461288e565b610c0c565b61028b610433366004612bd8565b610c4a565b61028b610446366004612c6b565b610c73565b6102dd61045936600461288e565b610c8a565b61028b61046c366004612ba6565b610cea565b61028b61047f366004612ba6565b610cfe565b6002546102dd906001600160a01b031681565b6102bd610d21565b61030c6104ad366004612ba6565b610daf565b61028b6104c0366004612cb3565b610e35565b6102dd6104d3366004612b0b565b610e4a565b6102a06104e6366004612b2d565b610e69565b61028b6104f9366004612c6b565b610e92565b6102bd610ea9565b61028b61051436600461297e565b610eb8565b61028b6105273660046128c3565b610f10565b61030c600081565b61028b610542366004612ceb565b610f42565b61028b610555366004612d66565b611093565b61028b610568366004612dca565b6110f3565b6102bd61057b36600461288e565b611125565b61030c61058e36600461288e565b61118b565b61030c6a4d494e5445525f524f4c4560a81b81565b61028b6105b6366004612b2d565b6111a2565b61028b6105c9366004612e45565b6111c7565b6102bd611205565b6102a06105e4366004612e86565b6001600160a01b03918216600090815260086020908152604080832093909416825291909152205460ff1690565b61061f6020820182612eb0565b905061062e6040830183612eb0565b90501461064e5760405163359a1bc360e01b815260040160405180910390fd5b60005b61065e6040830183612eb0565b90508110156106e4576106d26106776020840184612ba6565b6106846020850185612eb0565b8481811061069457610694612ef9565b90506020020160208101906106a99190612ba6565b6106b66040860186612eb0565b858181106106c6576106c6612ef9565b90506020020135610bf1565b806106dc81612f25565b915050610651565b5050565b60006106f3826112ab565b92915050565b60606003805461070890612f3e565b80601f016020809104026020016040519081016040528092919081815260200182805461073490612f3e565b80156107815780601f1061075657610100808354040283529160200191610781565b820191906000526020600020905b81548152906001019060200180831161076457829003601f168201915b5050505050905090565b6000610796826112b6565b506000908152600760205260409020546001600160a01b031690565b81333b1580159061082c57506002546040516305a3b80960e01b81523360048201526001600160a01b03909116906305a3b80990602401602060405180830381865afa158015610806573d6000803e3d6000fd5b505050506040513d601f19601f8201168201806040525081019061082a9190612f78565b155b156108515760405163f6fa4cbd60e01b81523360048201526024015b60405180910390fd5b6001600160a01b0381163b158015906108d557506002546040516305a3b80960e01b81526001600160a01b038381166004830152909116906305a3b80990602401602060405180830381865afa1580156108af573d6000803e3d6000fd5b505050506040513d601f19601f820116820180604052508101906108d39190612f78565b155b156108fe576040516341b8d58160e11b81526001600160a01b0382166004820152602401610848565b6109088383611318565b505050565b6a4d494e5445525f524f4c4560a81b61092581611428565b60005b82518110156109085761095383828151811061094657610946612ef9565b6020026020010151611432565b8061095d81612f25565b915050610928565b610970335b826114c1565b61098c5760405162461bcd60e51b815260040161084890612f95565b610908838383611540565b6000828152600a602090815260408083208151808301909252546001600160a01b038116808352600160a01b9091046001600160601b0316928201929092528291610a0c5750604080518082019091526009546001600160a01b0381168252600160a01b90046001600160601b031660208201525b602081015160009061271090610a2b906001600160601b031687612fe2565b610a359190612ff9565b91519350909150505b9250929050565b600082815260208190526040902060010154610a6081611428565b6109088383611747565b60606000610a778161118b565b90506000816001600160401b03811115610a9357610a936128ed565b604051908082528060200260200182016040528015610abc578160200160208202803683370190505b50905060005b82811015610b1157610ad5600082610e4a565b828281518110610ae757610ae7612ef9565b6001600160a01b039092166020928302919091019091015280610b0981612f25565b915050610ac2565b5092915050565b6001600160a01b0381163314610b885760405162461bcd60e51b815260206004820152602f60248201527f416363657373436f6e74726f6c3a2063616e206f6e6c792072656e6f756e636560448201526e103937b632b9903337b91039b2b63360891b6064820152608401610848565b6106e48282611769565b6000610b9d81611428565b6106e46a4d494e5445525f524f4c4560a81b83610a45565b6a4d494e5445525f524f4c4560a81b610bcd81611428565b610bd7838361178b565b600d8054906000610be783612f25565b9190505550505050565b610908838383604051806020016040528060008152506110f3565b610c15816117d2565b600881901c6000908152600e602052604081208054600160ff85161b179055600d805491610c428361301b565b919050555050565b6a4d494e5445525f524f4c4560a81b610c6281611428565b610c6d848484611800565b50505050565b6000610c7e81611428565b600c6109088382613078565b6000818152600560205260408120546001600160a01b0316806106f35760405162461bcd60e51b8152602060048201526018602482015277115490cdcc8c4e881a5b9d985b1a59081d1bdad95b88125160421b6044820152606401610848565b6000610cf581611428565b6106e4826118cb565b6000610d0981611428565b6106e46a4d494e5445525f524f4c4560a81b836111a2565b600c8054610d2e90612f3e565b80601f0160208091040260200160405190810160405280929190818152602001828054610d5a90612f3e565b8015610da75780601f10610d7c57610100808354040283529160200191610da7565b820191906000526020600020905b815481529060010190602001808311610d8a57829003601f168201915b505050505081565b60006001600160a01b038216610e195760405162461bcd60e51b815260206004820152602960248201527f4552433732313a2061646472657373207a65726f206973206e6f7420612076616044820152683634b21037bbb732b960b91b6064820152608401610848565b506001600160a01b031660009081526006602052604090205490565b6000610e4081611428565b61090883836119c0565b6000828152600160205260408120610e629083611a7a565b9392505050565b6000918252602082815260408084206001600160a01b0393909316845291905290205460ff1690565b6000610e9d81611428565b600b6109088382613078565b60606004805461070890612f3e565b6a4d494e5445525f524f4c4560a81b610ed081611428565b60005b825181101561090857610efe838281518110610ef157610ef1612ef9565b6020026020010151611a86565b80610f0881612f25565b915050610ed3565b6a4d494e5445525f524f4c4560a81b610f2881611428565b610bd7838360405180602001604052806000815250611afc565b81333b15801590610fbc57506002546040516305a3b80960e01b81523360048201526001600160a01b03909116906305a3b80990602401602060405180830381865afa158015610f96573d6000803e3d6000fd5b505050506040513d601f19601f82011682018060405250810190610fba9190612f78565b155b15610fdc5760405163f6fa4cbd60e01b8152336004820152602401610848565b6001600160a01b0381163b1580159061106057506002546040516305a3b80960e01b81526001600160a01b038381166004830152909116906305a3b80990602401602060405180830381865afa15801561103a573d6000803e3d6000fd5b505050506040513d601f19601f8201168201806040525081019061105e9190612f78565b155b15611089576040516341b8d58160e11b81526001600160a01b0382166004820152602401610848565b6109088383611b2f565b6a4d494e5445525f524f4c4560a81b6110ab81611428565b60005b848110156110eb576110d98686838181106110cb576110cb612ef9565b905060200201358585611800565b806110e381612f25565b9150506110ae565b505050505050565b6110fd33836114c1565b6111195760405162461bcd60e51b815260040161084890612f95565b610c6d84848484611b3a565b6060611130826112b6565b600061113a611b6d565b9050600081511161115a5760405180602001604052806000815250610e62565b8061116484611b7c565b604051602001611175929190613137565b6040516020818303038152906040529392505050565b60008181526001602052604081206106f390611c0e565b6000828152602081905260409020600101546111bd81611428565b6109088383611769565b60005b81811015610908576111f38383838181106111e7576111e7612ef9565b90506020020135610c0c565b806111fd81612f25565b9150506111ca565b600b8054610d2e90612f3e565b61121c8282610e69565b6106e4576000828152602081815260408083206001600160a01b03851684529091529020805460ff191660011790556112523390565b6001600160a01b0316816001600160a01b0316837f2f8788117e7eff1d82e926ec794901d17c78024a50270940304540a733656f0d60405160405180910390a45050565b6000610e62836001600160a01b038416611c18565b60006106f382611c67565b6000818152600560205260409020546001600160a01b03166113155760405162461bcd60e51b8152602060048201526018602482015277115490cdcc8c4e881a5b9d985b1a59081d1bdad95b88125160421b6044820152606401610848565b50565b600061132382610c8a565b9050806001600160a01b0316836001600160a01b0316036113905760405162461bcd60e51b815260206004820152602160248201527f4552433732313a20617070726f76616c20746f2063757272656e74206f776e656044820152603960f91b6064820152608401610848565b336001600160a01b03821614806113ac57506113ac81336105e4565b61141e5760405162461bcd60e51b815260206004820152603d60248201527f4552433732313a20617070726f76652063616c6c6572206973206e6f7420746f60448201527f6b656e206f776e6572206f7220617070726f76656420666f7220616c6c0000006064820152608401610848565b6109088383611c8c565b6113158133611cfa565b80516001600160a01b031661145a576040516331c3e52960e11b815260040160405180910390fd5b60005b8160200151518110156114a75761149582600001518360200151838151811061148857611488612ef9565b6020026020010151611d53565b8061149f81612f25565b91505061145d565b50806020015151600d546114bb9190613166565b600d5550565b6000806114cd83610c8a565b9050806001600160a01b0316846001600160a01b0316148061151457506001600160a01b0380821660009081526008602090815260408083209388168352929052205460ff165b806115385750836001600160a01b031661152d8461078b565b6001600160a01b0316145b949350505050565b82823332148015906115bb57506002546040516305a3b80960e01b81523360048201526001600160a01b03909116906305a3b80990602401602060405180830381865afa158015611595573d6000803e3d6000fd5b505050506040513d601f19601f820116820180604052508101906115b99190612f78565b155b156115db5760405163937db65f60e01b8152336004820152602401610848565b6001600160a01b0382163b1580159061165f57506002546040516305a3b80960e01b81526001600160a01b038481166004830152909116906305a3b80990602401602060405180830381865afa158015611639573d6000803e3d6000fd5b505050506040513d601f19601f8201168201806040525081019061165d9190612f78565b155b156116885760405163f934453160e01b81526001600160a01b0383166004820152602401610848565b6001600160a01b0381163b1580159061170c57506002546040516305a3b80960e01b81526001600160a01b038381166004830152909116906305a3b80990602401602060405180830381865afa1580156116e6573d6000803e3d6000fd5b505050506040513d601f19601f8201168201806040525081019061170a9190612f78565b155b1561173557604051632a67242160e11b81526001600160a01b0382166004820152602401610848565b611740858585611d9a565b5050505050565b6117518282611212565b60008281526001602052604090206109089082611296565b6117738282611efe565b60008281526001602052604090206109089082611f63565b600881901c6000908152600e6020526040902054600160ff83161b16156117c8576040516305dcda1160e51b815260048101829052602401610848565b6106e48282611f78565b6117db3361096a565b6117f75760405162461bcd60e51b815260040161084890612f95565b61131581612103565b6127106001600160601b038216111561182b5760405162461bcd60e51b815260040161084890613179565b6001600160a01b0382166118815760405162461bcd60e51b815260206004820152601b60248201527f455243323938313a20496e76616c696420706172616d657465727300000000006044820152606401610848565b6040805180820182526001600160a01b0393841681526001600160601b0392831660208083019182526000968752600a90529190942093519051909116600160a01b029116179055565b6040516301ffc9a760e01b81526305a3b80960e01b60048201526001600160a01b038216906301ffc9a790602401602060405180830381865afa158015611916573d6000803e3d6000fd5b505050506040513d601f19601f8201168201806040525081019061193a9190612f78565b61195757604051631353be1160e11b815260040160405180910390fd5b600254604080516001600160a01b03928316815291831660208301527ff499b54d61d3fcb40299e3299af3ffe9ef1ee6e47194240f3cc5b6e09f7f6796910160405180910390a1600280546001600160a01b0319166001600160a01b0392909216919091179055565b6127106001600160601b03821611156119eb5760405162461bcd60e51b815260040161084890613179565b6001600160a01b038216611a415760405162461bcd60e51b815260206004820152601960248201527f455243323938313a20696e76616c6964207265636569766572000000000000006044820152606401610848565b604080518082019091526001600160a01b039092168083526001600160601b039091166020909201829052600160a01b90910217600955565b6000610e628383612198565b80516001600160a01b031615611aaf576040516331c3e52960e11b815260040160405180910390fd5b60005b8160200151518110156114a757611aea826000015183602001518381518110611add57611add612ef9565b602002602001015161178b565b80611af481612f25565b915050611ab2565b611b06838361178b565b611b1360008484846121c2565b6109085760405162461bcd60e51b8152600401610848906131c3565b6106e43383836122c3565b611b45848484611540565b611b51848484846121c2565b610c6d5760405162461bcd60e51b8152600401610848906131c3565b6060600c805461070890612f3e565b60606000611b8983612391565b60010190506000816001600160401b03811115611ba857611ba86128ed565b6040519080825280601f01601f191660200182016040528015611bd2576020820181803683370190505b5090508181016020015b600019016f181899199a1a9b1b9c1cb0b131b232b360811b600a86061a8153600a8504945084611bdc57509392505050565b60006106f3825490565b6000818152600183016020526040812054611c5f575081546001818101845560008481526020808220909301849055845484825282860190935260409020919091556106f3565b5060006106f3565b60006001600160e01b0319821663152a902d60e11b14806106f357506106f382612469565b600081815260076020526040902080546001600160a01b0319166001600160a01b0384169081179091558190611cc182610c8a565b6001600160a01b03167f8c5be1e5ebec7d5bd14f71427d1e84f3dd0314c0f7b2291e5b200ac8c7c3b92560405160405180910390a45050565b611d048282610e69565b6106e457611d11816124a9565b611d1c8360206124bb565b604051602001611d2d929190613215565b60408051601f198184030181529082905262461bcd60e51b82526108489160040161287b565b600881901c6000908152600e6020526040902054600160ff83161b1615611d90576040516305dcda1160e51b815260048101829052602401610848565b6106e48282612656565b826001600160a01b0316611dad82610c8a565b6001600160a01b031614611dd35760405162461bcd60e51b81526004016108489061328a565b6001600160a01b038216611e355760405162461bcd60e51b8152602060048201526024808201527f4552433732313a207472616e7366657220746f20746865207a65726f206164646044820152637265737360e01b6064820152608401610848565b826001600160a01b0316611e4882610c8a565b6001600160a01b031614611e6e5760405162461bcd60e51b81526004016108489061328a565b600081815260076020908152604080832080546001600160a01b03199081169091556001600160a01b0387811680865260068552838620805460001901905590871680865283862080546001019055868652600590945282852080549092168417909155905184937fddf252ad1be2c89b69c2b068fc378daa952ba7f163c4a11628f55a4df523b3ef91a4505050565b611f088282610e69565b156106e4576000828152602081815260408083206001600160a01b0385168085529252808320805460ff1916905551339285917ff6391f5c32d9c69d2a47ea670b442974b53935d1edc7fd64eb21e047a839171b9190a45050565b6000610e62836001600160a01b038416612670565b6001600160a01b038216611fce5760405162461bcd60e51b815260206004820181905260248201527f4552433732313a206d696e7420746f20746865207a65726f20616464726573736044820152606401610848565b6000818152600560205260409020546001600160a01b0316156120335760405162461bcd60e51b815260206004820152601c60248201527f4552433732313a20746f6b656e20616c7265616479206d696e746564000000006044820152606401610848565b6000818152600560205260409020546001600160a01b0316156120985760405162461bcd60e51b815260206004820152601c60248201527f4552433732313a20746f6b656e20616c7265616479206d696e746564000000006044820152606401610848565b6001600160a01b038216600081815260066020908152604080832080546001019055848352600590915280822080546001600160a01b0319168417905551839291907fddf252ad1be2c89b69c2b068fc378daa952ba7f163c4a11628f55a4df523b3ef908290a45050565b600061210e82610c8a565b905061211982610c8a565b600083815260076020908152604080832080546001600160a01b03199081169091556001600160a01b0385168085526006845282852080546000190190558785526005909352818420805490911690555192935084927fddf252ad1be2c89b69c2b068fc378daa952ba7f163c4a11628f55a4df523b3ef908390a45050565b60008260000182815481106121af576121af612ef9565b9060005260206000200154905092915050565b60006001600160a01b0384163b156122b857604051630a85bd0160e11b81526001600160a01b0385169063150b7a02906122069033908990889088906004016132cf565b6020604051808303816000875af1925050508015612241575060408051601f3d908101601f1916820190925261223e9181019061330c565b60015b61229e573d80801561226f576040519150601f19603f3d011682016040523d82523d6000602084013e612274565b606091505b5080516000036122965760405162461bcd60e51b8152600401610848906131c3565b805181602001fd5b6001600160e01b031916630a85bd0160e11b149050611538565b506001949350505050565b816001600160a01b0316836001600160a01b0316036123245760405162461bcd60e51b815260206004820152601960248201527f4552433732313a20617070726f766520746f2063616c6c6572000000000000006044820152606401610848565b6001600160a01b03838116600081815260086020908152604080832094871680845294825291829020805460ff191686151590811790915591519182527f17307eab39ab6107e8899845ad3d59bd9653f200f220920489ca2b5937696c31910160405180910390a3505050565b60008072184f03e93ff9f4daa797ed6e38ed64bf6a1f0160401b83106123d05772184f03e93ff9f4daa797ed6e38ed64bf6a1f0160401b830492506040015b6d04ee2d6d415b85acef810000000083106123fc576d04ee2d6d415b85acef8100000000830492506020015b662386f26fc10000831061241a57662386f26fc10000830492506010015b6305f5e1008310612432576305f5e100830492506008015b612710831061244657612710830492506004015b60648310612458576064830492506002015b600a83106106f35760010192915050565b60006001600160e01b031982166380ac58cd60e01b148061249a57506001600160e01b03198216635b5e139f60e01b145b806106f357506106f382612763565b60606106f36001600160a01b03831660145b606060006124ca836002612fe2565b6124d5906002613166565b6001600160401b038111156124ec576124ec6128ed565b6040519080825280601f01601f191660200182016040528015612516576020820181803683370190505b509050600360fc1b8160008151811061253157612531612ef9565b60200101906001600160f81b031916908160001a905350600f60fb1b8160018151811061256057612560612ef9565b60200101906001600160f81b031916908160001a9053506000612584846002612fe2565b61258f906001613166565b90505b6001811115612607576f181899199a1a9b1b9c1cb0b131b232b360811b85600f16601081106125c3576125c3612ef9565b1a60f81b8282815181106125d9576125d9612ef9565b60200101906001600160f81b031916908160001a90535060049490941c936126008161301b565b9050612592565b508315610e625760405162461bcd60e51b815260206004820181905260248201527f537472696e67733a20686578206c656e67746820696e73756666696369656e746044820152606401610848565b6106e4828260405180602001604052806000815250611afc565b60008181526001830160205260408120548015612759576000612694600183613329565b85549091506000906126a890600190613329565b905081811461270d5760008660000182815481106126c8576126c8612ef9565b90600052602060002001549050808760000184815481106126eb576126eb612ef9565b6000918252602080832090910192909255918252600188019052604090208390555b855486908061271e5761271e61333c565b6001900381819060005260206000200160009055905585600101600086815260200190815260200160002060009055600193505050506106f3565b60009150506106f3565b60006106f38260006001600160e01b03198216635a05180f60e01b14806106f357506106f38260006001600160e01b03198216637965db0b60e01b14806106f357506301ffc9a760e01b6001600160e01b03198316146106f3565b6000602082840312156127d057600080fd5b81356001600160401b038111156127e657600080fd5b820160608185031215610e6257600080fd5b6001600160e01b03198116811461131557600080fd5b60006020828403121561282057600080fd5b8135610e62816127f8565b60005b8381101561284657818101518382015260200161282e565b50506000910152565b6000815180845261286781602086016020860161282b565b601f01601f19169290920160200192915050565b602081526000610e62602083018461284f565b6000602082840312156128a057600080fd5b5035919050565b80356001600160a01b03811681146128be57600080fd5b919050565b600080604083850312156128d657600080fd5b6128df836128a7565b946020939093013593505050565b634e487b7160e01b600052604160045260246000fd5b604080519081016001600160401b0381118282101715612925576129256128ed565b60405290565b604051601f8201601f191681016001600160401b0381118282101715612953576129536128ed565b604052919050565b60006001600160401b03821115612974576129746128ed565b5060051b60200190565b6000602080838503121561299157600080fd5b82356001600160401b03808211156129a857600080fd5b818501915085601f8301126129bc57600080fd5b81356129cf6129ca8261295b565b61292b565b81815260059190911b830184019084810190888311156129ee57600080fd5b8585015b83811015612ac257803585811115612a0a5760008081fd5b86016040818c03601f1901811315612a225760008081fd5b612a2a612903565b612a358a84016128a7565b81528183013588811115612a495760008081fd5b8084019350508c603f840112612a5f5760008081fd5b89830135612a6f6129ca8261295b565b81815260059190911b84018301908b8101908f831115612a8f5760008081fd5b948401945b82861015612aad5785358252948c0194908c0190612a94565b838d01525050855250509186019186016129f2565b5098975050505050505050565b600080600060608486031215612ae457600080fd5b612aed846128a7565b9250612afb602085016128a7565b9150604084013590509250925092565b60008060408385031215612b1e57600080fd5b50508035926020909101359150565b60008060408385031215612b4057600080fd5b82359150612b50602084016128a7565b90509250929050565b6020808252825182820181905260009190848201906040850190845b81811015612b9a5783516001600160a01b031683529284019291840191600101612b75565b50909695505050505050565b600060208284031215612bb857600080fd5b610e62826128a7565b80356001600160601b03811681146128be57600080fd5b600080600060608486031215612bed57600080fd5b83359250612bfd602085016128a7565b9150612c0b60408501612bc1565b90509250925092565b60006001600160401b03831115612c2d57612c2d6128ed565b612c40601f8401601f191660200161292b565b9050828152838383011115612c5457600080fd5b828260208301376000602084830101529392505050565b600060208284031215612c7d57600080fd5b81356001600160401b03811115612c9357600080fd5b8201601f81018413612ca457600080fd5b61153884823560208401612c14565b60008060408385031215612cc657600080fd5b612ccf836128a7565b9150612b5060208401612bc1565b801515811461131557600080fd5b60008060408385031215612cfe57600080fd5b612d07836128a7565b91506020830135612d1781612cdd565b809150509250929050565b60008083601f840112612d3457600080fd5b5081356001600160401b03811115612d4b57600080fd5b6020830191508360208260051b8501011115610a3e57600080fd5b60008060008060608587031215612d7c57600080fd5b84356001600160401b03811115612d9257600080fd5b612d9e87828801612d22565b9095509350612db19050602086016128a7565b9150612dbf60408601612bc1565b905092959194509250565b60008060008060808587031215612de057600080fd5b612de9856128a7565b9350612df7602086016128a7565b92506040850135915060608501356001600160401b03811115612e1957600080fd5b8501601f81018713612e2a57600080fd5b612e3987823560208401612c14565b91505092959194509250565b60008060208385031215612e5857600080fd5b82356001600160401b03811115612e6e57600080fd5b612e7a85828601612d22565b90969095509350505050565b60008060408385031215612e9957600080fd5b612ea2836128a7565b9150612b50602084016128a7565b6000808335601e19843603018112612ec757600080fd5b8301803591506001600160401b03821115612ee157600080fd5b6020019150600581901b3603821315610a3e57600080fd5b634e487b7160e01b600052603260045260246000fd5b634e487b7160e01b600052601160045260246000fd5b600060018201612f3757612f37612f0f565b5060010190565b600181811c90821680612f5257607f821691505b602082108103612f7257634e487b7160e01b600052602260045260246000fd5b50919050565b600060208284031215612f8a57600080fd5b8151610e6281612cdd565b6020808252602d908201527f4552433732313a2063616c6c6572206973206e6f7420746f6b656e206f776e6560408201526c1c881bdc88185c1c1c9bdd9959609a1b606082015260800190565b80820281158282048414176106f3576106f3612f0f565b60008261301657634e487b7160e01b600052601260045260246000fd5b500490565b60008161302a5761302a612f0f565b506000190190565b601f82111561090857600081815260208120601f850160051c810160208610156130595750805b601f850160051c820191505b818110156110eb57828155600101613065565b81516001600160401b03811115613091576130916128ed565b6130a58161309f8454612f3e565b84613032565b602080601f8311600181146130da57600084156130c25750858301515b600019600386901b1c1916600185901b1785556110eb565b600085815260208120601f198616915b82811015613109578886015182559484019460019091019084016130ea565b50858210156131275787850151600019600388901b60f8161c191681555b5050505050600190811b01905550565b6000835161314981846020880161282b565b83519083019061315d81836020880161282b565b01949350505050565b808201808211156106f3576106f3612f0f565b6020808252602a908201527f455243323938313a20726f79616c7479206665652077696c6c206578636565646040820152692073616c65507269636560b01b606082015260800190565b60208082526032908201527f4552433732313a207472616e7366657220746f206e6f6e20455243373231526560408201527131b2b4bb32b91034b6b83632b6b2b73a32b960711b606082015260800190565b7f416363657373436f6e74726f6c3a206163636f756e742000000000000000000081526000835161324d81601785016020880161282b565b7001034b99036b4b9b9b4b733903937b6329607d1b601791840191820152835161327e81602884016020880161282b565b01602801949350505050565b60208082526025908201527f4552433732313a207472616e736665722066726f6d20696e636f72726563742060408201526437bbb732b960d91b606082015260800190565b6001600160a01b03858116825284166020820152604081018390526080606082018190526000906133029083018461284f565b9695505050505050565b60006020828403121561331e57600080fd5b8151610e62816127f8565b818103818111156106f3576106f3612f0f565b634e487b7160e01b600052603160045260246000fdfea26469706673582212203599d6fcfc9463c66eab612fcaffc536c5ded2b115e43961954b1124035e013b64736f6c63430008110033",
  "linkReferences": {},
  "deployedLinkReferences": {}
}