{
  "_format": "hh-sol-artifact-1",
  "contractName": "ImmutableERC721",
  "sourceName": "contracts/token/erc721/preset/ImmutableERC721.sol",
  "abi": [
    {
      "inputs": [
        {
          "internalType": "address",
          "name": "owner_",
          "type": "address"
        },
        {
          "internalType": "string",
          "name": "name_",
          "type": "string"
        },
        {
          "internalType": "string",
          "name": "symbol_",
          "type": "string"
        },
        {
          "internalType": "string",
          "name": "baseURI_",
          "type": "string"
        },
        {
          "internalType": "string",
          "name": "contractURI_",
          "type": "string"
        },
        {
          "internalType": "address",
          "name": "operatorAllowlist_",
          "type": "address"
        },
        {
          "internalType": "address",
          "name": "royaltyReceiver_",
          "type": "address"
        },
        {
          "internalType": "uint96",
          "name": "feeNumerator_",
          "type": "uint96"
        }
      ],
      "stateMutability": "nonpayable",
      "type": "constructor"
    },
    {
      "inputs": [],
      "name": "AllowlistDoesNotImplementIOperatorAllowlist",
      "type": "error"
    },
    {
      "inputs": [
        {
          "internalType": "address",
          "name": "target",
          "type": "address"
        }
      ],
      "name": "ApproveTargetNotInAllowlist",
      "type": "error"
    },
    {
      "inputs": [
        {
          "internalType": "address",
          "name": "approver",
          "type": "address"
        }
      ],
      "name": "ApproverNotInAllowlist",
      "type": "error"
    },
    {
      "inputs": [
        {
          "internalType": "address",
          "name": "caller",
          "type": "address"
        }
      ],
      "name": "CallerNotInAllowlist",
      "type": "error"
    },
    {
      "inputs": [
        {
          "internalType": "uint256",
          "name": "tokenId",
          "type": "uint256"
        }
      ],
      "name": "IImmutableERC721IDAboveThreshold",
      "type": "error"
    },
    {
      "inputs": [
        {
          "internalType": "uint256",
          "name": "tokenId",
          "type": "uint256"
        },
        {
          "internalType": "address",
          "name": "currentOwner",
          "type": "address"
        }
      ],
      "name": "IImmutableERC721MismatchedTokenOwner",
      "type": "error"
    },
    {
      "inputs": [],
      "name": "IImmutableERC721MismatchedTransferLengths",
      "type": "error"
    },
    {
      "inputs": [
        {
          "internalType": "uint256",
          "name": "tokenId",
          "type": "uint256"
        }
      ],
      "name": "IImmutableERC721NotOwnerOrOperator",
      "type": "error"
    },
    {
      "inputs": [],
      "name": "IImmutableERC721SendingToZerothAddress",
      "type": "error"
    },
    {
      "inputs": [
        {
          "internalType": "uint256",
          "name": "tokenId",
          "type": "uint256"
        }
      ],
      "name": "IImmutableERC721TokenAlreadyBurned",
      "type": "error"
    },
    {
      "inputs": [],
      "name": "InvalidShortString",
      "type": "error"
    },
    {
      "inputs": [],
      "name": "InvalidSignature",
      "type": "error"
    },
    {
      "inputs": [],
      "name": "PermitExpired",
      "type": "error"
    },
    {
      "inputs": [],
      "name": "SignerCannotBeZerothAddress",
      "type": "error"
    },
    {
      "inputs": [
        {
          "internalType": "string",
          "name": "str",
          "type": "string"
        }
      ],
      "name": "StringTooLong",
      "type": "error"
    },
    {
      "inputs": [
        {
          "internalType": "address",
          "name": "from",
          "type": "address"
        }
      ],
      "name": "TransferFromNotInAllowlist",
      "type": "error"
    },
    {
      "inputs": [
        {
          "internalType": "address",
          "name": "to",
          "type": "address"
        }
      ],
      "name": "TransferToNotInAllowlist",
      "type": "error"
    },
    {
      "anonymous": false,
      "inputs": [
        {
          "indexed": true,
          "internalType": "address",
          "name": "owner",
          "type": "address"
        },
        {
          "indexed": true,
          "internalType": "address",
          "name": "approved",
          "type": "address"
        },
        {
          "indexed": true,
          "internalType": "uint256",
          "name": "tokenId",
          "type": "uint256"
        }
      ],
      "name": "Approval",
      "type": "event"
    },
    {
      "anonymous": false,
      "inputs": [
        {
          "indexed": true,
          "internalType": "address",
          "name": "owner",
          "type": "address"
        },
        {
          "indexed": true,
          "internalType": "address",
          "name": "operator",
          "type": "address"
        },
        {
          "indexed": false,
          "internalType": "bool",
          "name": "approved",
          "type": "bool"
        }
      ],
      "name": "ApprovalForAll",
      "type": "event"
    },
    {
      "anonymous": false,
      "inputs": [],
      "name": "EIP712DomainChanged",
      "type": "event"
    },
    {
      "anonymous": false,
      "inputs": [
        {
          "indexed": false,
          "internalType": "address",
          "name": "oldRegistry",
          "type": "address"
        },
        {
          "indexed": false,
          "internalType": "address",
          "name": "newRegistry",
          "type": "address"
        }
      ],
      "name": "OperatorAllowlistRegistryUpdated",
      "type": "event"
    },
    {
      "anonymous": false,
      "inputs": [
        {
          "indexed": true,
          "internalType": "bytes32",
          "name": "role",
          "type": "bytes32"
        },
        {
          "indexed": true,
          "internalType": "bytes32",
          "name": "previousAdminRole",
          "type": "bytes32"
        },
        {
          "indexed": true,
          "internalType": "bytes32",
          "name": "newAdminRole",
          "type": "bytes32"
        }
      ],
      "name": "RoleAdminChanged",
      "type": "event"
    },
    {
      "anonymous": false,
      "inputs": [
        {
          "indexed": true,
          "internalType": "bytes32",
          "name": "role",
          "type": "bytes32"
        },
        {
          "indexed": true,
          "internalType": "address",
          "name": "account",
          "type": "address"
        },
        {
          "indexed": true,
          "internalType": "address",
          "name": "sender",
          "type": "address"
        }
      ],
      "name": "RoleGranted",
      "type": "event"
    },
    {
      "anonymous": false,
      "inputs": [
        {
          "indexed": true,
          "internalType": "bytes32",
          "name": "role",
          "type": "bytes32"
        },
        {
          "indexed": true,
          "internalType": "address",
          "name": "account",
          "type": "address"
        },
        {
          "indexed": true,
          "internalType": "address",
          "name": "sender",
          "type": "address"
        }
      ],
      "name": "RoleRevoked",
      "type": "event"
    },
    {
      "anonymous": false,
      "inputs": [
        {
          "indexed": true,
          "internalType": "address",
          "name": "from",
          "type": "address"
        },
        {
          "indexed": true,
          "internalType": "address",
          "name": "to",
          "type": "address"
        },
        {
          "indexed": true,
          "internalType": "uint256",
          "name": "tokenId",
          "type": "uint256"
        }
      ],
      "name": "Transfer",
      "type": "event"
    },
    {
      "inputs": [],
      "name": "DEFAULT_ADMIN_ROLE",
      "outputs": [
        {
          "internalType": "bytes32",
          "name": "",
          "type": "bytes32"
        }
      ],
      "stateMutability": "view",
      "type": "function"
    },
    {
      "inputs": [],
      "name": "DOMAIN_SEPARATOR",
      "outputs": [
        {
          "internalType": "bytes32",
          "name": "",
          "type": "bytes32"
        }
      ],
      "stateMutability": "view",
      "type": "function"
    },
    {
      "inputs": [],
      "name": "MINTER_ROLE",
      "outputs": [
        {
          "internalType": "bytes32",
          "name": "",
          "type": "bytes32"
        }
      ],
      "stateMutability": "view",
      "type": "function"
    },
    {
      "inputs": [
        {
          "internalType": "address",
          "name": "to",
          "type": "address"
        },
        {
          "internalType": "uint256",
          "name": "tokenId",
          "type": "uint256"
        }
      ],
      "name": "approve",
      "outputs": [],
      "stateMutability": "nonpayable",
      "type": "function"
    },
    {
      "inputs": [
        {
          "internalType": "address",
          "name": "owner",
          "type": "address"
        }
      ],
      "name": "balanceOf",
      "outputs": [
        {
          "internalType": "uint256",
          "name": "",
          "type": "uint256"
        }
      ],
      "stateMutability": "view",
      "type": "function"
    },
    {
      "inputs": [],
      "name": "baseURI",
      "outputs": [
        {
          "internalType": "string",
          "name": "",
          "type": "string"
        }
      ],
      "stateMutability": "view",
      "type": "function"
    },
    {
      "inputs": [],
      "name": "bulkMintThreshold",
      "outputs": [
        {
          "internalType": "uint256",
          "name": "",
          "type": "uint256"
        }
      ],
      "stateMutability": "pure",
      "type": "function"
    },
    {
      "inputs": [
        {
          "internalType": "uint256",
          "name": "tokenId",
          "type": "uint256"
        }
      ],
      "name": "burn",
      "outputs": [],
      "stateMutability": "nonpayable",
      "type": "function"
    },
    {
      "inputs": [
        {
          "internalType": "uint256[]",
          "name": "tokenIDs",
          "type": "uint256[]"
        }
      ],
      "name": "burnBatch",
      "outputs": [],
      "stateMutability": "nonpayable",
      "type": "function"
    },
    {
      "inputs": [],
      "name": "contractURI",
      "outputs": [
        {
          "internalType": "string",
          "name": "",
          "type": "string"
        }
      ],
      "stateMutability": "view",
      "type": "function"
    },
    {
      "inputs": [],
      "name": "eip712Domain",
      "outputs": [
        {
          "internalType": "bytes1",
          "name": "fields",
          "type": "bytes1"
        },
        {
          "internalType": "string",
          "name": "name",
          "type": "string"
        },
        {
          "internalType": "string",
          "name": "version",
          "type": "string"
        },
        {
          "internalType": "uint256",
          "name": "chainId",
          "type": "uint256"
        },
        {
          "internalType": "address",
          "name": "verifyingContract",
          "type": "address"
        },
        {
          "internalType": "bytes32",
          "name": "salt",
          "type": "bytes32"
        },
        {
          "internalType": "uint256[]",
          "name": "extensions",
          "type": "uint256[]"
        }
      ],
      "stateMutability": "view",
      "type": "function"
    },
    {
      "inputs": [
        {
          "internalType": "uint256",
          "name": "tokenId",
          "type": "uint256"
        }
      ],
      "name": "exists",
      "outputs": [
        {
          "internalType": "bool",
          "name": "",
          "type": "bool"
        }
      ],
      "stateMutability": "view",
      "type": "function"
    },
    {
      "inputs": [],
      "name": "getAdmins",
      "outputs": [
        {
          "internalType": "address[]",
          "name": "",
          "type": "address[]"
        }
      ],
      "stateMutability": "view",
      "type": "function"
    },
    {
      "inputs": [
        {
          "internalType": "uint256",
          "name": "tokenId",
          "type": "uint256"
        }
      ],
      "name": "getApproved",
      "outputs": [
        {
          "internalType": "address",
          "name": "",
          "type": "address"
        }
      ],
      "stateMutability": "view",
      "type": "function"
    },
    {
      "inputs": [
        {
          "internalType": "bytes32",
          "name": "role",
          "type": "bytes32"
        }
      ],
      "name": "getRoleAdmin",
      "outputs": [
        {
          "internalType": "bytes32",
          "name": "",
          "type": "bytes32"
        }
      ],
      "stateMutability": "view",
      "type": "function"
    },
    {
      "inputs": [
        {
          "internalType": "bytes32",
          "name": "role",
          "type": "bytes32"
        },
        {
          "internalType": "uint256",
          "name": "index",
          "type": "uint256"
        }
      ],
      "name": "getRoleMember",
      "outputs": [
        {
          "internalType": "address",
          "name": "",
          "type": "address"
        }
      ],
      "stateMutability": "view",
      "type": "function"
    },
    {
      "inputs": [
        {
          "internalType": "bytes32",
          "name": "role",
          "type": "bytes32"
        }
      ],
      "name": "getRoleMemberCount",
      "outputs": [
        {
          "internalType": "uint256",
          "name": "",
          "type": "uint256"
        }
      ],
      "stateMutability": "view",
      "type": "function"
    },
    {
      "inputs": [
        {
          "internalType": "address",
          "name": "user",
          "type": "address"
        }
      ],
      "name": "grantMinterRole",
      "outputs": [],
      "stateMutability": "nonpayable",
      "type": "function"
    },
    {
      "inputs": [
        {
          "internalType": "bytes32",
          "name": "role",
          "type": "bytes32"
        },
        {
          "internalType": "address",
          "name": "account",
          "type": "address"
        }
      ],
      "name": "grantRole",
      "outputs": [],
      "stateMutability": "nonpayable",
      "type": "function"
    },
    {
      "inputs": [
        {
          "internalType": "bytes32",
          "name": "role",
          "type": "bytes32"
        },
        {
          "internalType": "address",
          "name": "account",
          "type": "address"
        }
      ],
      "name": "hasRole",
      "outputs": [
        {
          "internalType": "bool",
          "name": "",
          "type": "bool"
        }
      ],
      "stateMutability": "view",
      "type": "function"
    },
    {
      "inputs": [
        {
          "internalType": "address",
          "name": "owner",
          "type": "address"
        },
        {
          "internalType": "address",
          "name": "operator",
          "type": "address"
        }
      ],
      "name": "isApprovedForAll",
      "outputs": [
        {
          "internalType": "bool",
          "name": "",
          "type": "bool"
        }
      ],
      "stateMutability": "view",
      "type": "function"
    },
    {
      "inputs": [
        {
          "internalType": "address",
          "name": "to",
          "type": "address"
        },
        {
          "internalType": "uint256",
          "name": "tokenId",
          "type": "uint256"
        }
      ],
      "name": "mint",
      "outputs": [],
      "stateMutability": "nonpayable",
      "type": "function"
    },
    {
      "inputs": [
        {
          "components": [
            {
              "internalType": "address",
              "name": "to",
              "type": "address"
            },
            {
              "internalType": "uint256[]",
              "name": "tokenIds",
              "type": "uint256[]"
            }
          ],
          "internalType": "struct ERC721Hybrid.IDMint[]",
          "name": "mints",
          "type": "tuple[]"
        }
      ],
      "name": "mintBatch",
      "outputs": [],
      "stateMutability": "nonpayable",
      "type": "function"
    },
    {
      "inputs": [
        {
          "components": [
            {
              "internalType": "address",
              "name": "to",
              "type": "address"
            },
            {
              "internalType": "uint256",
              "name": "quantity",
              "type": "uint256"
            }
          ],
          "internalType": "struct ERC721Hybrid.Mint[]",
          "name": "mints",
          "type": "tuple[]"
        }
      ],
      "name": "mintBatchByQuantity",
      "outputs": [],
      "stateMutability": "nonpayable",
      "type": "function"
    },
    {
      "inputs": [
        {
          "internalType": "address",
          "name": "to",
          "type": "address"
        },
        {
          "internalType": "uint256",
          "name": "quantity",
          "type": "uint256"
        }
      ],
      "name": "mintByQuantity",
      "outputs": [],
      "stateMutability": "nonpayable",
      "type": "function"
    },
    {
      "inputs": [],
      "name": "name",
      "outputs": [
        {
          "internalType": "string",
          "name": "",
          "type": "string"
        }
      ],
      "stateMutability": "view",
      "type": "function"
    },
    {
      "inputs": [
        {
          "internalType": "uint256",
          "name": "tokenId",
          "type": "uint256"
        }
      ],
      "name": "nonces",
      "outputs": [
        {
          "internalType": "uint256",
          "name": "",
          "type": "uint256"
        }
      ],
      "stateMutability": "view",
      "type": "function"
    },
    {
      "inputs": [],
      "name": "operatorAllowlist",
      "outputs": [
        {
          "internalType": "contract IOperatorAllowlist",
          "name": "",
          "type": "address"
        }
      ],
      "stateMutability": "view",
      "type": "function"
    },
    {
      "inputs": [
        {
          "internalType": "uint256",
          "name": "tokenId",
          "type": "uint256"
        }
      ],
      "name": "ownerOf",
      "outputs": [
        {
          "internalType": "address",
          "name": "",
          "type": "address"
        }
      ],
      "stateMutability": "view",
      "type": "function"
    },
    {
      "inputs": [
        {
          "internalType": "address",
          "name": "spender",
          "type": "address"
        },
        {
          "internalType": "uint256",
          "name": "tokenId",
          "type": "uint256"
        },
        {
          "internalType": "uint256",
          "name": "deadline",
          "type": "uint256"
        },
        {
          "internalType": "bytes",
          "name": "sig",
          "type": "bytes"
        }
      ],
      "name": "permit",
      "outputs": [],
      "stateMutability": "nonpayable",
      "type": "function"
    },
    {
      "inputs": [
        {
          "internalType": "bytes32",
          "name": "role",
          "type": "bytes32"
        },
        {
          "internalType": "address",
          "name": "account",
          "type": "address"
        }
      ],
      "name": "renounceRole",
      "outputs": [],
      "stateMutability": "nonpayable",
      "type": "function"
    },
    {
      "inputs": [
        {
          "internalType": "address",
          "name": "user",
          "type": "address"
        }
      ],
      "name": "revokeMinterRole",
      "outputs": [],
      "stateMutability": "nonpayable",
      "type": "function"
    },
    {
      "inputs": [
        {
          "internalType": "bytes32",
          "name": "role",
          "type": "bytes32"
        },
        {
          "internalType": "address",
          "name": "account",
          "type": "address"
        }
      ],
      "name": "revokeRole",
      "outputs": [],
      "stateMutability": "nonpayable",
      "type": "function"
    },
    {
      "inputs": [
        {
          "internalType": "uint256",
          "name": "tokenId",
          "type": "uint256"
        },
        {
          "internalType": "uint256",
          "name": "salePrice",
          "type": "uint256"
        }
      ],
      "name": "royaltyInfo",
      "outputs": [
        {
          "internalType": "address",
          "name": "",
          "type": "address"
        },
        {
          "internalType": "uint256",
          "name": "",
          "type": "uint256"
        }
      ],
      "stateMutability": "view",
      "type": "function"
    },
    {
      "inputs": [
        {
          "internalType": "address",
          "name": "owner",
          "type": "address"
        },
        {
          "internalType": "uint256",
          "name": "tokenId",
          "type": "uint256"
        }
      ],
      "name": "safeBurn",
      "outputs": [],
      "stateMutability": "nonpayable",
      "type": "function"
    },
    {
      "inputs": [
        {
          "components": [
            {
              "internalType": "address",
              "name": "owner",
              "type": "address"
            },
            {
              "internalType": "uint256[]",
              "name": "tokenIds",
              "type": "uint256[]"
            }
          ],
          "internalType": "struct ERC721Hybrid.IDBurn[]",
          "name": "burns",
          "type": "tuple[]"
        }
      ],
      "name": "safeBurnBatch",
      "outputs": [],
      "stateMutability": "nonpayable",
      "type": "function"
    },
    {
      "inputs": [
        {
          "internalType": "address",
          "name": "to",
          "type": "address"
        },
        {
          "internalType": "uint256",
          "name": "tokenId",
          "type": "uint256"
        }
      ],
      "name": "safeMint",
      "outputs": [],
      "stateMutability": "nonpayable",
      "type": "function"
    },
    {
      "inputs": [
        {
          "components": [
            {
              "internalType": "address",
              "name": "to",
              "type": "address"
            },
            {
              "internalType": "uint256[]",
              "name": "tokenIds",
              "type": "uint256[]"
            }
          ],
          "internalType": "struct ERC721Hybrid.IDMint[]",
          "name": "mints",
          "type": "tuple[]"
        }
      ],
      "name": "safeMintBatch",
      "outputs": [],
      "stateMutability": "nonpayable",
      "type": "function"
    },
    {
      "inputs": [
        {
          "components": [
            {
              "internalType": "address",
              "name": "to",
              "type": "address"
            },
            {
              "internalType": "uint256",
              "name": "quantity",
              "type": "uint256"
            }
          ],
          "internalType": "struct ERC721Hybrid.Mint[]",
          "name": "mints",
          "type": "tuple[]"
        }
      ],
      "name": "safeMintBatchByQuantity",
      "outputs": [],
      "stateMutability": "nonpayable",
      "type": "function"
    },
    {
      "inputs": [
        {
          "internalType": "address",
          "name": "to",
          "type": "address"
        },
        {
          "internalType": "uint256",
          "name": "quantity",
          "type": "uint256"
        }
      ],
      "name": "safeMintByQuantity",
      "outputs": [],
      "stateMutability": "nonpayable",
      "type": "function"
    },
    {
      "inputs": [
        {
          "internalType": "address",
          "name": "from",
          "type": "address"
        },
        {
          "internalType": "address",
          "name": "to",
          "type": "address"
        },
        {
          "internalType": "uint256",
          "name": "tokenId",
          "type": "uint256"
        }
      ],
      "name": "safeTransferFrom",
      "outputs": [],
      "stateMutability": "nonpayable",
      "type": "function"
    },
    {
      "inputs": [
        {
          "internalType": "address",
          "name": "from",
          "type": "address"
        },
        {
          "internalType": "address",
          "name": "to",
          "type": "address"
        },
        {
          "internalType": "uint256",
          "name": "tokenId",
          "type": "uint256"
        },
        {
          "internalType": "bytes",
          "name": "_data",
          "type": "bytes"
        }
      ],
      "name": "safeTransferFrom",
      "outputs": [],
      "stateMutability": "nonpayable",
      "type": "function"
    },
    {
      "inputs": [
        {
          "components": [
            {
              "internalType": "address",
              "name": "from",
              "type": "address"
            },
            {
              "internalType": "address[]",
              "name": "tos",
              "type": "address[]"
            },
            {
              "internalType": "uint256[]",
              "name": "tokenIds",
              "type": "uint256[]"
            }
          ],
          "internalType": "struct ERC721Hybrid.TransferRequest",
          "name": "tr",
          "type": "tuple"
        }
      ],
      "name": "safeTransferFromBatch",
      "outputs": [],
      "stateMutability": "nonpayable",
      "type": "function"
    },
    {
      "inputs": [
        {
          "internalType": "address",
          "name": "operator",
          "type": "address"
        },
        {
          "internalType": "bool",
          "name": "approved",
          "type": "bool"
        }
      ],
      "name": "setApprovalForAll",
      "outputs": [],
      "stateMutability": "nonpayable",
      "type": "function"
    },
    {
      "inputs": [
        {
          "internalType": "string",
          "name": "baseURI_",
          "type": "string"
        }
      ],
      "name": "setBaseURI",
      "outputs": [],
      "stateMutability": "nonpayable",
      "type": "function"
    },
    {
      "inputs": [
        {
          "internalType": "string",
          "name": "_contractURI",
          "type": "string"
        }
      ],
      "name": "setContractURI",
      "outputs": [],
      "stateMutability": "nonpayable",
      "type": "function"
    },
    {
      "inputs": [
        {
          "internalType": "address",
          "name": "receiver",
          "type": "address"
        },
        {
          "internalType": "uint96",
          "name": "feeNumerator",
          "type": "uint96"
        }
      ],
      "name": "setDefaultRoyaltyReceiver",
      "outputs": [],
      "stateMutability": "nonpayable",
      "type": "function"
    },
    {
      "inputs": [
        {
          "internalType": "uint256",
          "name": "tokenId",
          "type": "uint256"
        },
        {
          "internalType": "address",
          "name": "receiver",
          "type": "address"
        },
        {
          "internalType": "uint96",
          "name": "feeNumerator",
          "type": "uint96"
        }
      ],
      "name": "setNFTRoyaltyReceiver",
      "outputs": [],
      "stateMutability": "nonpayable",
      "type": "function"
    },
    {
      "inputs": [
        {
          "internalType": "uint256[]",
          "name": "tokenIds",
          "type": "uint256[]"
        },
        {
          "internalType": "address",
          "name": "receiver",
          "type": "address"
        },
        {
          "internalType": "uint96",
          "name": "feeNumerator",
          "type": "uint96"
        }
      ],
      "name": "setNFTRoyaltyReceiverBatch",
      "outputs": [],
      "stateMutability": "nonpayable",
      "type": "function"
    },
    {
      "inputs": [
        {
          "internalType": "address",
          "name": "_operatorAllowlist",
          "type": "address"
        }
      ],
      "name": "setOperatorAllowlistRegistry",
      "outputs": [],
      "stateMutability": "nonpayable",
      "type": "function"
    },
    {
      "inputs": [
        {
          "internalType": "bytes4",
          "name": "interfaceId",
          "type": "bytes4"
        }
      ],
      "name": "supportsInterface",
      "outputs": [
        {
          "internalType": "bool",
          "name": "",
          "type": "bool"
        }
      ],
      "stateMutability": "view",
      "type": "function"
    },
    {
      "inputs": [],
      "name": "symbol",
      "outputs": [
        {
          "internalType": "string",
          "name": "",
          "type": "string"
        }
      ],
      "stateMutability": "view",
      "type": "function"
    },
    {
      "inputs": [
        {
          "internalType": "uint256",
          "name": "tokenId",
          "type": "uint256"
        }
      ],
      "name": "tokenURI",
      "outputs": [
        {
          "internalType": "string",
          "name": "",
          "type": "string"
        }
      ],
      "stateMutability": "view",
      "type": "function"
    },
    {
      "inputs": [],
      "name": "totalSupply",
      "outputs": [
        {
          "internalType": "uint256",
          "name": "",
          "type": "uint256"
        }
      ],
      "stateMutability": "view",
      "type": "function"
    },
    {
      "inputs": [
        {
          "internalType": "address",
          "name": "from",
          "type": "address"
        },
        {
          "internalType": "address",
          "name": "to",
          "type": "address"
        },
        {
          "internalType": "uint256",
          "name": "tokenId",
          "type": "uint256"
        }
      ],
      "name": "transferFrom",
      "outputs": [],
      "stateMutability": "nonpayable",
      "type": "function"
    }
  ],
  "bytecode": "0x61016060405260006013553480156200001757600080fd5b5060405162005dfc38038062005dfc8339810160408190526200003a91620006cb565b8787878787878787868681604051806040016040528060018152602001603160f81b81525083838181838381600690816200007691906200085e565b5060076200008582826200085e565b50506801000000000000000060095550600d620000a383826200085e565b50600e620000b282826200085e565b5050505050620000d2601583620001e160201b620012111790919060201c565b61012052620000ef816016620001e1602090811b6200121117901c565b61014052815160208084019190912060e052815190820120610100524660a0526200017d60e05161010051604080517f8b73c3c69bb8fe3d512ecc4cf759cc79239f7b179b0ffacaa9a75d522b39400f60208201529081019290925260608201524660808201523060a082015260009060c00160405160208183030381529060405280519060200120905090565b60805250503060c0525062000196905060008962000231565b620001a2828262000274565b620001ad8362000379565b6019620001bb86826200085e565b506018620001ca85826200085e565b5050505050505050505050505050505050620009a8565b60006020835110156200020157620001f98362000472565b90506200022b565b826200021883620004b560201b620012421760201c565b906200022590826200085e565b5060ff90505b92915050565b620002488282620004b860201b620012451760201c565b60008281526001602090815260409091206200026f918390620012c962000559821b17901c565b505050565b6127106001600160601b0382161115620002e85760405162461bcd60e51b815260206004820152602a60248201527f455243323938313a20726f79616c7479206665652077696c6c206578636565646044820152692073616c65507269636560b01b60648201526084015b60405180910390fd5b6001600160a01b038216620003405760405162461bcd60e51b815260206004820152601960248201527f455243323938313a20696e76616c6964207265636569766572000000000000006044820152606401620002df565b604080518082019091526001600160a01b039092168083526001600160601b039091166020909201829052600160a01b90910217600355565b6040516301ffc9a760e01b81526305a3b80960e01b60048201526001600160a01b038216906301ffc9a790602401602060405180830381865afa158015620003c5573d6000803e3d6000fd5b505050506040513d601f19601f82011682018060405250810190620003eb91906200092a565b620004095760405163d6f93fb760e01b815260040160405180910390fd5b600254604080516001600160a01b03928316815291831660208301527f3edc37a14cc8047c7c8a3f354311efe86c14848efd4e3765a3e1e57eea04ea76910160405180910390a1600280546001600160a01b0319166001600160a01b0392909216919091179055565b600080829050601f81511115620004a0578260405163305a27a960e01b8152600401620002df91906200094e565b8051620004ad8262000983565b179392505050565b90565b6000828152602081815260408083206001600160a01b038516845290915290205460ff1662000555576000828152602081815260408083206001600160a01b03851684529091529020805460ff19166001179055620005143390565b6001600160a01b0316816001600160a01b0316837f2f8788117e7eff1d82e926ec794901d17c78024a50270940304540a733656f0d60405160405180910390a45b5050565b600062000570836001600160a01b03841662000577565b9392505050565b6000818152600183016020526040812054620005c0575081546001818101845560008481526020808220909301849055845484825282860190935260409020919091556200022b565b5060006200022b565b80516001600160a01b0381168114620005e157600080fd5b919050565b634e487b7160e01b600052604160045260246000fd5b60005b8381101562000619578181015183820152602001620005ff565b50506000910152565b600082601f8301126200063457600080fd5b81516001600160401b0380821115620006515762000651620005e6565b604051601f8301601f19908116603f011681019082821181831017156200067c576200067c620005e6565b816040528381528660208588010111156200069657600080fd5b620006a9846020830160208901620005fc565b9695505050505050565b80516001600160601b0381168114620005e157600080fd5b600080600080600080600080610100898b031215620006e957600080fd5b620006f489620005c9565b60208a01519098506001600160401b03808211156200071257600080fd5b620007208c838d0162000622565b985060408b01519150808211156200073757600080fd5b620007458c838d0162000622565b975060608b01519150808211156200075c57600080fd5b6200076a8c838d0162000622565b965060808b01519150808211156200078157600080fd5b50620007908b828c0162000622565b945050620007a160a08a01620005c9565b9250620007b160c08a01620005c9565b9150620007c160e08a01620006b3565b90509295985092959890939650565b600181811c90821680620007e557607f821691505b6020821081036200080657634e487b7160e01b600052602260045260246000fd5b50919050565b601f8211156200026f57600081815260208120601f850160051c81016020861015620008355750805b601f850160051c820191505b81811015620008565782815560010162000841565b505050505050565b81516001600160401b038111156200087a576200087a620005e6565b62000892816200088b8454620007d0565b846200080c565b602080601f831160018114620008ca5760008415620008b15750858301515b600019600386901b1c1916600185901b17855562000856565b600085815260208120601f198616915b82811015620008fb57888601518255948401946001909101908401620008da565b50858210156200091a5787850151600019600388901b60f8161c191681555b5050505050600190811b01905550565b6000602082840312156200093d57600080fd5b815180151581146200057057600080fd5b60208152600082518060208401526200096f816040850160208701620005fc565b601f01601f19169190910160400192915050565b80516020808301519190811015620008065760001960209190910360031b1b16919050565b60805160a05160c05160e0516101005161012051610140516153f962000a036000396000610db301526000610d88015260006118740152600061184c015260006117a7015260006117d1015260006117fb01526153f96000f3fe608060405234801561001057600080fd5b506004361061035c5760003560e01c806369e2f0fb116101d3578063a217fddf11610104578063d547741f116100a2578063e4e18f6d1161007c578063e4e18f6d14610771578063e8a3d48514610784578063e985e9c51461078c578063eea987681461079f57600080fd5b8063d547741f14610738578063e19278591461074b578063e4623c1b1461075e57600080fd5b8063b88d4fde116100de578063b88d4fde146106ea578063c87b56dd146106fd578063ca15c87314610710578063d53913931461072357600080fd5b8063a217fddf146106bc578063a22cb465146106c4578063a7012816146106d757600080fd5b80639010d07c1161017157806395d89b411161014b57806395d89b411461067b5780639e2641a3146106835780639f15d70014610696578063a1448194146106a957600080fd5b80639010d07c1461064257806391d1485414610655578063938e3d7b1461066857600080fd5b8063745a41bc116101ad578063745a41bc146105ee57806374f16a811461060157806384b0196e14610614578063885e7a081461062f57600080fd5b806369e2f0fb146105c05780636c0360eb146105d357806370a08231146105db57600080fd5b80632d2c5a8b116102ad57806342842e0e1161024b5780634f558e79116102255780634f558e791461057457806355f804b314610587578063567e40751461059a5780636352211e146105ad57600080fd5b806342842e0e1461053b57806342966c681461054e578063439aed341461056157600080fd5b80633644e515116102875780633644e515146104fa57806336568abe146105025780633dd1eb611461051557806340c10f191461052857600080fd5b80632d2c5a8b146104bf5780632f2ff15d146104d257806331ae450b146104e557600080fd5b806318160ddd1161031a57806323b872dd116102f457806323b872dd14610444578063248a9ca31461045757806329326f291461047a5780632a55205a1461048d57600080fd5b806318160ddd1461041f5780631f8ebbd114610427578063234af0461461043157600080fd5b80628ad9461461036157806301ffc9a71461037657806306fdde031461039e578063081812fc146103b3578063095ea7b3146103de578063141a468c146103f1575b600080fd5b61037461036f36600461444e565b6107b2565b005b61038961038436600461449e565b610888565b60405190151581526020015b60405180910390f35b6103a6610899565b604051610395919061450b565b6103c66103c136600461451e565b6108a8565b6040516001600160a01b039091168152602001610395565b6103746103ec36600461454e565b6108c8565b6104116103ff36600461451e565b60009081526017602052604090205490565b604051908152602001610395565b6104116108e8565b600160401b610411565b61037461043f36600461471a565b6108ff565b610374610452366004614762565b610920565b61041161046536600461451e565b60009081526020819052604090206001015490565b6002546103c6906001600160a01b031681565b6104a061049b36600461479e565b610947565b604080516001600160a01b039093168352602083019190915201610395565b6103746104cd3660046147c0565b6109f5565b6103746104e036600461487c565b610a16565b6104ed610a3b565b60405161039591906148a8565b610411610ae9565b61037461051036600461487c565b610af3565b6103746105233660046148f5565b610b72565b61037461053636600461454e565b610b95565b610374610549366004614762565b610bb7565b61037461055c36600461451e565b610bd2565b61037461056f366004614927565b610c09565b61038961058236600461451e565b610c32565b6103746105953660046149ba565b610c3d565b6103746105a836600461454e565b610c54565b6103c66105bb36600461451e565b610c76565b6103746105ce3660046148f5565b610c96565b6103a6610cb9565b6104116105e93660046148f5565b610d47565b6103746105fc366004614a22565b610d65565b61037461060f36600461471a565b610d71565b61061c610d7a565b6040516103959796959493929190614a82565b61037461063d366004614b18565b610e03565b6103c661065036600461479e565b610e18565b61038961066336600461487c565b610e37565b6103746106763660046149ba565b610e60565b6103a6610e77565b61037461069136600461471a565b610e81565b6103746106a436600461454e565b610ea2565b6103746106b736600461454e565b610efc565b610411600081565b6103746106d2366004614b50565b610f1e565b6103746106e5366004614bcb565b61106f565b6103746106f8366004614c2f565b6110cf565b6103a661070b36600461451e565b6110f8565b61041161071e36600461451e565b611103565b6104116a4d494e5445525f524f4c4560a81b81565b61037461074636600461487c565b61111a565b6103746107593660046147c0565b61113f565b61037461076c366004614c7e565b611160565b61037461077f3660046148f5565b61119e565b6103a66111b2565b61038961079a366004614cbf565b6111bf565b6103746107ad36600461454e565b6111ef565b6107bf6020820182614ce9565b90506107ce6040830183614ce9565b9050146107ee5760405163359a1bc360e01b815260040160405180910390fd5b60005b6107fe6040830183614ce9565b90508110156108845761087261081760208401846148f5565b6108246020850185614ce9565b8481811061083457610834614d32565b905060200201602081019061084991906148f5565b6108566040860186614ce9565b8581811061086657610866614d32565b90506020020135610bb7565b8061087c81614d5e565b9150506107f1565b5050565b6000610893826112de565b92915050565b60606108a3611303565b905090565b6000600160401b8210156108bf5761089382611395565b610893826113bc565b600160401b8110156108de576108848282611447565b6108848282611557565b60006013546108f561165f565b6108a39190614d77565b6a4d494e5445525f524f4c4560a81b6109178161167b565b61088482611685565b600160401b81101561093c576109378383836116d4565b505050565b610937838383611704565b60008281526004602090815260408083208151808301909252546001600160a01b038116808352600160a01b9091046001600160601b03169282019290925282916109bc5750604080518082019091526003546001600160a01b0381168252600160a01b90046001600160601b031660208201525b6020810151600090612710906109db906001600160601b031687614d8a565b6109e59190614da1565b91519350909150505b9250929050565b6a4d494e5445525f524f4c4560a81b610a0d8161167b565b61088482611729565b600082815260208190526040902060010154610a318161167b565b6109378383611778565b60606000610a4881611103565b90506000816001600160401b03811115610a6457610a64614578565b604051908082528060200260200182016040528015610a8d578160200160208202803683370190505b50905060005b82811015610ae257610aa6600082610e18565b828281518110610ab857610ab8614d32565b6001600160a01b039092166020928302919091019091015280610ada81614d5e565b915050610a93565b5092915050565b60006108a361179a565b6001600160a01b0381163314610b685760405162461bcd60e51b815260206004820152602f60248201527f416363657373436f6e74726f6c3a2063616e206f6e6c792072656e6f756e636560448201526e103937b632b9903337b91039b2b63360891b60648201526084015b60405180910390fd5b61088482826118c5565b6000610b7d8161167b565b6108846a4d494e5445525f524f4c4560a81b83610a16565b6a4d494e5445525f524f4c4560a81b610bad8161167b565b61093783836118e7565b610937838383604051806020016040528060008152506110cf565b610bdd335b8261196e565b610bfd57604051630247e3a960e01b815260048101829052602401610b5f565b610c0681611990565b50565b6a4d494e5445525f524f4c4560a81b610c218161167b565b610c2c8484846119e3565b50505050565b600061089382611aae565b6000610c488161167b565b60196109378382614e43565b6a4d494e5445525f524f4c4560a81b610c6c8161167b565b6109378383611b0b565b6000600160401b821015610c8d5761089382611b15565b61089382611b75565b6000610ca18161167b565b6108846a4d494e5445525f524f4c4560a81b8361111a565b60198054610cc690614dc3565b80601f0160208091040260200160405190810160405280929190818152602001828054610cf290614dc3565b8015610d3f5780601f10610d1457610100808354040283529160200191610d3f565b820191906000526020600020905b815481529060010190602001808311610d2257829003601f168201915b505050505081565b6000610d5282611b89565b610d5b83611c54565b6108939190614d77565b610c2c84848484611cda565b610c0681611dc3565b600060608082808083610dae7f00000000000000000000000000000000000000000000000000000000000000006015611e4f565b610dd97f00000000000000000000000000000000000000000000000000000000000000006016611e4f565b60408051600080825260208201909252600f60f81b9b939a50919850469750309650945092509050565b6000610e0e8161167b565b6109378383611ef3565b6000828152600160205260408120610e309083611fad565b9392505050565b6000918252602082815260408084206001600160a01b0393909316845291905290205460ff1690565b6000610e6b8161167b565b60186109378382614e43565b60606108a3611fb9565b6a4d494e5445525f524f4c4560a81b610e998161167b565b61088482611fc8565b6000610ead82610c76565b9050826001600160a01b0316816001600160a01b031614610ef357604051634fefd56160e01b8152600481018390526001600160a01b0382166024820152604401610b5f565b61093782610bd2565b6a4d494e5445525f524f4c4560a81b610f148161167b565b6109378383612017565b81333b15801590610f9857506002546040516305a3b80960e01b81523360048201526001600160a01b03909116906305a3b80990602401602060405180830381865afa158015610f72573d6000803e3d6000fd5b505050506040513d601f19601f82011682018060405250810190610f969190614f02565b155b15610fb85760405163f6fa4cbd60e01b8152336004820152602401610b5f565b6001600160a01b0381163b1580159061103c57506002546040516305a3b80960e01b81526001600160a01b038381166004830152909116906305a3b80990602401602060405180830381865afa158015611016573d6000803e3d6000fd5b505050506040513d601f19601f8201168201806040525081019061103a9190614f02565b155b15611065576040516341b8d58160e11b81526001600160a01b0382166004820152602401610b5f565b6109378383612085565b6a4d494e5445525f524f4c4560a81b6110878161167b565b60005b848110156110c7576110b58686838181106110a7576110a7614d32565b9050602002013585856119e3565b806110bf81614d5e565b91505061108a565b505050505050565b600160401b8210156110ec576110e78484848461208f565b610c2c565b610c2c848484846120c2565b6060610893826120e7565b60008181526001602052604081206108939061214d565b6000828152602081905260409020600101546111358161167b565b61093783836118c5565b6a4d494e5445525f524f4c4560a81b6111578161167b565b61088482612157565b60005b818110156109375761118c83838381811061118057611180614d32565b90506020020135610bd2565b8061119681614d5e565b915050611163565b60006111a98161167b565b610884826121a6565b60188054610cc690614dc3565b6001600160a01b03808316600090815260126020908152604080832093851683529290529081205460ff16610e30565b6a4d494e5445525f524f4c4560a81b6112078161167b565b610937838361229b565b600060208351101561122d57611226836122a5565b9050610893565b816112388482614e43565b5060ff9050610893565b90565b61124f8282610e37565b610884576000828152602081815260408083206001600160a01b03851684529091529020805460ff191660011790556112853390565b6001600160a01b0316816001600160a01b0316837f2f8788117e7eff1d82e926ec794901d17c78024a50270940304540a733656f0d60405160405180910390a45050565b6000610e30836001600160a01b0384166122e3565b60006001600160e01b03198216635604e22560e01b1480610893575061089382612332565b6060600d805461131290614dc3565b80601f016020809104026020016040519081016040528092919081815260200182805461133e90614dc3565b801561138b5780601f106113605761010080835404028352916020019161138b565b820191906000526020600020905b81548152906001019060200180831161136e57829003601f168201915b5050505050905090565b60006113a08261233d565b506000908152601160205260409020546001600160a01b031690565b60006113c782611aae565b61142b5760405162461bcd60e51b815260206004820152602f60248201527f4552433732315073693a20617070726f76656420717565727920666f72206e6f60448201526e3732bc34b9ba32b73a103a37b5b2b760891b6064820152608401610b5f565b506000908152600a60205260409020546001600160a01b031690565b600061145282611b15565b9050806001600160a01b0316836001600160a01b0316036114bf5760405162461bcd60e51b815260206004820152602160248201527f4552433732313a20617070726f76616c20746f2063757272656e74206f776e656044820152603960f91b6064820152608401610b5f565b336001600160a01b03821614806114db57506114db81336111bf565b61154d5760405162461bcd60e51b815260206004820152603d60248201527f4552433732313a20617070726f76652063616c6c6572206973206e6f7420746f60448201527f6b656e206f776e6572206f7220617070726f76656420666f7220616c6c0000006064820152608401610b5f565b610937838361238d565b600061156282610c76565b9050806001600160a01b0316836001600160a01b0316036115d15760405162461bcd60e51b8152602060048201526024808201527f4552433732315073693a20617070726f76616c20746f2063757272656e74206f6044820152633bb732b960e11b6064820152608401610b5f565b336001600160a01b03821614806115ed57506115ed81336111bf565b61154d5760405162461bcd60e51b815260206004820152603b60248201527f4552433732315073693a20617070726f76652063616c6c6572206973206e6f7460448201527f206f776e6572206e6f7220617070726f76656420666f7220616c6c00000000006064820152608401610b5f565b60006116696124de565b611671612548565b6108a39190614f1f565b610c06813361255c565b60005b81518110156108845760008282815181106116a5576116a5614d32565b602002602001015190506116c1816000015182602001516125b5565b50806116cc81614d5e565b915050611688565b6116dd33610bd7565b6116f95760405162461bcd60e51b8152600401610b5f90614f32565b6109378383836125f6565b61170d33610bd7565b6116f95760405162461bcd60e51b8152600401610b5f90614f7f565b60005b815181101561088457600082828151811061174957611749614d32565b6020026020010151905061176581600001518260200151611b0b565b508061177081614d5e565b91505061172c565b6117828282611245565b600082815260016020526040902061093790826112c9565b6000306001600160a01b037f0000000000000000000000000000000000000000000000000000000000000000161480156117f357507f000000000000000000000000000000000000000000000000000000000000000046145b1561181d57507f000000000000000000000000000000000000000000000000000000000000000090565b6108a3604080517f8b73c3c69bb8fe3d512ecc4cf759cc79239f7b179b0ffacaa9a75d522b39400f60208201527f0000000000000000000000000000000000000000000000000000000000000000918101919091527f000000000000000000000000000000000000000000000000000000000000000060608201524660808201523060a082015260009060c00160405160208183030381529060405280519060200120905090565b6118cf82826127fd565b60008281526001602052604090206109379082612862565b600160401b811061190e5760405163b73c99f560e01b815260048101829052602401610b5f565b600881901c600090815260146020526040902054600160ff83161b161561194b576040516305dcda1160e51b815260048101829052602401610b5f565b6119558282612877565b6013805490600061196583614d5e565b91905055505050565b6000600160401b8210156119865761122683836129d2565b610e308383612a31565b600160401b8110156119da576119a581612af6565b600881901c60009081526014602052604081208054600160ff85161b17905560138054916119d283614fd3565b919050555050565b610c0681612b79565b6127106001600160601b0382161115611a0e5760405162461bcd60e51b8152600401610b5f90614fea565b6001600160a01b038216611a645760405162461bcd60e51b815260206004820152601b60248201527f455243323938313a20496e76616c696420706172616d657465727300000000006044820152606401610b5f565b6040805180820182526001600160a01b0393841681526001600160601b0392831660208083019182526000968752600490529190942093519051909116600160a01b029116179055565b6000600160401b821015611b02576000828152600f60205260409020546001600160a01b0316158015906108935750600882901c600090815260146020526040902054600160ff84161b1615151592915050565b61089382612bbb565b6108848282612bf0565b6000818152600f60205260408120546001600160a01b0316806108935760405162461bcd60e51b8152602060048201526018602482015277115490cdcc8c4e881a5b9d985b1a59081d1bdad95b88125160421b6044820152606401610b5f565b600080611b8183612c0a565b509392505050565b60006001600160a01b038216611bf75760405162461bcd60e51b815260206004820152602d60248201527f4552433732315073693a2062616c616e636520717565727920666f722074686560448201526c207a65726f206164647265737360981b6064820152608401610b5f565b6000600160401b5b600954811015610ae257611c1281611aae565b15611c4457611c2081610c76565b6001600160a01b0316846001600160a01b031603611c4457611c4182614d5e565b91505b611c4d81614d5e565b9050611bff565b60006001600160a01b038216611cbe5760405162461bcd60e51b815260206004820152602960248201527f4552433732313a2061646472657373207a65726f206973206e6f7420612076616044820152683634b21037bbb732b960b91b6064820152608401610b5f565b506001600160a01b031660009081526010602052604090205490565b42821015611cfb5760405163068568f360e21b815260040160405180910390fd5b6000611d08858585612ca1565b9050611d1d611d1685610c76565b8284612d7a565b15611d3257611d2c858561238d565b50610c2c565b60008251604003611d7957611d7282611d4e8560006020612e84565b611d5790615034565b611d648660206040612e84565b611d6d90615034565b612f91565b9050611da5565b8251604103611d8c57611d728284612fae565b604051638baa579f60e01b815260040160405180910390fd5b611daf8186612fca565b15611d8c57611dbe868661238d565b6110c7565b60005b8151811015610884576000828281518110611de357611de3614d32565b6020026020010151905060005b816020015151811015611e3a57611e28826000015183602001518381518110611e1b57611e1b614d32565b6020026020010151610ea2565b80611e3281614d5e565b915050611df0565b50508080611e4790614d5e565b915050611dc6565b606060ff8314611e625761122683612fe9565b818054611e6e90614dc3565b80601f0160208091040260200160405190810160405280929190818152602001828054611e9a90614dc3565b8015611ee75780601f10611ebc57610100808354040283529160200191611ee7565b820191906000526020600020905b815481529060010190602001808311611eca57829003601f168201915b50505050509050610893565b6127106001600160601b0382161115611f1e5760405162461bcd60e51b8152600401610b5f90614fea565b6001600160a01b038216611f745760405162461bcd60e51b815260206004820152601960248201527f455243323938313a20696e76616c6964207265636569766572000000000000006044820152606401610b5f565b604080518082019091526001600160a01b039092168083526001600160601b039091166020909201829052600160a01b90910217600355565b6000610e308383613028565b6060600e805461131290614dc3565b60005b8151811015610884576000828281518110611fe857611fe8614d32565b6020026020010151905061200481600001518260200151613052565b508061200f81614d5e565b915050611fcb565b600160401b811061203e5760405163b73c99f560e01b815260048101829052602401610b5f565b600881901c600090815260146020526040902054600160ff83161b161561207b576040516305dcda1160e51b815260048101829052602401610b5f565b6119558282613093565b61088482826130ad565b61209a335b8361196e565b6120b65760405162461bcd60e51b8152600401610b5f90614f32565b610c2c848484846130b8565b6120cb33612094565b6120b65760405162461bcd60e51b8152600401610b5f90614f7f565b60606120f28261233d565b60006120fc6130dc565b9050600081511161211c5760405180602001604052806000815250610e30565b80612126846130eb565b604051602001612137929190615058565b6040516020818303038152906040529392505050565b6000610893825490565b60005b815181101561088457600082828151811061217757612177614d32565b602002602001015190506121938160000151826020015161229b565b508061219e81614d5e565b91505061215a565b6040516301ffc9a760e01b81526305a3b80960e01b60048201526001600160a01b038216906301ffc9a790602401602060405180830381865afa1580156121f1573d6000803e3d6000fd5b505050506040513d601f19601f820116820180604052508101906122159190614f02565b6122325760405163d6f93fb760e01b815260040160405180910390fd5b600254604080516001600160a01b03928316815291831660208301527f3edc37a14cc8047c7c8a3f354311efe86c14848efd4e3765a3e1e57eea04ea76910160405180910390a1600280546001600160a01b0319166001600160a01b0392909216919091179055565b610884828261317d565b600080829050601f815111156122d0578260405163305a27a960e01b8152600401610b5f919061450b565b80516122db82615034565b179392505050565b600081815260018301602052604081205461232a57508154600181810184556000848152602080822090930184905584548482528286019093526040902091909155610893565b506000610893565b6000610893826132f6565b61234681611aae565b610c065760405162461bcd60e51b8152602060048201526018602482015277115490cdcc8c4e881a5b9d985b1a59081d1bdad95b88125160421b6044820152606401610b5f565b81333b1580159061240757506002546040516305a3b80960e01b81523360048201526001600160a01b03909116906305a3b80990602401602060405180830381865afa1580156123e1573d6000803e3d6000fd5b505050506040513d601f19601f820116820180604052508101906124059190614f02565b155b156124275760405163f6fa4cbd60e01b8152336004820152602401610b5f565b6001600160a01b0381163b158015906124ab57506002546040516305a3b80960e01b81526001600160a01b038381166004830152909116906305a3b80990602401602060405180830381865afa158015612485573d6000803e3d6000fd5b505050506040513d601f19601f820116820180604052508101906124a99190614f02565b155b156124d4576040516341b8d58160e11b81526001600160a01b0382166004820152602401610b5f565b6109378383613336565b6009546000906701000000000000009082906124fe9060081c6001614d77565b9050815b81811015612542576000818152600c602052604090205461252281613356565b61252c9086614d77565b945050808061253a90614d5e565b915050612502565b50505090565b6000600160401b6009546108a39190614f1f565b6125668282610e37565b6108845761257381613375565b61257e836020613387565b60405160200161258f929190615087565b60408051601f198184030181529082905262461bcd60e51b8252610b5f9160040161450b565b60005b8151811015610937576125e4838383815181106125d7576125d7614d32565b6020026020010151612017565b806125ee81614d5e565b9150506125b8565b828233321480159061267157506002546040516305a3b80960e01b81523360048201526001600160a01b03909116906305a3b80990602401602060405180830381865afa15801561264b573d6000803e3d6000fd5b505050506040513d601f19601f8201168201806040525081019061266f9190614f02565b155b156126915760405163937db65f60e01b8152336004820152602401610b5f565b6001600160a01b0382163b1580159061271557506002546040516305a3b80960e01b81526001600160a01b038481166004830152909116906305a3b80990602401602060405180830381865afa1580156126ef573d6000803e3d6000fd5b505050506040513d601f19601f820116820180604052508101906127139190614f02565b155b1561273e5760405163f934453160e01b81526001600160a01b0383166004820152602401610b5f565b6001600160a01b0381163b158015906127c257506002546040516305a3b80960e01b81526001600160a01b038381166004830152909116906305a3b80990602401602060405180830381865afa15801561279c573d6000803e3d6000fd5b505050506040513d601f19601f820116820180604052508101906127c09190614f02565b155b156127eb57604051632a67242160e11b81526001600160a01b0382166004820152602401610b5f565b6127f6858585613522565b5050505050565b6128078282610e37565b15610884576000828152602081815260408083206001600160a01b0385168085529252808320805460ff1916905551339285917ff6391f5c32d9c69d2a47ea670b442974b53935d1edc7fd64eb21e047a839171b9190a45050565b6000610e30836001600160a01b03841661354c565b6001600160a01b0382166128cd5760405162461bcd60e51b815260206004820181905260248201527f4552433732313a206d696e7420746f20746865207a65726f20616464726573736044820152606401610b5f565b6128d681611aae565b156129235760405162461bcd60e51b815260206004820152601c60248201527f4552433732313a20746f6b656e20616c7265616479206d696e746564000000006044820152606401610b5f565b61292c81611aae565b156129795760405162461bcd60e51b815260206004820152601c60248201527f4552433732313a20746f6b656e20616c7265616479206d696e746564000000006044820152606401610b5f565b6001600160a01b038216600081815260106020908152604080832080546001019055848352600f90915280822080546001600160a01b0319168417905551839291906000805160206152a4833981519152908290a45050565b6000806129de83611b15565b9050806001600160a01b0316846001600160a01b03161480612a055750612a0581856111bf565b80612a295750836001600160a01b0316612a1e846108a8565b6001600160a01b0316145b949350505050565b6000612a3c82611aae565b612aa05760405162461bcd60e51b815260206004820152602f60248201527f4552433732315073693a206f70657261746f7220717565727920666f72206e6f60448201526e3732bc34b9ba32b73a103a37b5b2b760891b6064820152608401610b5f565b6000612aab83610c76565b9050806001600160a01b0316846001600160a01b03161480612ae65750836001600160a01b0316612adb846108a8565b6001600160a01b0316145b80612a295750612a2981856111bf565b6000612b0182611b15565b9050612b0c82611b15565b600083815260116020908152604080832080546001600160a01b03199081169091556001600160a01b038516808552601084528285208054600019019055878552600f909352818420805490911690555192935084926000805160206152a4833981519152908390a45050565b6000612b8482610c76565b9050612b91600c8361363f565b60405182906000906001600160a01b038416906000805160206152a4833981519152908390a45050565b600881901c6000908152600c6020526040812054600160ff1b60ff84161c1615612be757506000919050565b6108938261366b565b61088482826040518060200160405280600081525061368a565b600080612c1683611aae565b612c775760405162461bcd60e51b815260206004820152602c60248201527f4552433732315073693a206f776e657220717565727920666f72206e6f6e657860448201526b34b9ba32b73a103a37b5b2b760a11b6064820152608401610b5f565b612c80836136cb565b6000818152600860205260409020546001600160a01b031694909350915050565b6000612a29604051602001612d0f90660a0cae4dad2e8560cb1b81527f61646472657373207370656e6465722c75696e7432353620746f6b656e49642c60078201527f75696e74323536206e6f6e63652c75696e7432353620646561646c696e652900602782015260460190565b60408051808303601f19018152828252805160209182012060008881526017835283902054918401526001600160a01b0388169183019190915260608201869052608082015260a0810184905260c001604051602081830303815290604052805190602001206136d8565b6000806000856001600160a01b0316631626ba7e60e01b8686604051602401612da49291906150fc565b60408051601f198184030181529181526020820180516001600160e01b03166001600160e01b0319909416939093179092529051612de29190615115565b600060405180830381855afa9150503d8060008114612e1d576040519150601f19603f3d011682016040523d82523d6000602084013e612e22565b606091505b5091509150818015612e35575080516020145b15612e7857600081806020019051810190612e509190615131565b90506374eca2c160e11b6001600160e01b0319821601612e765760019350505050610e30565b505b50600095945050505050565b606081612e9281601f614d77565b1015612ed15760405162461bcd60e51b815260206004820152600e60248201526d736c6963655f6f766572666c6f7760901b6044820152606401610b5f565b612edb8284614d77565b84511015612f1f5760405162461bcd60e51b8152602060048201526011602482015270736c6963655f6f75744f66426f756e647360781b6044820152606401610b5f565b606082158015612f3e5760405191506000825260208201604052612f88565b6040519150601f8416801560200281840101858101878315602002848b0101015b81831015612f77578051835260209283019201612f5f565b5050858452601f01601f1916604052505b50949350505050565b6000806000612fa1868686613705565b91509150612f888161373e565b6000806000612fbd8585613888565b91509150611b818161373e565b60006001600160a01b03831615801590610e305750610e30838361196e565b60606000612ff6836138ca565b604080516020808252818301909252919250600091906020820181803683375050509182525060208101929092525090565b600082600001828154811061303f5761303f614d32565b9060005260206000200154905092915050565b60005b8151811015610937576130818383838151811061307457613074614d32565b60200260200101516118e7565b8061308b81614d5e565b915050613055565b6108848282604051806020016040528060008152506138f2565b6108843383836138fd565b600160401b8210156130d0576110e7848484846139cb565b610c2c848484846139fe565b60606019805461131290614dc3565b606060006130f883613a17565b60010190506000816001600160401b0381111561311757613117614578565b6040519080825280601f01601f191660200182016040528015613141576020820181803683370190505b5090508181016020015b600019016f181899199a1a9b1b9c1cb0b131b232b360811b600a86061a8153600a850494508461314b57509392505050565b600061318860095490565b9050600082116131e85760405162461bcd60e51b815260206004820152602560248201527f4552433732315073693a207175616e74697479206d7573742062652067726561604482015264074657220360dc1b6064820152608401610b5f565b6001600160a01b03831661324a5760405162461bcd60e51b815260206004820152602360248201527f4552433732315073693a206d696e7420746f20746865207a65726f206164647260448201526265737360e81b6064820152608401610b5f565b816009600082825461325c9190614d77565b9091555050600081815260086020526040902080546001600160a01b0319166001600160a01b03851617905561329360058261363f565b6000806132a08484614d77565b90506001600160a01b0385169150828260006000805160206152a4833981519152600080a4600183015b8181146132f057808360006000805160206152a4833981519152600080a46001016132ca565b506127f6565b60006001600160e01b031982166380ac58cd60e01b148061332757506001600160e01b03198216635b5e139f60e01b145b80610893575061089382613aef565b600160401b81101561334c576108848282613b2f565b6108848282613b9d565b60005b811561337057600019820190911690600101613359565b919050565b60606108936001600160a01b03831660145b60606000613396836002614d8a565b6133a1906002614d77565b6001600160401b038111156133b8576133b8614578565b6040519080825280601f01601f1916602001820160405280156133e2576020820181803683370190505b509050600360fc1b816000815181106133fd576133fd614d32565b60200101906001600160f81b031916908160001a905350600f60fb1b8160018151811061342c5761342c614d32565b60200101906001600160f81b031916908160001a9053506000613450846002614d8a565b61345b906001614d77565b90505b60018111156134d3576f181899199a1a9b1b9c1cb0b131b232b360811b85600f166010811061348f5761348f614d32565b1a60f81b8282815181106134a5576134a5614d32565b60200101906001600160f81b031916908160001a90535060049490941c936134cc81614fd3565b905061345e565b508315610e305760405162461bcd60e51b815260206004820181905260248201527f537472696e67733a20686578206c656e67746820696e73756666696369656e746044820152606401610b5f565b600081815260176020526040812080549161353c83614d5e565b9190505550610937838383613bd2565b60008181526001830160205260408120548015613635576000613570600183614f1f565b855490915060009061358490600190614f1f565b90508181146135e95760008660000182815481106135a4576135a4614d32565b90600052602060002001549050808760000184815481106135c7576135c7614d32565b6000918252602080832090910192909255918252600188019052604090208390555b85548690806135fa576135fa61514e565b600190038181906000526020600020016000905590558560010160008681526020019081526020016000206000905560019350505050610893565b6000915050610893565b600881901c600090815260209290925260409091208054600160ff1b60ff9093169290921c9091179055565b600061367660095490565b82108015610893575050600160401b111590565b600061369560095490565b90506136a1848461317d565b6136af600085838686613bf4565b610c2c5760405162461bcd60e51b8152600401610b5f90615164565b6000610893600583613d2b565b60006108936136e561179a565b8360405161190160f01b8152600281019290925260228201526042902090565b6000806001600160ff1b0383168161372260ff86901c601b614d77565b905061373087828885613e23565b935093505050935093915050565b6000816004811115613752576137526151b9565b0361375a5750565b600181600481111561376e5761376e6151b9565b036137bb5760405162461bcd60e51b815260206004820152601860248201527f45434453413a20696e76616c6964207369676e617475726500000000000000006044820152606401610b5f565b60028160048111156137cf576137cf6151b9565b0361381c5760405162461bcd60e51b815260206004820152601f60248201527f45434453413a20696e76616c6964207369676e6174757265206c656e677468006044820152606401610b5f565b6003816004811115613830576138306151b9565b03610c065760405162461bcd60e51b815260206004820152602260248201527f45434453413a20696e76616c6964207369676e6174757265202773272076616c604482015261756560f01b6064820152608401610b5f565b60008082516041036138be5760208301516040840151606085015160001a6138b287828585613e23565b945094505050506109ee565b506000905060026109ee565b600060ff8216601f81111561089357604051632cd44ac360e21b815260040160405180910390fd5b610937838383613ee7565b816001600160a01b0316836001600160a01b03160361395e5760405162461bcd60e51b815260206004820152601960248201527f4552433732313a20617070726f766520746f2063616c6c6572000000000000006044820152606401610b5f565b6001600160a01b03838116600081815260126020908152604080832094871680845294825291829020805460ff191686151590811790915591519182527f17307eab39ab6107e8899845ad3d59bd9653f200f220920489ca2b5937696c31910160405180910390a3505050565b6139d68484846125f6565b6139e284848484613f1a565b610c2c5760405162461bcd60e51b8152600401610b5f906151cf565b613a098484846125f6565b6136af848484600185613bf4565b60008072184f03e93ff9f4daa797ed6e38ed64bf6a1f0160401b8310613a565772184f03e93ff9f4daa797ed6e38ed64bf6a1f0160401b830492506040015b6d04ee2d6d415b85acef81000000008310613a82576d04ee2d6d415b85acef8100000000830492506020015b662386f26fc100008310613aa057662386f26fc10000830492506010015b6305f5e1008310613ab8576305f5e100830492506008015b6127108310613acc57612710830492506004015b60648310613ade576064830492506002015b600a83106108935760010192915050565b60006001600160e01b031982166380ac58cd60e01b1480613b2057506001600160e01b03198216635b5e139f60e01b145b80610893575061089382614013565b600081815260116020526040902080546001600160a01b0319166001600160a01b0384169081179091558190613b6482611b15565b6001600160a01b03167f8c5be1e5ebec7d5bd14f71427d1e84f3dd0314c0f7b2291e5b200ac8c7c3b92560405160405180910390a45050565b6000818152600a6020526040902080546001600160a01b0319166001600160a01b0384169081179091558190613b6482610c76565b600160401b811015613be957610937838383614038565b61093783838361418a565b60006001600160a01b0385163b15613d1e57506001835b613c158486614d77565b811015613d1857604051630a85bd0160e11b81526001600160a01b0387169063150b7a0290613c4e9033908b9086908990600401615221565b6020604051808303816000875af1925050508015613c89575060408051601f3d908101601f19168201909252613c8691810190615131565b60015b613ce6573d808015613cb7576040519150601f19603f3d011682016040523d82523d6000602084013e613cbc565b606091505b508051600003613cde5760405162461bcd60e51b8152600401610b5f90615164565b805181602001fd5b828015613d0357506001600160e01b03198116630a85bd0160e11b145b92505080613d1081614d5e565b915050613c0b565b50613d22565b5060015b95945050505050565b600881901c60008181526020849052604081205490919060ff808516919082181c8015613d6d57613d5b81614362565b60ff168203600884901b179350613e1a565b60008311613dda5760405162461bcd60e51b815260206004820152603460248201527f4269744d6170733a205468652073657420626974206265666f7265207468652060448201527334b73232bc103237b2b9b713ba1032bc34b9ba1760611b6064820152608401610b5f565b506000199091016000818152602086905260409020549091908015613e1557613e0281614362565b60ff0360ff16600884901b179350613e1a565b613d6d565b50505092915050565b6000807f7fffffffffffffffffffffffffffffff5d576e7357a4501ddfe92f46681b20a0831115613e5a5750600090506003613ede565b6040805160008082526020820180845289905260ff881692820192909252606081018690526080810185905260019060a0016020604051602081039080840390855afa158015613eae573d6000803e3d6000fd5b5050604051601f1901519150506001600160a01b038116613ed757600060019250925050613ede565b9150600090505b94509492505050565b613ef183836143cc565b613efe6000848484613f1a565b6109375760405162461bcd60e51b8152600401610b5f906151cf565b60006001600160a01b0384163b1561400857604051630a85bd0160e11b81526001600160a01b0385169063150b7a0290613f5e903390899088908890600401615221565b6020604051808303816000875af1925050508015613f99575060408051601f3d908101601f19168201909252613f9691810190615131565b60015b613fee573d808015613fc7576040519150601f19603f3d011682016040523d82523d6000602084013e613fcc565b606091505b508051600003613cde5760405162461bcd60e51b8152600401610b5f906151cf565b6001600160e01b031916630a85bd0160e11b149050612a29565b506001949350505050565b60006001600160e01b0319821663152a902d60e11b14806108935750610893826143d6565b826001600160a01b031661404b82611b15565b6001600160a01b0316146140715760405162461bcd60e51b8152600401610b5f9061525e565b6001600160a01b0382166140d35760405162461bcd60e51b8152602060048201526024808201527f4552433732313a207472616e7366657220746f20746865207a65726f206164646044820152637265737360e01b6064820152608401610b5f565b826001600160a01b03166140e682611b15565b6001600160a01b03161461410c5760405162461bcd60e51b8152600401610b5f9061525e565b600081815260116020908152604080832080546001600160a01b03199081169091556001600160a01b0387811680865260108552838620805460001901905590871680865283862080546001019055868652600f90945282852080549092168417909155905184936000805160206152a483398151915291a4505050565b60008061419683612c0a565b91509150846001600160a01b0316826001600160a01b0316146142105760405162461bcd60e51b815260206004820152602c60248201527f4552433732315073693a207472616e73666572206f6620746f6b656e2074686160448201526b3a1034b9903737ba1037bbb760a11b6064820152608401610b5f565b6001600160a01b0384166142765760405162461bcd60e51b815260206004820152602760248201527f4552433732315073693a207472616e7366657220746f20746865207a65726f206044820152666164647265737360c81b6064820152608401610b5f565b61428160008461238d565b600061428e846001614d77565b600881901c600090815260056020526040902054909150600160ff1b60ff83161c161580156142be575060095481105b156142f557600081815260086020526040902080546001600160a01b0319166001600160a01b0388161790556142f560058261363f565b600084815260086020526040902080546001600160a01b0319166001600160a01b03871617905581841461432e5761432e60058561363f565b83856001600160a01b0316876001600160a01b03166000805160206152a483398151915260405160405180910390a46110c7565b600060405180610120016040528061010081526020016152c4610100913960f87e818283848586878898a8b8c8d8e8f929395969799a9b9d9e9faaeb6bedeeff6143ab856143e1565b02901c815181106143be576143be614d32565b016020015160f81c92915050565b6108848282612877565b6000610893826143f9565b60008082116143ef57600080fd5b5060008190031690565b60006001600160e01b03198216635a05180f60e01b148061089357506108938260006001600160e01b03198216637965db0b60e01b148061089357506301ffc9a760e01b6001600160e01b0319831614610893565b60006020828403121561446057600080fd5b81356001600160401b0381111561447657600080fd5b820160608185031215610e3057600080fd5b6001600160e01b031981168114610c0657600080fd5b6000602082840312156144b057600080fd5b8135610e3081614488565b60005b838110156144d65781810151838201526020016144be565b50506000910152565b600081518084526144f78160208601602086016144bb565b601f01601f19169290920160200192915050565b602081526000610e3060208301846144df565b60006020828403121561453057600080fd5b5035919050565b80356001600160a01b038116811461337057600080fd5b6000806040838503121561456157600080fd5b61456a83614537565b946020939093013593505050565b634e487b7160e01b600052604160045260246000fd5b604080519081016001600160401b03811182821017156145b0576145b0614578565b60405290565b604051601f8201601f191681016001600160401b03811182821017156145de576145de614578565b604052919050565b60006001600160401b038211156145ff576145ff614578565b5060051b60200190565b600061461c614617846145e6565b6145b6565b8381529050602080820190600585811b85018781111561463b57600080fd5b855b8181101561470e5780356001600160401b038082111561465d5760008081fd5b908801906040828c0312156146725760008081fd5b61467a61458e565b61468383614537565b815286830135828111156146975760008081fd5b8084019350508b601f8401126146af57600091508182fd5b823591506146bf614617836145e6565b82815291861b8301870191878101908d8411156146dc5760008081fd5b938801935b838510156146fa578435825293880193908801906146e1565b82890152508752505093830193830161463d565b50505050509392505050565b60006020828403121561472c57600080fd5b81356001600160401b0381111561474257600080fd5b8201601f8101841361475357600080fd5b612a2984823560208401614609565b60008060006060848603121561477757600080fd5b61478084614537565b925061478e60208501614537565b9150604084013590509250925092565b600080604083850312156147b157600080fd5b50508035926020909101359150565b600060208083850312156147d357600080fd5b82356001600160401b038111156147e957600080fd5b8301601f810185136147fa57600080fd5b8035614808614617826145e6565b81815260069190911b8201830190838101908783111561482757600080fd5b928401925b8284101561487157604084890312156148455760008081fd5b61484d61458e565b61485685614537565b8152848601358682015282526040909301929084019061482c565b979650505050505050565b6000806040838503121561488f57600080fd5b8235915061489f60208401614537565b90509250929050565b6020808252825182820181905260009190848201906040850190845b818110156148e95783516001600160a01b0316835292840192918401916001016148c4565b50909695505050505050565b60006020828403121561490757600080fd5b610e3082614537565b80356001600160601b038116811461337057600080fd5b60008060006060848603121561493c57600080fd5b8335925061494c60208501614537565b915061495a60408501614910565b90509250925092565b60006001600160401b0383111561497c5761497c614578565b61498f601f8401601f19166020016145b6565b90508281528383830111156149a357600080fd5b828260208301376000602084830101529392505050565b6000602082840312156149cc57600080fd5b81356001600160401b038111156149e257600080fd5b8201601f810184136149f357600080fd5b612a2984823560208401614963565b600082601f830112614a1357600080fd5b610e3083833560208501614963565b60008060008060808587031215614a3857600080fd5b614a4185614537565b9350602085013592506040850135915060608501356001600160401b03811115614a6a57600080fd5b614a7687828801614a02565b91505092959194509250565b60ff60f81b881681526000602060e081840152614aa260e084018a6144df565b8381036040850152614ab4818a6144df565b606085018990526001600160a01b038816608086015260a0850187905284810360c0860152855180825283870192509083019060005b81811015614b0657835183529284019291840191600101614aea565b50909c9b505050505050505050505050565b60008060408385031215614b2b57600080fd5b614b3483614537565b915061489f60208401614910565b8015158114610c0657600080fd5b60008060408385031215614b6357600080fd5b614b6c83614537565b91506020830135614b7c81614b42565b809150509250929050565b60008083601f840112614b9957600080fd5b5081356001600160401b03811115614bb057600080fd5b6020830191508360208260051b85010111156109ee57600080fd5b60008060008060608587031215614be157600080fd5b84356001600160401b03811115614bf757600080fd5b614c0387828801614b87565b9095509350614c16905060208601614537565b9150614c2460408601614910565b905092959194509250565b60008060008060808587031215614c4557600080fd5b614c4e85614537565b9350614c5c60208601614537565b92506040850135915060608501356001600160401b03811115614a6a57600080fd5b60008060208385031215614c9157600080fd5b82356001600160401b03811115614ca757600080fd5b614cb385828601614b87565b90969095509350505050565b60008060408385031215614cd257600080fd5b614cdb83614537565b915061489f60208401614537565b6000808335601e19843603018112614d0057600080fd5b8301803591506001600160401b03821115614d1a57600080fd5b6020019150600581901b36038213156109ee57600080fd5b634e487b7160e01b600052603260045260246000fd5b634e487b7160e01b600052601160045260246000fd5b600060018201614d7057614d70614d48565b5060010190565b8082018082111561089357610893614d48565b808202811582820484141761089357610893614d48565b600082614dbe57634e487b7160e01b600052601260045260246000fd5b500490565b600181811c90821680614dd757607f821691505b602082108103614df757634e487b7160e01b600052602260045260246000fd5b50919050565b601f82111561093757600081815260208120601f850160051c81016020861015614e245750805b601f850160051c820191505b818110156110c757828155600101614e30565b81516001600160401b03811115614e5c57614e5c614578565b614e7081614e6a8454614dc3565b84614dfd565b602080601f831160018114614ea55760008415614e8d5750858301515b600019600386901b1c1916600185901b1785556110c7565b600085815260208120601f198616915b82811015614ed457888601518255948401946001909101908401614eb5565b5085821015614ef25787850151600019600388901b60f8161c191681555b5050505050600190811b01905550565b600060208284031215614f1457600080fd5b8151610e3081614b42565b8181038181111561089357610893614d48565b6020808252602d908201527f4552433732313a2063616c6c6572206973206e6f7420746f6b656e206f776e6560408201526c1c881bdc88185c1c1c9bdd9959609a1b606082015260800190565b60208082526034908201527f4552433732315073693a207472616e736665722063616c6c6572206973206e6f6040820152731d081bdddb995c881b9bdc88185c1c1c9bdd995960621b606082015260800190565b600081614fe257614fe2614d48565b506000190190565b6020808252602a908201527f455243323938313a20726f79616c7479206665652077696c6c206578636565646040820152692073616c65507269636560b01b606082015260800190565b80516020808301519190811015614df75760001960209190910360031b1b16919050565b6000835161506a8184602088016144bb565b83519083019061507e8183602088016144bb565b01949350505050565b7f416363657373436f6e74726f6c3a206163636f756e74200000000000000000008152600083516150bf8160178501602088016144bb565b7001034b99036b4b9b9b4b733903937b6329607d1b60179184019182015283516150f08160288401602088016144bb565b01602801949350505050565b828152604060208201526000612a2960408301846144df565b600082516151278184602087016144bb565b9190910192915050565b60006020828403121561514357600080fd5b8151610e3081614488565b634e487b7160e01b600052603160045260246000fd5b60208082526035908201527f4552433732315073693a207472616e7366657220746f206e6f6e20455243373260408201527418a932b1b2b4bb32b91034b6b83632b6b2b73a32b960591b606082015260800190565b634e487b7160e01b600052602160045260246000fd5b60208082526032908201527f4552433732313a207472616e7366657220746f206e6f6e20455243373231526560408201527131b2b4bb32b91034b6b83632b6b2b73a32b960711b606082015260800190565b6001600160a01b0385811682528416602082015260408101839052608060608201819052600090615254908301846144df565b9695505050505050565b60208082526025908201527f4552433732313a207472616e736665722066726f6d20696e636f72726563742060408201526437bbb732b960d91b60608201526080019056feddf252ad1be2c89b69c2b068fc378daa952ba7f163c4a11628f55a4df523b3ef0001020903110a19042112290b311a3905412245134d2a550c5d32651b6d3a7506264262237d468514804e8d2b95569d0d495ea533a966b11c886eb93bc176c9071727374353637324837e9b47af86c7155181ad4fd18ed32c9096db57d59ee30e2e4a6a5f92a6be3498aae067ddb2eb1d5989b56fd7baf33ca0c2ee77e5caf7ff0810182028303840444c545c646c7425617c847f8c949c48a4a8b087b8c0c816365272829aaec650acd0d28fdad4e22d6991bd97dfdcea58b4d6f29fede4f6fe0f1f2f3f4b5b6b607b8b93a3a7b7bf357199c5abcfd9e168bcdee9b3f1ecf5fd1e3e5a7a8aa2b670c4ced8bbe8f0f4fc3d79a1c3cde7effb78cce6facbf9f8a26469706673582212207c1340e2d1c7a6af058cbb35c7f1065a255bd81a470929fa89ee68ccabc5922664736f6c63430008110033",
  "linkReferences": {},
  "deployedLinkReferences": {}
}