{
  "_format": "hh-sol-artifact-1",
  "contractName": "ImmutableERC721MintByID",
  "sourceName": "contracts/token/erc721/preset/ImmutableERC721MintByID.sol",
  "abi": [
    {
      "inputs": [
        {
          "internalType": "address",
          "name": "owner",
          "type": "address"
        },
        {
          "internalType": "string",
          "name": "name_",
          "type": "string"
        },
        {
          "internalType": "string",
          "name": "symbol_",
          "type": "string"
        },
        {
          "internalType": "string",
          "name": "baseURI_",
          "type": "string"
        },
        {
          "internalType": "string",
          "name": "contractURI_",
          "type": "string"
        },
        {
          "internalType": "address",
          "name": "_royaltyAllowlist",
          "type": "address"
        },
        {
          "internalType": "address",
          "name": "_receiver",
          "type": "address"
        },
        {
          "internalType": "uint96",
          "name": "_feeNumerator",
          "type": "uint96"
        }
      ],
      "stateMutability": "nonpayable",
      "type": "constructor"
    },
    {
      "inputs": [
        {
          "internalType": "address",
          "name": "target",
          "type": "address"
        }
      ],
      "name": "ApproveTargetNotInAllowlist",
      "type": "error"
    },
    {
      "inputs": [
        {
          "internalType": "address",
          "name": "approver",
          "type": "address"
        }
      ],
      "name": "ApproverNotInAllowlist",
      "type": "error"
    },
    {
      "inputs": [
        {
          "internalType": "address",
          "name": "caller",
          "type": "address"
        }
      ],
      "name": "CallerNotInAllowlist",
      "type": "error"
    },
    {
      "inputs": [
        {
          "internalType": "uint256",
          "name": "tokenId",
          "type": "uint256"
        }
      ],
      "name": "IImmutableERC721IDAboveThreshold",
      "type": "error"
    },
    {
      "inputs": [
        {
          "internalType": "uint256",
          "name": "tokenId",
          "type": "uint256"
        },
        {
          "internalType": "address",
          "name": "currentOwner",
          "type": "address"
        }
      ],
      "name": "IImmutableERC721MismatchedTokenOwner",
      "type": "error"
    },
    {
      "inputs": [],
      "name": "IImmutableERC721MismatchedTransferLengths",
      "type": "error"
    },
    {
      "inputs": [
        {
          "internalType": "uint256",
          "name": "tokenId",
          "type": "uint256"
        }
      ],
      "name": "IImmutableERC721NotOwnerOrOperator",
      "type": "error"
    },
    {
      "inputs": [],
      "name": "IImmutableERC721SendingToZerothAddress",
      "type": "error"
    },
    {
      "inputs": [
        {
          "internalType": "uint256",
          "name": "tokenId",
          "type": "uint256"
        }
      ],
      "name": "IImmutableERC721TokenAlreadyBurned",
      "type": "error"
    },
    {
      "inputs": [],
      "name": "RoyaltyEnforcementDoesNotImplementRequiredInterface",
      "type": "error"
    },
    {
      "inputs": [
        {
          "internalType": "address",
          "name": "from",
          "type": "address"
        }
      ],
      "name": "TransferFromNotInAllowlist",
      "type": "error"
    },
    {
      "inputs": [
        {
          "internalType": "address",
          "name": "to",
          "type": "address"
        }
      ],
      "name": "TransferToNotInAllowlist",
      "type": "error"
    },
    {
      "anonymous": false,
      "inputs": [
        {
          "indexed": true,
          "internalType": "address",
          "name": "owner",
          "type": "address"
        },
        {
          "indexed": true,
          "internalType": "address",
          "name": "approved",
          "type": "address"
        },
        {
          "indexed": true,
          "internalType": "uint256",
          "name": "tokenId",
          "type": "uint256"
        }
      ],
      "name": "Approval",
      "type": "event"
    },
    {
      "anonymous": false,
      "inputs": [
        {
          "indexed": true,
          "internalType": "address",
          "name": "owner",
          "type": "address"
        },
        {
          "indexed": true,
          "internalType": "address",
          "name": "operator",
          "type": "address"
        },
        {
          "indexed": false,
          "internalType": "bool",
          "name": "approved",
          "type": "bool"
        }
      ],
      "name": "ApprovalForAll",
      "type": "event"
    },
    {
      "anonymous": false,
      "inputs": [
        {
          "indexed": true,
          "internalType": "bytes32",
          "name": "role",
          "type": "bytes32"
        },
        {
          "indexed": true,
          "internalType": "bytes32",
          "name": "previousAdminRole",
          "type": "bytes32"
        },
        {
          "indexed": true,
          "internalType": "bytes32",
          "name": "newAdminRole",
          "type": "bytes32"
        }
      ],
      "name": "RoleAdminChanged",
      "type": "event"
    },
    {
      "anonymous": false,
      "inputs": [
        {
          "indexed": true,
          "internalType": "bytes32",
          "name": "role",
          "type": "bytes32"
        },
        {
          "indexed": true,
          "internalType": "address",
          "name": "account",
          "type": "address"
        },
        {
          "indexed": true,
          "internalType": "address",
          "name": "sender",
          "type": "address"
        }
      ],
      "name": "RoleGranted",
      "type": "event"
    },
    {
      "anonymous": false,
      "inputs": [
        {
          "indexed": true,
          "internalType": "bytes32",
          "name": "role",
          "type": "bytes32"
        },
        {
          "indexed": true,
          "internalType": "address",
          "name": "account",
          "type": "address"
        },
        {
          "indexed": true,
          "internalType": "address",
          "name": "sender",
          "type": "address"
        }
      ],
      "name": "RoleRevoked",
      "type": "event"
    },
    {
      "anonymous": false,
      "inputs": [
        {
          "indexed": false,
          "internalType": "address",
          "name": "oldRegistry",
          "type": "address"
        },
        {
          "indexed": false,
          "internalType": "address",
          "name": "newRegistry",
          "type": "address"
        }
      ],
      "name": "RoyaltyAllowlistRegistryUpdated",
      "type": "event"
    },
    {
      "anonymous": false,
      "inputs": [
        {
          "indexed": true,
          "internalType": "address",
          "name": "from",
          "type": "address"
        },
        {
          "indexed": true,
          "internalType": "address",
          "name": "to",
          "type": "address"
        },
        {
          "indexed": true,
          "internalType": "uint256",
          "name": "tokenId",
          "type": "uint256"
        }
      ],
      "name": "Transfer",
      "type": "event"
    },
    {
      "inputs": [],
      "name": "DEFAULT_ADMIN_ROLE",
      "outputs": [
        {
          "internalType": "bytes32",
          "name": "",
          "type": "bytes32"
        }
      ],
      "stateMutability": "view",
      "type": "function"
    },
    {
      "inputs": [],
      "name": "MINTER_ROLE",
      "outputs": [
        {
          "internalType": "bytes32",
          "name": "",
          "type": "bytes32"
        }
      ],
      "stateMutability": "view",
      "type": "function"
    },
    {
      "inputs": [
        {
          "components": [
            {
              "internalType": "address",
              "name": "owner",
              "type": "address"
            },
            {
              "internalType": "uint256[]",
              "name": "tokenIds",
              "type": "uint256[]"
            }
          ],
          "internalType": "struct ImmutableERC721Base.IDBurn[]",
          "name": "burns",
          "type": "tuple[]"
        }
      ],
      "name": "_safeBurnBatch",
      "outputs": [],
      "stateMutability": "nonpayable",
      "type": "function"
    },
    {
      "inputs": [],
      "name": "_totalSupply",
      "outputs": [
        {
          "internalType": "uint256",
          "name": "",
          "type": "uint256"
        }
      ],
      "stateMutability": "view",
      "type": "function"
    },
    {
      "inputs": [
        {
          "internalType": "address",
          "name": "to",
          "type": "address"
        },
        {
          "internalType": "uint256",
          "name": "tokenId",
          "type": "uint256"
        }
      ],
      "name": "approve",
      "outputs": [],
      "stateMutability": "nonpayable",
      "type": "function"
    },
    {
      "inputs": [
        {
          "internalType": "address",
          "name": "owner",
          "type": "address"
        }
      ],
      "name": "balanceOf",
      "outputs": [
        {
          "internalType": "uint256",
          "name": "",
          "type": "uint256"
        }
      ],
      "stateMutability": "view",
      "type": "function"
    },
    {
      "inputs": [],
      "name": "baseURI",
      "outputs": [
        {
          "internalType": "string",
          "name": "",
          "type": "string"
        }
      ],
      "stateMutability": "view",
      "type": "function"
    },
    {
      "inputs": [
        {
          "internalType": "uint256",
          "name": "tokenId",
          "type": "uint256"
        }
      ],
      "name": "burn",
      "outputs": [],
      "stateMutability": "nonpayable",
      "type": "function"
    },
    {
      "inputs": [
        {
          "internalType": "uint256[]",
          "name": "tokenIDs",
          "type": "uint256[]"
        }
      ],
      "name": "burnBatch",
      "outputs": [],
      "stateMutability": "nonpayable",
      "type": "function"
    },
    {
      "inputs": [],
      "name": "contractURI",
      "outputs": [
        {
          "internalType": "string",
          "name": "",
          "type": "string"
        }
      ],
      "stateMutability": "view",
      "type": "function"
    },
    {
      "inputs": [],
      "name": "getAdmins",
      "outputs": [
        {
          "internalType": "address[]",
          "name": "",
          "type": "address[]"
        }
      ],
      "stateMutability": "view",
      "type": "function"
    },
    {
      "inputs": [
        {
          "internalType": "uint256",
          "name": "tokenId",
          "type": "uint256"
        }
      ],
      "name": "getApproved",
      "outputs": [
        {
          "internalType": "address",
          "name": "",
          "type": "address"
        }
      ],
      "stateMutability": "view",
      "type": "function"
    },
    {
      "inputs": [
        {
          "internalType": "bytes32",
          "name": "role",
          "type": "bytes32"
        }
      ],
      "name": "getRoleAdmin",
      "outputs": [
        {
          "internalType": "bytes32",
          "name": "",
          "type": "bytes32"
        }
      ],
      "stateMutability": "view",
      "type": "function"
    },
    {
      "inputs": [
        {
          "internalType": "bytes32",
          "name": "role",
          "type": "bytes32"
        },
        {
          "internalType": "uint256",
          "name": "index",
          "type": "uint256"
        }
      ],
      "name": "getRoleMember",
      "outputs": [
        {
          "internalType": "address",
          "name": "",
          "type": "address"
        }
      ],
      "stateMutability": "view",
      "type": "function"
    },
    {
      "inputs": [
        {
          "internalType": "bytes32",
          "name": "role",
          "type": "bytes32"
        }
      ],
      "name": "getRoleMemberCount",
      "outputs": [
        {
          "internalType": "uint256",
          "name": "",
          "type": "uint256"
        }
      ],
      "stateMutability": "view",
      "type": "function"
    },
    {
      "inputs": [
        {
          "internalType": "address",
          "name": "user",
          "type": "address"
        }
      ],
      "name": "grantMinterRole",
      "outputs": [],
      "stateMutability": "nonpayable",
      "type": "function"
    },
    {
      "inputs": [
        {
          "internalType": "bytes32",
          "name": "role",
          "type": "bytes32"
        },
        {
          "internalType": "address",
          "name": "account",
          "type": "address"
        }
      ],
      "name": "grantRole",
      "outputs": [],
      "stateMutability": "nonpayable",
      "type": "function"
    },
    {
      "inputs": [
        {
          "internalType": "bytes32",
          "name": "role",
          "type": "bytes32"
        },
        {
          "internalType": "address",
          "name": "account",
          "type": "address"
        }
      ],
      "name": "hasRole",
      "outputs": [
        {
          "internalType": "bool",
          "name": "",
          "type": "bool"
        }
      ],
      "stateMutability": "view",
      "type": "function"
    },
    {
      "inputs": [
        {
          "internalType": "address",
          "name": "owner",
          "type": "address"
        },
        {
          "internalType": "address",
          "name": "operator",
          "type": "address"
        }
      ],
      "name": "isApprovedForAll",
      "outputs": [
        {
          "internalType": "bool",
          "name": "",
          "type": "bool"
        }
      ],
      "stateMutability": "view",
      "type": "function"
    },
    {
      "inputs": [
        {
          "internalType": "address",
          "name": "to",
          "type": "address"
        },
        {
          "internalType": "uint256",
          "name": "tokenID",
          "type": "uint256"
        }
      ],
      "name": "mint",
      "outputs": [],
      "stateMutability": "nonpayable",
      "type": "function"
    },
    {
      "inputs": [
        {
          "components": [
            {
              "internalType": "address",
              "name": "to",
              "type": "address"
            },
            {
              "internalType": "uint256[]",
              "name": "tokenIds",
              "type": "uint256[]"
            }
          ],
          "internalType": "struct ImmutableERC721Base.IDMint[]",
          "name": "mintRequests",
          "type": "tuple[]"
        }
      ],
      "name": "mintBatch",
      "outputs": [],
      "stateMutability": "nonpayable",
      "type": "function"
    },
    {
      "inputs": [],
      "name": "name",
      "outputs": [
        {
          "internalType": "string",
          "name": "",
          "type": "string"
        }
      ],
      "stateMutability": "view",
      "type": "function"
    },
    {
      "inputs": [
        {
          "internalType": "uint256",
          "name": "tokenId",
          "type": "uint256"
        }
      ],
      "name": "ownerOf",
      "outputs": [
        {
          "internalType": "address",
          "name": "",
          "type": "address"
        }
      ],
      "stateMutability": "view",
      "type": "function"
    },
    {
      "inputs": [
        {
          "internalType": "bytes32",
          "name": "role",
          "type": "bytes32"
        },
        {
          "internalType": "address",
          "name": "account",
          "type": "address"
        }
      ],
      "name": "renounceRole",
      "outputs": [],
      "stateMutability": "nonpayable",
      "type": "function"
    },
    {
      "inputs": [
        {
          "internalType": "address",
          "name": "user",
          "type": "address"
        }
      ],
      "name": "revokeMinterRole",
      "outputs": [],
      "stateMutability": "nonpayable",
      "type": "function"
    },
    {
      "inputs": [
        {
          "internalType": "bytes32",
          "name": "role",
          "type": "bytes32"
        },
        {
          "internalType": "address",
          "name": "account",
          "type": "address"
        }
      ],
      "name": "revokeRole",
      "outputs": [],
      "stateMutability": "nonpayable",
      "type": "function"
    },
    {
      "inputs": [],
      "name": "royaltyAllowlist",
      "outputs": [
        {
          "internalType": "contract IRoyaltyAllowlist",
          "name": "",
          "type": "address"
        }
      ],
      "stateMutability": "view",
      "type": "function"
    },
    {
      "inputs": [
        {
          "internalType": "uint256",
          "name": "tokenId",
          "type": "uint256"
        },
        {
          "internalType": "uint256",
          "name": "salePrice",
          "type": "uint256"
        }
      ],
      "name": "royaltyInfo",
      "outputs": [
        {
          "internalType": "address",
          "name": "",
          "type": "address"
        },
        {
          "internalType": "uint256",
          "name": "",
          "type": "uint256"
        }
      ],
      "stateMutability": "view",
      "type": "function"
    },
    {
      "inputs": [
        {
          "internalType": "address",
          "name": "owner",
          "type": "address"
        },
        {
          "internalType": "uint256",
          "name": "tokenId",
          "type": "uint256"
        }
      ],
      "name": "safeBurn",
      "outputs": [],
      "stateMutability": "nonpayable",
      "type": "function"
    },
    {
      "inputs": [
        {
          "components": [
            {
              "internalType": "address",
              "name": "owner",
              "type": "address"
            },
            {
              "internalType": "uint256[]",
              "name": "tokenIds",
              "type": "uint256[]"
            }
          ],
          "internalType": "struct ImmutableERC721Base.IDBurn[]",
          "name": "burns",
          "type": "tuple[]"
        }
      ],
      "name": "safeBurnBatch",
      "outputs": [],
      "stateMutability": "nonpayable",
      "type": "function"
    },
    {
      "inputs": [
        {
          "internalType": "address",
          "name": "to",
          "type": "address"
        },
        {
          "internalType": "uint256",
          "name": "tokenID",
          "type": "uint256"
        }
      ],
      "name": "safeMint",
      "outputs": [],
      "stateMutability": "nonpayable",
      "type": "function"
    },
    {
      "inputs": [
        {
          "components": [
            {
              "internalType": "address",
              "name": "to",
              "type": "address"
            },
            {
              "internalType": "uint256[]",
              "name": "tokenIds",
              "type": "uint256[]"
            }
          ],
          "internalType": "struct ImmutableERC721Base.IDMint[]",
          "name": "mintRequests",
          "type": "tuple[]"
        }
      ],
      "name": "safeMintBatch",
      "outputs": [],
      "stateMutability": "nonpayable",
      "type": "function"
    },
    {
      "inputs": [
        {
          "internalType": "address",
          "name": "from",
          "type": "address"
        },
        {
          "internalType": "address",
          "name": "to",
          "type": "address"
        },
        {
          "internalType": "uint256",
          "name": "tokenId",
          "type": "uint256"
        }
      ],
      "name": "safeTransferFrom",
      "outputs": [],
      "stateMutability": "nonpayable",
      "type": "function"
    },
    {
      "inputs": [
        {
          "internalType": "address",
          "name": "from",
          "type": "address"
        },
        {
          "internalType": "address",
          "name": "to",
          "type": "address"
        },
        {
          "internalType": "uint256",
          "name": "tokenId",
          "type": "uint256"
        },
        {
          "internalType": "bytes",
          "name": "data",
          "type": "bytes"
        }
      ],
      "name": "safeTransferFrom",
      "outputs": [],
      "stateMutability": "nonpayable",
      "type": "function"
    },
    {
      "inputs": [
        {
          "components": [
            {
              "internalType": "address",
              "name": "from",
              "type": "address"
            },
            {
              "internalType": "address[]",
              "name": "tos",
              "type": "address[]"
            },
            {
              "internalType": "uint256[]",
              "name": "tokenIds",
              "type": "uint256[]"
            }
          ],
          "internalType": "struct ImmutableERC721Base.TransferRequest",
          "name": "tr",
          "type": "tuple"
        }
      ],
      "name": "safeTransferFromBatch",
      "outputs": [],
      "stateMutability": "nonpayable",
      "type": "function"
    },
    {
      "inputs": [
        {
          "internalType": "address",
          "name": "operator",
          "type": "address"
        },
        {
          "internalType": "bool",
          "name": "approved",
          "type": "bool"
        }
      ],
      "name": "setApprovalForAll",
      "outputs": [],
      "stateMutability": "nonpayable",
      "type": "function"
    },
    {
      "inputs": [
        {
          "internalType": "string",
          "name": "baseURI_",
          "type": "string"
        }
      ],
      "name": "setBaseURI",
      "outputs": [],
      "stateMutability": "nonpayable",
      "type": "function"
    },
    {
      "inputs": [
        {
          "internalType": "string",
          "name": "_contractURI",
          "type": "string"
        }
      ],
      "name": "setContractURI",
      "outputs": [],
      "stateMutability": "nonpayable",
      "type": "function"
    },
    {
      "inputs": [
        {
          "internalType": "address",
          "name": "receiver",
          "type": "address"
        },
        {
          "internalType": "uint96",
          "name": "feeNumerator",
          "type": "uint96"
        }
      ],
      "name": "setDefaultRoyaltyReceiver",
      "outputs": [],
      "stateMutability": "nonpayable",
      "type": "function"
    },
    {
      "inputs": [
        {
          "internalType": "uint256",
          "name": "tokenId",
          "type": "uint256"
        },
        {
          "internalType": "address",
          "name": "receiver",
          "type": "address"
        },
        {
          "internalType": "uint96",
          "name": "feeNumerator",
          "type": "uint96"
        }
      ],
      "name": "setNFTRoyaltyReceiver",
      "outputs": [],
      "stateMutability": "nonpayable",
      "type": "function"
    },
    {
      "inputs": [
        {
          "internalType": "uint256[]",
          "name": "tokenIds",
          "type": "uint256[]"
        },
        {
          "internalType": "address",
          "name": "receiver",
          "type": "address"
        },
        {
          "internalType": "uint96",
          "name": "feeNumerator",
          "type": "uint96"
        }
      ],
      "name": "setNFTRoyaltyReceiverBatch",
      "outputs": [],
      "stateMutability": "nonpayable",
      "type": "function"
    },
    {
      "inputs": [
        {
          "internalType": "address",
          "name": "_royaltyAllowlist",
          "type": "address"
        }
      ],
      "name": "setRoyaltyAllowlistRegistry",
      "outputs": [],
      "stateMutability": "nonpayable",
      "type": "function"
    },
    {
      "inputs": [
        {
          "internalType": "bytes4",
          "name": "interfaceId",
          "type": "bytes4"
        }
      ],
      "name": "supportsInterface",
      "outputs": [
        {
          "internalType": "bool",
          "name": "",
          "type": "bool"
        }
      ],
      "stateMutability": "view",
      "type": "function"
    },
    {
      "inputs": [],
      "name": "symbol",
      "outputs": [
        {
          "internalType": "string",
          "name": "",
          "type": "string"
        }
      ],
      "stateMutability": "view",
      "type": "function"
    },
    {
      "inputs": [
        {
          "internalType": "uint256",
          "name": "tokenId",
          "type": "uint256"
        }
      ],
      "name": "tokenURI",
      "outputs": [
        {
          "internalType": "string",
          "name": "",
          "type": "string"
        }
      ],
      "stateMutability": "view",
      "type": "function"
    },
    {
      "inputs": [],
      "name": "totalSupply",
      "outputs": [
        {
          "internalType": "uint256",
          "name": "",
          "type": "uint256"
        }
      ],
      "stateMutability": "view",
      "type": "function"
    },
    {
      "inputs": [
        {
          "internalType": "address",
          "name": "from",
          "type": "address"
        },
        {
          "internalType": "address",
          "name": "to",
          "type": "address"
        },
        {
          "internalType": "uint256",
          "name": "tokenId",
          "type": "uint256"
        }
      ],
      "name": "transferFrom",
      "outputs": [],
      "stateMutability": "nonpayable",
      "type": "function"
    }
  ],
  "bytecode": "0x60806040523480156200001157600080fd5b5060405162003c7938038062003c79833981016040819052620000349162000506565b8787878787878787868660036200004c838262000699565b5060046200005b828262000699565b506200006d91506000905089620000b8565b620000798282620000fb565b620000848362000200565b600c62000092868262000699565b50600b620000a1858262000699565b505050505050505050505050505050505062000790565b620000cf8282620002f960201b6200135e1760201c565b6000828152600160209081526040909120620000f6918390620013e26200039a821b17901c565b505050565b6127106001600160601b03821611156200016f5760405162461bcd60e51b815260206004820152602a60248201527f455243323938313a20726f79616c7479206665652077696c6c206578636565646044820152692073616c65507269636560b01b60648201526084015b60405180910390fd5b6001600160a01b038216620001c75760405162461bcd60e51b815260206004820152601960248201527f455243323938313a20696e76616c696420726563656976657200000000000000604482015260640162000166565b604080518082019091526001600160a01b039092168083526001600160601b039091166020909201829052600160a01b90910217600955565b6040516301ffc9a760e01b81526305a3b80960e01b60048201526001600160a01b038216906301ffc9a790602401602060405180830381865afa1580156200024c573d6000803e3d6000fd5b505050506040513d601f19601f8201168201806040525081019062000272919062000765565b6200029057604051631353be1160e11b815260040160405180910390fd5b600254604080516001600160a01b03928316815291831660208301527ff499b54d61d3fcb40299e3299af3ffe9ef1ee6e47194240f3cc5b6e09f7f6796910160405180910390a1600280546001600160a01b0319166001600160a01b0392909216919091179055565b6000828152602081815260408083206001600160a01b038516845290915290205460ff1662000396576000828152602081815260408083206001600160a01b03851684529091529020805460ff19166001179055620003553390565b6001600160a01b0316816001600160a01b0316837f2f8788117e7eff1d82e926ec794901d17c78024a50270940304540a733656f0d60405160405180910390a45b5050565b6000620003b1836001600160a01b038416620003ba565b90505b92915050565b60008181526001830160205260408120546200040357508154600181810184556000848152602080822090930184905584548482528286019093526040902091909155620003b4565b506000620003b4565b80516001600160a01b03811681146200042457600080fd5b919050565b634e487b7160e01b600052604160045260246000fd5b600082601f8301126200045157600080fd5b81516001600160401b03808211156200046e576200046e62000429565b604051601f8301601f19908116603f0116810190828211818310171562000499576200049962000429565b81604052838152602092508683858801011115620004b657600080fd5b600091505b83821015620004da5785820183015181830184015290820190620004bb565b600093810190920192909252949350505050565b80516001600160601b03811681146200042457600080fd5b600080600080600080600080610100898b0312156200052457600080fd5b6200052f896200040c565b60208a01519098506001600160401b03808211156200054d57600080fd5b6200055b8c838d016200043f565b985060408b01519150808211156200057257600080fd5b620005808c838d016200043f565b975060608b01519150808211156200059757600080fd5b620005a58c838d016200043f565b965060808b0151915080821115620005bc57600080fd5b50620005cb8b828c016200043f565b945050620005dc60a08a016200040c565b9250620005ec60c08a016200040c565b9150620005fc60e08a01620004ee565b90509295985092959890939650565b600181811c908216806200062057607f821691505b6020821081036200064157634e487b7160e01b600052602260045260246000fd5b50919050565b601f821115620000f657600081815260208120601f850160051c81016020861015620006705750805b601f850160051c820191505b8181101562000691578281556001016200067c565b505050505050565b81516001600160401b03811115620006b557620006b562000429565b620006cd81620006c684546200060b565b8462000647565b602080601f831160018114620007055760008415620006ec5750858301515b600019600386901b1c1916600185901b17855562000691565b600085815260208120601f198616915b82811015620007365788860151825594840194600190910190840162000715565b5085821015620007555787850151600019600388901b60f8161c191681555b5050505050600190811b01905550565b6000602082840312156200077857600080fd5b815180151581146200078957600080fd5b9392505050565b6134d980620007a06000396000f3fe608060405234801561001057600080fd5b50600436106102945760003560e01c806369e2f0fb11610167578063a1448194116100ce578063ca15c87311610087578063ca15c873146105da578063d5391393146105ed578063d547741f14610602578063e4623c1b14610615578063e8a3d48514610628578063e985e9c51461063057600080fd5b8063a144819414610573578063a217fddf14610586578063a22cb4651461058e578063a7012816146105a1578063b88d4fde146105b4578063c87b56dd146105c757600080fd5b80639010d07c116101205780639010d07c1461050c57806391d148541461051f578063938e3d7b1461053257806395d89b41146105455780639e2641a31461054d5780639f15d7001461056057600080fd5b806369e2f0fb146104a55780636b3a0632146104b85780636c0360eb146104cb57806370a08231146104d357806374f16a81146104e6578063885e7a08146104f957600080fd5b806331ae450b1161020b57806342842e0e116101c457806342842e0e1461043357806342966c6814610446578063439aed341461045957806355f804b31461046c5780636352211e1461047f5780636588962a1461049257600080fd5b806331ae450b146103c957806336568abe146103de5780633dd1eb61146103f15780633e769acd146104045780633eaaf86b1461041757806340c10f191461042057600080fd5b806318160ddd1161025d57806318160ddd14610329578063234af0461461033b57806323b872dd1461034e578063248a9ca3146103615780632a55205a146103845780632f2ff15d146103b657600080fd5b80628ad9461461029957806301ffc9a7146102ae57806306fdde03146102d6578063081812fc146102eb578063095ea7b314610316575b600080fd5b6102ac6102a7366004612907565b61066c565b005b6102c16102bc366004612957565b610742565b60405190151581526020015b60405180910390f35b6102de610753565b6040516102cd91906129c4565b6102fe6102f93660046129d7565b6107e5565b6040516001600160a01b0390911681526020016102cd565b6102ac610324366004612a0c565b61080c565b600d545b6040519081526020016102cd565b6102ac610349366004612bd8565b610967565b6102ac61035c366004612c20565b6109bf565b61032d61036f3660046129d7565b60009081526020819052604090206001015490565b610397610392366004612c5c565b6109f1565b604080516001600160a01b0390931683526020830191909152016102cd565b6102ac6103c4366004612c7e565b610a9f565b6103d1610ac4565b6040516102cd9190612caa565b6102ac6103ec366004612c7e565b610b72565b6102ac6103ff366004612cf7565b610bec565b6102ac610412366004612bd8565b610c0f565b61032d600d5481565b6102ac61042e366004612a0c565b610c9b565b6102ac610441366004612c20565b610cd7565b6102ac6104543660046129d7565b610cf2565b6102ac610467366004612d29565b610d30565b6102ac61047a366004612dbc565b610d59565b6102fe61048d3660046129d7565b610d70565b6102ac6104a0366004612cf7565b610dd0565b6102ac6104b3366004612cf7565b610de4565b6002546102fe906001600160a01b031681565b6102de610e07565b61032d6104e1366004612cf7565b610e95565b6102ac6104f4366004612bd8565b610f1b565b6102ac610507366004612e04565b610f27565b6102fe61051a366004612c5c565b610f3c565b6102c161052d366004612c7e565b610f5b565b6102ac610540366004612dbc565b610f84565b6102de610f9b565b6102ac61055b366004612bd8565b610faa565b6102ac61056e366004612a0c565b611002565b6102ac610581366004612a0c565b61105c565b61032d600081565b6102ac61059c366004612e3c565b61108e565b6102ac6105af366004612eb7565b6111df565b6102ac6105c2366004612f1b565b61123f565b6102de6105d53660046129d7565b611271565b61032d6105e83660046129d7565b6112d7565b61032d6a4d494e5445525f524f4c4560a81b81565b6102ac610610366004612c7e565b6112ee565b6102ac610623366004612f96565b611313565b6102de611351565b6102c161063e366004612fd7565b6001600160a01b03918216600090815260086020908152604080832093909416825291909152205460ff1690565b6106796020820182613001565b90506106886040830183613001565b9050146106a85760405163359a1bc360e01b815260040160405180910390fd5b60005b6106b86040830183613001565b905081101561073e5761072c6106d16020840184612cf7565b6106de6020850185613001565b848181106106ee576106ee61304a565b90506020020160208101906107039190612cf7565b6107106040860186613001565b858181106107205761072061304a565b90506020020135610cd7565b8061073681613076565b9150506106ab565b5050565b600061074d826113f7565b92915050565b6060600380546107629061308f565b80601f016020809104026020016040519081016040528092919081815260200182805461078e9061308f565b80156107db5780601f106107b0576101008083540402835291602001916107db565b820191906000526020600020905b8154815290600101906020018083116107be57829003601f168201915b5050505050905090565b60006107f082611402565b506000908152600760205260409020546001600160a01b031690565b81333b1580159061088657506002546040516305a3b80960e01b81523360048201526001600160a01b03909116906305a3b80990602401602060405180830381865afa158015610860573d6000803e3d6000fd5b505050506040513d601f19601f8201168201806040525081019061088491906130c9565b155b156108ab5760405163f6fa4cbd60e01b81523360048201526024015b60405180910390fd5b6001600160a01b0381163b1580159061092f57506002546040516305a3b80960e01b81526001600160a01b038381166004830152909116906305a3b80990602401602060405180830381865afa158015610909573d6000803e3d6000fd5b505050506040513d601f19601f8201168201806040525081019061092d91906130c9565b155b15610958576040516341b8d58160e11b81526001600160a01b03821660048201526024016108a2565b6109628383611461565b505050565b6a4d494e5445525f524f4c4560a81b61097f81611571565b60005b8251811015610962576109ad8382815181106109a0576109a061304a565b602002602001015161157b565b806109b781613076565b915050610982565b6109ca335b8261160a565b6109e65760405162461bcd60e51b81526004016108a2906130e6565b610962838383611689565b6000828152600a602090815260408083208151808301909252546001600160a01b038116808352600160a01b9091046001600160601b0316928201929092528291610a665750604080518082019091526009546001600160a01b0381168252600160a01b90046001600160601b031660208201525b602081015160009061271090610a85906001600160601b031687613133565b610a8f919061314a565b91519350909150505b9250929050565b600082815260208190526040902060010154610aba81611571565b6109628383611890565b60606000610ad1816112d7565b90506000816001600160401b03811115610aed57610aed612a36565b604051908082528060200260200182016040528015610b16578160200160208202803683370190505b50905060005b82811015610b6b57610b2f600082610f3c565b828281518110610b4157610b4161304a565b6001600160a01b039092166020928302919091019091015280610b6381613076565b915050610b1c565b5092915050565b6001600160a01b0381163314610be25760405162461bcd60e51b815260206004820152602f60248201527f416363657373436f6e74726f6c3a2063616e206f6e6c792072656e6f756e636560448201526e103937b632b9903337b91039b2b63360891b60648201526084016108a2565b61073e82826118b2565b6000610bf781611571565b61073e6a4d494e5445525f524f4c4560a81b83610a9f565b60005b815181101561073e576000828281518110610c2f57610c2f61304a565b6020026020010151905060005b816020015151811015610c8657610c74826000015183602001518381518110610c6757610c6761304a565b6020026020010151611002565b80610c7e81613076565b915050610c3c565b50508080610c9390613076565b915050610c12565b6a4d494e5445525f524f4c4560a81b610cb381611571565b610cbd83836118d4565b600d8054906000610ccd83613076565b9190505550505050565b6109628383836040518060200160405280600081525061123f565b610cfb8161191b565b600881901c6000908152600e602052604081208054600160ff85161b179055600d805491610d288361316c565b919050555050565b6a4d494e5445525f524f4c4560a81b610d4881611571565b610d53848484611949565b50505050565b6000610d6481611571565b600c61096283826131c9565b6000818152600560205260408120546001600160a01b03168061074d5760405162461bcd60e51b8152602060048201526018602482015277115490cdcc8c4e881a5b9d985b1a59081d1bdad95b88125160421b60448201526064016108a2565b6000610ddb81611571565b61073e82611a14565b6000610def81611571565b61073e6a4d494e5445525f524f4c4560a81b836112ee565b600c8054610e149061308f565b80601f0160208091040260200160405190810160405280929190818152602001828054610e409061308f565b8015610e8d5780601f10610e6257610100808354040283529160200191610e8d565b820191906000526020600020905b815481529060010190602001808311610e7057829003601f168201915b505050505081565b60006001600160a01b038216610eff5760405162461bcd60e51b815260206004820152602960248201527f4552433732313a2061646472657373207a65726f206973206e6f7420612076616044820152683634b21037bbb732b960b91b60648201526084016108a2565b506001600160a01b031660009081526006602052604090205490565b610f2481610c0f565b50565b6000610f3281611571565b6109628383611b09565b6000828152600160205260408120610f549083611bc3565b9392505050565b6000918252602082815260408084206001600160a01b0393909316845291905290205460ff1690565b6000610f8f81611571565b600b61096283826131c9565b6060600480546107629061308f565b6a4d494e5445525f524f4c4560a81b610fc281611571565b60005b825181101561096257610ff0838281518110610fe357610fe361304a565b6020026020010151611bcf565b80610ffa81613076565b915050610fc5565b600061100d82610d70565b9050826001600160a01b0316816001600160a01b03161461105357604051634fefd56160e01b8152600481018390526001600160a01b03821660248201526044016108a2565b61096282610cf2565b6a4d494e5445525f524f4c4560a81b61107481611571565b610cbd838360405180602001604052806000815250611c45565b81333b1580159061110857506002546040516305a3b80960e01b81523360048201526001600160a01b03909116906305a3b80990602401602060405180830381865afa1580156110e2573d6000803e3d6000fd5b505050506040513d601f19601f8201168201806040525081019061110691906130c9565b155b156111285760405163f6fa4cbd60e01b81523360048201526024016108a2565b6001600160a01b0381163b158015906111ac57506002546040516305a3b80960e01b81526001600160a01b038381166004830152909116906305a3b80990602401602060405180830381865afa158015611186573d6000803e3d6000fd5b505050506040513d601f19601f820116820180604052508101906111aa91906130c9565b155b156111d5576040516341b8d58160e11b81526001600160a01b03821660048201526024016108a2565b6109628383611c78565b6a4d494e5445525f524f4c4560a81b6111f781611571565b60005b84811015611237576112258686838181106112175761121761304a565b905060200201358585611949565b8061122f81613076565b9150506111fa565b505050505050565b611249338361160a565b6112655760405162461bcd60e51b81526004016108a2906130e6565b610d5384848484611c83565b606061127c82611402565b6000611286611cb6565b905060008151116112a65760405180602001604052806000815250610f54565b806112b084611cc5565b6040516020016112c1929190613288565b6040516020818303038152906040529392505050565b600081815260016020526040812061074d90611d57565b60008281526020819052604090206001015461130981611571565b61096283836118b2565b60005b818110156109625761133f8383838181106113335761133361304a565b90506020020135610cf2565b8061134981613076565b915050611316565b600b8054610e149061308f565b6113688282610f5b565b61073e576000828152602081815260408083206001600160a01b03851684529091529020805460ff1916600117905561139e3390565b6001600160a01b0316816001600160a01b0316837f2f8788117e7eff1d82e926ec794901d17c78024a50270940304540a733656f0d60405160405180910390a45050565b6000610f54836001600160a01b038416611d61565b600061074d82611db0565b6000818152600560205260409020546001600160a01b0316610f245760405162461bcd60e51b8152602060048201526018602482015277115490cdcc8c4e881a5b9d985b1a59081d1bdad95b88125160421b60448201526064016108a2565b600061146c82610d70565b9050806001600160a01b0316836001600160a01b0316036114d95760405162461bcd60e51b815260206004820152602160248201527f4552433732313a20617070726f76616c20746f2063757272656e74206f776e656044820152603960f91b60648201526084016108a2565b336001600160a01b03821614806114f557506114f5813361063e565b6115675760405162461bcd60e51b815260206004820152603d60248201527f4552433732313a20617070726f76652063616c6c6572206973206e6f7420746f60448201527f6b656e206f776e6572206f7220617070726f76656420666f7220616c6c00000060648201526084016108a2565b6109628383611dd5565b610f248133611e43565b80516001600160a01b03166115a3576040516331c3e52960e11b815260040160405180910390fd5b60005b8160200151518110156115f0576115de8260000151836020015183815181106115d1576115d161304a565b6020026020010151611e9c565b806115e881613076565b9150506115a6565b50806020015151600d5461160491906132b7565b600d5550565b60008061161683610d70565b9050806001600160a01b0316846001600160a01b0316148061165d57506001600160a01b0380821660009081526008602090815260408083209388168352929052205460ff165b806116815750836001600160a01b0316611676846107e5565b6001600160a01b0316145b949350505050565b828233321480159061170457506002546040516305a3b80960e01b81523360048201526001600160a01b03909116906305a3b80990602401602060405180830381865afa1580156116de573d6000803e3d6000fd5b505050506040513d601f19601f8201168201806040525081019061170291906130c9565b155b156117245760405163937db65f60e01b81523360048201526024016108a2565b6001600160a01b0382163b158015906117a857506002546040516305a3b80960e01b81526001600160a01b038481166004830152909116906305a3b80990602401602060405180830381865afa158015611782573d6000803e3d6000fd5b505050506040513d601f19601f820116820180604052508101906117a691906130c9565b155b156117d15760405163f934453160e01b81526001600160a01b03831660048201526024016108a2565b6001600160a01b0381163b1580159061185557506002546040516305a3b80960e01b81526001600160a01b038381166004830152909116906305a3b80990602401602060405180830381865afa15801561182f573d6000803e3d6000fd5b505050506040513d601f19601f8201168201806040525081019061185391906130c9565b155b1561187e57604051632a67242160e11b81526001600160a01b03821660048201526024016108a2565b611889858585611ee3565b5050505050565b61189a828261135e565b600082815260016020526040902061096290826113e2565b6118bc8282612047565b600082815260016020526040902061096290826120ac565b600881901c6000908152600e6020526040902054600160ff83161b1615611911576040516305dcda1160e51b8152600481018290526024016108a2565b61073e82826120c1565b611924336109c4565b6119405760405162461bcd60e51b81526004016108a2906130e6565b610f248161224c565b6127106001600160601b03821611156119745760405162461bcd60e51b81526004016108a2906132ca565b6001600160a01b0382166119ca5760405162461bcd60e51b815260206004820152601b60248201527f455243323938313a20496e76616c696420706172616d6574657273000000000060448201526064016108a2565b6040805180820182526001600160a01b0393841681526001600160601b0392831660208083019182526000968752600a90529190942093519051909116600160a01b029116179055565b6040516301ffc9a760e01b81526305a3b80960e01b60048201526001600160a01b038216906301ffc9a790602401602060405180830381865afa158015611a5f573d6000803e3d6000fd5b505050506040513d601f19601f82011682018060405250810190611a8391906130c9565b611aa057604051631353be1160e11b815260040160405180910390fd5b600254604080516001600160a01b03928316815291831660208301527ff499b54d61d3fcb40299e3299af3ffe9ef1ee6e47194240f3cc5b6e09f7f6796910160405180910390a1600280546001600160a01b0319166001600160a01b0392909216919091179055565b6127106001600160601b0382161115611b345760405162461bcd60e51b81526004016108a2906132ca565b6001600160a01b038216611b8a5760405162461bcd60e51b815260206004820152601960248201527f455243323938313a20696e76616c69642072656365697665720000000000000060448201526064016108a2565b604080518082019091526001600160a01b039092168083526001600160601b039091166020909201829052600160a01b90910217600955565b6000610f5483836122e1565b80516001600160a01b031615611bf8576040516331c3e52960e11b815260040160405180910390fd5b60005b8160200151518110156115f057611c33826000015183602001518381518110611c2657611c2661304a565b60200260200101516118d4565b80611c3d81613076565b915050611bfb565b611c4f83836118d4565b611c5c600084848461230b565b6109625760405162461bcd60e51b81526004016108a290613314565b61073e33838361240c565b611c8e848484611689565b611c9a8484848461230b565b610d535760405162461bcd60e51b81526004016108a290613314565b6060600c80546107629061308f565b60606000611cd2836124da565b60010190506000816001600160401b03811115611cf157611cf1612a36565b6040519080825280601f01601f191660200182016040528015611d1b576020820181803683370190505b5090508181016020015b600019016f181899199a1a9b1b9c1cb0b131b232b360811b600a86061a8153600a8504945084611d2557509392505050565b600061074d825490565b6000818152600183016020526040812054611da85750815460018181018455600084815260208082209093018490558454848252828601909352604090209190915561074d565b50600061074d565b60006001600160e01b0319821663152a902d60e11b148061074d575061074d826125b2565b600081815260076020526040902080546001600160a01b0319166001600160a01b0384169081179091558190611e0a82610d70565b6001600160a01b03167f8c5be1e5ebec7d5bd14f71427d1e84f3dd0314c0f7b2291e5b200ac8c7c3b92560405160405180910390a45050565b611e4d8282610f5b565b61073e57611e5a816125f2565b611e65836020612604565b604051602001611e76929190613366565b60408051601f198184030181529082905262461bcd60e51b82526108a2916004016129c4565b600881901c6000908152600e6020526040902054600160ff83161b1615611ed9576040516305dcda1160e51b8152600481018290526024016108a2565b61073e828261279f565b826001600160a01b0316611ef682610d70565b6001600160a01b031614611f1c5760405162461bcd60e51b81526004016108a2906133db565b6001600160a01b038216611f7e5760405162461bcd60e51b8152602060048201526024808201527f4552433732313a207472616e7366657220746f20746865207a65726f206164646044820152637265737360e01b60648201526084016108a2565b826001600160a01b0316611f9182610d70565b6001600160a01b031614611fb75760405162461bcd60e51b81526004016108a2906133db565b600081815260076020908152604080832080546001600160a01b03199081169091556001600160a01b0387811680865260068552838620805460001901905590871680865283862080546001019055868652600590945282852080549092168417909155905184937fddf252ad1be2c89b69c2b068fc378daa952ba7f163c4a11628f55a4df523b3ef91a4505050565b6120518282610f5b565b1561073e576000828152602081815260408083206001600160a01b0385168085529252808320805460ff1916905551339285917ff6391f5c32d9c69d2a47ea670b442974b53935d1edc7fd64eb21e047a839171b9190a45050565b6000610f54836001600160a01b0384166127b9565b6001600160a01b0382166121175760405162461bcd60e51b815260206004820181905260248201527f4552433732313a206d696e7420746f20746865207a65726f206164647265737360448201526064016108a2565b6000818152600560205260409020546001600160a01b03161561217c5760405162461bcd60e51b815260206004820152601c60248201527f4552433732313a20746f6b656e20616c7265616479206d696e7465640000000060448201526064016108a2565b6000818152600560205260409020546001600160a01b0316156121e15760405162461bcd60e51b815260206004820152601c60248201527f4552433732313a20746f6b656e20616c7265616479206d696e7465640000000060448201526064016108a2565b6001600160a01b038216600081815260066020908152604080832080546001019055848352600590915280822080546001600160a01b0319168417905551839291907fddf252ad1be2c89b69c2b068fc378daa952ba7f163c4a11628f55a4df523b3ef908290a45050565b600061225782610d70565b905061226282610d70565b600083815260076020908152604080832080546001600160a01b03199081169091556001600160a01b0385168085526006845282852080546000190190558785526005909352818420805490911690555192935084927fddf252ad1be2c89b69c2b068fc378daa952ba7f163c4a11628f55a4df523b3ef908390a45050565b60008260000182815481106122f8576122f861304a565b9060005260206000200154905092915050565b60006001600160a01b0384163b1561240157604051630a85bd0160e11b81526001600160a01b0385169063150b7a029061234f903390899088908890600401613420565b6020604051808303816000875af192505050801561238a575060408051601f3d908101601f191682019092526123879181019061345d565b60015b6123e7573d8080156123b8576040519150601f19603f3d011682016040523d82523d6000602084013e6123bd565b606091505b5080516000036123df5760405162461bcd60e51b81526004016108a290613314565b805181602001fd5b6001600160e01b031916630a85bd0160e11b149050611681565b506001949350505050565b816001600160a01b0316836001600160a01b03160361246d5760405162461bcd60e51b815260206004820152601960248201527f4552433732313a20617070726f766520746f2063616c6c65720000000000000060448201526064016108a2565b6001600160a01b03838116600081815260086020908152604080832094871680845294825291829020805460ff191686151590811790915591519182527f17307eab39ab6107e8899845ad3d59bd9653f200f220920489ca2b5937696c31910160405180910390a3505050565b60008072184f03e93ff9f4daa797ed6e38ed64bf6a1f0160401b83106125195772184f03e93ff9f4daa797ed6e38ed64bf6a1f0160401b830492506040015b6d04ee2d6d415b85acef81000000008310612545576d04ee2d6d415b85acef8100000000830492506020015b662386f26fc10000831061256357662386f26fc10000830492506010015b6305f5e100831061257b576305f5e100830492506008015b612710831061258f57612710830492506004015b606483106125a1576064830492506002015b600a831061074d5760010192915050565b60006001600160e01b031982166380ac58cd60e01b14806125e357506001600160e01b03198216635b5e139f60e01b145b8061074d575061074d826128ac565b606061074d6001600160a01b03831660145b60606000612613836002613133565b61261e9060026132b7565b6001600160401b0381111561263557612635612a36565b6040519080825280601f01601f19166020018201604052801561265f576020820181803683370190505b509050600360fc1b8160008151811061267a5761267a61304a565b60200101906001600160f81b031916908160001a905350600f60fb1b816001815181106126a9576126a961304a565b60200101906001600160f81b031916908160001a90535060006126cd846002613133565b6126d89060016132b7565b90505b6001811115612750576f181899199a1a9b1b9c1cb0b131b232b360811b85600f166010811061270c5761270c61304a565b1a60f81b8282815181106127225761272261304a565b60200101906001600160f81b031916908160001a90535060049490941c936127498161316c565b90506126db565b508315610f545760405162461bcd60e51b815260206004820181905260248201527f537472696e67733a20686578206c656e67746820696e73756666696369656e7460448201526064016108a2565b61073e828260405180602001604052806000815250611c45565b600081815260018301602052604081205480156128a25760006127dd60018361347a565b85549091506000906127f19060019061347a565b90508181146128565760008660000182815481106128115761281161304a565b90600052602060002001549050808760000184815481106128345761283461304a565b6000918252602080832090910192909255918252600188019052604090208390555b85548690806128675761286761348d565b60019003818190600052602060002001600090559055856001016000868152602001908152602001600020600090556001935050505061074d565b600091505061074d565b600061074d8260006001600160e01b03198216635a05180f60e01b148061074d575061074d8260006001600160e01b03198216637965db0b60e01b148061074d57506301ffc9a760e01b6001600160e01b031983161461074d565b60006020828403121561291957600080fd5b81356001600160401b0381111561292f57600080fd5b820160608185031215610f5457600080fd5b6001600160e01b031981168114610f2457600080fd5b60006020828403121561296957600080fd5b8135610f5481612941565b60005b8381101561298f578181015183820152602001612977565b50506000910152565b600081518084526129b0816020860160208601612974565b601f01601f19169290920160200192915050565b602081526000610f546020830184612998565b6000602082840312156129e957600080fd5b5035919050565b80356001600160a01b0381168114612a0757600080fd5b919050565b60008060408385031215612a1f57600080fd5b612a28836129f0565b946020939093013593505050565b634e487b7160e01b600052604160045260246000fd5b604080519081016001600160401b0381118282101715612a6e57612a6e612a36565b60405290565b604051601f8201601f191681016001600160401b0381118282101715612a9c57612a9c612a36565b604052919050565b60006001600160401b03821115612abd57612abd612a36565b5060051b60200190565b6000612ada612ad584612aa4565b612a74565b8381529050602080820190600585811b850187811115612af957600080fd5b855b81811015612bcc5780356001600160401b0380821115612b1b5760008081fd5b908801906040828c031215612b305760008081fd5b612b38612a4c565b612b41836129f0565b81528683013582811115612b555760008081fd5b8084019350508b601f840112612b6d57600091508182fd5b82359150612b7d612ad583612aa4565b82815291861b8301870191878101908d841115612b9a5760008081fd5b938801935b83851015612bb857843582529388019390880190612b9f565b828901525087525050938301938301612afb565b50505050509392505050565b600060208284031215612bea57600080fd5b81356001600160401b03811115612c0057600080fd5b8201601f81018413612c1157600080fd5b61168184823560208401612ac7565b600080600060608486031215612c3557600080fd5b612c3e846129f0565b9250612c4c602085016129f0565b9150604084013590509250925092565b60008060408385031215612c6f57600080fd5b50508035926020909101359150565b60008060408385031215612c9157600080fd5b82359150612ca1602084016129f0565b90509250929050565b6020808252825182820181905260009190848201906040850190845b81811015612ceb5783516001600160a01b031683529284019291840191600101612cc6565b50909695505050505050565b600060208284031215612d0957600080fd5b610f54826129f0565b80356001600160601b0381168114612a0757600080fd5b600080600060608486031215612d3e57600080fd5b83359250612d4e602085016129f0565b9150612d5c60408501612d12565b90509250925092565b60006001600160401b03831115612d7e57612d7e612a36565b612d91601f8401601f1916602001612a74565b9050828152838383011115612da557600080fd5b828260208301376000602084830101529392505050565b600060208284031215612dce57600080fd5b81356001600160401b03811115612de457600080fd5b8201601f81018413612df557600080fd5b61168184823560208401612d65565b60008060408385031215612e1757600080fd5b612e20836129f0565b9150612ca160208401612d12565b8015158114610f2457600080fd5b60008060408385031215612e4f57600080fd5b612e58836129f0565b91506020830135612e6881612e2e565b809150509250929050565b60008083601f840112612e8557600080fd5b5081356001600160401b03811115612e9c57600080fd5b6020830191508360208260051b8501011115610a9857600080fd5b60008060008060608587031215612ecd57600080fd5b84356001600160401b03811115612ee357600080fd5b612eef87828801612e73565b9095509350612f029050602086016129f0565b9150612f1060408601612d12565b905092959194509250565b60008060008060808587031215612f3157600080fd5b612f3a856129f0565b9350612f48602086016129f0565b92506040850135915060608501356001600160401b03811115612f6a57600080fd5b8501601f81018713612f7b57600080fd5b612f8a87823560208401612d65565b91505092959194509250565b60008060208385031215612fa957600080fd5b82356001600160401b03811115612fbf57600080fd5b612fcb85828601612e73565b90969095509350505050565b60008060408385031215612fea57600080fd5b612ff3836129f0565b9150612ca1602084016129f0565b6000808335601e1984360301811261301857600080fd5b8301803591506001600160401b0382111561303257600080fd5b6020019150600581901b3603821315610a9857600080fd5b634e487b7160e01b600052603260045260246000fd5b634e487b7160e01b600052601160045260246000fd5b60006001820161308857613088613060565b5060010190565b600181811c908216806130a357607f821691505b6020821081036130c357634e487b7160e01b600052602260045260246000fd5b50919050565b6000602082840312156130db57600080fd5b8151610f5481612e2e565b6020808252602d908201527f4552433732313a2063616c6c6572206973206e6f7420746f6b656e206f776e6560408201526c1c881bdc88185c1c1c9bdd9959609a1b606082015260800190565b808202811582820484141761074d5761074d613060565b60008261316757634e487b7160e01b600052601260045260246000fd5b500490565b60008161317b5761317b613060565b506000190190565b601f82111561096257600081815260208120601f850160051c810160208610156131aa5750805b601f850160051c820191505b81811015611237578281556001016131b6565b81516001600160401b038111156131e2576131e2612a36565b6131f6816131f0845461308f565b84613183565b602080601f83116001811461322b57600084156132135750858301515b600019600386901b1c1916600185901b178555611237565b600085815260208120601f198616915b8281101561325a5788860151825594840194600190910190840161323b565b50858210156132785787850151600019600388901b60f8161c191681555b5050505050600190811b01905550565b6000835161329a818460208801612974565b8351908301906132ae818360208801612974565b01949350505050565b8082018082111561074d5761074d613060565b6020808252602a908201527f455243323938313a20726f79616c7479206665652077696c6c206578636565646040820152692073616c65507269636560b01b606082015260800190565b60208082526032908201527f4552433732313a207472616e7366657220746f206e6f6e20455243373231526560408201527131b2b4bb32b91034b6b83632b6b2b73a32b960711b606082015260800190565b7f416363657373436f6e74726f6c3a206163636f756e742000000000000000000081526000835161339e816017850160208801612974565b7001034b99036b4b9b9b4b733903937b6329607d1b60179184019182015283516133cf816028840160208801612974565b01602801949350505050565b60208082526025908201527f4552433732313a207472616e736665722066726f6d20696e636f72726563742060408201526437bbb732b960d91b606082015260800190565b6001600160a01b038581168252841660208201526040810183905260806060820181905260009061345390830184612998565b9695505050505050565b60006020828403121561346f57600080fd5b8151610f5481612941565b8181038181111561074d5761074d613060565b634e487b7160e01b600052603160045260246000fdfea2646970667358221220b011c76f17319aab20d598a27be80ad3891d73e102d2a5a5fca6210f067ce45564736f6c63430008110033",
  "linkReferences": {},
  "deployedLinkReferences": {}
}